{
	"contracts/main.sol": {
		"Casino": {
			"abi": [
				{
					"anonymous": false,
					"inputs": [
						{
							"indexed": true,
							"internalType": "address",
							"name": "previousOwner",
							"type": "address"
						},
						{
							"indexed": true,
							"internalType": "address",
							"name": "newOwner",
							"type": "address"
						}
					],
					"name": "OwnershipTransferred",
					"type": "event"
				},
				{
					"inputs": [
						{
							"internalType": "address",
							"name": "",
							"type": "address"
						}
					],
					"name": "balances",
					"outputs": [
						{
							"internalType": "uint256",
							"name": "",
							"type": "uint256"
						}
					],
					"stateMutability": "view",
					"type": "function"
				},
				{
					"inputs": [],
					"name": "deposit",
					"outputs": [],
					"stateMutability": "payable",
					"type": "function"
				},
				{
					"inputs": [],
					"name": "getCasinoBalance",
					"outputs": [
						{
							"internalType": "uint256",
							"name": "",
							"type": "uint256"
						}
					],
					"stateMutability": "view",
					"type": "function"
				},
				{
					"inputs": [
						{
							"internalType": "address",
							"name": "_user",
							"type": "address"
						}
					],
					"name": "getUserBalance",
					"outputs": [
						{
							"internalType": "uint256",
							"name": "",
							"type": "uint256"
						}
					],
					"stateMutability": "view",
					"type": "function"
				},
				{
					"inputs": [],
					"name": "owner",
					"outputs": [
						{
							"internalType": "address",
							"name": "",
							"type": "address"
						}
					],
					"stateMutability": "view",
					"type": "function"
				},
				{
					"inputs": [],
					"name": "renounceOwnership",
					"outputs": [],
					"stateMutability": "nonpayable",
					"type": "function"
				},
				{
					"inputs": [
						{
							"internalType": "uint256[]",
							"name": "_guesses",
							"type": "uint256[]"
						},
						{
							"internalType": "uint256",
							"name": "_bet",
							"type": "uint256"
						}
					],
					"name": "rollDice",
					"outputs": [],
					"stateMutability": "view",
					"type": "function"
				},
				{
					"inputs": [
						{
							"internalType": "address",
							"name": "newOwner",
							"type": "address"
						}
					],
					"name": "transferOwnership",
					"outputs": [],
					"stateMutability": "nonpayable",
					"type": "function"
				},
				{
					"inputs": [
						{
							"internalType": "uint256",
							"name": "_amount",
							"type": "uint256"
						}
					],
					"name": "withdraw",
					"outputs": [],
					"stateMutability": "nonpayable",
					"type": "function"
				}
			],
			"devdoc": {
				"kind": "dev",
				"methods": {
					"owner()": {
						"details": "Returns the address of the current owner."
					},
					"renounceOwnership()": {
						"details": "Leaves the contract without owner. It will not be possible to call `onlyOwner` functions anymore. Can only be called by the current owner. NOTE: Renouncing ownership will leave the contract without an owner, thereby removing any functionality that is only available to the owner."
					},
					"transferOwnership(address)": {
						"details": "Transfers ownership of the contract to a new account (`newOwner`). Can only be called by the current owner."
					}
				},
				"version": 1
			},
			"evm": {
				"assembly": "    /* \"contracts/main.sol\":406:2095  contract Casino is Ownable {... */\n  mstore(0x40, 0x80)\n  callvalue\n  dup1\n  iszero\n  tag_1\n  jumpi\n  0x00\n  dup1\n  revert\ntag_1:\n  pop\n    /* \"@openzeppelin/contracts/access/Ownable.sol\":936:968  _transferOwnership(_msgSender()) */\n  tag_4\n    /* \"@openzeppelin/contracts/utils/Context.sol\":719:729  msg.sender */\n  caller\n    /* \"@openzeppelin/contracts/access/Ownable.sol\":936:954  _transferOwnership */\n  tag_7\n    /* \"@openzeppelin/contracts/access/Ownable.sol\":936:968  _transferOwnership(_msgSender()) */\n  jump\t// in\ntag_4:\n    /* \"contracts/main.sol\":406:2095  contract Casino is Ownable {... */\n  jump(tag_8)\n    /* \"@openzeppelin/contracts/access/Ownable.sol\":2433:2620  function _transferOwnership(address newOwner) internal virtual {... */\ntag_7:\n    /* \"@openzeppelin/contracts/access/Ownable.sol\":2506:2522  address oldOwner */\n  0x00\n    /* \"@openzeppelin/contracts/access/Ownable.sol\":2525:2531  _owner */\n  dup1\n  sload\n  sub(shl(0xa0, 0x01), 0x01)\n    /* \"@openzeppelin/contracts/access/Ownable.sol\":2541:2558  _owner = newOwner */\n  dup4\n  dup2\n  and\n  not(sub(shl(0xa0, 0x01), 0x01))\n  dup4\n  and\n  dup2\n  or\n  dup5\n  sstore\n    /* \"@openzeppelin/contracts/access/Ownable.sol\":2573:2613  OwnershipTransferred(oldOwner, newOwner) */\n  mload(0x40)\n    /* \"@openzeppelin/contracts/access/Ownable.sol\":2525:2531  _owner */\n  swap2\n  swap1\n  swap3\n  and\n  swap3\n  dup4\n  swap2\n    /* \"@openzeppelin/contracts/access/Ownable.sol\":2573:2613  OwnershipTransferred(oldOwner, newOwner) */\n  0x8be0079c531659141344cd1fd0a4f28419497f9722a3daafe3b4186f6b6457e0\n  swap2\n    /* \"@openzeppelin/contracts/access/Ownable.sol\":2506:2522  address oldOwner */\n  swap1\n    /* \"@openzeppelin/contracts/access/Ownable.sol\":2573:2613  OwnershipTransferred(oldOwner, newOwner) */\n  log3\n    /* \"@openzeppelin/contracts/access/Ownable.sol\":2496:2620  {... */\n  pop\n    /* \"@openzeppelin/contracts/access/Ownable.sol\":2433:2620  function _transferOwnership(address newOwner) internal virtual {... */\n  pop\n  jump\t// out\n    /* \"contracts/main.sol\":406:2095  contract Casino is Ownable {... */\ntag_8:\n  dataSize(sub_0)\n  dup1\n  dataOffset(sub_0)\n  0x00\n  codecopy\n  0x00\n  return\nstop\n\nsub_0: assembly {\n        /* \"contracts/main.sol\":406:2095  contract Casino is Ownable {... */\n      mstore(0x40, 0x80)\n      jumpi(tag_1, lt(calldatasize, 0x04))\n      shr(0xe0, calldataload(0x00))\n      dup1\n      0x715018a6\n      gt\n      tag_11\n      jumpi\n      dup1\n      0x715018a6\n      eq\n      tag_6\n      jumpi\n      dup1\n      0x8da5cb5b\n      eq\n      tag_7\n      jumpi\n      dup1\n      0xd0e30db0\n      eq\n      tag_8\n      jumpi\n      dup1\n      0xed7892f2\n      eq\n      tag_9\n      jumpi\n      dup1\n      0xf2fde38b\n      eq\n      tag_10\n      jumpi\n      0x00\n      dup1\n      revert\n    tag_11:\n      dup1\n      0x1a0843c0\n      eq\n      tag_2\n      jumpi\n      dup1\n      0x27e235e3\n      eq\n      tag_3\n      jumpi\n      dup1\n      0x2e1a7d4d\n      eq\n      tag_4\n      jumpi\n      dup1\n      0x47734892\n      eq\n      tag_5\n      jumpi\n    tag_1:\n      0x00\n      dup1\n      revert\n        /* \"contracts/main.sol\":913:1015  function getCasinoBalance() public view returns(uint256) {... */\n    tag_2:\n      callvalue\n      dup1\n      iszero\n      tag_12\n      jumpi\n      0x00\n      dup1\n      revert\n    tag_12:\n      pop\n        /* \"contracts/main.sol\":987:1008  address(this).balance */\n      selfbalance\n        /* \"contracts/main.sol\":913:1015  function getCasinoBalance() public view returns(uint256) {... */\n    tag_13:\n      mload(0x40)\n        /* \"#utility.yul\":160:185   */\n      swap1\n      dup2\n      mstore\n        /* \"#utility.yul\":148:150   */\n      0x20\n        /* \"#utility.yul\":133:151   */\n      add\n        /* \"contracts/main.sol\":913:1015  function getCasinoBalance() public view returns(uint256) {... */\n    tag_15:\n      mload(0x40)\n      dup1\n      swap2\n      sub\n      swap1\n      return\n        /* \"contracts/main.sol\":478:518  mapping(address=>uint256)public balances */\n    tag_3:\n      callvalue\n      dup1\n      iszero\n      tag_17\n      jumpi\n      0x00\n      dup1\n      revert\n    tag_17:\n      pop\n      tag_13\n      tag_19\n      calldatasize\n      0x04\n      tag_20\n      jump\t// in\n    tag_19:\n      mstore(0x20, 0x01)\n      0x00\n      swap1\n      dup2\n      mstore\n      0x40\n      swap1\n      keccak256\n      sload\n      dup2\n      jump\n        /* \"contracts/main.sol\":615:907  function withdraw(uint256 _amount) public {... */\n    tag_4:\n      callvalue\n      dup1\n      iszero\n      tag_23\n      jumpi\n      0x00\n      dup1\n      revert\n    tag_23:\n      pop\n      tag_24\n      tag_25\n      calldatasize\n      0x04\n      tag_26\n      jump\t// in\n    tag_25:\n      tag_27\n      jump\t// in\n    tag_24:\n      stop\n        /* \"contracts/main.sol\":1021:1129  function getUserBalance(address _user) public view returns (uint256) {... */\n    tag_5:\n      callvalue\n      dup1\n      iszero\n      tag_28\n      jumpi\n      0x00\n      dup1\n      revert\n    tag_28:\n      pop\n      tag_13\n      tag_30\n      calldatasize\n      0x04\n      tag_20\n      jump\t// in\n    tag_30:\n      sub(shl(0xa0, 0x01), 0x01)\n        /* \"contracts/main.sol\":1107:1122  balances[_user] */\n      and\n        /* \"contracts/main.sol\":1081:1088  uint256 */\n      0x00\n        /* \"contracts/main.sol\":1107:1122  balances[_user] */\n      swap1\n      dup2\n      mstore\n        /* \"contracts/main.sol\":1107:1115  balances */\n      0x01\n        /* \"contracts/main.sol\":1107:1122  balances[_user] */\n      0x20\n      mstore\n      0x40\n      swap1\n      keccak256\n      sload\n      swap1\n        /* \"contracts/main.sol\":1021:1129  function getUserBalance(address _user) public view returns (uint256) {... */\n      jump\n        /* \"@openzeppelin/contracts/access/Ownable.sol\":1831:1932  function renounceOwnership() public virtual onlyOwner {... */\n    tag_6:\n      callvalue\n      dup1\n      iszero\n      tag_33\n      jumpi\n      0x00\n      dup1\n      revert\n    tag_33:\n      pop\n      tag_24\n      tag_35\n      jump\t// in\n        /* \"@openzeppelin/contracts/access/Ownable.sol\":1201:1286  function owner() public view virtual returns (address) {... */\n    tag_7:\n      callvalue\n      dup1\n      iszero\n      tag_36\n      jumpi\n      0x00\n      dup1\n      revert\n    tag_36:\n      pop\n        /* \"@openzeppelin/contracts/access/Ownable.sol\":1247:1254  address */\n      0x00\n        /* \"@openzeppelin/contracts/access/Ownable.sol\":1273:1279  _owner */\n      sload\n        /* \"@openzeppelin/contracts/access/Ownable.sol\":1201:1286  function owner() public view virtual returns (address) {... */\n      mload(0x40)\n      sub(shl(0xa0, 0x01), 0x01)\n        /* \"@openzeppelin/contracts/access/Ownable.sol\":1273:1279  _owner */\n      swap1\n      swap2\n      and\n        /* \"#utility.yul\":818:869   */\n      dup2\n      mstore\n        /* \"#utility.yul\":806:808   */\n      0x20\n        /* \"#utility.yul\":791:809   */\n      add\n        /* \"@openzeppelin/contracts/access/Ownable.sol\":1201:1286  function owner() public view virtual returns (address) {... */\n      tag_15\n        /* \"#utility.yul\":672:875   */\n      jump\n        /* \"contracts/main.sol\":525:609  function deposit() public payable {... */\n    tag_8:\n      tag_24\n      tag_42\n      jump\t// in\n        /* \"contracts/main.sol\":1344:2090  function rollDice(uint256[] memory _guesses, uint256 _bet) public view {... */\n    tag_9:\n      callvalue\n      dup1\n      iszero\n      tag_43\n      jumpi\n      0x00\n      dup1\n      revert\n    tag_43:\n      pop\n      tag_24\n      tag_45\n      calldatasize\n      0x04\n      tag_46\n      jump\t// in\n    tag_45:\n      tag_47\n      jump\t// in\n        /* \"@openzeppelin/contracts/access/Ownable.sol\":2081:2279  function transferOwnership(address newOwner) public virtual onlyOwner {... */\n    tag_10:\n      callvalue\n      dup1\n      iszero\n      tag_48\n      jumpi\n      0x00\n      dup1\n      revert\n    tag_48:\n      pop\n      tag_24\n      tag_50\n      calldatasize\n      0x04\n      tag_20\n      jump\t// in\n    tag_50:\n      tag_51\n      jump\t// in\n        /* \"contracts/main.sol\":615:907  function withdraw(uint256 _amount) public {... */\n    tag_27:\n        /* \"contracts/main.sol\":684:694  msg.sender */\n      caller\n        /* \"contracts/main.sol\":675:695  balances[msg.sender] */\n      0x00\n      swap1\n      dup2\n      mstore\n        /* \"contracts/main.sol\":675:683  balances */\n      0x01\n        /* \"contracts/main.sol\":675:695  balances[msg.sender] */\n      0x20\n      mstore\n      0x40\n      swap1\n      keccak256\n      sload\n        /* \"contracts/main.sol\":675:706  balances[msg.sender] >= _amount */\n      dup2\n      gt\n      iszero\n        /* \"contracts/main.sol\":667:742  require(balances[msg.sender] >= _amount, \"Insufficient funds to withdraw!\") */\n      tag_54\n      jumpi\n      mload(0x40)\n      shl(0xe5, 0x461bcd)\n      dup2\n      mstore\n        /* \"#utility.yul\":2404:2406   */\n      0x20\n        /* \"contracts/main.sol\":667:742  require(balances[msg.sender] >= _amount, \"Insufficient funds to withdraw!\") */\n      0x04\n      dup3\n      add\n        /* \"#utility.yul\":2386:2407   */\n      mstore\n        /* \"#utility.yul\":2443:2445   */\n      0x1f\n        /* \"#utility.yul\":2423:2441   */\n      0x24\n      dup3\n      add\n        /* \"#utility.yul\":2416:2446   */\n      mstore\n        /* \"#utility.yul\":2482:2515   */\n      0x496e73756666696369656e742066756e647320746f2077697468647261772100\n        /* \"#utility.yul\":2462:2480   */\n      0x44\n      dup3\n      add\n        /* \"#utility.yul\":2455:2516   */\n      mstore\n        /* \"#utility.yul\":2533:2551   */\n      0x64\n      add\n        /* \"contracts/main.sol\":667:742  require(balances[msg.sender] >= _amount, \"Insufficient funds to withdraw!\") */\n    tag_55:\n      mload(0x40)\n      dup1\n      swap2\n      sub\n      swap1\n      revert\n    tag_54:\n        /* \"contracts/main.sol\":761:771  msg.sender */\n      caller\n        /* \"contracts/main.sol\":752:772  balances[msg.sender] */\n      0x00\n      swap1\n      dup2\n      mstore\n        /* \"contracts/main.sol\":752:760  balances */\n      0x01\n        /* \"contracts/main.sol\":752:772  balances[msg.sender] */\n      0x20\n      mstore\n      0x40\n      dup2\n      keccak256\n        /* \"contracts/main.sol\":752:783  balances[msg.sender] -= _amount */\n      dup1\n      sload\n        /* \"contracts/main.sol\":776:783  _amount */\n      dup4\n      swap3\n        /* \"contracts/main.sol\":752:772  balances[msg.sender] */\n      swap1\n        /* \"contracts/main.sol\":752:783  balances[msg.sender] -= _amount */\n      tag_57\n      swap1\n        /* \"contracts/main.sol\":776:783  _amount */\n      dup5\n      swap1\n        /* \"contracts/main.sol\":752:783  balances[msg.sender] -= _amount */\n      tag_58\n      jump\t// in\n    tag_57:\n      swap1\n      swap2\n      sstore\n      pop\n      pop\n        /* \"contracts/main.sol\":808:847  msg.sender.call{value: _amount}(\"sent\") */\n      mload(0x40)\n      shl(0xe2, 0x1cd95b9d)\n        /* \"#utility.yul\":3028:3047   */\n      dup2\n      mstore\n        /* \"contracts/main.sol\":794:803  bool sent */\n      0x00\n      swap1\n        /* \"contracts/main.sol\":808:818  msg.sender */\n      caller\n      swap1\n        /* \"contracts/main.sol\":831:838  _amount */\n      dup4\n      swap1\n        /* \"#utility.yul\":3072:3073   */\n      0x04\n        /* \"#utility.yul\":3063:3074   */\n      add\n        /* \"contracts/main.sol\":808:847  msg.sender.call{value: _amount}(\"sent\") */\n      0x00\n      mload(0x40)\n      dup1\n      dup4\n      sub\n      dup2\n      dup6\n      dup8\n      gas\n      call\n      swap3\n      pop\n      pop\n      pop\n      returndatasize\n      dup1\n      0x00\n      dup2\n      eq\n      tag_63\n      jumpi\n      mload(0x40)\n      swap2\n      pop\n      and(add(returndatasize, 0x3f), not(0x1f))\n      dup3\n      add\n      0x40\n      mstore\n      returndatasize\n      dup3\n      mstore\n      returndatasize\n      0x00\n      0x20\n      dup5\n      add\n      returndatacopy\n      jump(tag_62)\n    tag_63:\n      0x60\n      swap2\n      pop\n    tag_62:\n      pop\n        /* \"contracts/main.sol\":793:847  (bool sent,) = msg.sender.call{value: _amount}(\"sent\") */\n      pop\n      swap1\n      pop\n        /* \"contracts/main.sol\":865:869  sent */\n      dup1\n        /* \"contracts/main.sol\":857:900  require(sent, \"Failed to withdraw amount!\") */\n      tag_64\n      jumpi\n      mload(0x40)\n      shl(0xe5, 0x461bcd)\n      dup2\n      mstore\n        /* \"#utility.yul\":3287:3289   */\n      0x20\n        /* \"contracts/main.sol\":857:900  require(sent, \"Failed to withdraw amount!\") */\n      0x04\n      dup3\n      add\n        /* \"#utility.yul\":3269:3290   */\n      mstore\n        /* \"#utility.yul\":3326:3328   */\n      0x1a\n        /* \"#utility.yul\":3306:3324   */\n      0x24\n      dup3\n      add\n        /* \"#utility.yul\":3299:3329   */\n      mstore\n        /* \"#utility.yul\":3365:3393   */\n      0x4661696c656420746f20776974686472617720616d6f756e7421000000000000\n        /* \"#utility.yul\":3345:3363   */\n      0x44\n      dup3\n      add\n        /* \"#utility.yul\":3338:3394   */\n      mstore\n        /* \"#utility.yul\":3411:3429   */\n      0x64\n      add\n        /* \"contracts/main.sol\":857:900  require(sent, \"Failed to withdraw amount!\") */\n      tag_55\n        /* \"#utility.yul\":3085:3435   */\n      jump\n        /* \"contracts/main.sol\":857:900  require(sent, \"Failed to withdraw amount!\") */\n    tag_64:\n        /* \"contracts/main.sol\":657:907  {... */\n      pop\n        /* \"contracts/main.sol\":615:907  function withdraw(uint256 _amount) public {... */\n      pop\n      jump\t// out\n        /* \"@openzeppelin/contracts/access/Ownable.sol\":1831:1932  function renounceOwnership() public virtual onlyOwner {... */\n    tag_35:\n        /* \"@openzeppelin/contracts/access/Ownable.sol\":1094:1107  _checkOwner() */\n      tag_69\n        /* \"@openzeppelin/contracts/access/Ownable.sol\":1094:1105  _checkOwner */\n      tag_70\n        /* \"@openzeppelin/contracts/access/Ownable.sol\":1094:1107  _checkOwner() */\n      jump\t// in\n    tag_69:\n        /* \"@openzeppelin/contracts/access/Ownable.sol\":1895:1925  _transferOwnership(address(0)) */\n      tag_72\n        /* \"@openzeppelin/contracts/access/Ownable.sol\":1922:1923  0 */\n      0x00\n        /* \"@openzeppelin/contracts/access/Ownable.sol\":1895:1913  _transferOwnership */\n      tag_73\n        /* \"@openzeppelin/contracts/access/Ownable.sol\":1895:1925  _transferOwnership(address(0)) */\n      jump\t// in\n    tag_72:\n        /* \"@openzeppelin/contracts/access/Ownable.sol\":1831:1932  function renounceOwnership() public virtual onlyOwner {... */\n      jump\t// out\n        /* \"contracts/main.sol\":525:609  function deposit() public payable {... */\n    tag_42:\n        /* \"contracts/main.sol\":578:588  msg.sender */\n      caller\n        /* \"contracts/main.sol\":569:589  balances[msg.sender] */\n      0x00\n      swap1\n      dup2\n      mstore\n        /* \"contracts/main.sol\":569:577  balances */\n      0x01\n        /* \"contracts/main.sol\":569:589  balances[msg.sender] */\n      0x20\n      mstore\n      0x40\n      dup2\n      keccak256\n        /* \"contracts/main.sol\":569:602  balances[msg.sender] += msg.value */\n      dup1\n      sload\n        /* \"contracts/main.sol\":593:602  msg.value */\n      callvalue\n      swap3\n        /* \"contracts/main.sol\":569:589  balances[msg.sender] */\n      swap1\n        /* \"contracts/main.sol\":569:602  balances[msg.sender] += msg.value */\n      tag_76\n      swap1\n        /* \"contracts/main.sol\":593:602  msg.value */\n      dup5\n      swap1\n        /* \"contracts/main.sol\":569:602  balances[msg.sender] += msg.value */\n      tag_77\n      jump\t// in\n    tag_76:\n      swap1\n      swap2\n      sstore\n      pop\n      pop\n        /* \"contracts/main.sol\":525:609  function deposit() public payable {... */\n      jump\t// out\n        /* \"contracts/main.sol\":1344:2090  function rollDice(uint256[] memory _guesses, uint256 _bet) public view {... */\n    tag_47:\n        /* \"contracts/main.sol\":1512:1522  msg.sender */\n      caller\n        /* \"contracts/main.sol\":1503:1523  balances[msg.sender] */\n      0x00\n      swap1\n      dup2\n      mstore\n        /* \"contracts/main.sol\":1503:1511  balances */\n      0x01\n        /* \"contracts/main.sol\":1503:1523  balances[msg.sender] */\n      0x20\n      mstore\n      0x40\n      swap1\n      keccak256\n      sload\n        /* \"contracts/main.sol\":1495:1523  _bet <= balances[msg.sender] */\n      dup2\n      gt\n      iszero\n        /* \"contracts/main.sol\":1486:1555  require (_bet <= balances[msg.sender], \"Not enough Ether in account\") */\n      tag_79\n      jumpi\n      mload(0x40)\n      shl(0xe5, 0x461bcd)\n      dup2\n      mstore\n        /* \"#utility.yul\":3772:3774   */\n      0x20\n        /* \"contracts/main.sol\":1486:1555  require (_bet <= balances[msg.sender], \"Not enough Ether in account\") */\n      0x04\n      dup3\n      add\n        /* \"#utility.yul\":3754:3775   */\n      mstore\n        /* \"#utility.yul\":3811:3813   */\n      0x1b\n        /* \"#utility.yul\":3791:3809   */\n      0x24\n      dup3\n      add\n        /* \"#utility.yul\":3784:3814   */\n      mstore\n        /* \"#utility.yul\":3850:3879   */\n      0x4e6f7420656e6f75676820457468657220696e206163636f756e740000000000\n        /* \"#utility.yul\":3830:3848   */\n      0x44\n      dup3\n      add\n        /* \"#utility.yul\":3823:3880   */\n      mstore\n        /* \"#utility.yul\":3897:3915   */\n      0x64\n      add\n        /* \"contracts/main.sol\":1486:1555  require (_bet <= balances[msg.sender], \"Not enough Ether in account\") */\n      tag_55\n        /* \"#utility.yul\":3570:3921   */\n      jump\n        /* \"contracts/main.sol\":1486:1555  require (_bet <= balances[msg.sender], \"Not enough Ether in account\") */\n    tag_79:\n        /* \"contracts/main.sol\":1648:1649  3 */\n      0x03\n        /* \"contracts/main.sol\":1629:1637  _guesses */\n      dup3\n        /* \"contracts/main.sol\":1629:1644  _guesses.length */\n      mload\n        /* \"contracts/main.sol\":1629:1649  _guesses.length >= 3 */\n      lt\n      iszero\n        /* \"contracts/main.sol\":1620:1696  require (_guesses.length >= 3, \"Cannot guess more than 3 possible outcomes\") */\n      tag_82\n      jumpi\n      mload(0x40)\n      shl(0xe5, 0x461bcd)\n      dup2\n      mstore\n        /* \"#utility.yul\":4128:4130   */\n      0x20\n        /* \"contracts/main.sol\":1620:1696  require (_guesses.length >= 3, \"Cannot guess more than 3 possible outcomes\") */\n      0x04\n      dup3\n      add\n        /* \"#utility.yul\":4110:4131   */\n      mstore\n        /* \"#utility.yul\":4167:4169   */\n      0x2a\n        /* \"#utility.yul\":4147:4165   */\n      0x24\n      dup3\n      add\n        /* \"#utility.yul\":4140:4170   */\n      mstore\n        /* \"#utility.yul\":4206:4240   */\n      0x43616e6e6f74206775657373206d6f7265207468616e203320706f737369626c\n        /* \"#utility.yul\":4186:4204   */\n      0x44\n      dup3\n      add\n        /* \"#utility.yul\":4179:4241   */\n      mstore\n      shl(0xb0, 0x65206f7574636f6d6573)\n        /* \"#utility.yul\":4257:4275   */\n      0x64\n      dup3\n      add\n        /* \"#utility.yul\":4250:4290   */\n      mstore\n        /* \"#utility.yul\":4307:4326   */\n      0x84\n      add\n        /* \"contracts/main.sol\":1620:1696  require (_guesses.length >= 3, \"Cannot guess more than 3 possible outcomes\") */\n      tag_55\n        /* \"#utility.yul\":3926:4332   */\n      jump\n        /* \"contracts/main.sol\":1620:1696  require (_guesses.length >= 3, \"Cannot guess more than 3 possible outcomes\") */\n    tag_82:\n        /* \"contracts/main.sol\":1771:1778  uint8 i */\n      0x00\n        /* \"contracts/main.sol\":1766:1902  for (uint8 i = 0; i < _guesses.length; i++) {... */\n    tag_85:\n        /* \"contracts/main.sol\":1788:1796  _guesses */\n      dup3\n        /* \"contracts/main.sol\":1788:1803  _guesses.length */\n      mload\n        /* \"contracts/main.sol\":1784:1785  i */\n      dup2\n        /* \"contracts/main.sol\":1784:1803  i < _guesses.length */\n      0xff\n      and\n      lt\n        /* \"contracts/main.sol\":1766:1902  for (uint8 i = 0; i < _guesses.length; i++) {... */\n      iszero\n      tag_86\n      jumpi\n        /* \"contracts/main.sol\":1848:1849  6 */\n      0x06\n        /* \"contracts/main.sol\":1833:1841  _guesses */\n      dup4\n        /* \"contracts/main.sol\":1842:1843  i */\n      dup3\n        /* \"contracts/main.sol\":1833:1844  _guesses[i] */\n      0xff\n      and\n      dup2\n      mload\n      dup2\n      lt\n      tag_89\n      jumpi\n      tag_89\n      tag_90\n      jump\t// in\n    tag_89:\n      0x20\n      mul\n      0x20\n      add\n      add\n      mload\n        /* \"contracts/main.sol\":1833:1849  _guesses[i] <= 6 */\n      gt\n      iszero\n        /* \"contracts/main.sol\":1833:1869  _guesses[i] <= 6 && _guesses[i] >= 1 */\n      dup1\n      iszero\n      tag_91\n      jumpi\n      pop\n        /* \"contracts/main.sol\":1868:1869  1 */\n      0x01\n        /* \"contracts/main.sol\":1853:1861  _guesses */\n      dup4\n        /* \"contracts/main.sol\":1862:1863  i */\n      dup3\n        /* \"contracts/main.sol\":1853:1864  _guesses[i] */\n      0xff\n      and\n      dup2\n      mload\n      dup2\n      lt\n      tag_93\n      jumpi\n      tag_93\n      tag_90\n      jump\t// in\n    tag_93:\n      0x20\n      mul\n      0x20\n      add\n      add\n      mload\n        /* \"contracts/main.sol\":1853:1869  _guesses[i] >= 1 */\n      lt\n      iszero\n        /* \"contracts/main.sol\":1833:1869  _guesses[i] <= 6 && _guesses[i] >= 1 */\n    tag_91:\n        /* \"contracts/main.sol\":1824:1891  require (_guesses[i] <= 6 && _guesses[i] >= 1, \"Guess numbers 1-6\") */\n      tag_94\n      jumpi\n      mload(0x40)\n      shl(0xe5, 0x461bcd)\n      dup2\n      mstore\n        /* \"#utility.yul\":4671:4673   */\n      0x20\n        /* \"contracts/main.sol\":1824:1891  require (_guesses[i] <= 6 && _guesses[i] >= 1, \"Guess numbers 1-6\") */\n      0x04\n      dup3\n      add\n        /* \"#utility.yul\":4653:4674   */\n      mstore\n        /* \"#utility.yul\":4710:4712   */\n      0x11\n        /* \"#utility.yul\":4690:4708   */\n      0x24\n      dup3\n      add\n        /* \"#utility.yul\":4683:4713   */\n      mstore\n      shl(0x79, 0x23bab2b9b990373ab6b132b9399018969b)\n        /* \"#utility.yul\":4729:4747   */\n      0x44\n      dup3\n      add\n        /* \"#utility.yul\":4722:4769   */\n      mstore\n        /* \"#utility.yul\":4786:4804   */\n      0x64\n      add\n        /* \"contracts/main.sol\":1824:1891  require (_guesses[i] <= 6 && _guesses[i] >= 1, \"Guess numbers 1-6\") */\n      tag_55\n        /* \"#utility.yul\":4469:4810   */\n      jump\n        /* \"contracts/main.sol\":1824:1891  require (_guesses[i] <= 6 && _guesses[i] >= 1, \"Guess numbers 1-6\") */\n    tag_94:\n        /* \"contracts/main.sol\":1805:1808  i++ */\n      dup1\n      tag_97\n      dup2\n      tag_98\n      jump\t// in\n    tag_97:\n      swap2\n      pop\n      pop\n        /* \"contracts/main.sol\":1766:1902  for (uint8 i = 0; i < _guesses.length; i++) {... */\n      jump(tag_85)\n    tag_86:\n      pop\n        /* \"contracts/main.sol\":1911:1923  uint256 rand */\n      0x00\n        /* \"contracts/main.sol\":1945:1946  6 */\n      0x06\n        /* \"contracts/main.sol\":1926:1942  getRandomValue() */\n      tag_99\n        /* \"contracts/main.sol\":1926:1940  getRandomValue */\n      tag_100\n        /* \"contracts/main.sol\":1926:1942  getRandomValue() */\n      jump\t// in\n    tag_99:\n        /* \"contracts/main.sol\":1926:1946  getRandomValue() % 6 */\n      tag_101\n      swap2\n      swap1\n      tag_102\n      jump\t// in\n    tag_101:\n        /* \"contracts/main.sol\":1911:1946  uint256 rand = getRandomValue() % 6 */\n      swap1\n      pop\n        /* \"contracts/main.sol\":1957:1965  bool win */\n      0x00\n        /* \"contracts/main.sol\":1988:1995  uint8 i */\n      dup1\n        /* \"contracts/main.sol\":1983:2084  for (uint8 i = 0; i < _guesses.length; i++) {... */\n    tag_103:\n        /* \"contracts/main.sol\":2005:2013  _guesses */\n      dup5\n        /* \"contracts/main.sol\":2005:2020  _guesses.length */\n      mload\n        /* \"contracts/main.sol\":2001:2002  i */\n      dup2\n        /* \"contracts/main.sol\":2001:2020  i < _guesses.length */\n      0xff\n      and\n      lt\n        /* \"contracts/main.sol\":1983:2084  for (uint8 i = 0; i < _guesses.length; i++) {... */\n      iszero\n      tag_104\n      jumpi\n        /* \"contracts/main.sol\":2056:2060  rand */\n      dup3\n        /* \"contracts/main.sol\":2041:2049  _guesses */\n      dup6\n        /* \"contracts/main.sol\":2050:2051  i */\n      dup3\n        /* \"contracts/main.sol\":2041:2052  _guesses[i] */\n      0xff\n      and\n      dup2\n      mload\n      dup2\n      lt\n      tag_107\n      jumpi\n      tag_107\n      tag_90\n      jump\t// in\n    tag_107:\n      0x20\n      mul\n      0x20\n      add\n      add\n      mload\n        /* \"contracts/main.sol\":2041:2060  _guesses[i] == rand */\n      eq\n        /* \"contracts/main.sol\":2041:2073  _guesses[i] == rand ? win : !win */\n      tag_108\n      jumpi\n        /* \"contracts/main.sol\":2070:2073  win */\n      dup2\n        /* \"contracts/main.sol\":2069:2073  !win */\n      iszero\n        /* \"contracts/main.sol\":2041:2073  _guesses[i] == rand ? win : !win */\n      jump(tag_109)\n    tag_108:\n        /* \"contracts/main.sol\":2063:2066  win */\n      dup2\n        /* \"contracts/main.sol\":2041:2073  _guesses[i] == rand ? win : !win */\n    tag_109:\n      pop\n        /* \"contracts/main.sol\":2022:2025  i++ */\n      dup1\n      tag_110\n      dup2\n      tag_98\n      jump\t// in\n    tag_110:\n      swap2\n      pop\n      pop\n        /* \"contracts/main.sol\":1983:2084  for (uint8 i = 0; i < _guesses.length; i++) {... */\n      jump(tag_103)\n    tag_104:\n      pop\n        /* \"contracts/main.sol\":1415:2090  {... */\n      pop\n      pop\n        /* \"contracts/main.sol\":1344:2090  function rollDice(uint256[] memory _guesses, uint256 _bet) public view {... */\n      pop\n      pop\n      jump\t// out\n        /* \"@openzeppelin/contracts/access/Ownable.sol\":2081:2279  function transferOwnership(address newOwner) public virtual onlyOwner {... */\n    tag_51:\n        /* \"@openzeppelin/contracts/access/Ownable.sol\":1094:1107  _checkOwner() */\n      tag_112\n        /* \"@openzeppelin/contracts/access/Ownable.sol\":1094:1105  _checkOwner */\n      tag_70\n        /* \"@openzeppelin/contracts/access/Ownable.sol\":1094:1107  _checkOwner() */\n      jump\t// in\n    tag_112:\n      sub(shl(0xa0, 0x01), 0x01)\n        /* \"@openzeppelin/contracts/access/Ownable.sol\":2169:2191  newOwner != address(0) */\n      dup2\n      and\n        /* \"@openzeppelin/contracts/access/Ownable.sol\":2161:2234  require(newOwner != address(0), \"Ownable: new owner is the zero address\") */\n      tag_114\n      jumpi\n      mload(0x40)\n      shl(0xe5, 0x461bcd)\n      dup2\n      mstore\n        /* \"#utility.yul\":5411:5413   */\n      0x20\n        /* \"@openzeppelin/contracts/access/Ownable.sol\":2161:2234  require(newOwner != address(0), \"Ownable: new owner is the zero address\") */\n      0x04\n      dup3\n      add\n        /* \"#utility.yul\":5393:5414   */\n      mstore\n        /* \"#utility.yul\":5450:5452   */\n      0x26\n        /* \"#utility.yul\":5430:5448   */\n      0x24\n      dup3\n      add\n        /* \"#utility.yul\":5423:5453   */\n      mstore\n        /* \"#utility.yul\":5489:5523   */\n      0x4f776e61626c653a206e6577206f776e657220697320746865207a65726f2061\n        /* \"#utility.yul\":5469:5487   */\n      0x44\n      dup3\n      add\n        /* \"#utility.yul\":5462:5524   */\n      mstore\n      shl(0xd0, 0x646472657373)\n        /* \"#utility.yul\":5540:5558   */\n      0x64\n      dup3\n      add\n        /* \"#utility.yul\":5533:5569   */\n      mstore\n        /* \"#utility.yul\":5586:5605   */\n      0x84\n      add\n        /* \"@openzeppelin/contracts/access/Ownable.sol\":2161:2234  require(newOwner != address(0), \"Ownable: new owner is the zero address\") */\n      tag_55\n        /* \"#utility.yul\":5209:5611   */\n      jump\n        /* \"@openzeppelin/contracts/access/Ownable.sol\":2161:2234  require(newOwner != address(0), \"Ownable: new owner is the zero address\") */\n    tag_114:\n        /* \"@openzeppelin/contracts/access/Ownable.sol\":2244:2272  _transferOwnership(newOwner) */\n      tag_117\n        /* \"@openzeppelin/contracts/access/Ownable.sol\":2263:2271  newOwner */\n      dup2\n        /* \"@openzeppelin/contracts/access/Ownable.sol\":2244:2262  _transferOwnership */\n      tag_73\n        /* \"@openzeppelin/contracts/access/Ownable.sol\":2244:2272  _transferOwnership(newOwner) */\n      jump\t// in\n    tag_117:\n        /* \"@openzeppelin/contracts/access/Ownable.sol\":2081:2279  function transferOwnership(address newOwner) public virtual onlyOwner {... */\n      pop\n      jump\t// out\n        /* \"@openzeppelin/contracts/access/Ownable.sol\":1359:1489  function _checkOwner() internal view virtual {... */\n    tag_70:\n        /* \"@openzeppelin/contracts/access/Ownable.sol\":1247:1254  address */\n      0x00\n        /* \"@openzeppelin/contracts/access/Ownable.sol\":1273:1279  _owner */\n      sload\n      sub(shl(0xa0, 0x01), 0x01)\n      and\n        /* \"@openzeppelin/contracts/utils/Context.sol\":719:729  msg.sender */\n      caller\n        /* \"@openzeppelin/contracts/access/Ownable.sol\":1422:1445  owner() == _msgSender() */\n      eq\n        /* \"@openzeppelin/contracts/access/Ownable.sol\":1414:1482  require(owner() == _msgSender(), \"Ownable: caller is not the owner\") */\n      tag_72\n      jumpi\n      mload(0x40)\n      shl(0xe5, 0x461bcd)\n      dup2\n      mstore\n        /* \"#utility.yul\":5818:5820   */\n      0x20\n        /* \"@openzeppelin/contracts/access/Ownable.sol\":1414:1482  require(owner() == _msgSender(), \"Ownable: caller is not the owner\") */\n      0x04\n      dup3\n      add\n        /* \"#utility.yul\":5800:5821   */\n      dup2\n      swap1\n      mstore\n        /* \"#utility.yul\":5837:5855   */\n      0x24\n      dup3\n      add\n        /* \"#utility.yul\":5830:5860   */\n      mstore\n        /* \"#utility.yul\":5896:5930   */\n      0x4f776e61626c653a2063616c6c6572206973206e6f7420746865206f776e6572\n        /* \"#utility.yul\":5876:5894   */\n      0x44\n      dup3\n      add\n        /* \"#utility.yul\":5869:5931   */\n      mstore\n        /* \"#utility.yul\":5948:5966   */\n      0x64\n      add\n        /* \"@openzeppelin/contracts/access/Ownable.sol\":1414:1482  require(owner() == _msgSender(), \"Ownable: caller is not the owner\") */\n      tag_55\n        /* \"#utility.yul\":5616:5972   */\n      jump\n        /* \"@openzeppelin/contracts/access/Ownable.sol\":2433:2620  function _transferOwnership(address newOwner) internal virtual {... */\n    tag_73:\n        /* \"@openzeppelin/contracts/access/Ownable.sol\":2506:2522  address oldOwner */\n      0x00\n        /* \"@openzeppelin/contracts/access/Ownable.sol\":2525:2531  _owner */\n      dup1\n      sload\n      sub(shl(0xa0, 0x01), 0x01)\n        /* \"@openzeppelin/contracts/access/Ownable.sol\":2541:2558  _owner = newOwner */\n      dup4\n      dup2\n      and\n      not(sub(shl(0xa0, 0x01), 0x01))\n      dup4\n      and\n      dup2\n      or\n      dup5\n      sstore\n        /* \"@openzeppelin/contracts/access/Ownable.sol\":2573:2613  OwnershipTransferred(oldOwner, newOwner) */\n      mload(0x40)\n        /* \"@openzeppelin/contracts/access/Ownable.sol\":2525:2531  _owner */\n      swap2\n      swap1\n      swap3\n      and\n      swap3\n      dup4\n      swap2\n        /* \"@openzeppelin/contracts/access/Ownable.sol\":2573:2613  OwnershipTransferred(oldOwner, newOwner) */\n      0x8be0079c531659141344cd1fd0a4f28419497f9722a3daafe3b4186f6b6457e0\n      swap2\n        /* \"@openzeppelin/contracts/access/Ownable.sol\":2506:2522  address oldOwner */\n      swap1\n        /* \"@openzeppelin/contracts/access/Ownable.sol\":2573:2613  OwnershipTransferred(oldOwner, newOwner) */\n      log3\n        /* \"@openzeppelin/contracts/access/Ownable.sol\":2496:2620  {... */\n      pop\n        /* \"@openzeppelin/contracts/access/Ownable.sol\":2433:2620  function _transferOwnership(address newOwner) internal virtual {... */\n      pop\n      jump\t// out\n        /* \"contracts/main.sol\":1200:1338  function getRandomValue() private view returns(uint) {... */\n    tag_100:\n        /* \"contracts/main.sol\":1247:1251  uint */\n      0x00\n        /* \"contracts/main.sol\":1299:1314  block.timestamp */\n      timestamp\n        /* \"contracts/main.sol\":1316:1328  block.number */\n      number\n        /* \"contracts/main.sol\":1288:1329  abi.encode(block.timestamp, block.number) */\n      add(0x20, mload(0x40))\n      tag_127\n      swap3\n      swap2\n      swap1\n        /* \"#utility.yul\":6151:6176   */\n      swap2\n      dup3\n      mstore\n        /* \"#utility.yul\":6207:6209   */\n      0x20\n        /* \"#utility.yul\":6192:6210   */\n      dup3\n      add\n        /* \"#utility.yul\":6185:6219   */\n      mstore\n        /* \"#utility.yul\":6139:6141   */\n      0x40\n        /* \"#utility.yul\":6124:6142   */\n      add\n      swap1\n        /* \"#utility.yul\":5977:6225   */\n      jump\n        /* \"contracts/main.sol\":1288:1329  abi.encode(block.timestamp, block.number) */\n    tag_127:\n      mload(0x40)\n      0x20\n      dup2\n      dup4\n      sub\n      sub\n      dup2\n      mstore\n      swap1\n      0x40\n      mstore\n        /* \"contracts/main.sol\":1278:1330  keccak256(abi.encode(block.timestamp, block.number)) */\n      dup1\n      mload\n      swap1\n      0x20\n      add\n      keccak256\n        /* \"contracts/main.sol\":1270:1331  uint256(keccak256(abi.encode(block.timestamp, block.number))) */\n      0x00\n      shr\n        /* \"contracts/main.sol\":1263:1331  return uint256(keccak256(abi.encode(block.timestamp, block.number))) */\n      swap1\n      pop\n        /* \"contracts/main.sol\":1200:1338  function getRandomValue() private view returns(uint) {... */\n      swap1\n      jump\t// out\n        /* \"#utility.yul\":196:482   */\n    tag_20:\n        /* \"#utility.yul\":255:261   */\n      0x00\n        /* \"#utility.yul\":308:310   */\n      0x20\n        /* \"#utility.yul\":296:305   */\n      dup3\n        /* \"#utility.yul\":287:294   */\n      dup5\n        /* \"#utility.yul\":283:306   */\n      sub\n        /* \"#utility.yul\":279:311   */\n      slt\n        /* \"#utility.yul\":276:328   */\n      iszero\n      tag_135\n      jumpi\n        /* \"#utility.yul\":324:325   */\n      0x00\n        /* \"#utility.yul\":321:322   */\n      dup1\n        /* \"#utility.yul\":314:326   */\n      revert\n        /* \"#utility.yul\":276:328   */\n    tag_135:\n        /* \"#utility.yul\":350:373   */\n      dup2\n      calldataload\n      sub(shl(0xa0, 0x01), 0x01)\n        /* \"#utility.yul\":402:433   */\n      dup2\n      and\n        /* \"#utility.yul\":392:434   */\n      dup2\n      eq\n        /* \"#utility.yul\":382:452   */\n      tag_136\n      jumpi\n        /* \"#utility.yul\":448:449   */\n      0x00\n        /* \"#utility.yul\":445:446   */\n      dup1\n        /* \"#utility.yul\":438:450   */\n      revert\n        /* \"#utility.yul\":382:452   */\n    tag_136:\n        /* \"#utility.yul\":471:476   */\n      swap4\n        /* \"#utility.yul\":196:482   */\n      swap3\n      pop\n      pop\n      pop\n      jump\t// out\n        /* \"#utility.yul\":487:667   */\n    tag_26:\n        /* \"#utility.yul\":546:552   */\n      0x00\n        /* \"#utility.yul\":599:601   */\n      0x20\n        /* \"#utility.yul\":587:596   */\n      dup3\n        /* \"#utility.yul\":578:585   */\n      dup5\n        /* \"#utility.yul\":574:597   */\n      sub\n        /* \"#utility.yul\":570:602   */\n      slt\n        /* \"#utility.yul\":567:619   */\n      iszero\n      tag_138\n      jumpi\n        /* \"#utility.yul\":615:616   */\n      0x00\n        /* \"#utility.yul\":612:613   */\n      dup1\n        /* \"#utility.yul\":605:617   */\n      revert\n        /* \"#utility.yul\":567:619   */\n    tag_138:\n      pop\n        /* \"#utility.yul\":638:661   */\n      calldataload\n      swap2\n        /* \"#utility.yul\":487:667   */\n      swap1\n      pop\n      jump\t// out\n        /* \"#utility.yul\":880:1007   */\n    tag_130:\n        /* \"#utility.yul\":941:951   */\n      0x4e487b71\n        /* \"#utility.yul\":936:939   */\n      0xe0\n        /* \"#utility.yul\":932:952   */\n      shl\n        /* \"#utility.yul\":929:930   */\n      0x00\n        /* \"#utility.yul\":922:953   */\n      mstore\n        /* \"#utility.yul\":972:976   */\n      0x41\n        /* \"#utility.yul\":969:970   */\n      0x04\n        /* \"#utility.yul\":962:977   */\n      mstore\n        /* \"#utility.yul\":996:1000   */\n      0x24\n        /* \"#utility.yul\":993:994   */\n      0x00\n        /* \"#utility.yul\":986:1001   */\n      revert\n        /* \"#utility.yul\":1012:2197   */\n    tag_46:\n        /* \"#utility.yul\":1105:1111   */\n      0x00\n        /* \"#utility.yul\":1113:1119   */\n      dup1\n        /* \"#utility.yul\":1166:1168   */\n      0x40\n        /* \"#utility.yul\":1154:1163   */\n      dup4\n        /* \"#utility.yul\":1145:1152   */\n      dup6\n        /* \"#utility.yul\":1141:1164   */\n      sub\n        /* \"#utility.yul\":1137:1169   */\n      slt\n        /* \"#utility.yul\":1134:1186   */\n      iszero\n      tag_142\n      jumpi\n        /* \"#utility.yul\":1182:1183   */\n      0x00\n        /* \"#utility.yul\":1179:1180   */\n      dup1\n        /* \"#utility.yul\":1172:1184   */\n      revert\n        /* \"#utility.yul\":1134:1186   */\n    tag_142:\n        /* \"#utility.yul\":1222:1231   */\n      dup3\n        /* \"#utility.yul\":1209:1232   */\n      calldataload\n        /* \"#utility.yul\":1251:1269   */\n      0xffffffffffffffff\n        /* \"#utility.yul\":1292:1294   */\n      dup1\n        /* \"#utility.yul\":1284:1290   */\n      dup3\n        /* \"#utility.yul\":1281:1295   */\n      gt\n        /* \"#utility.yul\":1278:1312   */\n      iszero\n      tag_143\n      jumpi\n        /* \"#utility.yul\":1308:1309   */\n      0x00\n        /* \"#utility.yul\":1305:1306   */\n      dup1\n        /* \"#utility.yul\":1298:1310   */\n      revert\n        /* \"#utility.yul\":1278:1312   */\n    tag_143:\n        /* \"#utility.yul\":1346:1352   */\n      dup2\n        /* \"#utility.yul\":1335:1344   */\n      dup6\n        /* \"#utility.yul\":1331:1353   */\n      add\n        /* \"#utility.yul\":1321:1353   */\n      swap2\n      pop\n        /* \"#utility.yul\":1391:1398   */\n      dup6\n        /* \"#utility.yul\":1384:1388   */\n      0x1f\n        /* \"#utility.yul\":1380:1382   */\n      dup4\n        /* \"#utility.yul\":1376:1389   */\n      add\n        /* \"#utility.yul\":1372:1399   */\n      slt\n        /* \"#utility.yul\":1362:1417   */\n      tag_144\n      jumpi\n        /* \"#utility.yul\":1413:1414   */\n      0x00\n        /* \"#utility.yul\":1410:1411   */\n      dup1\n        /* \"#utility.yul\":1403:1415   */\n      revert\n        /* \"#utility.yul\":1362:1417   */\n    tag_144:\n        /* \"#utility.yul\":1449:1451   */\n      dup2\n        /* \"#utility.yul\":1436:1452   */\n      calldataload\n        /* \"#utility.yul\":1471:1475   */\n      0x20\n        /* \"#utility.yul\":1494:1496   */\n      dup3\n        /* \"#utility.yul\":1490:1492   */\n      dup3\n        /* \"#utility.yul\":1487:1497   */\n      gt\n        /* \"#utility.yul\":1484:1520   */\n      iszero\n      tag_146\n      jumpi\n        /* \"#utility.yul\":1500:1518   */\n      tag_146\n      tag_130\n      jump\t// in\n    tag_146:\n        /* \"#utility.yul\":1546:1548   */\n      dup2\n        /* \"#utility.yul\":1543:1544   */\n      0x05\n        /* \"#utility.yul\":1539:1549   */\n      shl\n        /* \"#utility.yul\":1578:1580   */\n      0x40\n        /* \"#utility.yul\":1572:1581   */\n      mload\n        /* \"#utility.yul\":1641:1643   */\n      0x1f\n        /* \"#utility.yul\":1637:1644   */\n      not\n        /* \"#utility.yul\":1632:1634   */\n      0x3f\n        /* \"#utility.yul\":1628:1630   */\n      dup4\n        /* \"#utility.yul\":1624:1635   */\n      add\n        /* \"#utility.yul\":1620:1645   */\n      and\n        /* \"#utility.yul\":1612:1618   */\n      dup2\n        /* \"#utility.yul\":1608:1646   */\n      add\n        /* \"#utility.yul\":1696:1702   */\n      dup2\n        /* \"#utility.yul\":1684:1694   */\n      dup2\n        /* \"#utility.yul\":1681:1703   */\n      lt\n        /* \"#utility.yul\":1676:1678   */\n      dup7\n        /* \"#utility.yul\":1664:1674   */\n      dup3\n        /* \"#utility.yul\":1661:1679   */\n      gt\n        /* \"#utility.yul\":1658:1704   */\n      or\n        /* \"#utility.yul\":1655:1727   */\n      iszero\n      tag_148\n      jumpi\n        /* \"#utility.yul\":1707:1725   */\n      tag_148\n      tag_130\n      jump\t// in\n    tag_148:\n        /* \"#utility.yul\":1743:1745   */\n      0x40\n        /* \"#utility.yul\":1736:1758   */\n      mstore\n        /* \"#utility.yul\":1793:1811   */\n      swap3\n      dup4\n      mstore\n        /* \"#utility.yul\":1827:1842   */\n      dup2\n      dup4\n      add\n      swap4\n      pop\n        /* \"#utility.yul\":1869:1880   */\n      dup5\n      dup2\n      add\n        /* \"#utility.yul\":1865:1885   */\n      dup3\n      add\n      swap3\n        /* \"#utility.yul\":1897:1916   */\n      dup10\n      dup5\n      gt\n        /* \"#utility.yul\":1894:1933   */\n      iszero\n      tag_149\n      jumpi\n        /* \"#utility.yul\":1929:1930   */\n      0x00\n        /* \"#utility.yul\":1926:1927   */\n      dup1\n        /* \"#utility.yul\":1919:1931   */\n      revert\n        /* \"#utility.yul\":1894:1933   */\n    tag_149:\n        /* \"#utility.yul\":1953:1964   */\n      swap5\n      dup3\n      add\n      swap5\n        /* \"#utility.yul\":1973:2115   */\n    tag_150:\n        /* \"#utility.yul\":1989:1995   */\n      dup4\n        /* \"#utility.yul\":1984:1987   */\n      dup7\n        /* \"#utility.yul\":1981:1996   */\n      lt\n        /* \"#utility.yul\":1973:2115   */\n      iszero\n      tag_152\n      jumpi\n        /* \"#utility.yul\":2055:2072   */\n      dup6\n      calldataload\n        /* \"#utility.yul\":2043:2073   */\n      dup6\n      mstore\n        /* \"#utility.yul\":2006:2018   */\n      swap5\n      dup3\n      add\n      swap5\n        /* \"#utility.yul\":2093:2105   */\n      swap4\n      dup3\n      add\n      swap4\n        /* \"#utility.yul\":1973:2115   */\n      jump(tag_150)\n    tag_152:\n        /* \"#utility.yul\":2134:2140   */\n      swap10\n        /* \"#utility.yul\":2172:2190   */\n      swap8\n      swap1\n      swap2\n      add\n        /* \"#utility.yul\":2159:2191   */\n      calldataload\n      swap8\n      pop\n      pop\n      pop\n      pop\n      pop\n      pop\n      pop\n        /* \"#utility.yul\":1012:2197   */\n      jump\t// out\n        /* \"#utility.yul\":2562:2689   */\n    tag_131:\n        /* \"#utility.yul\":2623:2633   */\n      0x4e487b71\n        /* \"#utility.yul\":2618:2621   */\n      0xe0\n        /* \"#utility.yul\":2614:2634   */\n      shl\n        /* \"#utility.yul\":2611:2612   */\n      0x00\n        /* \"#utility.yul\":2604:2635   */\n      mstore\n        /* \"#utility.yul\":2654:2658   */\n      0x11\n        /* \"#utility.yul\":2651:2652   */\n      0x04\n        /* \"#utility.yul\":2644:2659   */\n      mstore\n        /* \"#utility.yul\":2678:2682   */\n      0x24\n        /* \"#utility.yul\":2675:2676   */\n      0x00\n        /* \"#utility.yul\":2668:2683   */\n      revert\n        /* \"#utility.yul\":2694:2822   */\n    tag_58:\n        /* \"#utility.yul\":2761:2770   */\n      dup2\n      dup2\n      sub\n        /* \"#utility.yul\":2782:2793   */\n      dup2\n      dup2\n      gt\n        /* \"#utility.yul\":2779:2816   */\n      iszero\n      tag_157\n      jumpi\n        /* \"#utility.yul\":2796:2814   */\n      tag_157\n      tag_131\n      jump\t// in\n    tag_157:\n        /* \"#utility.yul\":2694:2822   */\n      swap3\n      swap2\n      pop\n      pop\n      jump\t// out\n        /* \"#utility.yul\":3440:3565   */\n    tag_77:\n        /* \"#utility.yul\":3505:3514   */\n      dup1\n      dup3\n      add\n        /* \"#utility.yul\":3526:3536   */\n      dup1\n      dup3\n      gt\n        /* \"#utility.yul\":3523:3559   */\n      iszero\n      tag_157\n      jumpi\n        /* \"#utility.yul\":3539:3557   */\n      tag_157\n      tag_131\n      jump\t// in\n        /* \"#utility.yul\":4337:4464   */\n    tag_90:\n        /* \"#utility.yul\":4398:4408   */\n      0x4e487b71\n        /* \"#utility.yul\":4393:4396   */\n      0xe0\n        /* \"#utility.yul\":4389:4409   */\n      shl\n        /* \"#utility.yul\":4386:4387   */\n      0x00\n        /* \"#utility.yul\":4379:4410   */\n      mstore\n        /* \"#utility.yul\":4429:4433   */\n      0x32\n        /* \"#utility.yul\":4426:4427   */\n      0x04\n        /* \"#utility.yul\":4419:4434   */\n      mstore\n        /* \"#utility.yul\":4453:4457   */\n      0x24\n        /* \"#utility.yul\":4450:4451   */\n      0x00\n        /* \"#utility.yul\":4443:4458   */\n      revert\n        /* \"#utility.yul\":4815:4990   */\n    tag_98:\n        /* \"#utility.yul\":4852:4855   */\n      0x00\n        /* \"#utility.yul\":4896:4900   */\n      0xff\n        /* \"#utility.yul\":4889:4894   */\n      dup3\n        /* \"#utility.yul\":4885:4901   */\n      and\n        /* \"#utility.yul\":4925:4929   */\n      0xff\n        /* \"#utility.yul\":4916:4923   */\n      dup2\n        /* \"#utility.yul\":4913:4930   */\n      sub\n        /* \"#utility.yul\":4910:4953   */\n      tag_169\n      jumpi\n        /* \"#utility.yul\":4933:4951   */\n      tag_169\n      tag_131\n      jump\t// in\n    tag_169:\n        /* \"#utility.yul\":4982:4983   */\n      0x01\n        /* \"#utility.yul\":4969:4984   */\n      add\n      swap3\n        /* \"#utility.yul\":4815:4990   */\n      swap2\n      pop\n      pop\n      jump\t// out\n        /* \"#utility.yul\":4995:5204   */\n    tag_102:\n        /* \"#utility.yul\":5027:5028   */\n      0x00\n        /* \"#utility.yul\":5053:5054   */\n      dup3\n        /* \"#utility.yul\":5043:5175   */\n      tag_171\n      jumpi\n        /* \"#utility.yul\":5097:5107   */\n      0x4e487b71\n        /* \"#utility.yul\":5092:5095   */\n      0xe0\n        /* \"#utility.yul\":5088:5108   */\n      shl\n        /* \"#utility.yul\":5085:5086   */\n      0x00\n        /* \"#utility.yul\":5078:5109   */\n      mstore\n        /* \"#utility.yul\":5132:5136   */\n      0x12\n        /* \"#utility.yul\":5129:5130   */\n      0x04\n        /* \"#utility.yul\":5122:5137   */\n      mstore\n        /* \"#utility.yul\":5160:5164   */\n      0x24\n        /* \"#utility.yul\":5157:5158   */\n      0x00\n        /* \"#utility.yul\":5150:5165   */\n      revert\n        /* \"#utility.yul\":5043:5175   */\n    tag_171:\n      pop\n        /* \"#utility.yul\":5189:5198   */\n      mod\n      swap1\n        /* \"#utility.yul\":4995:5204   */\n      jump\t// out\n\n    auxdata: 0xa264697066735822122099c925c5afd9f24b6d2594be1855ced9b0bff0daad52c295bf8e60ebf7c06bea64736f6c63430008100033\n}\n",
				"bytecode": {
					"linkReferences": {},
					"object": "608060405234801561001057600080fd5b5061001a3361001f565b61006f565b600080546001600160a01b038381166001600160a01b0319831681178455604051919092169283917f8be0079c531659141344cd1fd0a4f28419497f9722a3daafe3b4186f6b6457e09190a35050565b6108568061007e6000396000f3fe6080604052600436106100865760003560e01c8063715018a611610059578063715018a6146101325780638da5cb5b14610147578063d0e30db01461016f578063ed7892f214610177578063f2fde38b1461019757600080fd5b80631a0843c01461008b57806327e235e3146100ad5780632e1a7d4d146100da57806347734892146100fc575b600080fd5b34801561009757600080fd5b50475b6040519081526020015b60405180910390f35b3480156100b957600080fd5b5061009a6100c8366004610664565b60016020526000908152604090205481565b3480156100e657600080fd5b506100fa6100f5366004610694565b6101b7565b005b34801561010857600080fd5b5061009a610117366004610664565b6001600160a01b031660009081526001602052604090205490565b34801561013e57600080fd5b506100fa6102ed565b34801561015357600080fd5b506000546040516001600160a01b0390911681526020016100a4565b6100fa610301565b34801561018357600080fd5b506100fa6101923660046106c3565b610327565b3480156101a357600080fd5b506100fa6101b2366004610664565b610505565b3360009081526001602052604090205481111561021b5760405162461bcd60e51b815260206004820152601f60248201527f496e73756666696369656e742066756e647320746f207769746864726177210060448201526064015b60405180910390fd5b336000908152600160205260408120805483929061023a90849061079d565b9091555050604051631cd95b9d60e21b81526000903390839060040160006040518083038185875af1925050503d8060008114610293576040519150601f19603f3d011682016040523d82523d6000602084013e610298565b606091505b50509050806102e95760405162461bcd60e51b815260206004820152601a60248201527f4661696c656420746f20776974686472617720616d6f756e74210000000000006044820152606401610212565b5050565b6102f561057e565b6102ff60006105d8565b565b33600090815260016020526040812080543492906103209084906107b6565b9091555050565b336000908152600160205260409020548111156103865760405162461bcd60e51b815260206004820152601b60248201527f4e6f7420656e6f75676820457468657220696e206163636f756e7400000000006044820152606401610212565b6003825110156103eb5760405162461bcd60e51b815260206004820152602a60248201527f43616e6e6f74206775657373206d6f7265207468616e203320706f737369626c60448201526965206f7574636f6d657360b01b6064820152608401610212565b60005b82518160ff161015610496576006838260ff1681518110610411576104116107c9565b60200260200101511115801561044457506001838260ff1681518110610439576104396107c9565b602002602001015110155b6104845760405162461bcd60e51b815260206004820152601160248201527023bab2b9b990373ab6b132b9399018969b60791b6044820152606401610212565b8061048e816107df565b9150506103ee565b50600060066104a3610628565b6104ad91906107fe565b90506000805b84518160ff1610156104fe5782858260ff16815181106104d5576104d56107c9565b6020026020010151146104e95781156104eb565b815b50806104f6816107df565b9150506104b3565b5050505050565b61050d61057e565b6001600160a01b0381166105725760405162461bcd60e51b815260206004820152602660248201527f4f776e61626c653a206e6577206f776e657220697320746865207a65726f206160448201526564647265737360d01b6064820152608401610212565b61057b816105d8565b50565b6000546001600160a01b031633146102ff5760405162461bcd60e51b815260206004820181905260248201527f4f776e61626c653a2063616c6c6572206973206e6f7420746865206f776e65726044820152606401610212565b600080546001600160a01b038381166001600160a01b0319831681178455604051919092169283917f8be0079c531659141344cd1fd0a4f28419497f9722a3daafe3b4186f6b6457e09190a35050565b60004243604051602001610646929190918252602082015260400190565b6040516020818303038152906040528051906020012060001c905090565b60006020828403121561067657600080fd5b81356001600160a01b038116811461068d57600080fd5b9392505050565b6000602082840312156106a657600080fd5b5035919050565b634e487b7160e01b600052604160045260246000fd5b600080604083850312156106d657600080fd5b823567ffffffffffffffff808211156106ee57600080fd5b818501915085601f83011261070257600080fd5b8135602082821115610716576107166106ad565b8160051b604051601f19603f8301168101818110868211171561073b5761073b6106ad565b60405292835281830193508481018201928984111561075957600080fd5b948201945b838610156107775785358552948201949382019361075e565b9997909101359750505050505050565b634e487b7160e01b600052601160045260246000fd5b818103818111156107b0576107b0610787565b92915050565b808201808211156107b0576107b0610787565b634e487b7160e01b600052603260045260246000fd5b600060ff821660ff81036107f5576107f5610787565b60010192915050565b60008261081b57634e487b7160e01b600052601260045260246000fd5b50069056fea264697066735822122099c925c5afd9f24b6d2594be1855ced9b0bff0daad52c295bf8e60ebf7c06bea64736f6c63430008100033",
					"opcodes": "PUSH1 0x80 PUSH1 0x40 MSTORE CALLVALUE DUP1 ISZERO PUSH2 0x10 JUMPI PUSH1 0x0 DUP1 REVERT JUMPDEST POP PUSH2 0x1A CALLER PUSH2 0x1F JUMP JUMPDEST PUSH2 0x6F JUMP JUMPDEST PUSH1 0x0 DUP1 SLOAD PUSH1 0x1 PUSH1 0x1 PUSH1 0xA0 SHL SUB DUP4 DUP2 AND PUSH1 0x1 PUSH1 0x1 PUSH1 0xA0 SHL SUB NOT DUP4 AND DUP2 OR DUP5 SSTORE PUSH1 0x40 MLOAD SWAP2 SWAP1 SWAP3 AND SWAP3 DUP4 SWAP2 PUSH32 0x8BE0079C531659141344CD1FD0A4F28419497F9722A3DAAFE3B4186F6B6457E0 SWAP2 SWAP1 LOG3 POP POP JUMP JUMPDEST PUSH2 0x856 DUP1 PUSH2 0x7E PUSH1 0x0 CODECOPY PUSH1 0x0 RETURN INVALID PUSH1 0x80 PUSH1 0x40 MSTORE PUSH1 0x4 CALLDATASIZE LT PUSH2 0x86 JUMPI PUSH1 0x0 CALLDATALOAD PUSH1 0xE0 SHR DUP1 PUSH4 0x715018A6 GT PUSH2 0x59 JUMPI DUP1 PUSH4 0x715018A6 EQ PUSH2 0x132 JUMPI DUP1 PUSH4 0x8DA5CB5B EQ PUSH2 0x147 JUMPI DUP1 PUSH4 0xD0E30DB0 EQ PUSH2 0x16F JUMPI DUP1 PUSH4 0xED7892F2 EQ PUSH2 0x177 JUMPI DUP1 PUSH4 0xF2FDE38B EQ PUSH2 0x197 JUMPI PUSH1 0x0 DUP1 REVERT JUMPDEST DUP1 PUSH4 0x1A0843C0 EQ PUSH2 0x8B JUMPI DUP1 PUSH4 0x27E235E3 EQ PUSH2 0xAD JUMPI DUP1 PUSH4 0x2E1A7D4D EQ PUSH2 0xDA JUMPI DUP1 PUSH4 0x47734892 EQ PUSH2 0xFC JUMPI JUMPDEST PUSH1 0x0 DUP1 REVERT JUMPDEST CALLVALUE DUP1 ISZERO PUSH2 0x97 JUMPI PUSH1 0x0 DUP1 REVERT JUMPDEST POP SELFBALANCE JUMPDEST PUSH1 0x40 MLOAD SWAP1 DUP2 MSTORE PUSH1 0x20 ADD JUMPDEST PUSH1 0x40 MLOAD DUP1 SWAP2 SUB SWAP1 RETURN JUMPDEST CALLVALUE DUP1 ISZERO PUSH2 0xB9 JUMPI PUSH1 0x0 DUP1 REVERT JUMPDEST POP PUSH2 0x9A PUSH2 0xC8 CALLDATASIZE PUSH1 0x4 PUSH2 0x664 JUMP JUMPDEST PUSH1 0x1 PUSH1 0x20 MSTORE PUSH1 0x0 SWAP1 DUP2 MSTORE PUSH1 0x40 SWAP1 KECCAK256 SLOAD DUP2 JUMP JUMPDEST CALLVALUE DUP1 ISZERO PUSH2 0xE6 JUMPI PUSH1 0x0 DUP1 REVERT JUMPDEST POP PUSH2 0xFA PUSH2 0xF5 CALLDATASIZE PUSH1 0x4 PUSH2 0x694 JUMP JUMPDEST PUSH2 0x1B7 JUMP JUMPDEST STOP JUMPDEST CALLVALUE DUP1 ISZERO PUSH2 0x108 JUMPI PUSH1 0x0 DUP1 REVERT JUMPDEST POP PUSH2 0x9A PUSH2 0x117 CALLDATASIZE PUSH1 0x4 PUSH2 0x664 JUMP JUMPDEST PUSH1 0x1 PUSH1 0x1 PUSH1 0xA0 SHL SUB AND PUSH1 0x0 SWAP1 DUP2 MSTORE PUSH1 0x1 PUSH1 0x20 MSTORE PUSH1 0x40 SWAP1 KECCAK256 SLOAD SWAP1 JUMP JUMPDEST CALLVALUE DUP1 ISZERO PUSH2 0x13E JUMPI PUSH1 0x0 DUP1 REVERT JUMPDEST POP PUSH2 0xFA PUSH2 0x2ED JUMP JUMPDEST CALLVALUE DUP1 ISZERO PUSH2 0x153 JUMPI PUSH1 0x0 DUP1 REVERT JUMPDEST POP PUSH1 0x0 SLOAD PUSH1 0x40 MLOAD PUSH1 0x1 PUSH1 0x1 PUSH1 0xA0 SHL SUB SWAP1 SWAP2 AND DUP2 MSTORE PUSH1 0x20 ADD PUSH2 0xA4 JUMP JUMPDEST PUSH2 0xFA PUSH2 0x301 JUMP JUMPDEST CALLVALUE DUP1 ISZERO PUSH2 0x183 JUMPI PUSH1 0x0 DUP1 REVERT JUMPDEST POP PUSH2 0xFA PUSH2 0x192 CALLDATASIZE PUSH1 0x4 PUSH2 0x6C3 JUMP JUMPDEST PUSH2 0x327 JUMP JUMPDEST CALLVALUE DUP1 ISZERO PUSH2 0x1A3 JUMPI PUSH1 0x0 DUP1 REVERT JUMPDEST POP PUSH2 0xFA PUSH2 0x1B2 CALLDATASIZE PUSH1 0x4 PUSH2 0x664 JUMP JUMPDEST PUSH2 0x505 JUMP JUMPDEST CALLER PUSH1 0x0 SWAP1 DUP2 MSTORE PUSH1 0x1 PUSH1 0x20 MSTORE PUSH1 0x40 SWAP1 KECCAK256 SLOAD DUP2 GT ISZERO PUSH2 0x21B JUMPI PUSH1 0x40 MLOAD PUSH3 0x461BCD PUSH1 0xE5 SHL DUP2 MSTORE PUSH1 0x20 PUSH1 0x4 DUP3 ADD MSTORE PUSH1 0x1F PUSH1 0x24 DUP3 ADD MSTORE PUSH32 0x496E73756666696369656E742066756E647320746F2077697468647261772100 PUSH1 0x44 DUP3 ADD MSTORE PUSH1 0x64 ADD JUMPDEST PUSH1 0x40 MLOAD DUP1 SWAP2 SUB SWAP1 REVERT JUMPDEST CALLER PUSH1 0x0 SWAP1 DUP2 MSTORE PUSH1 0x1 PUSH1 0x20 MSTORE PUSH1 0x40 DUP2 KECCAK256 DUP1 SLOAD DUP4 SWAP3 SWAP1 PUSH2 0x23A SWAP1 DUP5 SWAP1 PUSH2 0x79D JUMP JUMPDEST SWAP1 SWAP2 SSTORE POP POP PUSH1 0x40 MLOAD PUSH4 0x1CD95B9D PUSH1 0xE2 SHL DUP2 MSTORE PUSH1 0x0 SWAP1 CALLER SWAP1 DUP4 SWAP1 PUSH1 0x4 ADD PUSH1 0x0 PUSH1 0x40 MLOAD DUP1 DUP4 SUB DUP2 DUP6 DUP8 GAS CALL SWAP3 POP POP POP RETURNDATASIZE DUP1 PUSH1 0x0 DUP2 EQ PUSH2 0x293 JUMPI PUSH1 0x40 MLOAD SWAP2 POP PUSH1 0x1F NOT PUSH1 0x3F RETURNDATASIZE ADD AND DUP3 ADD PUSH1 0x40 MSTORE RETURNDATASIZE DUP3 MSTORE RETURNDATASIZE PUSH1 0x0 PUSH1 0x20 DUP5 ADD RETURNDATACOPY PUSH2 0x298 JUMP JUMPDEST PUSH1 0x60 SWAP2 POP JUMPDEST POP POP SWAP1 POP DUP1 PUSH2 0x2E9 JUMPI PUSH1 0x40 MLOAD PUSH3 0x461BCD PUSH1 0xE5 SHL DUP2 MSTORE PUSH1 0x20 PUSH1 0x4 DUP3 ADD MSTORE PUSH1 0x1A PUSH1 0x24 DUP3 ADD MSTORE PUSH32 0x4661696C656420746F20776974686472617720616D6F756E7421000000000000 PUSH1 0x44 DUP3 ADD MSTORE PUSH1 0x64 ADD PUSH2 0x212 JUMP JUMPDEST POP POP JUMP JUMPDEST PUSH2 0x2F5 PUSH2 0x57E JUMP JUMPDEST PUSH2 0x2FF PUSH1 0x0 PUSH2 0x5D8 JUMP JUMPDEST JUMP JUMPDEST CALLER PUSH1 0x0 SWAP1 DUP2 MSTORE PUSH1 0x1 PUSH1 0x20 MSTORE PUSH1 0x40 DUP2 KECCAK256 DUP1 SLOAD CALLVALUE SWAP3 SWAP1 PUSH2 0x320 SWAP1 DUP5 SWAP1 PUSH2 0x7B6 JUMP JUMPDEST SWAP1 SWAP2 SSTORE POP POP JUMP JUMPDEST CALLER PUSH1 0x0 SWAP1 DUP2 MSTORE PUSH1 0x1 PUSH1 0x20 MSTORE PUSH1 0x40 SWAP1 KECCAK256 SLOAD DUP2 GT ISZERO PUSH2 0x386 JUMPI PUSH1 0x40 MLOAD PUSH3 0x461BCD PUSH1 0xE5 SHL DUP2 MSTORE PUSH1 0x20 PUSH1 0x4 DUP3 ADD MSTORE PUSH1 0x1B PUSH1 0x24 DUP3 ADD MSTORE PUSH32 0x4E6F7420656E6F75676820457468657220696E206163636F756E740000000000 PUSH1 0x44 DUP3 ADD MSTORE PUSH1 0x64 ADD PUSH2 0x212 JUMP JUMPDEST PUSH1 0x3 DUP3 MLOAD LT ISZERO PUSH2 0x3EB JUMPI PUSH1 0x40 MLOAD PUSH3 0x461BCD PUSH1 0xE5 SHL DUP2 MSTORE PUSH1 0x20 PUSH1 0x4 DUP3 ADD MSTORE PUSH1 0x2A PUSH1 0x24 DUP3 ADD MSTORE PUSH32 0x43616E6E6F74206775657373206D6F7265207468616E203320706F737369626C PUSH1 0x44 DUP3 ADD MSTORE PUSH10 0x65206F7574636F6D6573 PUSH1 0xB0 SHL PUSH1 0x64 DUP3 ADD MSTORE PUSH1 0x84 ADD PUSH2 0x212 JUMP JUMPDEST PUSH1 0x0 JUMPDEST DUP3 MLOAD DUP2 PUSH1 0xFF AND LT ISZERO PUSH2 0x496 JUMPI PUSH1 0x6 DUP4 DUP3 PUSH1 0xFF AND DUP2 MLOAD DUP2 LT PUSH2 0x411 JUMPI PUSH2 0x411 PUSH2 0x7C9 JUMP JUMPDEST PUSH1 0x20 MUL PUSH1 0x20 ADD ADD MLOAD GT ISZERO DUP1 ISZERO PUSH2 0x444 JUMPI POP PUSH1 0x1 DUP4 DUP3 PUSH1 0xFF AND DUP2 MLOAD DUP2 LT PUSH2 0x439 JUMPI PUSH2 0x439 PUSH2 0x7C9 JUMP JUMPDEST PUSH1 0x20 MUL PUSH1 0x20 ADD ADD MLOAD LT ISZERO JUMPDEST PUSH2 0x484 JUMPI PUSH1 0x40 MLOAD PUSH3 0x461BCD PUSH1 0xE5 SHL DUP2 MSTORE PUSH1 0x20 PUSH1 0x4 DUP3 ADD MSTORE PUSH1 0x11 PUSH1 0x24 DUP3 ADD MSTORE PUSH17 0x23BAB2B9B990373AB6B132B9399018969B PUSH1 0x79 SHL PUSH1 0x44 DUP3 ADD MSTORE PUSH1 0x64 ADD PUSH2 0x212 JUMP JUMPDEST DUP1 PUSH2 0x48E DUP2 PUSH2 0x7DF JUMP JUMPDEST SWAP2 POP POP PUSH2 0x3EE JUMP JUMPDEST POP PUSH1 0x0 PUSH1 0x6 PUSH2 0x4A3 PUSH2 0x628 JUMP JUMPDEST PUSH2 0x4AD SWAP2 SWAP1 PUSH2 0x7FE JUMP JUMPDEST SWAP1 POP PUSH1 0x0 DUP1 JUMPDEST DUP5 MLOAD DUP2 PUSH1 0xFF AND LT ISZERO PUSH2 0x4FE JUMPI DUP3 DUP6 DUP3 PUSH1 0xFF AND DUP2 MLOAD DUP2 LT PUSH2 0x4D5 JUMPI PUSH2 0x4D5 PUSH2 0x7C9 JUMP JUMPDEST PUSH1 0x20 MUL PUSH1 0x20 ADD ADD MLOAD EQ PUSH2 0x4E9 JUMPI DUP2 ISZERO PUSH2 0x4EB JUMP JUMPDEST DUP2 JUMPDEST POP DUP1 PUSH2 0x4F6 DUP2 PUSH2 0x7DF JUMP JUMPDEST SWAP2 POP POP PUSH2 0x4B3 JUMP JUMPDEST POP POP POP POP POP JUMP JUMPDEST PUSH2 0x50D PUSH2 0x57E JUMP JUMPDEST PUSH1 0x1 PUSH1 0x1 PUSH1 0xA0 SHL SUB DUP2 AND PUSH2 0x572 JUMPI PUSH1 0x40 MLOAD PUSH3 0x461BCD PUSH1 0xE5 SHL DUP2 MSTORE PUSH1 0x20 PUSH1 0x4 DUP3 ADD MSTORE PUSH1 0x26 PUSH1 0x24 DUP3 ADD MSTORE PUSH32 0x4F776E61626C653A206E6577206F776E657220697320746865207A65726F2061 PUSH1 0x44 DUP3 ADD MSTORE PUSH6 0x646472657373 PUSH1 0xD0 SHL PUSH1 0x64 DUP3 ADD MSTORE PUSH1 0x84 ADD PUSH2 0x212 JUMP JUMPDEST PUSH2 0x57B DUP2 PUSH2 0x5D8 JUMP JUMPDEST POP JUMP JUMPDEST PUSH1 0x0 SLOAD PUSH1 0x1 PUSH1 0x1 PUSH1 0xA0 SHL SUB AND CALLER EQ PUSH2 0x2FF JUMPI PUSH1 0x40 MLOAD PUSH3 0x461BCD PUSH1 0xE5 SHL DUP2 MSTORE PUSH1 0x20 PUSH1 0x4 DUP3 ADD DUP2 SWAP1 MSTORE PUSH1 0x24 DUP3 ADD MSTORE PUSH32 0x4F776E61626C653A2063616C6C6572206973206E6F7420746865206F776E6572 PUSH1 0x44 DUP3 ADD MSTORE PUSH1 0x64 ADD PUSH2 0x212 JUMP JUMPDEST PUSH1 0x0 DUP1 SLOAD PUSH1 0x1 PUSH1 0x1 PUSH1 0xA0 SHL SUB DUP4 DUP2 AND PUSH1 0x1 PUSH1 0x1 PUSH1 0xA0 SHL SUB NOT DUP4 AND DUP2 OR DUP5 SSTORE PUSH1 0x40 MLOAD SWAP2 SWAP1 SWAP3 AND SWAP3 DUP4 SWAP2 PUSH32 0x8BE0079C531659141344CD1FD0A4F28419497F9722A3DAAFE3B4186F6B6457E0 SWAP2 SWAP1 LOG3 POP POP JUMP JUMPDEST PUSH1 0x0 TIMESTAMP NUMBER PUSH1 0x40 MLOAD PUSH1 0x20 ADD PUSH2 0x646 SWAP3 SWAP2 SWAP1 SWAP2 DUP3 MSTORE PUSH1 0x20 DUP3 ADD MSTORE PUSH1 0x40 ADD SWAP1 JUMP JUMPDEST PUSH1 0x40 MLOAD PUSH1 0x20 DUP2 DUP4 SUB SUB DUP2 MSTORE SWAP1 PUSH1 0x40 MSTORE DUP1 MLOAD SWAP1 PUSH1 0x20 ADD KECCAK256 PUSH1 0x0 SHR SWAP1 POP SWAP1 JUMP JUMPDEST PUSH1 0x0 PUSH1 0x20 DUP3 DUP5 SUB SLT ISZERO PUSH2 0x676 JUMPI PUSH1 0x0 DUP1 REVERT JUMPDEST DUP2 CALLDATALOAD PUSH1 0x1 PUSH1 0x1 PUSH1 0xA0 SHL SUB DUP2 AND DUP2 EQ PUSH2 0x68D JUMPI PUSH1 0x0 DUP1 REVERT JUMPDEST SWAP4 SWAP3 POP POP POP JUMP JUMPDEST PUSH1 0x0 PUSH1 0x20 DUP3 DUP5 SUB SLT ISZERO PUSH2 0x6A6 JUMPI PUSH1 0x0 DUP1 REVERT JUMPDEST POP CALLDATALOAD SWAP2 SWAP1 POP JUMP JUMPDEST PUSH4 0x4E487B71 PUSH1 0xE0 SHL PUSH1 0x0 MSTORE PUSH1 0x41 PUSH1 0x4 MSTORE PUSH1 0x24 PUSH1 0x0 REVERT JUMPDEST PUSH1 0x0 DUP1 PUSH1 0x40 DUP4 DUP6 SUB SLT ISZERO PUSH2 0x6D6 JUMPI PUSH1 0x0 DUP1 REVERT JUMPDEST DUP3 CALLDATALOAD PUSH8 0xFFFFFFFFFFFFFFFF DUP1 DUP3 GT ISZERO PUSH2 0x6EE JUMPI PUSH1 0x0 DUP1 REVERT JUMPDEST DUP2 DUP6 ADD SWAP2 POP DUP6 PUSH1 0x1F DUP4 ADD SLT PUSH2 0x702 JUMPI PUSH1 0x0 DUP1 REVERT JUMPDEST DUP2 CALLDATALOAD PUSH1 0x20 DUP3 DUP3 GT ISZERO PUSH2 0x716 JUMPI PUSH2 0x716 PUSH2 0x6AD JUMP JUMPDEST DUP2 PUSH1 0x5 SHL PUSH1 0x40 MLOAD PUSH1 0x1F NOT PUSH1 0x3F DUP4 ADD AND DUP2 ADD DUP2 DUP2 LT DUP7 DUP3 GT OR ISZERO PUSH2 0x73B JUMPI PUSH2 0x73B PUSH2 0x6AD JUMP JUMPDEST PUSH1 0x40 MSTORE SWAP3 DUP4 MSTORE DUP2 DUP4 ADD SWAP4 POP DUP5 DUP2 ADD DUP3 ADD SWAP3 DUP10 DUP5 GT ISZERO PUSH2 0x759 JUMPI PUSH1 0x0 DUP1 REVERT JUMPDEST SWAP5 DUP3 ADD SWAP5 JUMPDEST DUP4 DUP7 LT ISZERO PUSH2 0x777 JUMPI DUP6 CALLDATALOAD DUP6 MSTORE SWAP5 DUP3 ADD SWAP5 SWAP4 DUP3 ADD SWAP4 PUSH2 0x75E JUMP JUMPDEST SWAP10 SWAP8 SWAP1 SWAP2 ADD CALLDATALOAD SWAP8 POP POP POP POP POP POP POP JUMP JUMPDEST PUSH4 0x4E487B71 PUSH1 0xE0 SHL PUSH1 0x0 MSTORE PUSH1 0x11 PUSH1 0x4 MSTORE PUSH1 0x24 PUSH1 0x0 REVERT JUMPDEST DUP2 DUP2 SUB DUP2 DUP2 GT ISZERO PUSH2 0x7B0 JUMPI PUSH2 0x7B0 PUSH2 0x787 JUMP JUMPDEST SWAP3 SWAP2 POP POP JUMP JUMPDEST DUP1 DUP3 ADD DUP1 DUP3 GT ISZERO PUSH2 0x7B0 JUMPI PUSH2 0x7B0 PUSH2 0x787 JUMP JUMPDEST PUSH4 0x4E487B71 PUSH1 0xE0 SHL PUSH1 0x0 MSTORE PUSH1 0x32 PUSH1 0x4 MSTORE PUSH1 0x24 PUSH1 0x0 REVERT JUMPDEST PUSH1 0x0 PUSH1 0xFF DUP3 AND PUSH1 0xFF DUP2 SUB PUSH2 0x7F5 JUMPI PUSH2 0x7F5 PUSH2 0x787 JUMP JUMPDEST PUSH1 0x1 ADD SWAP3 SWAP2 POP POP JUMP JUMPDEST PUSH1 0x0 DUP3 PUSH2 0x81B JUMPI PUSH4 0x4E487B71 PUSH1 0xE0 SHL PUSH1 0x0 MSTORE PUSH1 0x12 PUSH1 0x4 MSTORE PUSH1 0x24 PUSH1 0x0 REVERT JUMPDEST POP MOD SWAP1 JUMP INVALID LOG2 PUSH5 0x6970667358 0x22 SLT KECCAK256 SWAP10 0xC9 0x25 0xC5 0xAF 0xD9 CALLCODE 0x4B PUSH14 0x2594BE1855CED9B0BFF0DAAD52C2 SWAP6 0xBF DUP15 PUSH1 0xEB 0xF7 0xC0 PUSH12 0xEA64736F6C63430008100033 "
				},
				"gasEstimates": {
					"creation": {
						"codeDepositCost": "426800",
						"executionCost": "26302",
						"totalCost": "453102"
					},
					"external": {
						"balances(address)": "2496",
						"deposit()": "24534",
						"getCasinoBalance()": "173",
						"getUserBalance(address)": "2558",
						"owner()": "2323",
						"renounceOwnership()": "infinite",
						"rollDice(uint256[],uint256)": "infinite",
						"transferOwnership(address)": "28386",
						"withdraw(uint256)": "infinite"
					},
					"internal": {
						"getRandomValue()": "infinite"
					}
				},
				"methodIdentifiers": {
					"balances(address)": "27e235e3",
					"deposit()": "d0e30db0",
					"getCasinoBalance()": "1a0843c0",
					"getUserBalance(address)": "47734892",
					"owner()": "8da5cb5b",
					"renounceOwnership()": "715018a6",
					"rollDice(uint256[],uint256)": "ed7892f2",
					"transferOwnership(address)": "f2fde38b",
					"withdraw(uint256)": "2e1a7d4d"
				}
			},
			"storageLayout": {
				"storage": [
					{
						"astId": 7,
						"contract": "contracts/main.sol:Casino",
						"label": "_owner",
						"offset": 0,
						"slot": "0",
						"type": "t_address"
					},
					{
						"astId": 143,
						"contract": "contracts/main.sol:Casino",
						"label": "balances",
						"offset": 0,
						"slot": "1",
						"type": "t_mapping(t_address,t_uint256)"
					}
				],
				"types": {
					"t_address": {
						"encoding": "inplace",
						"label": "address",
						"numberOfBytes": "20"
					},
					"t_mapping(t_address,t_uint256)": {
						"encoding": "mapping",
						"key": "t_address",
						"label": "mapping(address => uint256)",
						"numberOfBytes": "32",
						"value": "t_uint256"
					},
					"t_uint256": {
						"encoding": "inplace",
						"label": "uint256",
						"numberOfBytes": "32"
					}
				}
			},
			"userdoc": {
				"kind": "user",
				"methods": {},
				"version": 1
			}
		}
	}
}