{
	"contracts/main.sol": {
		"Casino": {
			"abi": [
				{
					"anonymous": false,
					"inputs": [
						{
							"indexed": true,
							"internalType": "address",
							"name": "previousOwner",
							"type": "address"
						},
						{
							"indexed": true,
							"internalType": "address",
							"name": "newOwner",
							"type": "address"
						}
					],
					"name": "OwnershipTransferred",
					"type": "event"
				},
				{
					"inputs": [
						{
							"internalType": "address",
							"name": "",
							"type": "address"
						}
					],
					"name": "balances",
					"outputs": [
						{
							"internalType": "uint256",
							"name": "",
							"type": "uint256"
						}
					],
					"stateMutability": "view",
					"type": "function"
				},
				{
					"inputs": [],
					"name": "deposit",
					"outputs": [],
					"stateMutability": "payable",
					"type": "function"
				},
				{
					"inputs": [],
					"name": "drawLottery",
					"outputs": [],
					"stateMutability": "nonpayable",
					"type": "function"
				},
				{
					"inputs": [],
					"name": "enterLottery",
					"outputs": [],
					"stateMutability": "nonpayable",
					"type": "function"
				},
				{
					"inputs": [],
					"name": "getCasinoBalance",
					"outputs": [
						{
							"internalType": "uint256",
							"name": "",
							"type": "uint256"
						}
					],
					"stateMutability": "view",
					"type": "function"
				},
				{
					"inputs": [
						{
							"internalType": "address",
							"name": "_user",
							"type": "address"
						}
					],
					"name": "getUserBalance",
					"outputs": [
						{
							"internalType": "uint256",
							"name": "",
							"type": "uint256"
						}
					],
					"stateMutability": "view",
					"type": "function"
				},
				{
					"inputs": [
						{
							"internalType": "uint256",
							"name": "",
							"type": "uint256"
						}
					],
					"name": "lotteryEntries",
					"outputs": [
						{
							"internalType": "address",
							"name": "",
							"type": "address"
						}
					],
					"stateMutability": "view",
					"type": "function"
				},
				{
					"inputs": [],
					"name": "owner",
					"outputs": [
						{
							"internalType": "address",
							"name": "",
							"type": "address"
						}
					],
					"stateMutability": "view",
					"type": "function"
				},
				{
					"inputs": [],
					"name": "renounceOwnership",
					"outputs": [],
					"stateMutability": "nonpayable",
					"type": "function"
				},
				{
					"inputs": [
						{
							"internalType": "uint256[]",
							"name": "_guesses",
							"type": "uint256[]"
						},
						{
							"internalType": "uint256",
							"name": "_bet",
							"type": "uint256"
						}
					],
					"name": "rollDice",
					"outputs": [
						{
							"internalType": "bool",
							"name": "",
							"type": "bool"
						}
					],
					"stateMutability": "view",
					"type": "function"
				},
				{
					"inputs": [
						{
							"internalType": "address",
							"name": "newOwner",
							"type": "address"
						}
					],
					"name": "transferOwnership",
					"outputs": [],
					"stateMutability": "nonpayable",
					"type": "function"
				},
				{
					"inputs": [
						{
							"internalType": "uint256",
							"name": "_amount",
							"type": "uint256"
						}
					],
					"name": "withdraw",
					"outputs": [],
					"stateMutability": "nonpayable",
					"type": "function"
				}
			],
			"devdoc": {
				"kind": "dev",
				"methods": {
					"owner()": {
						"details": "Returns the address of the current owner."
					},
					"renounceOwnership()": {
						"details": "Leaves the contract without owner. It will not be possible to call `onlyOwner` functions anymore. Can only be called by the current owner. NOTE: Renouncing ownership will leave the contract without an owner, thereby removing any functionality that is only available to the owner."
					},
					"transferOwnership(address)": {
						"details": "Transfers ownership of the contract to a new account (`newOwner`). Can only be called by the current owner."
					}
				},
				"version": 1
			},
			"evm": {
				"assembly": "    /* \"contracts/main.sol\":600:3169  contract Casino is Ownable {... */\n  mstore(0x40, 0x80)\n    /* \"contracts/main.sol\":790:791  0 */\n  0x00\n    /* \"contracts/main.sol\":771:791  uint256 entryNum = 0 */\n  0x03\n  sstore\n    /* \"contracts/main.sol\":600:3169  contract Casino is Ownable {... */\n  callvalue\n  dup1\n  iszero\n  tag_1\n  jumpi\n  0x00\n  dup1\n  revert\ntag_1:\n  pop\n    /* \"@openzeppelin/contracts/access/Ownable.sol\":936:968  _transferOwnership(_msgSender()) */\n  tag_4\n    /* \"@openzeppelin/contracts/utils/Context.sol\":719:729  msg.sender */\n  caller\n    /* \"@openzeppelin/contracts/access/Ownable.sol\":936:954  _transferOwnership */\n  tag_7\n    /* \"@openzeppelin/contracts/access/Ownable.sol\":936:968  _transferOwnership(_msgSender()) */\n  jump\t// in\ntag_4:\n    /* \"contracts/main.sol\":600:3169  contract Casino is Ownable {... */\n  jump(tag_8)\n    /* \"@openzeppelin/contracts/access/Ownable.sol\":2433:2620  function _transferOwnership(address newOwner) internal virtual {... */\ntag_7:\n    /* \"@openzeppelin/contracts/access/Ownable.sol\":2506:2522  address oldOwner */\n  0x00\n    /* \"@openzeppelin/contracts/access/Ownable.sol\":2525:2531  _owner */\n  dup1\n  sload\n  sub(shl(0xa0, 0x01), 0x01)\n    /* \"@openzeppelin/contracts/access/Ownable.sol\":2541:2558  _owner = newOwner */\n  dup4\n  dup2\n  and\n  not(sub(shl(0xa0, 0x01), 0x01))\n  dup4\n  and\n  dup2\n  or\n  dup5\n  sstore\n    /* \"@openzeppelin/contracts/access/Ownable.sol\":2573:2613  OwnershipTransferred(oldOwner, newOwner) */\n  mload(0x40)\n    /* \"@openzeppelin/contracts/access/Ownable.sol\":2525:2531  _owner */\n  swap2\n  swap1\n  swap3\n  and\n  swap3\n  dup4\n  swap2\n    /* \"@openzeppelin/contracts/access/Ownable.sol\":2573:2613  OwnershipTransferred(oldOwner, newOwner) */\n  0x8be0079c531659141344cd1fd0a4f28419497f9722a3daafe3b4186f6b6457e0\n  swap2\n    /* \"@openzeppelin/contracts/access/Ownable.sol\":2506:2522  address oldOwner */\n  swap1\n    /* \"@openzeppelin/contracts/access/Ownable.sol\":2573:2613  OwnershipTransferred(oldOwner, newOwner) */\n  log3\n    /* \"@openzeppelin/contracts/access/Ownable.sol\":2496:2620  {... */\n  pop\n    /* \"@openzeppelin/contracts/access/Ownable.sol\":2433:2620  function _transferOwnership(address newOwner) internal virtual {... */\n  pop\n  jump\t// out\n    /* \"contracts/main.sol\":600:3169  contract Casino is Ownable {... */\ntag_8:\n  dataSize(sub_0)\n  dup1\n  dataOffset(sub_0)\n  0x00\n  codecopy\n  0x00\n  return\nstop\n\nsub_0: assembly {\n        /* \"contracts/main.sol\":600:3169  contract Casino is Ownable {... */\n      mstore(0x40, 0x80)\n      jumpi(tag_1, lt(calldatasize, 0x04))\n      shr(0xe0, calldataload(0x00))\n      dup1\n      0x8da5cb5b\n      gt\n      tag_14\n      jumpi\n      dup1\n      0x8da5cb5b\n      eq\n      tag_8\n      jumpi\n      dup1\n      0xc1af5785\n      eq\n      tag_9\n      jumpi\n      dup1\n      0xd0e30db0\n      eq\n      tag_10\n      jumpi\n      dup1\n      0xed1c274f\n      eq\n      tag_11\n      jumpi\n      dup1\n      0xed7892f2\n      eq\n      tag_12\n      jumpi\n      dup1\n      0xf2fde38b\n      eq\n      tag_13\n      jumpi\n      0x00\n      dup1\n      revert\n    tag_14:\n      dup1\n      0x1a0843c0\n      eq\n      tag_2\n      jumpi\n      dup1\n      0x27e235e3\n      eq\n      tag_3\n      jumpi\n      dup1\n      0x27e605ec\n      eq\n      tag_4\n      jumpi\n      dup1\n      0x2e1a7d4d\n      eq\n      tag_5\n      jumpi\n      dup1\n      0x47734892\n      eq\n      tag_6\n      jumpi\n      dup1\n      0x715018a6\n      eq\n      tag_7\n      jumpi\n    tag_1:\n      0x00\n      dup1\n      revert\n        /* \"contracts/main.sol\":1540:1642  function getCasinoBalance() public view returns(uint256) {... */\n    tag_2:\n      callvalue\n      dup1\n      iszero\n      tag_15\n      jumpi\n      0x00\n      dup1\n      revert\n    tag_15:\n      pop\n        /* \"contracts/main.sol\":1614:1635  address(this).balance */\n      selfbalance\n        /* \"contracts/main.sol\":1540:1642  function getCasinoBalance() public view returns(uint256) {... */\n    tag_16:\n      mload(0x40)\n        /* \"#utility.yul\":160:185   */\n      swap1\n      dup2\n      mstore\n        /* \"#utility.yul\":148:150   */\n      0x20\n        /* \"#utility.yul\":133:151   */\n      add\n        /* \"contracts/main.sol\":1540:1642  function getCasinoBalance() public view returns(uint256) {... */\n    tag_18:\n      mload(0x40)\n      dup1\n      swap2\n      sub\n      swap1\n      return\n        /* \"contracts/main.sol\":672:712  mapping(address=>uint256)public balances */\n    tag_3:\n      callvalue\n      dup1\n      iszero\n      tag_20\n      jumpi\n      0x00\n      dup1\n      revert\n    tag_20:\n      pop\n      tag_16\n      tag_22\n      calldatasize\n      0x04\n      tag_23\n      jump\t// in\n    tag_22:\n      mstore(0x20, 0x01)\n      0x00\n      swap1\n      dup2\n      mstore\n      0x40\n      swap1\n      keccak256\n      sload\n      dup2\n      jump\n        /* \"contracts/main.sol\":3094:3165  function drawLottery() public onlyOwner {... */\n    tag_4:\n      callvalue\n      dup1\n      iszero\n      tag_26\n      jumpi\n      0x00\n      dup1\n      revert\n    tag_26:\n      pop\n      tag_27\n      tag_28\n      jump\t// in\n    tag_27:\n      stop\n        /* \"contracts/main.sol\":1071:1534  function withdraw(uint256 _amount) public {... */\n    tag_5:\n      callvalue\n      dup1\n      iszero\n      tag_29\n      jumpi\n      0x00\n      dup1\n      revert\n    tag_29:\n      pop\n      tag_27\n      tag_31\n      calldatasize\n      0x04\n      tag_32\n      jump\t// in\n    tag_31:\n      tag_33\n      jump\t// in\n        /* \"contracts/main.sol\":1648:1756  function getUserBalance(address _user) public view returns (uint256) {... */\n    tag_6:\n      callvalue\n      dup1\n      iszero\n      tag_34\n      jumpi\n      0x00\n      dup1\n      revert\n    tag_34:\n      pop\n      tag_16\n      tag_36\n      calldatasize\n      0x04\n      tag_23\n      jump\t// in\n    tag_36:\n      sub(shl(0xa0, 0x01), 0x01)\n        /* \"contracts/main.sol\":1734:1749  balances[_user] */\n      and\n        /* \"contracts/main.sol\":1708:1715  uint256 */\n      0x00\n        /* \"contracts/main.sol\":1734:1749  balances[_user] */\n      swap1\n      dup2\n      mstore\n        /* \"contracts/main.sol\":1734:1742  balances */\n      0x01\n        /* \"contracts/main.sol\":1734:1749  balances[_user] */\n      0x20\n      mstore\n      0x40\n      swap1\n      keccak256\n      sload\n      swap1\n        /* \"contracts/main.sol\":1648:1756  function getUserBalance(address _user) public view returns (uint256) {... */\n      jump\n        /* \"@openzeppelin/contracts/access/Ownable.sol\":1831:1932  function renounceOwnership() public virtual onlyOwner {... */\n    tag_7:\n      callvalue\n      dup1\n      iszero\n      tag_39\n      jumpi\n      0x00\n      dup1\n      revert\n    tag_39:\n      pop\n      tag_27\n      tag_41\n      jump\t// in\n        /* \"@openzeppelin/contracts/access/Ownable.sol\":1201:1286  function owner() public view virtual returns (address) {... */\n    tag_8:\n      callvalue\n      dup1\n      iszero\n      tag_42\n      jumpi\n      0x00\n      dup1\n      revert\n    tag_42:\n      pop\n        /* \"@openzeppelin/contracts/access/Ownable.sol\":1247:1254  address */\n      0x00\n        /* \"@openzeppelin/contracts/access/Ownable.sol\":1273:1279  _owner */\n      sload\n      sub(shl(0xa0, 0x01), 0x01)\n      and\n        /* \"@openzeppelin/contracts/access/Ownable.sol\":1201:1286  function owner() public view virtual returns (address) {... */\n    tag_43:\n      mload(0x40)\n      sub(shl(0xa0, 0x01), 0x01)\n        /* \"#utility.yul\":836:868   */\n      swap1\n      swap2\n      and\n        /* \"#utility.yul\":818:869   */\n      dup2\n      mstore\n        /* \"#utility.yul\":806:808   */\n      0x20\n        /* \"#utility.yul\":791:809   */\n      add\n        /* \"@openzeppelin/contracts/access/Ownable.sol\":1201:1286  function owner() public view virtual returns (address) {... */\n      tag_18\n        /* \"#utility.yul\":672:875   */\n      jump\n        /* \"contracts/main.sol\":2866:3088  function enterLottery() public { // for arbitrary value entry set to 1 ether... */\n    tag_9:\n      callvalue\n      dup1\n      iszero\n      tag_47\n      jumpi\n      0x00\n      dup1\n      revert\n    tag_47:\n      pop\n      tag_27\n      tag_49\n      jump\t// in\n        /* \"contracts/main.sol\":798:882  function deposit() public payable {... */\n    tag_10:\n      tag_27\n      tag_51\n      jump\t// in\n        /* \"contracts/main.sol\":718:765  mapping(uint256=>address) public lotteryEntries */\n    tag_11:\n      callvalue\n      dup1\n      iszero\n      tag_52\n      jumpi\n      0x00\n      dup1\n      revert\n    tag_52:\n      pop\n      tag_43\n      tag_54\n      calldatasize\n      0x04\n      tag_32\n      jump\t// in\n    tag_54:\n      mstore(0x20, 0x02)\n      0x00\n      swap1\n      dup2\n      mstore\n      0x40\n      swap1\n      keccak256\n      sload\n      sub(shl(0xa0, 0x01), 0x01)\n      and\n      dup2\n      jump\n        /* \"contracts/main.sol\":2072:2859  function rollDice(uint256[] memory _guesses, uint256 _bet) public view returns (bool) {... */\n    tag_12:\n      callvalue\n      dup1\n      iszero\n      tag_57\n      jumpi\n      0x00\n      dup1\n      revert\n    tag_57:\n      pop\n      tag_58\n      tag_59\n      calldatasize\n      0x04\n      tag_60\n      jump\t// in\n    tag_59:\n      tag_61\n      jump\t// in\n    tag_58:\n      mload(0x40)\n        /* \"#utility.yul\":2367:2381   */\n      swap1\n      iszero\n        /* \"#utility.yul\":2360:2382   */\n      iszero\n        /* \"#utility.yul\":2342:2383   */\n      dup2\n      mstore\n        /* \"#utility.yul\":2330:2332   */\n      0x20\n        /* \"#utility.yul\":2315:2333   */\n      add\n        /* \"contracts/main.sol\":2072:2859  function rollDice(uint256[] memory _guesses, uint256 _bet) public view returns (bool) {... */\n      tag_18\n        /* \"#utility.yul\":2202:2389   */\n      jump\n        /* \"@openzeppelin/contracts/access/Ownable.sol\":2081:2279  function transferOwnership(address newOwner) public virtual onlyOwner {... */\n    tag_13:\n      callvalue\n      dup1\n      iszero\n      tag_64\n      jumpi\n      0x00\n      dup1\n      revert\n    tag_64:\n      pop\n      tag_27\n      tag_66\n      calldatasize\n      0x04\n      tag_23\n      jump\t// in\n    tag_66:\n      tag_67\n      jump\t// in\n        /* \"contracts/main.sol\":3094:3165  function drawLottery() public onlyOwner {... */\n    tag_28:\n        /* \"@openzeppelin/contracts/access/Ownable.sol\":1094:1107  _checkOwner() */\n      tag_70\n        /* \"@openzeppelin/contracts/access/Ownable.sol\":1094:1105  _checkOwner */\n      tag_71\n        /* \"@openzeppelin/contracts/access/Ownable.sol\":1094:1107  _checkOwner() */\n      jump\t// in\n    tag_70:\n        /* \"contracts/main.sol\":3157:3158  0 */\n      0x00\n        /* \"contracts/main.sol\":3146:3154  entryNum */\n      0x03\n        /* \"contracts/main.sol\":3146:3158  entryNum = 0 */\n      sstore\n        /* \"contracts/main.sol\":3094:3165  function drawLottery() public onlyOwner {... */\n      jump\t// out\n        /* \"contracts/main.sol\":1071:1534  function withdraw(uint256 _amount) public {... */\n    tag_33:\n        /* \"contracts/main.sol\":1195:1205  msg.sender */\n      caller\n        /* \"contracts/main.sol\":1186:1206  balances[msg.sender] */\n      0x00\n      swap1\n      dup2\n      mstore\n        /* \"contracts/main.sol\":1186:1194  balances */\n      0x01\n        /* \"contracts/main.sol\":1186:1206  balances[msg.sender] */\n      0x20\n      mstore\n      0x40\n      swap1\n      keccak256\n      sload\n        /* \"contracts/main.sol\":1186:1217  balances[msg.sender] >= _amount */\n      dup2\n      gt\n      iszero\n        /* \"contracts/main.sol\":1178:1253  require(balances[msg.sender] >= _amount, \"Insufficient funds to withdraw!\") */\n      tag_74\n      jumpi\n      mload(0x40)\n      shl(0xe5, 0x461bcd)\n      dup2\n      mstore\n        /* \"#utility.yul\":2596:2598   */\n      0x20\n        /* \"contracts/main.sol\":1178:1253  require(balances[msg.sender] >= _amount, \"Insufficient funds to withdraw!\") */\n      0x04\n      dup3\n      add\n        /* \"#utility.yul\":2578:2599   */\n      mstore\n        /* \"#utility.yul\":2635:2637   */\n      0x1f\n        /* \"#utility.yul\":2615:2633   */\n      0x24\n      dup3\n      add\n        /* \"#utility.yul\":2608:2638   */\n      mstore\n        /* \"#utility.yul\":2674:2707   */\n      0x496e73756666696369656e742066756e647320746f2077697468647261772100\n        /* \"#utility.yul\":2654:2672   */\n      0x44\n      dup3\n      add\n        /* \"#utility.yul\":2647:2708   */\n      mstore\n        /* \"#utility.yul\":2725:2743   */\n      0x64\n      add\n        /* \"contracts/main.sol\":1178:1253  require(balances[msg.sender] >= _amount, \"Insufficient funds to withdraw!\") */\n    tag_75:\n      mload(0x40)\n      dup1\n      swap2\n      sub\n      swap1\n      revert\n    tag_74:\n        /* \"contracts/main.sol\":1307:1317  msg.sender */\n      caller\n        /* \"contracts/main.sol\":1298:1318  balances[msg.sender] */\n      0x00\n      swap1\n      dup2\n      mstore\n        /* \"contracts/main.sol\":1298:1306  balances */\n      0x01\n        /* \"contracts/main.sol\":1298:1318  balances[msg.sender] */\n      0x20\n      mstore\n      0x40\n      dup2\n      keccak256\n        /* \"contracts/main.sol\":1298:1329  balances[msg.sender] -= _amount */\n      dup1\n      sload\n        /* \"contracts/main.sol\":1322:1329  _amount */\n      dup4\n      swap3\n        /* \"contracts/main.sol\":1298:1318  balances[msg.sender] */\n      swap1\n        /* \"contracts/main.sol\":1298:1329  balances[msg.sender] -= _amount */\n      tag_77\n      swap1\n        /* \"contracts/main.sol\":1322:1329  _amount */\n      dup5\n      swap1\n        /* \"contracts/main.sol\":1298:1329  balances[msg.sender] -= _amount */\n      tag_78\n      jump\t// in\n    tag_77:\n      swap1\n      swap2\n      sstore\n      pop\n      pop\n        /* \"contracts/main.sol\":1380:1419  msg.sender.call{value: _amount}(\"sent\") */\n      mload(0x40)\n      shl(0xe2, 0x1cd95b9d)\n        /* \"#utility.yul\":3220:3239   */\n      dup2\n      mstore\n        /* \"contracts/main.sol\":1366:1375  bool sent */\n      0x00\n      swap1\n        /* \"contracts/main.sol\":1380:1390  msg.sender */\n      caller\n      swap1\n        /* \"contracts/main.sol\":1403:1410  _amount */\n      dup4\n      swap1\n        /* \"#utility.yul\":3264:3265   */\n      0x04\n        /* \"#utility.yul\":3255:3266   */\n      add\n        /* \"contracts/main.sol\":1380:1419  msg.sender.call{value: _amount}(\"sent\") */\n      0x00\n      mload(0x40)\n      dup1\n      dup4\n      sub\n      dup2\n      dup6\n      dup8\n      gas\n      call\n      swap3\n      pop\n      pop\n      pop\n      returndatasize\n      dup1\n      0x00\n      dup2\n      eq\n      tag_83\n      jumpi\n      mload(0x40)\n      swap2\n      pop\n      and(add(returndatasize, 0x3f), not(0x1f))\n      dup3\n      add\n      0x40\n      mstore\n      returndatasize\n      dup3\n      mstore\n      returndatasize\n      0x00\n      0x20\n      dup5\n      add\n      returndatacopy\n      jump(tag_82)\n    tag_83:\n      0x60\n      swap2\n      pop\n    tag_82:\n      pop\n        /* \"contracts/main.sol\":1365:1419  (bool sent,) = msg.sender.call{value: _amount}(\"sent\") */\n      pop\n      swap1\n      pop\n        /* \"contracts/main.sol\":1492:1496  sent */\n      dup1\n        /* \"contracts/main.sol\":1484:1527  require(sent, \"Failed to withdraw amount!\") */\n      tag_84\n      jumpi\n      mload(0x40)\n      shl(0xe5, 0x461bcd)\n      dup2\n      mstore\n        /* \"#utility.yul\":3479:3481   */\n      0x20\n        /* \"contracts/main.sol\":1484:1527  require(sent, \"Failed to withdraw amount!\") */\n      0x04\n      dup3\n      add\n        /* \"#utility.yul\":3461:3482   */\n      mstore\n        /* \"#utility.yul\":3518:3520   */\n      0x1a\n        /* \"#utility.yul\":3498:3516   */\n      0x24\n      dup3\n      add\n        /* \"#utility.yul\":3491:3521   */\n      mstore\n        /* \"#utility.yul\":3557:3585   */\n      0x4661696c656420746f20776974686472617720616d6f756e7421000000000000\n        /* \"#utility.yul\":3537:3555   */\n      0x44\n      dup3\n      add\n        /* \"#utility.yul\":3530:3586   */\n      mstore\n        /* \"#utility.yul\":3603:3621   */\n      0x64\n      add\n        /* \"contracts/main.sol\":1484:1527  require(sent, \"Failed to withdraw amount!\") */\n      tag_75\n        /* \"#utility.yul\":3277:3627   */\n      jump\n        /* \"contracts/main.sol\":1484:1527  require(sent, \"Failed to withdraw amount!\") */\n    tag_84:\n        /* \"contracts/main.sol\":1113:1534  {... */\n      pop\n        /* \"contracts/main.sol\":1071:1534  function withdraw(uint256 _amount) public {... */\n      pop\n      jump\t// out\n        /* \"@openzeppelin/contracts/access/Ownable.sol\":1831:1932  function renounceOwnership() public virtual onlyOwner {... */\n    tag_41:\n        /* \"@openzeppelin/contracts/access/Ownable.sol\":1094:1107  _checkOwner() */\n      tag_89\n        /* \"@openzeppelin/contracts/access/Ownable.sol\":1094:1105  _checkOwner */\n      tag_71\n        /* \"@openzeppelin/contracts/access/Ownable.sol\":1094:1107  _checkOwner() */\n      jump\t// in\n    tag_89:\n        /* \"@openzeppelin/contracts/access/Ownable.sol\":1895:1925  _transferOwnership(address(0)) */\n      tag_91\n        /* \"@openzeppelin/contracts/access/Ownable.sol\":1922:1923  0 */\n      0x00\n        /* \"@openzeppelin/contracts/access/Ownable.sol\":1895:1913  _transferOwnership */\n      tag_92\n        /* \"@openzeppelin/contracts/access/Ownable.sol\":1895:1925  _transferOwnership(address(0)) */\n      jump\t// in\n    tag_91:\n        /* \"@openzeppelin/contracts/access/Ownable.sol\":1831:1932  function renounceOwnership() public virtual onlyOwner {... */\n      jump\t// out\n        /* \"contracts/main.sol\":2866:3088  function enterLottery() public { // for arbitrary value entry set to 1 ether... */\n    tag_49:\n        /* \"contracts/main.sol\":2970:2980  msg.sender */\n      caller\n        /* \"contracts/main.sol\":2961:2981  balances[msg.sender] */\n      0x00\n      swap1\n      dup2\n      mstore\n        /* \"contracts/main.sol\":2961:2969  balances */\n      0x01\n        /* \"contracts/main.sol\":2961:2981  balances[msg.sender] */\n      0x20\n      mstore\n      0x40\n      swap1\n      keccak256\n      sload\n        /* \"contracts/main.sol\":2985:2992  1 ether */\n      0x0de0b6b3a7640000\n      gt\n        /* \"contracts/main.sol\":2961:2992  balances[msg.sender] >= 1 ether */\n      iszero\n        /* \"contracts/main.sol\":2952:3013  require (balances[msg.sender] >= 1 ether, \"Not enough ether\") */\n      tag_95\n      jumpi\n      mload(0x40)\n      shl(0xe5, 0x461bcd)\n      dup2\n      mstore\n        /* \"#utility.yul\":3834:3836   */\n      0x20\n        /* \"contracts/main.sol\":2952:3013  require (balances[msg.sender] >= 1 ether, \"Not enough ether\") */\n      0x04\n      dup3\n      add\n        /* \"#utility.yul\":3816:3837   */\n      mstore\n        /* \"#utility.yul\":3873:3875   */\n      0x10\n        /* \"#utility.yul\":3853:3871   */\n      0x24\n      dup3\n      add\n        /* \"#utility.yul\":3846:3876   */\n      mstore\n      shl(0x81, 0x2737ba1032b737bab3b41032ba3432b9)\n        /* \"#utility.yul\":3892:3910   */\n      0x44\n      dup3\n      add\n        /* \"#utility.yul\":3885:3931   */\n      mstore\n        /* \"#utility.yul\":3948:3966   */\n      0x64\n      add\n        /* \"contracts/main.sol\":2952:3013  require (balances[msg.sender] >= 1 ether, \"Not enough ether\") */\n      tag_75\n        /* \"#utility.yul\":3632:3972   */\n      jump\n        /* \"contracts/main.sol\":2952:3013  require (balances[msg.sender] >= 1 ether, \"Not enough ether\") */\n    tag_95:\n        /* \"contracts/main.sol\":3038:3046  entryNum */\n      0x03\n      dup1\n      sload\n        /* \"contracts/main.sol\":3023:3047  lotteryEntries[entryNum] */\n      0x00\n      swap1\n      dup2\n      mstore\n        /* \"contracts/main.sol\":3023:3037  lotteryEntries */\n      0x02\n        /* \"contracts/main.sol\":3023:3047  lotteryEntries[entryNum] */\n      0x20\n      mstore\n      0x40\n      dup2\n      keccak256\n        /* \"contracts/main.sol\":3023:3060  lotteryEntries[entryNum] = msg.sender */\n      dup1\n      sload\n      not(sub(shl(0xa0, 0x01), 0x01))\n      and\n        /* \"contracts/main.sol\":3050:3060  msg.sender */\n      caller\n        /* \"contracts/main.sol\":3023:3060  lotteryEntries[entryNum] = msg.sender */\n      or\n      swap1\n      sstore\n        /* \"contracts/main.sol\":3070:3080  entryNum++ */\n      dup2\n      sload\n      swap2\n        /* \"contracts/main.sol\":3038:3046  entryNum */\n      swap1\n        /* \"contracts/main.sol\":3070:3080  entryNum++ */\n      tag_98\n      dup4\n      tag_99\n      jump\t// in\n    tag_98:\n      swap2\n      swap1\n      pop\n      sstore\n      pop\n        /* \"contracts/main.sol\":2866:3088  function enterLottery() public { // for arbitrary value entry set to 1 ether... */\n      jump\t// out\n        /* \"contracts/main.sol\":798:882  function deposit() public payable {... */\n    tag_51:\n        /* \"contracts/main.sol\":851:861  msg.sender */\n      caller\n        /* \"contracts/main.sol\":842:862  balances[msg.sender] */\n      0x00\n      swap1\n      dup2\n      mstore\n        /* \"contracts/main.sol\":842:850  balances */\n      0x01\n        /* \"contracts/main.sol\":842:862  balances[msg.sender] */\n      0x20\n      mstore\n      0x40\n      dup2\n      keccak256\n        /* \"contracts/main.sol\":842:875  balances[msg.sender] += msg.value */\n      dup1\n      sload\n        /* \"contracts/main.sol\":866:875  msg.value */\n      callvalue\n      swap3\n        /* \"contracts/main.sol\":842:862  balances[msg.sender] */\n      swap1\n        /* \"contracts/main.sol\":842:875  balances[msg.sender] += msg.value */\n      tag_101\n      swap1\n        /* \"contracts/main.sol\":866:875  msg.value */\n      dup5\n      swap1\n        /* \"contracts/main.sol\":842:875  balances[msg.sender] += msg.value */\n      tag_102\n      jump\t// in\n    tag_101:\n      swap1\n      swap2\n      sstore\n      pop\n      pop\n        /* \"contracts/main.sol\":798:882  function deposit() public payable {... */\n      jump\t// out\n        /* \"contracts/main.sol\":2072:2859  function rollDice(uint256[] memory _guesses, uint256 _bet) public view returns (bool) {... */\n    tag_61:\n        /* \"contracts/main.sol\":2255:2265  msg.sender */\n      caller\n        /* \"contracts/main.sol\":2152:2156  bool */\n      0x00\n        /* \"contracts/main.sol\":2246:2266  balances[msg.sender] */\n      swap1\n      dup2\n      mstore\n        /* \"contracts/main.sol\":2246:2254  balances */\n      0x01\n        /* \"contracts/main.sol\":2246:2266  balances[msg.sender] */\n      0x20\n      mstore\n      0x40\n      dup2\n      keccak256\n      sload\n        /* \"contracts/main.sol\":2238:2266  _bet <= balances[msg.sender] */\n      dup3\n      gt\n      iszero\n        /* \"contracts/main.sol\":2229:2298  require (_bet <= balances[msg.sender], \"Not enough Ether in account\") */\n      tag_104\n      jumpi\n      mload(0x40)\n      shl(0xe5, 0x461bcd)\n      dup2\n      mstore\n        /* \"#utility.yul\":4449:4451   */\n      0x20\n        /* \"contracts/main.sol\":2229:2298  require (_bet <= balances[msg.sender], \"Not enough Ether in account\") */\n      0x04\n      dup3\n      add\n        /* \"#utility.yul\":4431:4452   */\n      mstore\n        /* \"#utility.yul\":4488:4490   */\n      0x1b\n        /* \"#utility.yul\":4468:4486   */\n      0x24\n      dup3\n      add\n        /* \"#utility.yul\":4461:4491   */\n      mstore\n        /* \"#utility.yul\":4527:4556   */\n      0x4e6f7420656e6f75676820457468657220696e206163636f756e740000000000\n        /* \"#utility.yul\":4507:4525   */\n      0x44\n      dup3\n      add\n        /* \"#utility.yul\":4500:4557   */\n      mstore\n        /* \"#utility.yul\":4574:4592   */\n      0x64\n      add\n        /* \"contracts/main.sol\":2229:2298  require (_bet <= balances[msg.sender], \"Not enough Ether in account\") */\n      tag_75\n        /* \"#utility.yul\":4247:4598   */\n      jump\n        /* \"contracts/main.sol\":2229:2298  require (_bet <= balances[msg.sender], \"Not enough Ether in account\") */\n    tag_104:\n        /* \"contracts/main.sol\":2391:2392  3 */\n      0x03\n        /* \"contracts/main.sol\":2372:2380  _guesses */\n      dup4\n        /* \"contracts/main.sol\":2372:2387  _guesses.length */\n      mload\n        /* \"contracts/main.sol\":2372:2392  _guesses.length >= 3 */\n      lt\n      iszero\n        /* \"contracts/main.sol\":2363:2439  require (_guesses.length >= 3, \"Cannot guess more than 3 possible outcomes\") */\n      tag_107\n      jumpi\n      mload(0x40)\n      shl(0xe5, 0x461bcd)\n      dup2\n      mstore\n        /* \"#utility.yul\":4805:4807   */\n      0x20\n        /* \"contracts/main.sol\":2363:2439  require (_guesses.length >= 3, \"Cannot guess more than 3 possible outcomes\") */\n      0x04\n      dup3\n      add\n        /* \"#utility.yul\":4787:4808   */\n      mstore\n        /* \"#utility.yul\":4844:4846   */\n      0x2a\n        /* \"#utility.yul\":4824:4842   */\n      0x24\n      dup3\n      add\n        /* \"#utility.yul\":4817:4847   */\n      mstore\n        /* \"#utility.yul\":4883:4917   */\n      0x43616e6e6f74206775657373206d6f7265207468616e203320706f737369626c\n        /* \"#utility.yul\":4863:4881   */\n      0x44\n      dup3\n      add\n        /* \"#utility.yul\":4856:4918   */\n      mstore\n      shl(0xb0, 0x65206f7574636f6d6573)\n        /* \"#utility.yul\":4934:4952   */\n      0x64\n      dup3\n      add\n        /* \"#utility.yul\":4927:4967   */\n      mstore\n        /* \"#utility.yul\":4984:5003   */\n      0x84\n      add\n        /* \"contracts/main.sol\":2363:2439  require (_guesses.length >= 3, \"Cannot guess more than 3 possible outcomes\") */\n      tag_75\n        /* \"#utility.yul\":4603:5009   */\n      jump\n        /* \"contracts/main.sol\":2363:2439  require (_guesses.length >= 3, \"Cannot guess more than 3 possible outcomes\") */\n    tag_107:\n        /* \"contracts/main.sol\":2514:2521  uint8 i */\n      0x00\n        /* \"contracts/main.sol\":2509:2645  for (uint8 i = 0; i < _guesses.length; i++) {... */\n    tag_110:\n        /* \"contracts/main.sol\":2531:2539  _guesses */\n      dup4\n        /* \"contracts/main.sol\":2531:2546  _guesses.length */\n      mload\n        /* \"contracts/main.sol\":2527:2528  i */\n      dup2\n        /* \"contracts/main.sol\":2527:2546  i < _guesses.length */\n      0xff\n      and\n      lt\n        /* \"contracts/main.sol\":2509:2645  for (uint8 i = 0; i < _guesses.length; i++) {... */\n      iszero\n      tag_111\n      jumpi\n        /* \"contracts/main.sol\":2591:2592  6 */\n      0x06\n        /* \"contracts/main.sol\":2576:2584  _guesses */\n      dup5\n        /* \"contracts/main.sol\":2585:2586  i */\n      dup3\n        /* \"contracts/main.sol\":2576:2587  _guesses[i] */\n      0xff\n      and\n      dup2\n      mload\n      dup2\n      lt\n      tag_114\n      jumpi\n      tag_114\n      tag_115\n      jump\t// in\n    tag_114:\n      0x20\n      mul\n      0x20\n      add\n      add\n      mload\n        /* \"contracts/main.sol\":2576:2592  _guesses[i] <= 6 */\n      gt\n      iszero\n        /* \"contracts/main.sol\":2576:2612  _guesses[i] <= 6 && _guesses[i] >= 1 */\n      dup1\n      iszero\n      tag_116\n      jumpi\n      pop\n        /* \"contracts/main.sol\":2611:2612  1 */\n      0x01\n        /* \"contracts/main.sol\":2596:2604  _guesses */\n      dup5\n        /* \"contracts/main.sol\":2605:2606  i */\n      dup3\n        /* \"contracts/main.sol\":2596:2607  _guesses[i] */\n      0xff\n      and\n      dup2\n      mload\n      dup2\n      lt\n      tag_118\n      jumpi\n      tag_118\n      tag_115\n      jump\t// in\n    tag_118:\n      0x20\n      mul\n      0x20\n      add\n      add\n      mload\n        /* \"contracts/main.sol\":2596:2612  _guesses[i] >= 1 */\n      lt\n      iszero\n        /* \"contracts/main.sol\":2576:2612  _guesses[i] <= 6 && _guesses[i] >= 1 */\n    tag_116:\n        /* \"contracts/main.sol\":2567:2634  require (_guesses[i] <= 6 && _guesses[i] >= 1, \"Guess numbers 1-6\") */\n      tag_119\n      jumpi\n      mload(0x40)\n      shl(0xe5, 0x461bcd)\n      dup2\n      mstore\n        /* \"#utility.yul\":5348:5350   */\n      0x20\n        /* \"contracts/main.sol\":2567:2634  require (_guesses[i] <= 6 && _guesses[i] >= 1, \"Guess numbers 1-6\") */\n      0x04\n      dup3\n      add\n        /* \"#utility.yul\":5330:5351   */\n      mstore\n        /* \"#utility.yul\":5387:5389   */\n      0x11\n        /* \"#utility.yul\":5367:5385   */\n      0x24\n      dup3\n      add\n        /* \"#utility.yul\":5360:5390   */\n      mstore\n      shl(0x79, 0x23bab2b9b990373ab6b132b9399018969b)\n        /* \"#utility.yul\":5406:5424   */\n      0x44\n      dup3\n      add\n        /* \"#utility.yul\":5399:5446   */\n      mstore\n        /* \"#utility.yul\":5463:5481   */\n      0x64\n      add\n        /* \"contracts/main.sol\":2567:2634  require (_guesses[i] <= 6 && _guesses[i] >= 1, \"Guess numbers 1-6\") */\n      tag_75\n        /* \"#utility.yul\":5146:5487   */\n      jump\n        /* \"contracts/main.sol\":2567:2634  require (_guesses[i] <= 6 && _guesses[i] >= 1, \"Guess numbers 1-6\") */\n    tag_119:\n        /* \"contracts/main.sol\":2548:2551  i++ */\n      dup1\n      tag_122\n      dup2\n      tag_123\n      jump\t// in\n    tag_122:\n      swap2\n      pop\n      pop\n        /* \"contracts/main.sol\":2509:2645  for (uint8 i = 0; i < _guesses.length; i++) {... */\n      jump(tag_110)\n    tag_111:\n      pop\n        /* \"contracts/main.sol\":2655:2667  uint256 rand */\n      0x00\n        /* \"contracts/main.sol\":2689:2690  6 */\n      0x06\n        /* \"contracts/main.sol\":2670:2686  getRandomValue() */\n      tag_124\n        /* \"contracts/main.sol\":2670:2684  getRandomValue */\n      tag_125\n        /* \"contracts/main.sol\":2670:2686  getRandomValue() */\n      jump\t// in\n    tag_124:\n        /* \"contracts/main.sol\":2670:2690  getRandomValue() % 6 */\n      tag_126\n      swap2\n      swap1\n      tag_127\n      jump\t// in\n    tag_126:\n        /* \"contracts/main.sol\":2670:2694  getRandomValue() % 6 + 1 */\n      tag_128\n      swap1\n        /* \"contracts/main.sol\":2693:2694  1 */\n      0x01\n        /* \"contracts/main.sol\":2670:2694  getRandomValue() % 6 + 1 */\n      tag_102\n      jump\t// in\n    tag_128:\n        /* \"contracts/main.sol\":2655:2694  uint256 rand = getRandomValue() % 6 + 1 */\n      swap1\n      pop\n        /* \"contracts/main.sol\":2705:2713  bool win */\n      0x00\n        /* \"contracts/main.sol\":2737:2744  uint8 i */\n      dup1\n        /* \"contracts/main.sol\":2732:2833  for (uint8 i = 0; i < _guesses.length; i++) {... */\n    tag_129:\n        /* \"contracts/main.sol\":2754:2762  _guesses */\n      dup6\n        /* \"contracts/main.sol\":2754:2769  _guesses.length */\n      mload\n        /* \"contracts/main.sol\":2750:2751  i */\n      dup2\n        /* \"contracts/main.sol\":2750:2769  i < _guesses.length */\n      0xff\n      and\n      lt\n        /* \"contracts/main.sol\":2732:2833  for (uint8 i = 0; i < _guesses.length; i++) {... */\n      iszero\n      tag_130\n      jumpi\n        /* \"contracts/main.sol\":2805:2809  rand */\n      dup3\n        /* \"contracts/main.sol\":2790:2798  _guesses */\n      dup7\n        /* \"contracts/main.sol\":2799:2800  i */\n      dup3\n        /* \"contracts/main.sol\":2790:2801  _guesses[i] */\n      0xff\n      and\n      dup2\n      mload\n      dup2\n      lt\n      tag_133\n      jumpi\n      tag_133\n      tag_115\n      jump\t// in\n    tag_133:\n      0x20\n      mul\n      0x20\n      add\n      add\n      mload\n        /* \"contracts/main.sol\":2790:2809  _guesses[i] == rand */\n      eq\n        /* \"contracts/main.sol\":2790:2822  _guesses[i] == rand ? win : !win */\n      tag_134\n      jumpi\n        /* \"contracts/main.sol\":2819:2822  win */\n      dup2\n        /* \"contracts/main.sol\":2818:2822  !win */\n      iszero\n        /* \"contracts/main.sol\":2790:2822  _guesses[i] == rand ? win : !win */\n      jump(tag_135)\n    tag_134:\n        /* \"contracts/main.sol\":2812:2815  win */\n      dup2\n        /* \"contracts/main.sol\":2790:2822  _guesses[i] == rand ? win : !win */\n    tag_135:\n      pop\n        /* \"contracts/main.sol\":2771:2774  i++ */\n      dup1\n      tag_136\n      dup2\n      tag_123\n      jump\t// in\n    tag_136:\n      swap2\n      pop\n      pop\n        /* \"contracts/main.sol\":2732:2833  for (uint8 i = 0; i < _guesses.length; i++) {... */\n      jump(tag_129)\n    tag_130:\n      pop\n        /* \"contracts/main.sol\":2849:2852  win */\n      swap2\n      pop\n      pop\n        /* \"contracts/main.sol\":2072:2859  function rollDice(uint256[] memory _guesses, uint256 _bet) public view returns (bool) {... */\n    tag_103:\n      swap3\n      swap2\n      pop\n      pop\n      jump\t// out\n        /* \"@openzeppelin/contracts/access/Ownable.sol\":2081:2279  function transferOwnership(address newOwner) public virtual onlyOwner {... */\n    tag_67:\n        /* \"@openzeppelin/contracts/access/Ownable.sol\":1094:1107  _checkOwner() */\n      tag_138\n        /* \"@openzeppelin/contracts/access/Ownable.sol\":1094:1105  _checkOwner */\n      tag_71\n        /* \"@openzeppelin/contracts/access/Ownable.sol\":1094:1107  _checkOwner() */\n      jump\t// in\n    tag_138:\n      sub(shl(0xa0, 0x01), 0x01)\n        /* \"@openzeppelin/contracts/access/Ownable.sol\":2169:2191  newOwner != address(0) */\n      dup2\n      and\n        /* \"@openzeppelin/contracts/access/Ownable.sol\":2161:2234  require(newOwner != address(0), \"Ownable: new owner is the zero address\") */\n      tag_140\n      jumpi\n      mload(0x40)\n      shl(0xe5, 0x461bcd)\n      dup2\n      mstore\n        /* \"#utility.yul\":6088:6090   */\n      0x20\n        /* \"@openzeppelin/contracts/access/Ownable.sol\":2161:2234  require(newOwner != address(0), \"Ownable: new owner is the zero address\") */\n      0x04\n      dup3\n      add\n        /* \"#utility.yul\":6070:6091   */\n      mstore\n        /* \"#utility.yul\":6127:6129   */\n      0x26\n        /* \"#utility.yul\":6107:6125   */\n      0x24\n      dup3\n      add\n        /* \"#utility.yul\":6100:6130   */\n      mstore\n        /* \"#utility.yul\":6166:6200   */\n      0x4f776e61626c653a206e6577206f776e657220697320746865207a65726f2061\n        /* \"#utility.yul\":6146:6164   */\n      0x44\n      dup3\n      add\n        /* \"#utility.yul\":6139:6201   */\n      mstore\n      shl(0xd0, 0x646472657373)\n        /* \"#utility.yul\":6217:6235   */\n      0x64\n      dup3\n      add\n        /* \"#utility.yul\":6210:6246   */\n      mstore\n        /* \"#utility.yul\":6263:6282   */\n      0x84\n      add\n        /* \"@openzeppelin/contracts/access/Ownable.sol\":2161:2234  require(newOwner != address(0), \"Ownable: new owner is the zero address\") */\n      tag_75\n        /* \"#utility.yul\":5886:6288   */\n      jump\n        /* \"@openzeppelin/contracts/access/Ownable.sol\":2161:2234  require(newOwner != address(0), \"Ownable: new owner is the zero address\") */\n    tag_140:\n        /* \"@openzeppelin/contracts/access/Ownable.sol\":2244:2272  _transferOwnership(newOwner) */\n      tag_143\n        /* \"@openzeppelin/contracts/access/Ownable.sol\":2263:2271  newOwner */\n      dup2\n        /* \"@openzeppelin/contracts/access/Ownable.sol\":2244:2262  _transferOwnership */\n      tag_92\n        /* \"@openzeppelin/contracts/access/Ownable.sol\":2244:2272  _transferOwnership(newOwner) */\n      jump\t// in\n    tag_143:\n        /* \"@openzeppelin/contracts/access/Ownable.sol\":2081:2279  function transferOwnership(address newOwner) public virtual onlyOwner {... */\n      pop\n      jump\t// out\n        /* \"@openzeppelin/contracts/access/Ownable.sol\":1359:1489  function _checkOwner() internal view virtual {... */\n    tag_71:\n        /* \"@openzeppelin/contracts/access/Ownable.sol\":1247:1254  address */\n      0x00\n        /* \"@openzeppelin/contracts/access/Ownable.sol\":1273:1279  _owner */\n      sload\n      sub(shl(0xa0, 0x01), 0x01)\n      and\n        /* \"@openzeppelin/contracts/utils/Context.sol\":719:729  msg.sender */\n      caller\n        /* \"@openzeppelin/contracts/access/Ownable.sol\":1422:1445  owner() == _msgSender() */\n      eq\n        /* \"@openzeppelin/contracts/access/Ownable.sol\":1414:1482  require(owner() == _msgSender(), \"Ownable: caller is not the owner\") */\n      tag_91\n      jumpi\n      mload(0x40)\n      shl(0xe5, 0x461bcd)\n      dup2\n      mstore\n        /* \"#utility.yul\":6495:6497   */\n      0x20\n        /* \"@openzeppelin/contracts/access/Ownable.sol\":1414:1482  require(owner() == _msgSender(), \"Ownable: caller is not the owner\") */\n      0x04\n      dup3\n      add\n        /* \"#utility.yul\":6477:6498   */\n      dup2\n      swap1\n      mstore\n        /* \"#utility.yul\":6514:6532   */\n      0x24\n      dup3\n      add\n        /* \"#utility.yul\":6507:6537   */\n      mstore\n        /* \"#utility.yul\":6573:6607   */\n      0x4f776e61626c653a2063616c6c6572206973206e6f7420746865206f776e6572\n        /* \"#utility.yul\":6553:6571   */\n      0x44\n      dup3\n      add\n        /* \"#utility.yul\":6546:6608   */\n      mstore\n        /* \"#utility.yul\":6625:6643   */\n      0x64\n      add\n        /* \"@openzeppelin/contracts/access/Ownable.sol\":1414:1482  require(owner() == _msgSender(), \"Ownable: caller is not the owner\") */\n      tag_75\n        /* \"#utility.yul\":6293:6649   */\n      jump\n        /* \"@openzeppelin/contracts/access/Ownable.sol\":2433:2620  function _transferOwnership(address newOwner) internal virtual {... */\n    tag_92:\n        /* \"@openzeppelin/contracts/access/Ownable.sol\":2506:2522  address oldOwner */\n      0x00\n        /* \"@openzeppelin/contracts/access/Ownable.sol\":2525:2531  _owner */\n      dup1\n      sload\n      sub(shl(0xa0, 0x01), 0x01)\n        /* \"@openzeppelin/contracts/access/Ownable.sol\":2541:2558  _owner = newOwner */\n      dup4\n      dup2\n      and\n      not(sub(shl(0xa0, 0x01), 0x01))\n      dup4\n      and\n      dup2\n      or\n      dup5\n      sstore\n        /* \"@openzeppelin/contracts/access/Ownable.sol\":2573:2613  OwnershipTransferred(oldOwner, newOwner) */\n      mload(0x40)\n        /* \"@openzeppelin/contracts/access/Ownable.sol\":2525:2531  _owner */\n      swap2\n      swap1\n      swap3\n      and\n      swap3\n      dup4\n      swap2\n        /* \"@openzeppelin/contracts/access/Ownable.sol\":2573:2613  OwnershipTransferred(oldOwner, newOwner) */\n      0x8be0079c531659141344cd1fd0a4f28419497f9722a3daafe3b4186f6b6457e0\n      swap2\n        /* \"@openzeppelin/contracts/access/Ownable.sol\":2506:2522  address oldOwner */\n      swap1\n        /* \"@openzeppelin/contracts/access/Ownable.sol\":2573:2613  OwnershipTransferred(oldOwner, newOwner) */\n      log3\n        /* \"@openzeppelin/contracts/access/Ownable.sol\":2496:2620  {... */\n      pop\n        /* \"@openzeppelin/contracts/access/Ownable.sol\":2433:2620  function _transferOwnership(address newOwner) internal virtual {... */\n      pop\n      jump\t// out\n        /* \"contracts/main.sol\":1827:1965  function getRandomValue() private view returns(uint) {... */\n    tag_125:\n        /* \"contracts/main.sol\":1874:1878  uint */\n      0x00\n        /* \"contracts/main.sol\":1926:1941  block.timestamp */\n      timestamp\n        /* \"contracts/main.sol\":1943:1955  block.number */\n      number\n        /* \"contracts/main.sol\":1915:1956  abi.encode(block.timestamp, block.number) */\n      add(0x20, mload(0x40))\n      tag_153\n      swap3\n      swap2\n      swap1\n        /* \"#utility.yul\":6828:6853   */\n      swap2\n      dup3\n      mstore\n        /* \"#utility.yul\":6884:6886   */\n      0x20\n        /* \"#utility.yul\":6869:6887   */\n      dup3\n      add\n        /* \"#utility.yul\":6862:6896   */\n      mstore\n        /* \"#utility.yul\":6816:6818   */\n      0x40\n        /* \"#utility.yul\":6801:6819   */\n      add\n      swap1\n        /* \"#utility.yul\":6654:6902   */\n      jump\n        /* \"contracts/main.sol\":1915:1956  abi.encode(block.timestamp, block.number) */\n    tag_153:\n      mload(0x40)\n      0x20\n      dup2\n      dup4\n      sub\n      sub\n      dup2\n      mstore\n      swap1\n      0x40\n      mstore\n        /* \"contracts/main.sol\":1905:1957  keccak256(abi.encode(block.timestamp, block.number)) */\n      dup1\n      mload\n      swap1\n      0x20\n      add\n      keccak256\n        /* \"contracts/main.sol\":1897:1958  uint256(keccak256(abi.encode(block.timestamp, block.number))) */\n      0x00\n      shr\n        /* \"contracts/main.sol\":1890:1958  return uint256(keccak256(abi.encode(block.timestamp, block.number))) */\n      swap1\n      pop\n        /* \"contracts/main.sol\":1827:1965  function getRandomValue() private view returns(uint) {... */\n      swap1\n      jump\t// out\n        /* \"#utility.yul\":196:482   */\n    tag_23:\n        /* \"#utility.yul\":255:261   */\n      0x00\n        /* \"#utility.yul\":308:310   */\n      0x20\n        /* \"#utility.yul\":296:305   */\n      dup3\n        /* \"#utility.yul\":287:294   */\n      dup5\n        /* \"#utility.yul\":283:306   */\n      sub\n        /* \"#utility.yul\":279:311   */\n      slt\n        /* \"#utility.yul\":276:328   */\n      iszero\n      tag_161\n      jumpi\n        /* \"#utility.yul\":324:325   */\n      0x00\n        /* \"#utility.yul\":321:322   */\n      dup1\n        /* \"#utility.yul\":314:326   */\n      revert\n        /* \"#utility.yul\":276:328   */\n    tag_161:\n        /* \"#utility.yul\":350:373   */\n      dup2\n      calldataload\n      sub(shl(0xa0, 0x01), 0x01)\n        /* \"#utility.yul\":402:433   */\n      dup2\n      and\n        /* \"#utility.yul\":392:434   */\n      dup2\n      eq\n        /* \"#utility.yul\":382:452   */\n      tag_162\n      jumpi\n        /* \"#utility.yul\":448:449   */\n      0x00\n        /* \"#utility.yul\":445:446   */\n      dup1\n        /* \"#utility.yul\":438:450   */\n      revert\n        /* \"#utility.yul\":382:452   */\n    tag_162:\n        /* \"#utility.yul\":471:476   */\n      swap4\n        /* \"#utility.yul\":196:482   */\n      swap3\n      pop\n      pop\n      pop\n      jump\t// out\n        /* \"#utility.yul\":487:667   */\n    tag_32:\n        /* \"#utility.yul\":546:552   */\n      0x00\n        /* \"#utility.yul\":599:601   */\n      0x20\n        /* \"#utility.yul\":587:596   */\n      dup3\n        /* \"#utility.yul\":578:585   */\n      dup5\n        /* \"#utility.yul\":574:597   */\n      sub\n        /* \"#utility.yul\":570:602   */\n      slt\n        /* \"#utility.yul\":567:619   */\n      iszero\n      tag_164\n      jumpi\n        /* \"#utility.yul\":615:616   */\n      0x00\n        /* \"#utility.yul\":612:613   */\n      dup1\n        /* \"#utility.yul\":605:617   */\n      revert\n        /* \"#utility.yul\":567:619   */\n    tag_164:\n      pop\n        /* \"#utility.yul\":638:661   */\n      calldataload\n      swap2\n        /* \"#utility.yul\":487:667   */\n      swap1\n      pop\n      jump\t// out\n        /* \"#utility.yul\":880:1007   */\n    tag_156:\n        /* \"#utility.yul\":941:951   */\n      0x4e487b71\n        /* \"#utility.yul\":936:939   */\n      0xe0\n        /* \"#utility.yul\":932:952   */\n      shl\n        /* \"#utility.yul\":929:930   */\n      0x00\n        /* \"#utility.yul\":922:953   */\n      mstore\n        /* \"#utility.yul\":972:976   */\n      0x41\n        /* \"#utility.yul\":969:970   */\n      0x04\n        /* \"#utility.yul\":962:977   */\n      mstore\n        /* \"#utility.yul\":996:1000   */\n      0x24\n        /* \"#utility.yul\":993:994   */\n      0x00\n        /* \"#utility.yul\":986:1001   */\n      revert\n        /* \"#utility.yul\":1012:2197   */\n    tag_60:\n        /* \"#utility.yul\":1105:1111   */\n      0x00\n        /* \"#utility.yul\":1113:1119   */\n      dup1\n        /* \"#utility.yul\":1166:1168   */\n      0x40\n        /* \"#utility.yul\":1154:1163   */\n      dup4\n        /* \"#utility.yul\":1145:1152   */\n      dup6\n        /* \"#utility.yul\":1141:1164   */\n      sub\n        /* \"#utility.yul\":1137:1169   */\n      slt\n        /* \"#utility.yul\":1134:1186   */\n      iszero\n      tag_168\n      jumpi\n        /* \"#utility.yul\":1182:1183   */\n      0x00\n        /* \"#utility.yul\":1179:1180   */\n      dup1\n        /* \"#utility.yul\":1172:1184   */\n      revert\n        /* \"#utility.yul\":1134:1186   */\n    tag_168:\n        /* \"#utility.yul\":1222:1231   */\n      dup3\n        /* \"#utility.yul\":1209:1232   */\n      calldataload\n        /* \"#utility.yul\":1251:1269   */\n      0xffffffffffffffff\n        /* \"#utility.yul\":1292:1294   */\n      dup1\n        /* \"#utility.yul\":1284:1290   */\n      dup3\n        /* \"#utility.yul\":1281:1295   */\n      gt\n        /* \"#utility.yul\":1278:1312   */\n      iszero\n      tag_169\n      jumpi\n        /* \"#utility.yul\":1308:1309   */\n      0x00\n        /* \"#utility.yul\":1305:1306   */\n      dup1\n        /* \"#utility.yul\":1298:1310   */\n      revert\n        /* \"#utility.yul\":1278:1312   */\n    tag_169:\n        /* \"#utility.yul\":1346:1352   */\n      dup2\n        /* \"#utility.yul\":1335:1344   */\n      dup6\n        /* \"#utility.yul\":1331:1353   */\n      add\n        /* \"#utility.yul\":1321:1353   */\n      swap2\n      pop\n        /* \"#utility.yul\":1391:1398   */\n      dup6\n        /* \"#utility.yul\":1384:1388   */\n      0x1f\n        /* \"#utility.yul\":1380:1382   */\n      dup4\n        /* \"#utility.yul\":1376:1389   */\n      add\n        /* \"#utility.yul\":1372:1399   */\n      slt\n        /* \"#utility.yul\":1362:1417   */\n      tag_170\n      jumpi\n        /* \"#utility.yul\":1413:1414   */\n      0x00\n        /* \"#utility.yul\":1410:1411   */\n      dup1\n        /* \"#utility.yul\":1403:1415   */\n      revert\n        /* \"#utility.yul\":1362:1417   */\n    tag_170:\n        /* \"#utility.yul\":1449:1451   */\n      dup2\n        /* \"#utility.yul\":1436:1452   */\n      calldataload\n        /* \"#utility.yul\":1471:1475   */\n      0x20\n        /* \"#utility.yul\":1494:1496   */\n      dup3\n        /* \"#utility.yul\":1490:1492   */\n      dup3\n        /* \"#utility.yul\":1487:1497   */\n      gt\n        /* \"#utility.yul\":1484:1520   */\n      iszero\n      tag_172\n      jumpi\n        /* \"#utility.yul\":1500:1518   */\n      tag_172\n      tag_156\n      jump\t// in\n    tag_172:\n        /* \"#utility.yul\":1546:1548   */\n      dup2\n        /* \"#utility.yul\":1543:1544   */\n      0x05\n        /* \"#utility.yul\":1539:1549   */\n      shl\n        /* \"#utility.yul\":1578:1580   */\n      0x40\n        /* \"#utility.yul\":1572:1581   */\n      mload\n        /* \"#utility.yul\":1641:1643   */\n      0x1f\n        /* \"#utility.yul\":1637:1644   */\n      not\n        /* \"#utility.yul\":1632:1634   */\n      0x3f\n        /* \"#utility.yul\":1628:1630   */\n      dup4\n        /* \"#utility.yul\":1624:1635   */\n      add\n        /* \"#utility.yul\":1620:1645   */\n      and\n        /* \"#utility.yul\":1612:1618   */\n      dup2\n        /* \"#utility.yul\":1608:1646   */\n      add\n        /* \"#utility.yul\":1696:1702   */\n      dup2\n        /* \"#utility.yul\":1684:1694   */\n      dup2\n        /* \"#utility.yul\":1681:1703   */\n      lt\n        /* \"#utility.yul\":1676:1678   */\n      dup7\n        /* \"#utility.yul\":1664:1674   */\n      dup3\n        /* \"#utility.yul\":1661:1679   */\n      gt\n        /* \"#utility.yul\":1658:1704   */\n      or\n        /* \"#utility.yul\":1655:1727   */\n      iszero\n      tag_174\n      jumpi\n        /* \"#utility.yul\":1707:1725   */\n      tag_174\n      tag_156\n      jump\t// in\n    tag_174:\n        /* \"#utility.yul\":1743:1745   */\n      0x40\n        /* \"#utility.yul\":1736:1758   */\n      mstore\n        /* \"#utility.yul\":1793:1811   */\n      swap3\n      dup4\n      mstore\n        /* \"#utility.yul\":1827:1842   */\n      dup2\n      dup4\n      add\n      swap4\n      pop\n        /* \"#utility.yul\":1869:1880   */\n      dup5\n      dup2\n      add\n        /* \"#utility.yul\":1865:1885   */\n      dup3\n      add\n      swap3\n        /* \"#utility.yul\":1897:1916   */\n      dup10\n      dup5\n      gt\n        /* \"#utility.yul\":1894:1933   */\n      iszero\n      tag_175\n      jumpi\n        /* \"#utility.yul\":1929:1930   */\n      0x00\n        /* \"#utility.yul\":1926:1927   */\n      dup1\n        /* \"#utility.yul\":1919:1931   */\n      revert\n        /* \"#utility.yul\":1894:1933   */\n    tag_175:\n        /* \"#utility.yul\":1953:1964   */\n      swap5\n      dup3\n      add\n      swap5\n        /* \"#utility.yul\":1973:2115   */\n    tag_176:\n        /* \"#utility.yul\":1989:1995   */\n      dup4\n        /* \"#utility.yul\":1984:1987   */\n      dup7\n        /* \"#utility.yul\":1981:1996   */\n      lt\n        /* \"#utility.yul\":1973:2115   */\n      iszero\n      tag_178\n      jumpi\n        /* \"#utility.yul\":2055:2072   */\n      dup6\n      calldataload\n        /* \"#utility.yul\":2043:2073   */\n      dup6\n      mstore\n        /* \"#utility.yul\":2006:2018   */\n      swap5\n      dup3\n      add\n      swap5\n        /* \"#utility.yul\":2093:2105   */\n      swap4\n      dup3\n      add\n      swap4\n        /* \"#utility.yul\":1973:2115   */\n      jump(tag_176)\n    tag_178:\n        /* \"#utility.yul\":2134:2140   */\n      swap10\n        /* \"#utility.yul\":2172:2190   */\n      swap8\n      swap1\n      swap2\n      add\n        /* \"#utility.yul\":2159:2191   */\n      calldataload\n      swap8\n      pop\n      pop\n      pop\n      pop\n      pop\n      pop\n      pop\n        /* \"#utility.yul\":1012:2197   */\n      jump\t// out\n        /* \"#utility.yul\":2754:2881   */\n    tag_157:\n        /* \"#utility.yul\":2815:2825   */\n      0x4e487b71\n        /* \"#utility.yul\":2810:2813   */\n      0xe0\n        /* \"#utility.yul\":2806:2826   */\n      shl\n        /* \"#utility.yul\":2803:2804   */\n      0x00\n        /* \"#utility.yul\":2796:2827   */\n      mstore\n        /* \"#utility.yul\":2846:2850   */\n      0x11\n        /* \"#utility.yul\":2843:2844   */\n      0x04\n        /* \"#utility.yul\":2836:2851   */\n      mstore\n        /* \"#utility.yul\":2870:2874   */\n      0x24\n        /* \"#utility.yul\":2867:2868   */\n      0x00\n        /* \"#utility.yul\":2860:2875   */\n      revert\n        /* \"#utility.yul\":2886:3014   */\n    tag_78:\n        /* \"#utility.yul\":2953:2962   */\n      dup2\n      dup2\n      sub\n        /* \"#utility.yul\":2974:2985   */\n      dup2\n      dup2\n      gt\n        /* \"#utility.yul\":2971:3008   */\n      iszero\n      tag_103\n      jumpi\n        /* \"#utility.yul\":2988:3006   */\n      tag_103\n      tag_157\n      jump\t// in\n        /* \"#utility.yul\":3977:4112   */\n    tag_99:\n        /* \"#utility.yul\":4016:4019   */\n      0x00\n        /* \"#utility.yul\":4037:4054   */\n      0x01\n      dup3\n      add\n        /* \"#utility.yul\":4034:4077   */\n      tag_190\n      jumpi\n        /* \"#utility.yul\":4057:4075   */\n      tag_190\n      tag_157\n      jump\t// in\n    tag_190:\n      pop\n        /* \"#utility.yul\":4104:4105   */\n      0x01\n        /* \"#utility.yul\":4093:4106   */\n      add\n      swap1\n        /* \"#utility.yul\":3977:4112   */\n      jump\t// out\n        /* \"#utility.yul\":4117:4242   */\n    tag_102:\n        /* \"#utility.yul\":4182:4191   */\n      dup1\n      dup3\n      add\n        /* \"#utility.yul\":4203:4213   */\n      dup1\n      dup3\n      gt\n        /* \"#utility.yul\":4200:4236   */\n      iszero\n      tag_103\n      jumpi\n        /* \"#utility.yul\":4216:4234   */\n      tag_103\n      tag_157\n      jump\t// in\n        /* \"#utility.yul\":5014:5141   */\n    tag_115:\n        /* \"#utility.yul\":5075:5085   */\n      0x4e487b71\n        /* \"#utility.yul\":5070:5073   */\n      0xe0\n        /* \"#utility.yul\":5066:5086   */\n      shl\n        /* \"#utility.yul\":5063:5064   */\n      0x00\n        /* \"#utility.yul\":5056:5087   */\n      mstore\n        /* \"#utility.yul\":5106:5110   */\n      0x32\n        /* \"#utility.yul\":5103:5104   */\n      0x04\n        /* \"#utility.yul\":5096:5111   */\n      mstore\n        /* \"#utility.yul\":5130:5134   */\n      0x24\n        /* \"#utility.yul\":5127:5128   */\n      0x00\n        /* \"#utility.yul\":5120:5135   */\n      revert\n        /* \"#utility.yul\":5492:5667   */\n    tag_123:\n        /* \"#utility.yul\":5529:5532   */\n      0x00\n        /* \"#utility.yul\":5573:5577   */\n      0xff\n        /* \"#utility.yul\":5566:5571   */\n      dup3\n        /* \"#utility.yul\":5562:5578   */\n      and\n        /* \"#utility.yul\":5602:5606   */\n      0xff\n        /* \"#utility.yul\":5593:5600   */\n      dup2\n        /* \"#utility.yul\":5590:5607   */\n      sub\n        /* \"#utility.yul\":5587:5630   */\n      tag_200\n      jumpi\n        /* \"#utility.yul\":5610:5628   */\n      tag_200\n      tag_157\n      jump\t// in\n    tag_200:\n        /* \"#utility.yul\":5659:5660   */\n      0x01\n        /* \"#utility.yul\":5646:5661   */\n      add\n      swap3\n        /* \"#utility.yul\":5492:5667   */\n      swap2\n      pop\n      pop\n      jump\t// out\n        /* \"#utility.yul\":5672:5881   */\n    tag_127:\n        /* \"#utility.yul\":5704:5705   */\n      0x00\n        /* \"#utility.yul\":5730:5731   */\n      dup3\n        /* \"#utility.yul\":5720:5852   */\n      tag_202\n      jumpi\n        /* \"#utility.yul\":5774:5784   */\n      0x4e487b71\n        /* \"#utility.yul\":5769:5772   */\n      0xe0\n        /* \"#utility.yul\":5765:5785   */\n      shl\n        /* \"#utility.yul\":5762:5763   */\n      0x00\n        /* \"#utility.yul\":5755:5786   */\n      mstore\n        /* \"#utility.yul\":5809:5813   */\n      0x12\n        /* \"#utility.yul\":5806:5807   */\n      0x04\n        /* \"#utility.yul\":5799:5814   */\n      mstore\n        /* \"#utility.yul\":5837:5841   */\n      0x24\n        /* \"#utility.yul\":5834:5835   */\n      0x00\n        /* \"#utility.yul\":5827:5842   */\n      revert\n        /* \"#utility.yul\":5720:5852   */\n    tag_202:\n      pop\n        /* \"#utility.yul\":5866:5875   */\n      mod\n      swap1\n        /* \"#utility.yul\":5672:5881   */\n      jump\t// out\n\n    auxdata: 0xa2646970667358221220f2578e7334a7a337f0a82cfadca8bd7c3ab66f60f7a8cc4fecdbde2cb25f0ab964736f6c63430008100033\n}\n",
				"bytecode": {
					"linkReferences": {},
					"object": "6080604052600060035534801561001557600080fd5b5061001f33610024565b610074565b600080546001600160a01b038381166001600160a01b0319831681178455604051919092169283917f8be0079c531659141344cd1fd0a4f28419497f9722a3daafe3b4186f6b6457e09190a35050565b6109b2806100836000396000f3fe6080604052600436106100a75760003560e01c80638da5cb5b116100645780638da5cb5b1461017d578063c1af5785146101af578063d0e30db0146101c4578063ed1c274f146101cc578063ed7892f214610202578063f2fde38b1461023257600080fd5b80631a0843c0146100ac57806327e235e3146100ce57806327e605ec146100fb5780632e1a7d4d146101125780634773489214610132578063715018a614610168575b600080fd5b3480156100b857600080fd5b50475b6040519081526020015b60405180910390f35b3480156100da57600080fd5b506100bb6100e93660046107ad565b60016020526000908152604090205481565b34801561010757600080fd5b50610110610252565b005b34801561011e57600080fd5b5061011061012d3660046107dd565b610261565b34801561013e57600080fd5b506100bb61014d3660046107ad565b6001600160a01b031660009081526001602052604090205490565b34801561017457600080fd5b50610110610397565b34801561018957600080fd5b506000546001600160a01b03165b6040516001600160a01b0390911681526020016100c5565b3480156101bb57600080fd5b506101106103ab565b61011061043b565b3480156101d857600080fd5b506101976101e73660046107dd565b6002602052600090815260409020546001600160a01b031681565b34801561020e57600080fd5b5061022261021d36600461080c565b610461565b60405190151581526020016100c5565b34801561023e57600080fd5b5061011061024d3660046107ad565b61064e565b61025a6106c7565b6000600355565b336000908152600160205260409020548111156102c55760405162461bcd60e51b815260206004820152601f60248201527f496e73756666696369656e742066756e647320746f207769746864726177210060448201526064015b60405180910390fd5b33600090815260016020526040812080548392906102e49084906108e6565b9091555050604051631cd95b9d60e21b81526000903390839060040160006040518083038185875af1925050503d806000811461033d576040519150601f19603f3d011682016040523d82523d6000602084013e610342565b606091505b50509050806103935760405162461bcd60e51b815260206004820152601a60248201527f4661696c656420746f20776974686472617720616d6f756e742100000000000060448201526064016102bc565b5050565b61039f6106c7565b6103a96000610721565b565b33600090815260016020526040902054670de0b6b3a764000011156104055760405162461bcd60e51b815260206004820152601060248201526f2737ba1032b737bab3b41032ba3432b960811b60448201526064016102bc565b60038054600090815260026020526040812080546001600160a01b0319163317905581549190610434836108f9565b9190505550565b336000908152600160205260408120805434929061045a908490610912565b9091555050565b336000908152600160205260408120548211156104c05760405162461bcd60e51b815260206004820152601b60248201527f4e6f7420656e6f75676820457468657220696e206163636f756e74000000000060448201526064016102bc565b6003835110156105255760405162461bcd60e51b815260206004820152602a60248201527f43616e6e6f74206775657373206d6f7265207468616e203320706f737369626c60448201526965206f7574636f6d657360b01b60648201526084016102bc565b60005b83518160ff1610156105d0576006848260ff168151811061054b5761054b610925565b60200260200101511115801561057e57506001848260ff168151811061057357610573610925565b602002602001015110155b6105be5760405162461bcd60e51b815260206004820152601160248201527023bab2b9b990373ab6b132b9399018969b60791b60448201526064016102bc565b806105c88161093b565b915050610528565b50600060066105dd610771565b6105e7919061095a565b6105f2906001610912565b90506000805b85518160ff1610156106435782868260ff168151811061061a5761061a610925565b60200260200101511461062e578115610630565b815b508061063b8161093b565b9150506105f8565b509150505b92915050565b6106566106c7565b6001600160a01b0381166106bb5760405162461bcd60e51b815260206004820152602660248201527f4f776e61626c653a206e6577206f776e657220697320746865207a65726f206160448201526564647265737360d01b60648201526084016102bc565b6106c481610721565b50565b6000546001600160a01b031633146103a95760405162461bcd60e51b815260206004820181905260248201527f4f776e61626c653a2063616c6c6572206973206e6f7420746865206f776e657260448201526064016102bc565b600080546001600160a01b038381166001600160a01b0319831681178455604051919092169283917f8be0079c531659141344cd1fd0a4f28419497f9722a3daafe3b4186f6b6457e09190a35050565b6000424360405160200161078f929190918252602082015260400190565b6040516020818303038152906040528051906020012060001c905090565b6000602082840312156107bf57600080fd5b81356001600160a01b03811681146107d657600080fd5b9392505050565b6000602082840312156107ef57600080fd5b5035919050565b634e487b7160e01b600052604160045260246000fd5b6000806040838503121561081f57600080fd5b823567ffffffffffffffff8082111561083757600080fd5b818501915085601f83011261084b57600080fd5b813560208282111561085f5761085f6107f6565b8160051b604051601f19603f83011681018181108682111715610884576108846107f6565b6040529283528183019350848101820192898411156108a257600080fd5b948201945b838610156108c0578535855294820194938201936108a7565b9997909101359750505050505050565b634e487b7160e01b600052601160045260246000fd5b81810381811115610648576106486108d0565b60006001820161090b5761090b6108d0565b5060010190565b80820180821115610648576106486108d0565b634e487b7160e01b600052603260045260246000fd5b600060ff821660ff8103610951576109516108d0565b60010192915050565b60008261097757634e487b7160e01b600052601260045260246000fd5b50069056fea2646970667358221220f2578e7334a7a337f0a82cfadca8bd7c3ab66f60f7a8cc4fecdbde2cb25f0ab964736f6c63430008100033",
					"opcodes": "PUSH1 0x80 PUSH1 0x40 MSTORE PUSH1 0x0 PUSH1 0x3 SSTORE CALLVALUE DUP1 ISZERO PUSH2 0x15 JUMPI PUSH1 0x0 DUP1 REVERT JUMPDEST POP PUSH2 0x1F CALLER PUSH2 0x24 JUMP JUMPDEST PUSH2 0x74 JUMP JUMPDEST PUSH1 0x0 DUP1 SLOAD PUSH1 0x1 PUSH1 0x1 PUSH1 0xA0 SHL SUB DUP4 DUP2 AND PUSH1 0x1 PUSH1 0x1 PUSH1 0xA0 SHL SUB NOT DUP4 AND DUP2 OR DUP5 SSTORE PUSH1 0x40 MLOAD SWAP2 SWAP1 SWAP3 AND SWAP3 DUP4 SWAP2 PUSH32 0x8BE0079C531659141344CD1FD0A4F28419497F9722A3DAAFE3B4186F6B6457E0 SWAP2 SWAP1 LOG3 POP POP JUMP JUMPDEST PUSH2 0x9B2 DUP1 PUSH2 0x83 PUSH1 0x0 CODECOPY PUSH1 0x0 RETURN INVALID PUSH1 0x80 PUSH1 0x40 MSTORE PUSH1 0x4 CALLDATASIZE LT PUSH2 0xA7 JUMPI PUSH1 0x0 CALLDATALOAD PUSH1 0xE0 SHR DUP1 PUSH4 0x8DA5CB5B GT PUSH2 0x64 JUMPI DUP1 PUSH4 0x8DA5CB5B EQ PUSH2 0x17D JUMPI DUP1 PUSH4 0xC1AF5785 EQ PUSH2 0x1AF JUMPI DUP1 PUSH4 0xD0E30DB0 EQ PUSH2 0x1C4 JUMPI DUP1 PUSH4 0xED1C274F EQ PUSH2 0x1CC JUMPI DUP1 PUSH4 0xED7892F2 EQ PUSH2 0x202 JUMPI DUP1 PUSH4 0xF2FDE38B EQ PUSH2 0x232 JUMPI PUSH1 0x0 DUP1 REVERT JUMPDEST DUP1 PUSH4 0x1A0843C0 EQ PUSH2 0xAC JUMPI DUP1 PUSH4 0x27E235E3 EQ PUSH2 0xCE JUMPI DUP1 PUSH4 0x27E605EC EQ PUSH2 0xFB JUMPI DUP1 PUSH4 0x2E1A7D4D EQ PUSH2 0x112 JUMPI DUP1 PUSH4 0x47734892 EQ PUSH2 0x132 JUMPI DUP1 PUSH4 0x715018A6 EQ PUSH2 0x168 JUMPI JUMPDEST PUSH1 0x0 DUP1 REVERT JUMPDEST CALLVALUE DUP1 ISZERO PUSH2 0xB8 JUMPI PUSH1 0x0 DUP1 REVERT JUMPDEST POP SELFBALANCE JUMPDEST PUSH1 0x40 MLOAD SWAP1 DUP2 MSTORE PUSH1 0x20 ADD JUMPDEST PUSH1 0x40 MLOAD DUP1 SWAP2 SUB SWAP1 RETURN JUMPDEST CALLVALUE DUP1 ISZERO PUSH2 0xDA JUMPI PUSH1 0x0 DUP1 REVERT JUMPDEST POP PUSH2 0xBB PUSH2 0xE9 CALLDATASIZE PUSH1 0x4 PUSH2 0x7AD JUMP JUMPDEST PUSH1 0x1 PUSH1 0x20 MSTORE PUSH1 0x0 SWAP1 DUP2 MSTORE PUSH1 0x40 SWAP1 KECCAK256 SLOAD DUP2 JUMP JUMPDEST CALLVALUE DUP1 ISZERO PUSH2 0x107 JUMPI PUSH1 0x0 DUP1 REVERT JUMPDEST POP PUSH2 0x110 PUSH2 0x252 JUMP JUMPDEST STOP JUMPDEST CALLVALUE DUP1 ISZERO PUSH2 0x11E JUMPI PUSH1 0x0 DUP1 REVERT JUMPDEST POP PUSH2 0x110 PUSH2 0x12D CALLDATASIZE PUSH1 0x4 PUSH2 0x7DD JUMP JUMPDEST PUSH2 0x261 JUMP JUMPDEST CALLVALUE DUP1 ISZERO PUSH2 0x13E JUMPI PUSH1 0x0 DUP1 REVERT JUMPDEST POP PUSH2 0xBB PUSH2 0x14D CALLDATASIZE PUSH1 0x4 PUSH2 0x7AD JUMP JUMPDEST PUSH1 0x1 PUSH1 0x1 PUSH1 0xA0 SHL SUB AND PUSH1 0x0 SWAP1 DUP2 MSTORE PUSH1 0x1 PUSH1 0x20 MSTORE PUSH1 0x40 SWAP1 KECCAK256 SLOAD SWAP1 JUMP JUMPDEST CALLVALUE DUP1 ISZERO PUSH2 0x174 JUMPI PUSH1 0x0 DUP1 REVERT JUMPDEST POP PUSH2 0x110 PUSH2 0x397 JUMP JUMPDEST CALLVALUE DUP1 ISZERO PUSH2 0x189 JUMPI PUSH1 0x0 DUP1 REVERT JUMPDEST POP PUSH1 0x0 SLOAD PUSH1 0x1 PUSH1 0x1 PUSH1 0xA0 SHL SUB AND JUMPDEST PUSH1 0x40 MLOAD PUSH1 0x1 PUSH1 0x1 PUSH1 0xA0 SHL SUB SWAP1 SWAP2 AND DUP2 MSTORE PUSH1 0x20 ADD PUSH2 0xC5 JUMP JUMPDEST CALLVALUE DUP1 ISZERO PUSH2 0x1BB JUMPI PUSH1 0x0 DUP1 REVERT JUMPDEST POP PUSH2 0x110 PUSH2 0x3AB JUMP JUMPDEST PUSH2 0x110 PUSH2 0x43B JUMP JUMPDEST CALLVALUE DUP1 ISZERO PUSH2 0x1D8 JUMPI PUSH1 0x0 DUP1 REVERT JUMPDEST POP PUSH2 0x197 PUSH2 0x1E7 CALLDATASIZE PUSH1 0x4 PUSH2 0x7DD JUMP JUMPDEST PUSH1 0x2 PUSH1 0x20 MSTORE PUSH1 0x0 SWAP1 DUP2 MSTORE PUSH1 0x40 SWAP1 KECCAK256 SLOAD PUSH1 0x1 PUSH1 0x1 PUSH1 0xA0 SHL SUB AND DUP2 JUMP JUMPDEST CALLVALUE DUP1 ISZERO PUSH2 0x20E JUMPI PUSH1 0x0 DUP1 REVERT JUMPDEST POP PUSH2 0x222 PUSH2 0x21D CALLDATASIZE PUSH1 0x4 PUSH2 0x80C JUMP JUMPDEST PUSH2 0x461 JUMP JUMPDEST PUSH1 0x40 MLOAD SWAP1 ISZERO ISZERO DUP2 MSTORE PUSH1 0x20 ADD PUSH2 0xC5 JUMP JUMPDEST CALLVALUE DUP1 ISZERO PUSH2 0x23E JUMPI PUSH1 0x0 DUP1 REVERT JUMPDEST POP PUSH2 0x110 PUSH2 0x24D CALLDATASIZE PUSH1 0x4 PUSH2 0x7AD JUMP JUMPDEST PUSH2 0x64E JUMP JUMPDEST PUSH2 0x25A PUSH2 0x6C7 JUMP JUMPDEST PUSH1 0x0 PUSH1 0x3 SSTORE JUMP JUMPDEST CALLER PUSH1 0x0 SWAP1 DUP2 MSTORE PUSH1 0x1 PUSH1 0x20 MSTORE PUSH1 0x40 SWAP1 KECCAK256 SLOAD DUP2 GT ISZERO PUSH2 0x2C5 JUMPI PUSH1 0x40 MLOAD PUSH3 0x461BCD PUSH1 0xE5 SHL DUP2 MSTORE PUSH1 0x20 PUSH1 0x4 DUP3 ADD MSTORE PUSH1 0x1F PUSH1 0x24 DUP3 ADD MSTORE PUSH32 0x496E73756666696369656E742066756E647320746F2077697468647261772100 PUSH1 0x44 DUP3 ADD MSTORE PUSH1 0x64 ADD JUMPDEST PUSH1 0x40 MLOAD DUP1 SWAP2 SUB SWAP1 REVERT JUMPDEST CALLER PUSH1 0x0 SWAP1 DUP2 MSTORE PUSH1 0x1 PUSH1 0x20 MSTORE PUSH1 0x40 DUP2 KECCAK256 DUP1 SLOAD DUP4 SWAP3 SWAP1 PUSH2 0x2E4 SWAP1 DUP5 SWAP1 PUSH2 0x8E6 JUMP JUMPDEST SWAP1 SWAP2 SSTORE POP POP PUSH1 0x40 MLOAD PUSH4 0x1CD95B9D PUSH1 0xE2 SHL DUP2 MSTORE PUSH1 0x0 SWAP1 CALLER SWAP1 DUP4 SWAP1 PUSH1 0x4 ADD PUSH1 0x0 PUSH1 0x40 MLOAD DUP1 DUP4 SUB DUP2 DUP6 DUP8 GAS CALL SWAP3 POP POP POP RETURNDATASIZE DUP1 PUSH1 0x0 DUP2 EQ PUSH2 0x33D JUMPI PUSH1 0x40 MLOAD SWAP2 POP PUSH1 0x1F NOT PUSH1 0x3F RETURNDATASIZE ADD AND DUP3 ADD PUSH1 0x40 MSTORE RETURNDATASIZE DUP3 MSTORE RETURNDATASIZE PUSH1 0x0 PUSH1 0x20 DUP5 ADD RETURNDATACOPY PUSH2 0x342 JUMP JUMPDEST PUSH1 0x60 SWAP2 POP JUMPDEST POP POP SWAP1 POP DUP1 PUSH2 0x393 JUMPI PUSH1 0x40 MLOAD PUSH3 0x461BCD PUSH1 0xE5 SHL DUP2 MSTORE PUSH1 0x20 PUSH1 0x4 DUP3 ADD MSTORE PUSH1 0x1A PUSH1 0x24 DUP3 ADD MSTORE PUSH32 0x4661696C656420746F20776974686472617720616D6F756E7421000000000000 PUSH1 0x44 DUP3 ADD MSTORE PUSH1 0x64 ADD PUSH2 0x2BC JUMP JUMPDEST POP POP JUMP JUMPDEST PUSH2 0x39F PUSH2 0x6C7 JUMP JUMPDEST PUSH2 0x3A9 PUSH1 0x0 PUSH2 0x721 JUMP JUMPDEST JUMP JUMPDEST CALLER PUSH1 0x0 SWAP1 DUP2 MSTORE PUSH1 0x1 PUSH1 0x20 MSTORE PUSH1 0x40 SWAP1 KECCAK256 SLOAD PUSH8 0xDE0B6B3A7640000 GT ISZERO PUSH2 0x405 JUMPI PUSH1 0x40 MLOAD PUSH3 0x461BCD PUSH1 0xE5 SHL DUP2 MSTORE PUSH1 0x20 PUSH1 0x4 DUP3 ADD MSTORE PUSH1 0x10 PUSH1 0x24 DUP3 ADD MSTORE PUSH16 0x2737BA1032B737BAB3B41032BA3432B9 PUSH1 0x81 SHL PUSH1 0x44 DUP3 ADD MSTORE PUSH1 0x64 ADD PUSH2 0x2BC JUMP JUMPDEST PUSH1 0x3 DUP1 SLOAD PUSH1 0x0 SWAP1 DUP2 MSTORE PUSH1 0x2 PUSH1 0x20 MSTORE PUSH1 0x40 DUP2 KECCAK256 DUP1 SLOAD PUSH1 0x1 PUSH1 0x1 PUSH1 0xA0 SHL SUB NOT AND CALLER OR SWAP1 SSTORE DUP2 SLOAD SWAP2 SWAP1 PUSH2 0x434 DUP4 PUSH2 0x8F9 JUMP JUMPDEST SWAP2 SWAP1 POP SSTORE POP JUMP JUMPDEST CALLER PUSH1 0x0 SWAP1 DUP2 MSTORE PUSH1 0x1 PUSH1 0x20 MSTORE PUSH1 0x40 DUP2 KECCAK256 DUP1 SLOAD CALLVALUE SWAP3 SWAP1 PUSH2 0x45A SWAP1 DUP5 SWAP1 PUSH2 0x912 JUMP JUMPDEST SWAP1 SWAP2 SSTORE POP POP JUMP JUMPDEST CALLER PUSH1 0x0 SWAP1 DUP2 MSTORE PUSH1 0x1 PUSH1 0x20 MSTORE PUSH1 0x40 DUP2 KECCAK256 SLOAD DUP3 GT ISZERO PUSH2 0x4C0 JUMPI PUSH1 0x40 MLOAD PUSH3 0x461BCD PUSH1 0xE5 SHL DUP2 MSTORE PUSH1 0x20 PUSH1 0x4 DUP3 ADD MSTORE PUSH1 0x1B PUSH1 0x24 DUP3 ADD MSTORE PUSH32 0x4E6F7420656E6F75676820457468657220696E206163636F756E740000000000 PUSH1 0x44 DUP3 ADD MSTORE PUSH1 0x64 ADD PUSH2 0x2BC JUMP JUMPDEST PUSH1 0x3 DUP4 MLOAD LT ISZERO PUSH2 0x525 JUMPI PUSH1 0x40 MLOAD PUSH3 0x461BCD PUSH1 0xE5 SHL DUP2 MSTORE PUSH1 0x20 PUSH1 0x4 DUP3 ADD MSTORE PUSH1 0x2A PUSH1 0x24 DUP3 ADD MSTORE PUSH32 0x43616E6E6F74206775657373206D6F7265207468616E203320706F737369626C PUSH1 0x44 DUP3 ADD MSTORE PUSH10 0x65206F7574636F6D6573 PUSH1 0xB0 SHL PUSH1 0x64 DUP3 ADD MSTORE PUSH1 0x84 ADD PUSH2 0x2BC JUMP JUMPDEST PUSH1 0x0 JUMPDEST DUP4 MLOAD DUP2 PUSH1 0xFF AND LT ISZERO PUSH2 0x5D0 JUMPI PUSH1 0x6 DUP5 DUP3 PUSH1 0xFF AND DUP2 MLOAD DUP2 LT PUSH2 0x54B JUMPI PUSH2 0x54B PUSH2 0x925 JUMP JUMPDEST PUSH1 0x20 MUL PUSH1 0x20 ADD ADD MLOAD GT ISZERO DUP1 ISZERO PUSH2 0x57E JUMPI POP PUSH1 0x1 DUP5 DUP3 PUSH1 0xFF AND DUP2 MLOAD DUP2 LT PUSH2 0x573 JUMPI PUSH2 0x573 PUSH2 0x925 JUMP JUMPDEST PUSH1 0x20 MUL PUSH1 0x20 ADD ADD MLOAD LT ISZERO JUMPDEST PUSH2 0x5BE JUMPI PUSH1 0x40 MLOAD PUSH3 0x461BCD PUSH1 0xE5 SHL DUP2 MSTORE PUSH1 0x20 PUSH1 0x4 DUP3 ADD MSTORE PUSH1 0x11 PUSH1 0x24 DUP3 ADD MSTORE PUSH17 0x23BAB2B9B990373AB6B132B9399018969B PUSH1 0x79 SHL PUSH1 0x44 DUP3 ADD MSTORE PUSH1 0x64 ADD PUSH2 0x2BC JUMP JUMPDEST DUP1 PUSH2 0x5C8 DUP2 PUSH2 0x93B JUMP JUMPDEST SWAP2 POP POP PUSH2 0x528 JUMP JUMPDEST POP PUSH1 0x0 PUSH1 0x6 PUSH2 0x5DD PUSH2 0x771 JUMP JUMPDEST PUSH2 0x5E7 SWAP2 SWAP1 PUSH2 0x95A JUMP JUMPDEST PUSH2 0x5F2 SWAP1 PUSH1 0x1 PUSH2 0x912 JUMP JUMPDEST SWAP1 POP PUSH1 0x0 DUP1 JUMPDEST DUP6 MLOAD DUP2 PUSH1 0xFF AND LT ISZERO PUSH2 0x643 JUMPI DUP3 DUP7 DUP3 PUSH1 0xFF AND DUP2 MLOAD DUP2 LT PUSH2 0x61A JUMPI PUSH2 0x61A PUSH2 0x925 JUMP JUMPDEST PUSH1 0x20 MUL PUSH1 0x20 ADD ADD MLOAD EQ PUSH2 0x62E JUMPI DUP2 ISZERO PUSH2 0x630 JUMP JUMPDEST DUP2 JUMPDEST POP DUP1 PUSH2 0x63B DUP2 PUSH2 0x93B JUMP JUMPDEST SWAP2 POP POP PUSH2 0x5F8 JUMP JUMPDEST POP SWAP2 POP POP JUMPDEST SWAP3 SWAP2 POP POP JUMP JUMPDEST PUSH2 0x656 PUSH2 0x6C7 JUMP JUMPDEST PUSH1 0x1 PUSH1 0x1 PUSH1 0xA0 SHL SUB DUP2 AND PUSH2 0x6BB JUMPI PUSH1 0x40 MLOAD PUSH3 0x461BCD PUSH1 0xE5 SHL DUP2 MSTORE PUSH1 0x20 PUSH1 0x4 DUP3 ADD MSTORE PUSH1 0x26 PUSH1 0x24 DUP3 ADD MSTORE PUSH32 0x4F776E61626C653A206E6577206F776E657220697320746865207A65726F2061 PUSH1 0x44 DUP3 ADD MSTORE PUSH6 0x646472657373 PUSH1 0xD0 SHL PUSH1 0x64 DUP3 ADD MSTORE PUSH1 0x84 ADD PUSH2 0x2BC JUMP JUMPDEST PUSH2 0x6C4 DUP2 PUSH2 0x721 JUMP JUMPDEST POP JUMP JUMPDEST PUSH1 0x0 SLOAD PUSH1 0x1 PUSH1 0x1 PUSH1 0xA0 SHL SUB AND CALLER EQ PUSH2 0x3A9 JUMPI PUSH1 0x40 MLOAD PUSH3 0x461BCD PUSH1 0xE5 SHL DUP2 MSTORE PUSH1 0x20 PUSH1 0x4 DUP3 ADD DUP2 SWAP1 MSTORE PUSH1 0x24 DUP3 ADD MSTORE PUSH32 0x4F776E61626C653A2063616C6C6572206973206E6F7420746865206F776E6572 PUSH1 0x44 DUP3 ADD MSTORE PUSH1 0x64 ADD PUSH2 0x2BC JUMP JUMPDEST PUSH1 0x0 DUP1 SLOAD PUSH1 0x1 PUSH1 0x1 PUSH1 0xA0 SHL SUB DUP4 DUP2 AND PUSH1 0x1 PUSH1 0x1 PUSH1 0xA0 SHL SUB NOT DUP4 AND DUP2 OR DUP5 SSTORE PUSH1 0x40 MLOAD SWAP2 SWAP1 SWAP3 AND SWAP3 DUP4 SWAP2 PUSH32 0x8BE0079C531659141344CD1FD0A4F28419497F9722A3DAAFE3B4186F6B6457E0 SWAP2 SWAP1 LOG3 POP POP JUMP JUMPDEST PUSH1 0x0 TIMESTAMP NUMBER PUSH1 0x40 MLOAD PUSH1 0x20 ADD PUSH2 0x78F SWAP3 SWAP2 SWAP1 SWAP2 DUP3 MSTORE PUSH1 0x20 DUP3 ADD MSTORE PUSH1 0x40 ADD SWAP1 JUMP JUMPDEST PUSH1 0x40 MLOAD PUSH1 0x20 DUP2 DUP4 SUB SUB DUP2 MSTORE SWAP1 PUSH1 0x40 MSTORE DUP1 MLOAD SWAP1 PUSH1 0x20 ADD KECCAK256 PUSH1 0x0 SHR SWAP1 POP SWAP1 JUMP JUMPDEST PUSH1 0x0 PUSH1 0x20 DUP3 DUP5 SUB SLT ISZERO PUSH2 0x7BF JUMPI PUSH1 0x0 DUP1 REVERT JUMPDEST DUP2 CALLDATALOAD PUSH1 0x1 PUSH1 0x1 PUSH1 0xA0 SHL SUB DUP2 AND DUP2 EQ PUSH2 0x7D6 JUMPI PUSH1 0x0 DUP1 REVERT JUMPDEST SWAP4 SWAP3 POP POP POP JUMP JUMPDEST PUSH1 0x0 PUSH1 0x20 DUP3 DUP5 SUB SLT ISZERO PUSH2 0x7EF JUMPI PUSH1 0x0 DUP1 REVERT JUMPDEST POP CALLDATALOAD SWAP2 SWAP1 POP JUMP JUMPDEST PUSH4 0x4E487B71 PUSH1 0xE0 SHL PUSH1 0x0 MSTORE PUSH1 0x41 PUSH1 0x4 MSTORE PUSH1 0x24 PUSH1 0x0 REVERT JUMPDEST PUSH1 0x0 DUP1 PUSH1 0x40 DUP4 DUP6 SUB SLT ISZERO PUSH2 0x81F JUMPI PUSH1 0x0 DUP1 REVERT JUMPDEST DUP3 CALLDATALOAD PUSH8 0xFFFFFFFFFFFFFFFF DUP1 DUP3 GT ISZERO PUSH2 0x837 JUMPI PUSH1 0x0 DUP1 REVERT JUMPDEST DUP2 DUP6 ADD SWAP2 POP DUP6 PUSH1 0x1F DUP4 ADD SLT PUSH2 0x84B JUMPI PUSH1 0x0 DUP1 REVERT JUMPDEST DUP2 CALLDATALOAD PUSH1 0x20 DUP3 DUP3 GT ISZERO PUSH2 0x85F JUMPI PUSH2 0x85F PUSH2 0x7F6 JUMP JUMPDEST DUP2 PUSH1 0x5 SHL PUSH1 0x40 MLOAD PUSH1 0x1F NOT PUSH1 0x3F DUP4 ADD AND DUP2 ADD DUP2 DUP2 LT DUP7 DUP3 GT OR ISZERO PUSH2 0x884 JUMPI PUSH2 0x884 PUSH2 0x7F6 JUMP JUMPDEST PUSH1 0x40 MSTORE SWAP3 DUP4 MSTORE DUP2 DUP4 ADD SWAP4 POP DUP5 DUP2 ADD DUP3 ADD SWAP3 DUP10 DUP5 GT ISZERO PUSH2 0x8A2 JUMPI PUSH1 0x0 DUP1 REVERT JUMPDEST SWAP5 DUP3 ADD SWAP5 JUMPDEST DUP4 DUP7 LT ISZERO PUSH2 0x8C0 JUMPI DUP6 CALLDATALOAD DUP6 MSTORE SWAP5 DUP3 ADD SWAP5 SWAP4 DUP3 ADD SWAP4 PUSH2 0x8A7 JUMP JUMPDEST SWAP10 SWAP8 SWAP1 SWAP2 ADD CALLDATALOAD SWAP8 POP POP POP POP POP POP POP JUMP JUMPDEST PUSH4 0x4E487B71 PUSH1 0xE0 SHL PUSH1 0x0 MSTORE PUSH1 0x11 PUSH1 0x4 MSTORE PUSH1 0x24 PUSH1 0x0 REVERT JUMPDEST DUP2 DUP2 SUB DUP2 DUP2 GT ISZERO PUSH2 0x648 JUMPI PUSH2 0x648 PUSH2 0x8D0 JUMP JUMPDEST PUSH1 0x0 PUSH1 0x1 DUP3 ADD PUSH2 0x90B JUMPI PUSH2 0x90B PUSH2 0x8D0 JUMP JUMPDEST POP PUSH1 0x1 ADD SWAP1 JUMP JUMPDEST DUP1 DUP3 ADD DUP1 DUP3 GT ISZERO PUSH2 0x648 JUMPI PUSH2 0x648 PUSH2 0x8D0 JUMP JUMPDEST PUSH4 0x4E487B71 PUSH1 0xE0 SHL PUSH1 0x0 MSTORE PUSH1 0x32 PUSH1 0x4 MSTORE PUSH1 0x24 PUSH1 0x0 REVERT JUMPDEST PUSH1 0x0 PUSH1 0xFF DUP3 AND PUSH1 0xFF DUP2 SUB PUSH2 0x951 JUMPI PUSH2 0x951 PUSH2 0x8D0 JUMP JUMPDEST PUSH1 0x1 ADD SWAP3 SWAP2 POP POP JUMP JUMPDEST PUSH1 0x0 DUP3 PUSH2 0x977 JUMPI PUSH4 0x4E487B71 PUSH1 0xE0 SHL PUSH1 0x0 MSTORE PUSH1 0x12 PUSH1 0x4 MSTORE PUSH1 0x24 PUSH1 0x0 REVERT JUMPDEST POP MOD SWAP1 JUMP INVALID LOG2 PUSH5 0x6970667358 0x22 SLT KECCAK256 CALLCODE JUMPI DUP15 PUSH20 0x34A7A337F0A82CFADCA8BD7C3AB66F60F7A8CC4F 0xEC 0xDB 0xDE 0x2C 0xB2 0x5F EXP 0xB9 PUSH5 0x736F6C6343 STOP ADDMOD LT STOP CALLER "
				},
				"gasEstimates": {
					"creation": {
						"codeDepositCost": "496400",
						"executionCost": "31377",
						"totalCost": "527777"
					},
					"external": {
						"balances(address)": "2496",
						"deposit()": "24534",
						"drawLottery()": "7359",
						"enterLottery()": "53050",
						"getCasinoBalance()": "173",
						"getUserBalance(address)": "2580",
						"lotteryEntries(uint256)": "2543",
						"owner()": "2320",
						"renounceOwnership()": "infinite",
						"rollDice(uint256[],uint256)": "infinite",
						"transferOwnership(address)": "28408",
						"withdraw(uint256)": "infinite"
					},
					"internal": {
						"getRandomValue()": "infinite"
					}
				},
				"methodIdentifiers": {
					"balances(address)": "27e235e3",
					"deposit()": "d0e30db0",
					"drawLottery()": "27e605ec",
					"enterLottery()": "c1af5785",
					"getCasinoBalance()": "1a0843c0",
					"getUserBalance(address)": "47734892",
					"lotteryEntries(uint256)": "ed1c274f",
					"owner()": "8da5cb5b",
					"renounceOwnership()": "715018a6",
					"rollDice(uint256[],uint256)": "ed7892f2",
					"transferOwnership(address)": "f2fde38b",
					"withdraw(uint256)": "2e1a7d4d"
				}
			},
			"storageLayout": {
				"storage": [
					{
						"astId": 7,
						"contract": "contracts/main.sol:Casino",
						"label": "_owner",
						"offset": 0,
						"slot": "0",
						"type": "t_address"
					},
					{
						"astId": 143,
						"contract": "contracts/main.sol:Casino",
						"label": "balances",
						"offset": 0,
						"slot": "1",
						"type": "t_mapping(t_address,t_uint256)"
					},
					{
						"astId": 147,
						"contract": "contracts/main.sol:Casino",
						"label": "lotteryEntries",
						"offset": 0,
						"slot": "2",
						"type": "t_mapping(t_uint256,t_address)"
					},
					{
						"astId": 150,
						"contract": "contracts/main.sol:Casino",
						"label": "entryNum",
						"offset": 0,
						"slot": "3",
						"type": "t_uint256"
					}
				],
				"types": {
					"t_address": {
						"encoding": "inplace",
						"label": "address",
						"numberOfBytes": "20"
					},
					"t_mapping(t_address,t_uint256)": {
						"encoding": "mapping",
						"key": "t_address",
						"label": "mapping(address => uint256)",
						"numberOfBytes": "32",
						"value": "t_uint256"
					},
					"t_mapping(t_uint256,t_address)": {
						"encoding": "mapping",
						"key": "t_uint256",
						"label": "mapping(uint256 => address)",
						"numberOfBytes": "32",
						"value": "t_address"
					},
					"t_uint256": {
						"encoding": "inplace",
						"label": "uint256",
						"numberOfBytes": "32"
					}
				}
			},
			"userdoc": {
				"kind": "user",
				"methods": {},
				"version": 1
			}
		}
	}
}