{
	"contracts/main.sol": {
		"Casino": {
			"abi": [
				{
					"anonymous": false,
					"inputs": [
						{
							"indexed": true,
							"internalType": "address",
							"name": "previousOwner",
							"type": "address"
						},
						{
							"indexed": true,
							"internalType": "address",
							"name": "newOwner",
							"type": "address"
						}
					],
					"name": "OwnershipTransferred",
					"type": "event"
				},
				{
					"inputs": [
						{
							"internalType": "address",
							"name": "",
							"type": "address"
						}
					],
					"name": "balances",
					"outputs": [
						{
							"internalType": "uint256",
							"name": "",
							"type": "uint256"
						}
					],
					"stateMutability": "view",
					"type": "function"
				},
				{
					"inputs": [],
					"name": "deposit",
					"outputs": [],
					"stateMutability": "payable",
					"type": "function"
				},
				{
					"inputs": [],
					"name": "enterLottery",
					"outputs": [],
					"stateMutability": "nonpayable",
					"type": "function"
				},
				{
					"inputs": [],
					"name": "getCasinoBalance",
					"outputs": [
						{
							"internalType": "uint256",
							"name": "",
							"type": "uint256"
						}
					],
					"stateMutability": "view",
					"type": "function"
				},
				{
					"inputs": [
						{
							"internalType": "address",
							"name": "_user",
							"type": "address"
						}
					],
					"name": "getUserBalance",
					"outputs": [
						{
							"internalType": "uint256",
							"name": "",
							"type": "uint256"
						}
					],
					"stateMutability": "view",
					"type": "function"
				},
				{
					"inputs": [
						{
							"internalType": "uint256",
							"name": "",
							"type": "uint256"
						}
					],
					"name": "lotteryEntries",
					"outputs": [
						{
							"internalType": "address",
							"name": "",
							"type": "address"
						}
					],
					"stateMutability": "view",
					"type": "function"
				},
				{
					"inputs": [],
					"name": "owner",
					"outputs": [
						{
							"internalType": "address",
							"name": "",
							"type": "address"
						}
					],
					"stateMutability": "view",
					"type": "function"
				},
				{
					"inputs": [],
					"name": "renounceOwnership",
					"outputs": [],
					"stateMutability": "nonpayable",
					"type": "function"
				},
				{
					"inputs": [
						{
							"internalType": "uint256[]",
							"name": "_guesses",
							"type": "uint256[]"
						},
						{
							"internalType": "uint256",
							"name": "_bet",
							"type": "uint256"
						}
					],
					"name": "rollDice",
					"outputs": [
						{
							"internalType": "bool",
							"name": "",
							"type": "bool"
						}
					],
					"stateMutability": "view",
					"type": "function"
				},
				{
					"inputs": [
						{
							"internalType": "address",
							"name": "newOwner",
							"type": "address"
						}
					],
					"name": "transferOwnership",
					"outputs": [],
					"stateMutability": "nonpayable",
					"type": "function"
				},
				{
					"inputs": [
						{
							"internalType": "uint256",
							"name": "_amount",
							"type": "uint256"
						}
					],
					"name": "withdraw",
					"outputs": [],
					"stateMutability": "nonpayable",
					"type": "function"
				}
			],
			"devdoc": {
				"kind": "dev",
				"methods": {
					"owner()": {
						"details": "Returns the address of the current owner."
					},
					"renounceOwnership()": {
						"details": "Leaves the contract without owner. It will not be possible to call `onlyOwner` functions anymore. Can only be called by the current owner. NOTE: Renouncing ownership will leave the contract without an owner, thereby removing any functionality that is only available to the owner."
					},
					"transferOwnership(address)": {
						"details": "Transfers ownership of the contract to a new account (`newOwner`). Can only be called by the current owner."
					}
				},
				"version": 1
			},
			"evm": {
				"assembly": "    /* \"contracts/main.sol\":600:3001  contract Casino is Ownable {... */\n  mstore(0x40, 0x80)\n  callvalue\n  dup1\n  iszero\n  tag_1\n  jumpi\n  0x00\n  dup1\n  revert\ntag_1:\n  pop\n    /* \"@openzeppelin/contracts/access/Ownable.sol\":936:968  _transferOwnership(_msgSender()) */\n  tag_4\n    /* \"@openzeppelin/contracts/access/Ownable.sol\":955:967  _msgSender() */\n  tag_5\n    /* \"@openzeppelin/contracts/access/Ownable.sol\":955:965  _msgSender */\n  shl(0x20, tag_6)\n    /* \"@openzeppelin/contracts/access/Ownable.sol\":955:967  _msgSender() */\n  0x20\n  shr\n  jump\t// in\ntag_5:\n    /* \"@openzeppelin/contracts/access/Ownable.sol\":936:954  _transferOwnership */\n  shl(0x20, tag_7)\n    /* \"@openzeppelin/contracts/access/Ownable.sol\":936:968  _transferOwnership(_msgSender()) */\n  0x20\n  shr\n  jump\t// in\ntag_4:\n    /* \"contracts/main.sol\":600:3001  contract Casino is Ownable {... */\n  jump(tag_8)\n    /* \"@openzeppelin/contracts/utils/Context.sol\":640:736  function _msgSender() internal view virtual returns (address) {... */\ntag_6:\n    /* \"@openzeppelin/contracts/utils/Context.sol\":693:700  address */\n  0x00\n    /* \"@openzeppelin/contracts/utils/Context.sol\":719:729  msg.sender */\n  caller\n    /* \"@openzeppelin/contracts/utils/Context.sol\":712:729  return msg.sender */\n  swap1\n  pop\n    /* \"@openzeppelin/contracts/utils/Context.sol\":640:736  function _msgSender() internal view virtual returns (address) {... */\n  swap1\n  jump\t// out\n    /* \"@openzeppelin/contracts/access/Ownable.sol\":2433:2620  function _transferOwnership(address newOwner) internal virtual {... */\ntag_7:\n    /* \"@openzeppelin/contracts/access/Ownable.sol\":2506:2522  address oldOwner */\n  0x00\n    /* \"@openzeppelin/contracts/access/Ownable.sol\":2525:2531  _owner */\n  dup1\n  0x00\n  swap1\n  sload\n  swap1\n  0x0100\n  exp\n  swap1\n  div\n  0xffffffffffffffffffffffffffffffffffffffff\n  and\n    /* \"@openzeppelin/contracts/access/Ownable.sol\":2506:2531  address oldOwner = _owner */\n  swap1\n  pop\n    /* \"@openzeppelin/contracts/access/Ownable.sol\":2550:2558  newOwner */\n  dup2\n    /* \"@openzeppelin/contracts/access/Ownable.sol\":2541:2547  _owner */\n  0x00\n  dup1\n    /* \"@openzeppelin/contracts/access/Ownable.sol\":2541:2558  _owner = newOwner */\n  0x0100\n  exp\n  dup2\n  sload\n  dup2\n  0xffffffffffffffffffffffffffffffffffffffff\n  mul\n  not\n  and\n  swap1\n  dup4\n  0xffffffffffffffffffffffffffffffffffffffff\n  and\n  mul\n  or\n  swap1\n  sstore\n  pop\n    /* \"@openzeppelin/contracts/access/Ownable.sol\":2604:2612  newOwner */\n  dup2\n    /* \"@openzeppelin/contracts/access/Ownable.sol\":2573:2613  OwnershipTransferred(oldOwner, newOwner) */\n  0xffffffffffffffffffffffffffffffffffffffff\n  and\n    /* \"@openzeppelin/contracts/access/Ownable.sol\":2594:2602  oldOwner */\n  dup2\n    /* \"@openzeppelin/contracts/access/Ownable.sol\":2573:2613  OwnershipTransferred(oldOwner, newOwner) */\n  0xffffffffffffffffffffffffffffffffffffffff\n  and\n  0x8be0079c531659141344cd1fd0a4f28419497f9722a3daafe3b4186f6b6457e0\n  mload(0x40)\n  mload(0x40)\n  dup1\n  swap2\n  sub\n  swap1\n  log3\n    /* \"@openzeppelin/contracts/access/Ownable.sol\":2496:2620  {... */\n  pop\n    /* \"@openzeppelin/contracts/access/Ownable.sol\":2433:2620  function _transferOwnership(address newOwner) internal virtual {... */\n  pop\n  jump\t// out\n    /* \"contracts/main.sol\":600:3001  contract Casino is Ownable {... */\ntag_8:\n  dataSize(sub_0)\n  dup1\n  dataOffset(sub_0)\n  0x00\n  codecopy\n  0x00\n  return\nstop\n\nsub_0: assembly {\n        /* \"contracts/main.sol\":600:3001  contract Casino is Ownable {... */\n      mstore(0x40, 0x80)\n      jumpi(tag_1, lt(calldatasize, 0x04))\n      shr(0xe0, calldataload(0x00))\n      dup1\n      0x8da5cb5b\n      gt\n      tag_13\n      jumpi\n      dup1\n      0x8da5cb5b\n      eq\n      tag_7\n      jumpi\n      dup1\n      0xc1af5785\n      eq\n      tag_8\n      jumpi\n      dup1\n      0xd0e30db0\n      eq\n      tag_9\n      jumpi\n      dup1\n      0xed1c274f\n      eq\n      tag_10\n      jumpi\n      dup1\n      0xed7892f2\n      eq\n      tag_11\n      jumpi\n      dup1\n      0xf2fde38b\n      eq\n      tag_12\n      jumpi\n      jump(tag_1)\n    tag_13:\n      dup1\n      0x1a0843c0\n      eq\n      tag_2\n      jumpi\n      dup1\n      0x27e235e3\n      eq\n      tag_3\n      jumpi\n      dup1\n      0x2e1a7d4d\n      eq\n      tag_4\n      jumpi\n      dup1\n      0x47734892\n      eq\n      tag_5\n      jumpi\n      dup1\n      0x715018a6\n      eq\n      tag_6\n      jumpi\n    tag_1:\n      0x00\n      dup1\n      revert\n        /* \"contracts/main.sol\":1514:1616  function getCasinoBalance() public view returns(uint256) {... */\n    tag_2:\n      callvalue\n      dup1\n      iszero\n      tag_14\n      jumpi\n      0x00\n      dup1\n      revert\n    tag_14:\n      pop\n      tag_15\n      tag_16\n      jump\t// in\n    tag_15:\n      mload(0x40)\n      tag_17\n      swap2\n      swap1\n      tag_18\n      jump\t// in\n    tag_17:\n      mload(0x40)\n      dup1\n      swap2\n      sub\n      swap1\n      return\n        /* \"contracts/main.sol\":672:712  mapping(address=>uint256)public balances */\n    tag_3:\n      callvalue\n      dup1\n      iszero\n      tag_19\n      jumpi\n      0x00\n      dup1\n      revert\n    tag_19:\n      pop\n      tag_20\n      0x04\n      dup1\n      calldatasize\n      sub\n      dup2\n      add\n      swap1\n      tag_21\n      swap2\n      swap1\n      tag_22\n      jump\t// in\n    tag_21:\n      tag_23\n      jump\t// in\n    tag_20:\n      mload(0x40)\n      tag_24\n      swap2\n      swap1\n      tag_18\n      jump\t// in\n    tag_24:\n      mload(0x40)\n      dup1\n      swap2\n      sub\n      swap1\n      return\n        /* \"contracts/main.sol\":1045:1508  function withdraw(uint256 _amount) public {... */\n    tag_4:\n      callvalue\n      dup1\n      iszero\n      tag_25\n      jumpi\n      0x00\n      dup1\n      revert\n    tag_25:\n      pop\n      tag_26\n      0x04\n      dup1\n      calldatasize\n      sub\n      dup2\n      add\n      swap1\n      tag_27\n      swap2\n      swap1\n      tag_28\n      jump\t// in\n    tag_27:\n      tag_29\n      jump\t// in\n    tag_26:\n      stop\n        /* \"contracts/main.sol\":1622:1730  function getUserBalance(address _user) public view returns (uint256) {... */\n    tag_5:\n      callvalue\n      dup1\n      iszero\n      tag_30\n      jumpi\n      0x00\n      dup1\n      revert\n    tag_30:\n      pop\n      tag_31\n      0x04\n      dup1\n      calldatasize\n      sub\n      dup2\n      add\n      swap1\n      tag_32\n      swap2\n      swap1\n      tag_22\n      jump\t// in\n    tag_32:\n      tag_33\n      jump\t// in\n    tag_31:\n      mload(0x40)\n      tag_34\n      swap2\n      swap1\n      tag_18\n      jump\t// in\n    tag_34:\n      mload(0x40)\n      dup1\n      swap2\n      sub\n      swap1\n      return\n        /* \"@openzeppelin/contracts/access/Ownable.sol\":1831:1932  function renounceOwnership() public virtual onlyOwner {... */\n    tag_6:\n      callvalue\n      dup1\n      iszero\n      tag_35\n      jumpi\n      0x00\n      dup1\n      revert\n    tag_35:\n      pop\n      tag_36\n      tag_37\n      jump\t// in\n    tag_36:\n      stop\n        /* \"@openzeppelin/contracts/access/Ownable.sol\":1201:1286  function owner() public view virtual returns (address) {... */\n    tag_7:\n      callvalue\n      dup1\n      iszero\n      tag_38\n      jumpi\n      0x00\n      dup1\n      revert\n    tag_38:\n      pop\n      tag_39\n      tag_40\n      jump\t// in\n    tag_39:\n      mload(0x40)\n      tag_41\n      swap2\n      swap1\n      tag_42\n      jump\t// in\n    tag_41:\n      mload(0x40)\n      dup1\n      swap2\n      sub\n      swap1\n      return\n        /* \"contracts/main.sol\":2840:2997  function enterLottery() public { // for arbitrary value entry set to 1 ether... */\n    tag_8:\n      callvalue\n      dup1\n      iszero\n      tag_43\n      jumpi\n      0x00\n      dup1\n      revert\n    tag_43:\n      pop\n      tag_44\n      tag_45\n      jump\t// in\n    tag_44:\n      stop\n        /* \"contracts/main.sol\":772:856  function deposit() public payable {... */\n    tag_9:\n      tag_46\n      tag_47\n      jump\t// in\n    tag_46:\n      stop\n        /* \"contracts/main.sol\":718:765  mapping(uint256=>address) public lotteryEntries */\n    tag_10:\n      callvalue\n      dup1\n      iszero\n      tag_48\n      jumpi\n      0x00\n      dup1\n      revert\n    tag_48:\n      pop\n      tag_49\n      0x04\n      dup1\n      calldatasize\n      sub\n      dup2\n      add\n      swap1\n      tag_50\n      swap2\n      swap1\n      tag_28\n      jump\t// in\n    tag_50:\n      tag_51\n      jump\t// in\n    tag_49:\n      mload(0x40)\n      tag_52\n      swap2\n      swap1\n      tag_42\n      jump\t// in\n    tag_52:\n      mload(0x40)\n      dup1\n      swap2\n      sub\n      swap1\n      return\n        /* \"contracts/main.sol\":2046:2833  function rollDice(uint256[] memory _guesses, uint256 _bet) public view returns (bool) {... */\n    tag_11:\n      callvalue\n      dup1\n      iszero\n      tag_53\n      jumpi\n      0x00\n      dup1\n      revert\n    tag_53:\n      pop\n      tag_54\n      0x04\n      dup1\n      calldatasize\n      sub\n      dup2\n      add\n      swap1\n      tag_55\n      swap2\n      swap1\n      tag_56\n      jump\t// in\n    tag_55:\n      tag_57\n      jump\t// in\n    tag_54:\n      mload(0x40)\n      tag_58\n      swap2\n      swap1\n      tag_59\n      jump\t// in\n    tag_58:\n      mload(0x40)\n      dup1\n      swap2\n      sub\n      swap1\n      return\n        /* \"@openzeppelin/contracts/access/Ownable.sol\":2081:2279  function transferOwnership(address newOwner) public virtual onlyOwner {... */\n    tag_12:\n      callvalue\n      dup1\n      iszero\n      tag_60\n      jumpi\n      0x00\n      dup1\n      revert\n    tag_60:\n      pop\n      tag_61\n      0x04\n      dup1\n      calldatasize\n      sub\n      dup2\n      add\n      swap1\n      tag_62\n      swap2\n      swap1\n      tag_22\n      jump\t// in\n    tag_62:\n      tag_63\n      jump\t// in\n    tag_61:\n      stop\n        /* \"contracts/main.sol\":1514:1616  function getCasinoBalance() public view returns(uint256) {... */\n    tag_16:\n        /* \"contracts/main.sol\":1562:1569  uint256 */\n      0x00\n        /* \"contracts/main.sol\":1588:1609  address(this).balance */\n      selfbalance\n        /* \"contracts/main.sol\":1581:1609  return address(this).balance */\n      swap1\n      pop\n        /* \"contracts/main.sol\":1514:1616  function getCasinoBalance() public view returns(uint256) {... */\n      swap1\n      jump\t// out\n        /* \"contracts/main.sol\":672:712  mapping(address=>uint256)public balances */\n    tag_23:\n      mstore(0x20, 0x01)\n      dup1\n      0x00\n      mstore\n      keccak256(0x00, 0x40)\n      0x00\n      swap2\n      pop\n      swap1\n      pop\n      sload\n      dup2\n      jump\t// out\n        /* \"contracts/main.sol\":1045:1508  function withdraw(uint256 _amount) public {... */\n    tag_29:\n        /* \"contracts/main.sol\":1184:1191  _amount */\n      dup1\n        /* \"contracts/main.sol\":1160:1168  balances */\n      0x01\n        /* \"contracts/main.sol\":1160:1180  balances[msg.sender] */\n      0x00\n        /* \"contracts/main.sol\":1169:1179  msg.sender */\n      caller\n        /* \"contracts/main.sol\":1160:1180  balances[msg.sender] */\n      0xffffffffffffffffffffffffffffffffffffffff\n      and\n      0xffffffffffffffffffffffffffffffffffffffff\n      and\n      dup2\n      mstore\n      0x20\n      add\n      swap1\n      dup2\n      mstore\n      0x20\n      add\n      0x00\n      keccak256\n      sload\n        /* \"contracts/main.sol\":1160:1191  balances[msg.sender] >= _amount */\n      lt\n      iszero\n        /* \"contracts/main.sol\":1152:1227  require(balances[msg.sender] >= _amount, \"Insufficient funds to withdraw!\") */\n      tag_66\n      jumpi\n      mload(0x40)\n      0x08c379a000000000000000000000000000000000000000000000000000000000\n      dup2\n      mstore\n      0x04\n      add\n      tag_67\n      swap1\n      tag_68\n      jump\t// in\n    tag_67:\n      mload(0x40)\n      dup1\n      swap2\n      sub\n      swap1\n      revert\n    tag_66:\n        /* \"contracts/main.sol\":1296:1303  _amount */\n      dup1\n        /* \"contracts/main.sol\":1272:1280  balances */\n      0x01\n        /* \"contracts/main.sol\":1272:1292  balances[msg.sender] */\n      0x00\n        /* \"contracts/main.sol\":1281:1291  msg.sender */\n      caller\n        /* \"contracts/main.sol\":1272:1292  balances[msg.sender] */\n      0xffffffffffffffffffffffffffffffffffffffff\n      and\n      0xffffffffffffffffffffffffffffffffffffffff\n      and\n      dup2\n      mstore\n      0x20\n      add\n      swap1\n      dup2\n      mstore\n      0x20\n      add\n      0x00\n      keccak256\n      0x00\n        /* \"contracts/main.sol\":1272:1303  balances[msg.sender] -= _amount */\n      dup3\n      dup3\n      sload\n      tag_69\n      swap2\n      swap1\n      tag_70\n      jump\t// in\n    tag_69:\n      swap3\n      pop\n      pop\n      dup2\n      swap1\n      sstore\n      pop\n        /* \"contracts/main.sol\":1340:1349  bool sent */\n      0x00\n        /* \"contracts/main.sol\":1354:1364  msg.sender */\n      caller\n        /* \"contracts/main.sol\":1354:1369  msg.sender.call */\n      0xffffffffffffffffffffffffffffffffffffffff\n      and\n        /* \"contracts/main.sol\":1377:1384  _amount */\n      dup3\n        /* \"contracts/main.sol\":1354:1393  msg.sender.call{value: _amount}(\"sent\") */\n      mload(0x40)\n      tag_71\n      swap1\n      tag_72\n      jump\t// in\n    tag_71:\n      0x00\n      mload(0x40)\n      dup1\n      dup4\n      sub\n      dup2\n      dup6\n      dup8\n      gas\n      call\n      swap3\n      pop\n      pop\n      pop\n      returndatasize\n      dup1\n      0x00\n      dup2\n      eq\n      tag_75\n      jumpi\n      mload(0x40)\n      swap2\n      pop\n      and(add(returndatasize, 0x3f), not(0x1f))\n      dup3\n      add\n      0x40\n      mstore\n      returndatasize\n      dup3\n      mstore\n      returndatasize\n      0x00\n      0x20\n      dup5\n      add\n      returndatacopy\n      jump(tag_74)\n    tag_75:\n      0x60\n      swap2\n      pop\n    tag_74:\n      pop\n        /* \"contracts/main.sol\":1339:1393  (bool sent,) = msg.sender.call{value: _amount}(\"sent\") */\n      pop\n      swap1\n      pop\n        /* \"contracts/main.sol\":1466:1470  sent */\n      dup1\n        /* \"contracts/main.sol\":1458:1501  require(sent, \"Failed to withdraw amount!\") */\n      tag_76\n      jumpi\n      mload(0x40)\n      0x08c379a000000000000000000000000000000000000000000000000000000000\n      dup2\n      mstore\n      0x04\n      add\n      tag_77\n      swap1\n      tag_78\n      jump\t// in\n    tag_77:\n      mload(0x40)\n      dup1\n      swap2\n      sub\n      swap1\n      revert\n    tag_76:\n        /* \"contracts/main.sol\":1087:1508  {... */\n      pop\n        /* \"contracts/main.sol\":1045:1508  function withdraw(uint256 _amount) public {... */\n      pop\n      jump\t// out\n        /* \"contracts/main.sol\":1622:1730  function getUserBalance(address _user) public view returns (uint256) {... */\n    tag_33:\n        /* \"contracts/main.sol\":1682:1689  uint256 */\n      0x00\n        /* \"contracts/main.sol\":1708:1716  balances */\n      0x01\n        /* \"contracts/main.sol\":1708:1723  balances[_user] */\n      0x00\n        /* \"contracts/main.sol\":1717:1722  _user */\n      dup4\n        /* \"contracts/main.sol\":1708:1723  balances[_user] */\n      0xffffffffffffffffffffffffffffffffffffffff\n      and\n      0xffffffffffffffffffffffffffffffffffffffff\n      and\n      dup2\n      mstore\n      0x20\n      add\n      swap1\n      dup2\n      mstore\n      0x20\n      add\n      0x00\n      keccak256\n      sload\n        /* \"contracts/main.sol\":1701:1723  return balances[_user] */\n      swap1\n      pop\n        /* \"contracts/main.sol\":1622:1730  function getUserBalance(address _user) public view returns (uint256) {... */\n      swap2\n      swap1\n      pop\n      jump\t// out\n        /* \"@openzeppelin/contracts/access/Ownable.sol\":1831:1932  function renounceOwnership() public virtual onlyOwner {... */\n    tag_37:\n        /* \"@openzeppelin/contracts/access/Ownable.sol\":1094:1107  _checkOwner() */\n      tag_81\n        /* \"@openzeppelin/contracts/access/Ownable.sol\":1094:1105  _checkOwner */\n      tag_82\n        /* \"@openzeppelin/contracts/access/Ownable.sol\":1094:1107  _checkOwner() */\n      jump\t// in\n    tag_81:\n        /* \"@openzeppelin/contracts/access/Ownable.sol\":1895:1925  _transferOwnership(address(0)) */\n      tag_84\n        /* \"@openzeppelin/contracts/access/Ownable.sol\":1922:1923  0 */\n      0x00\n        /* \"@openzeppelin/contracts/access/Ownable.sol\":1895:1913  _transferOwnership */\n      tag_85\n        /* \"@openzeppelin/contracts/access/Ownable.sol\":1895:1925  _transferOwnership(address(0)) */\n      jump\t// in\n    tag_84:\n        /* \"@openzeppelin/contracts/access/Ownable.sol\":1831:1932  function renounceOwnership() public virtual onlyOwner {... */\n      jump\t// out\n        /* \"@openzeppelin/contracts/access/Ownable.sol\":1201:1286  function owner() public view virtual returns (address) {... */\n    tag_40:\n        /* \"@openzeppelin/contracts/access/Ownable.sol\":1247:1254  address */\n      0x00\n        /* \"@openzeppelin/contracts/access/Ownable.sol\":1273:1279  _owner */\n      dup1\n      0x00\n      swap1\n      sload\n      swap1\n      0x0100\n      exp\n      swap1\n      div\n      0xffffffffffffffffffffffffffffffffffffffff\n      and\n        /* \"@openzeppelin/contracts/access/Ownable.sol\":1266:1279  return _owner */\n      swap1\n      pop\n        /* \"@openzeppelin/contracts/access/Ownable.sol\":1201:1286  function owner() public view virtual returns (address) {... */\n      swap1\n      jump\t// out\n        /* \"contracts/main.sol\":2840:2997  function enterLottery() public { // for arbitrary value entry set to 1 ether... */\n    tag_45:\n        /* \"contracts/main.sol\":2959:2966  1 ether */\n      0x0de0b6b3a7640000\n        /* \"contracts/main.sol\":2935:2943  balances */\n      0x01\n        /* \"contracts/main.sol\":2935:2955  balances[msg.sender] */\n      0x00\n        /* \"contracts/main.sol\":2944:2954  msg.sender */\n      caller\n        /* \"contracts/main.sol\":2935:2955  balances[msg.sender] */\n      0xffffffffffffffffffffffffffffffffffffffff\n      and\n      0xffffffffffffffffffffffffffffffffffffffff\n      and\n      dup2\n      mstore\n      0x20\n      add\n      swap1\n      dup2\n      mstore\n      0x20\n      add\n      0x00\n      keccak256\n      sload\n        /* \"contracts/main.sol\":2935:2966  balances[msg.sender] >= 1 ether */\n      lt\n      iszero\n        /* \"contracts/main.sol\":2926:2987  require (balances[msg.sender] >= 1 ether, \"Not enough ether\") */\n      tag_88\n      jumpi\n      mload(0x40)\n      0x08c379a000000000000000000000000000000000000000000000000000000000\n      dup2\n      mstore\n      0x04\n      add\n      tag_89\n      swap1\n      tag_90\n      jump\t// in\n    tag_89:\n      mload(0x40)\n      dup1\n      swap2\n      sub\n      swap1\n      revert\n    tag_88:\n        /* \"contracts/main.sol\":2840:2997  function enterLottery() public { // for arbitrary value entry set to 1 ether... */\n      jump\t// out\n        /* \"contracts/main.sol\":772:856  function deposit() public payable {... */\n    tag_47:\n        /* \"contracts/main.sol\":840:849  msg.value */\n      callvalue\n        /* \"contracts/main.sol\":816:824  balances */\n      0x01\n        /* \"contracts/main.sol\":816:836  balances[msg.sender] */\n      0x00\n        /* \"contracts/main.sol\":825:835  msg.sender */\n      caller\n        /* \"contracts/main.sol\":816:836  balances[msg.sender] */\n      0xffffffffffffffffffffffffffffffffffffffff\n      and\n      0xffffffffffffffffffffffffffffffffffffffff\n      and\n      dup2\n      mstore\n      0x20\n      add\n      swap1\n      dup2\n      mstore\n      0x20\n      add\n      0x00\n      keccak256\n      0x00\n        /* \"contracts/main.sol\":816:849  balances[msg.sender] += msg.value */\n      dup3\n      dup3\n      sload\n      tag_92\n      swap2\n      swap1\n      tag_93\n      jump\t// in\n    tag_92:\n      swap3\n      pop\n      pop\n      dup2\n      swap1\n      sstore\n      pop\n        /* \"contracts/main.sol\":772:856  function deposit() public payable {... */\n      jump\t// out\n        /* \"contracts/main.sol\":718:765  mapping(uint256=>address) public lotteryEntries */\n    tag_51:\n      mstore(0x20, 0x02)\n      dup1\n      0x00\n      mstore\n      keccak256(0x00, 0x40)\n      0x00\n      swap2\n      pop\n      sload\n      swap1\n      0x0100\n      exp\n      swap1\n      div\n      0xffffffffffffffffffffffffffffffffffffffff\n      and\n      dup2\n      jump\t// out\n        /* \"contracts/main.sol\":2046:2833  function rollDice(uint256[] memory _guesses, uint256 _bet) public view returns (bool) {... */\n    tag_57:\n        /* \"contracts/main.sol\":2126:2130  bool */\n      0x00\n        /* \"contracts/main.sol\":2220:2228  balances */\n      0x01\n        /* \"contracts/main.sol\":2220:2240  balances[msg.sender] */\n      0x00\n        /* \"contracts/main.sol\":2229:2239  msg.sender */\n      caller\n        /* \"contracts/main.sol\":2220:2240  balances[msg.sender] */\n      0xffffffffffffffffffffffffffffffffffffffff\n      and\n      0xffffffffffffffffffffffffffffffffffffffff\n      and\n      dup2\n      mstore\n      0x20\n      add\n      swap1\n      dup2\n      mstore\n      0x20\n      add\n      0x00\n      keccak256\n      sload\n        /* \"contracts/main.sol\":2212:2216  _bet */\n      dup3\n        /* \"contracts/main.sol\":2212:2240  _bet <= balances[msg.sender] */\n      gt\n      iszero\n        /* \"contracts/main.sol\":2203:2272  require (_bet <= balances[msg.sender], \"Not enough Ether in account\") */\n      tag_95\n      jumpi\n      mload(0x40)\n      0x08c379a000000000000000000000000000000000000000000000000000000000\n      dup2\n      mstore\n      0x04\n      add\n      tag_96\n      swap1\n      tag_97\n      jump\t// in\n    tag_96:\n      mload(0x40)\n      dup1\n      swap2\n      sub\n      swap1\n      revert\n    tag_95:\n        /* \"contracts/main.sol\":2365:2366  3 */\n      0x03\n        /* \"contracts/main.sol\":2346:2354  _guesses */\n      dup4\n        /* \"contracts/main.sol\":2346:2361  _guesses.length */\n      mload\n        /* \"contracts/main.sol\":2346:2366  _guesses.length >= 3 */\n      lt\n      iszero\n        /* \"contracts/main.sol\":2337:2413  require (_guesses.length >= 3, \"Cannot guess more than 3 possible outcomes\") */\n      tag_98\n      jumpi\n      mload(0x40)\n      0x08c379a000000000000000000000000000000000000000000000000000000000\n      dup2\n      mstore\n      0x04\n      add\n      tag_99\n      swap1\n      tag_100\n      jump\t// in\n    tag_99:\n      mload(0x40)\n      dup1\n      swap2\n      sub\n      swap1\n      revert\n    tag_98:\n        /* \"contracts/main.sol\":2488:2495  uint8 i */\n      0x00\n        /* \"contracts/main.sol\":2483:2619  for (uint8 i = 0; i < _guesses.length; i++) {... */\n    tag_101:\n        /* \"contracts/main.sol\":2505:2513  _guesses */\n      dup4\n        /* \"contracts/main.sol\":2505:2520  _guesses.length */\n      mload\n        /* \"contracts/main.sol\":2501:2502  i */\n      dup2\n        /* \"contracts/main.sol\":2501:2520  i < _guesses.length */\n      0xff\n      and\n      lt\n        /* \"contracts/main.sol\":2483:2619  for (uint8 i = 0; i < _guesses.length; i++) {... */\n      iszero\n      tag_102\n      jumpi\n        /* \"contracts/main.sol\":2565:2566  6 */\n      0x06\n        /* \"contracts/main.sol\":2550:2558  _guesses */\n      dup5\n        /* \"contracts/main.sol\":2559:2560  i */\n      dup3\n        /* \"contracts/main.sol\":2550:2561  _guesses[i] */\n      0xff\n      and\n      dup2\n      mload\n      dup2\n      lt\n      tag_104\n      jumpi\n      tag_105\n      tag_106\n      jump\t// in\n    tag_105:\n    tag_104:\n      0x20\n      mul\n      0x20\n      add\n      add\n      mload\n        /* \"contracts/main.sol\":2550:2566  _guesses[i] <= 6 */\n      gt\n      iszero\n        /* \"contracts/main.sol\":2550:2586  _guesses[i] <= 6 && _guesses[i] >= 1 */\n      dup1\n      iszero\n      tag_107\n      jumpi\n      pop\n        /* \"contracts/main.sol\":2585:2586  1 */\n      0x01\n        /* \"contracts/main.sol\":2570:2578  _guesses */\n      dup5\n        /* \"contracts/main.sol\":2579:2580  i */\n      dup3\n        /* \"contracts/main.sol\":2570:2581  _guesses[i] */\n      0xff\n      and\n      dup2\n      mload\n      dup2\n      lt\n      tag_108\n      jumpi\n      tag_109\n      tag_106\n      jump\t// in\n    tag_109:\n    tag_108:\n      0x20\n      mul\n      0x20\n      add\n      add\n      mload\n        /* \"contracts/main.sol\":2570:2586  _guesses[i] >= 1 */\n      lt\n      iszero\n        /* \"contracts/main.sol\":2550:2586  _guesses[i] <= 6 && _guesses[i] >= 1 */\n    tag_107:\n        /* \"contracts/main.sol\":2541:2608  require (_guesses[i] <= 6 && _guesses[i] >= 1, \"Guess numbers 1-6\") */\n      tag_110\n      jumpi\n      mload(0x40)\n      0x08c379a000000000000000000000000000000000000000000000000000000000\n      dup2\n      mstore\n      0x04\n      add\n      tag_111\n      swap1\n      tag_112\n      jump\t// in\n    tag_111:\n      mload(0x40)\n      dup1\n      swap2\n      sub\n      swap1\n      revert\n    tag_110:\n        /* \"contracts/main.sol\":2522:2525  i++ */\n      dup1\n      dup1\n      tag_113\n      swap1\n      tag_114\n      jump\t// in\n    tag_113:\n      swap2\n      pop\n      pop\n        /* \"contracts/main.sol\":2483:2619  for (uint8 i = 0; i < _guesses.length; i++) {... */\n      jump(tag_101)\n    tag_102:\n      pop\n        /* \"contracts/main.sol\":2629:2641  uint256 rand */\n      0x00\n        /* \"contracts/main.sol\":2667:2668  1 */\n      0x01\n        /* \"contracts/main.sol\":2663:2664  6 */\n      0x06\n        /* \"contracts/main.sol\":2644:2660  getRandomValue() */\n      tag_115\n        /* \"contracts/main.sol\":2644:2658  getRandomValue */\n      tag_116\n        /* \"contracts/main.sol\":2644:2660  getRandomValue() */\n      jump\t// in\n    tag_115:\n        /* \"contracts/main.sol\":2644:2664  getRandomValue() % 6 */\n      tag_117\n      swap2\n      swap1\n      tag_118\n      jump\t// in\n    tag_117:\n        /* \"contracts/main.sol\":2644:2668  getRandomValue() % 6 + 1 */\n      tag_119\n      swap2\n      swap1\n      tag_93\n      jump\t// in\n    tag_119:\n        /* \"contracts/main.sol\":2629:2668  uint256 rand = getRandomValue() % 6 + 1 */\n      swap1\n      pop\n        /* \"contracts/main.sol\":2679:2687  bool win */\n      0x00\n        /* \"contracts/main.sol\":2711:2718  uint8 i */\n      dup1\n        /* \"contracts/main.sol\":2706:2807  for (uint8 i = 0; i < _guesses.length; i++) {... */\n    tag_120:\n        /* \"contracts/main.sol\":2728:2736  _guesses */\n      dup6\n        /* \"contracts/main.sol\":2728:2743  _guesses.length */\n      mload\n        /* \"contracts/main.sol\":2724:2725  i */\n      dup2\n        /* \"contracts/main.sol\":2724:2743  i < _guesses.length */\n      0xff\n      and\n      lt\n        /* \"contracts/main.sol\":2706:2807  for (uint8 i = 0; i < _guesses.length; i++) {... */\n      iszero\n      tag_121\n      jumpi\n        /* \"contracts/main.sol\":2779:2783  rand */\n      dup3\n        /* \"contracts/main.sol\":2764:2772  _guesses */\n      dup7\n        /* \"contracts/main.sol\":2773:2774  i */\n      dup3\n        /* \"contracts/main.sol\":2764:2775  _guesses[i] */\n      0xff\n      and\n      dup2\n      mload\n      dup2\n      lt\n      tag_123\n      jumpi\n      tag_124\n      tag_106\n      jump\t// in\n    tag_124:\n    tag_123:\n      0x20\n      mul\n      0x20\n      add\n      add\n      mload\n        /* \"contracts/main.sol\":2764:2783  _guesses[i] == rand */\n      eq\n        /* \"contracts/main.sol\":2764:2796  _guesses[i] == rand ? win : !win */\n      tag_125\n      jumpi\n        /* \"contracts/main.sol\":2793:2796  win */\n      dup2\n        /* \"contracts/main.sol\":2792:2796  !win */\n      iszero\n        /* \"contracts/main.sol\":2764:2796  _guesses[i] == rand ? win : !win */\n      jump(tag_126)\n    tag_125:\n        /* \"contracts/main.sol\":2786:2789  win */\n      dup2\n        /* \"contracts/main.sol\":2764:2796  _guesses[i] == rand ? win : !win */\n    tag_126:\n      pop\n        /* \"contracts/main.sol\":2745:2748  i++ */\n      dup1\n      dup1\n      tag_127\n      swap1\n      tag_114\n      jump\t// in\n    tag_127:\n      swap2\n      pop\n      pop\n        /* \"contracts/main.sol\":2706:2807  for (uint8 i = 0; i < _guesses.length; i++) {... */\n      jump(tag_120)\n    tag_121:\n      pop\n        /* \"contracts/main.sol\":2823:2826  win */\n      dup1\n        /* \"contracts/main.sol\":2816:2826  return win */\n      swap3\n      pop\n      pop\n      pop\n        /* \"contracts/main.sol\":2046:2833  function rollDice(uint256[] memory _guesses, uint256 _bet) public view returns (bool) {... */\n      swap3\n      swap2\n      pop\n      pop\n      jump\t// out\n        /* \"@openzeppelin/contracts/access/Ownable.sol\":2081:2279  function transferOwnership(address newOwner) public virtual onlyOwner {... */\n    tag_63:\n        /* \"@openzeppelin/contracts/access/Ownable.sol\":1094:1107  _checkOwner() */\n      tag_129\n        /* \"@openzeppelin/contracts/access/Ownable.sol\":1094:1105  _checkOwner */\n      tag_82\n        /* \"@openzeppelin/contracts/access/Ownable.sol\":1094:1107  _checkOwner() */\n      jump\t// in\n    tag_129:\n        /* \"@openzeppelin/contracts/access/Ownable.sol\":2189:2190  0 */\n      0x00\n        /* \"@openzeppelin/contracts/access/Ownable.sol\":2169:2191  newOwner != address(0) */\n      0xffffffffffffffffffffffffffffffffffffffff\n      and\n        /* \"@openzeppelin/contracts/access/Ownable.sol\":2169:2177  newOwner */\n      dup2\n        /* \"@openzeppelin/contracts/access/Ownable.sol\":2169:2191  newOwner != address(0) */\n      0xffffffffffffffffffffffffffffffffffffffff\n      and\n      sub\n        /* \"@openzeppelin/contracts/access/Ownable.sol\":2161:2234  require(newOwner != address(0), \"Ownable: new owner is the zero address\") */\n      tag_131\n      jumpi\n      mload(0x40)\n      0x08c379a000000000000000000000000000000000000000000000000000000000\n      dup2\n      mstore\n      0x04\n      add\n      tag_132\n      swap1\n      tag_133\n      jump\t// in\n    tag_132:\n      mload(0x40)\n      dup1\n      swap2\n      sub\n      swap1\n      revert\n    tag_131:\n        /* \"@openzeppelin/contracts/access/Ownable.sol\":2244:2272  _transferOwnership(newOwner) */\n      tag_134\n        /* \"@openzeppelin/contracts/access/Ownable.sol\":2263:2271  newOwner */\n      dup2\n        /* \"@openzeppelin/contracts/access/Ownable.sol\":2244:2262  _transferOwnership */\n      tag_85\n        /* \"@openzeppelin/contracts/access/Ownable.sol\":2244:2272  _transferOwnership(newOwner) */\n      jump\t// in\n    tag_134:\n        /* \"@openzeppelin/contracts/access/Ownable.sol\":2081:2279  function transferOwnership(address newOwner) public virtual onlyOwner {... */\n      pop\n      jump\t// out\n        /* \"@openzeppelin/contracts/access/Ownable.sol\":1359:1489  function _checkOwner() internal view virtual {... */\n    tag_82:\n        /* \"@openzeppelin/contracts/access/Ownable.sol\":1433:1445  _msgSender() */\n      tag_136\n        /* \"@openzeppelin/contracts/access/Ownable.sol\":1433:1443  _msgSender */\n      tag_137\n        /* \"@openzeppelin/contracts/access/Ownable.sol\":1433:1445  _msgSender() */\n      jump\t// in\n    tag_136:\n        /* \"@openzeppelin/contracts/access/Ownable.sol\":1422:1445  owner() == _msgSender() */\n      0xffffffffffffffffffffffffffffffffffffffff\n      and\n        /* \"@openzeppelin/contracts/access/Ownable.sol\":1422:1429  owner() */\n      tag_138\n        /* \"@openzeppelin/contracts/access/Ownable.sol\":1422:1427  owner */\n      tag_40\n        /* \"@openzeppelin/contracts/access/Ownable.sol\":1422:1429  owner() */\n      jump\t// in\n    tag_138:\n        /* \"@openzeppelin/contracts/access/Ownable.sol\":1422:1445  owner() == _msgSender() */\n      0xffffffffffffffffffffffffffffffffffffffff\n      and\n      eq\n        /* \"@openzeppelin/contracts/access/Ownable.sol\":1414:1482  require(owner() == _msgSender(), \"Ownable: caller is not the owner\") */\n      tag_139\n      jumpi\n      mload(0x40)\n      0x08c379a000000000000000000000000000000000000000000000000000000000\n      dup2\n      mstore\n      0x04\n      add\n      tag_140\n      swap1\n      tag_141\n      jump\t// in\n    tag_140:\n      mload(0x40)\n      dup1\n      swap2\n      sub\n      swap1\n      revert\n    tag_139:\n        /* \"@openzeppelin/contracts/access/Ownable.sol\":1359:1489  function _checkOwner() internal view virtual {... */\n      jump\t// out\n        /* \"@openzeppelin/contracts/access/Ownable.sol\":2433:2620  function _transferOwnership(address newOwner) internal virtual {... */\n    tag_85:\n        /* \"@openzeppelin/contracts/access/Ownable.sol\":2506:2522  address oldOwner */\n      0x00\n        /* \"@openzeppelin/contracts/access/Ownable.sol\":2525:2531  _owner */\n      dup1\n      0x00\n      swap1\n      sload\n      swap1\n      0x0100\n      exp\n      swap1\n      div\n      0xffffffffffffffffffffffffffffffffffffffff\n      and\n        /* \"@openzeppelin/contracts/access/Ownable.sol\":2506:2531  address oldOwner = _owner */\n      swap1\n      pop\n        /* \"@openzeppelin/contracts/access/Ownable.sol\":2550:2558  newOwner */\n      dup2\n        /* \"@openzeppelin/contracts/access/Ownable.sol\":2541:2547  _owner */\n      0x00\n      dup1\n        /* \"@openzeppelin/contracts/access/Ownable.sol\":2541:2558  _owner = newOwner */\n      0x0100\n      exp\n      dup2\n      sload\n      dup2\n      0xffffffffffffffffffffffffffffffffffffffff\n      mul\n      not\n      and\n      swap1\n      dup4\n      0xffffffffffffffffffffffffffffffffffffffff\n      and\n      mul\n      or\n      swap1\n      sstore\n      pop\n        /* \"@openzeppelin/contracts/access/Ownable.sol\":2604:2612  newOwner */\n      dup2\n        /* \"@openzeppelin/contracts/access/Ownable.sol\":2573:2613  OwnershipTransferred(oldOwner, newOwner) */\n      0xffffffffffffffffffffffffffffffffffffffff\n      and\n        /* \"@openzeppelin/contracts/access/Ownable.sol\":2594:2602  oldOwner */\n      dup2\n        /* \"@openzeppelin/contracts/access/Ownable.sol\":2573:2613  OwnershipTransferred(oldOwner, newOwner) */\n      0xffffffffffffffffffffffffffffffffffffffff\n      and\n      0x8be0079c531659141344cd1fd0a4f28419497f9722a3daafe3b4186f6b6457e0\n      mload(0x40)\n      mload(0x40)\n      dup1\n      swap2\n      sub\n      swap1\n      log3\n        /* \"@openzeppelin/contracts/access/Ownable.sol\":2496:2620  {... */\n      pop\n        /* \"@openzeppelin/contracts/access/Ownable.sol\":2433:2620  function _transferOwnership(address newOwner) internal virtual {... */\n      pop\n      jump\t// out\n        /* \"contracts/main.sol\":1801:1939  function getRandomValue() private view returns(uint) {... */\n    tag_116:\n        /* \"contracts/main.sol\":1848:1852  uint */\n      0x00\n        /* \"contracts/main.sol\":1900:1915  block.timestamp */\n      timestamp\n        /* \"contracts/main.sol\":1917:1929  block.number */\n      number\n        /* \"contracts/main.sol\":1889:1930  abi.encode(block.timestamp, block.number) */\n      add(0x20, mload(0x40))\n      tag_144\n      swap3\n      swap2\n      swap1\n      tag_145\n      jump\t// in\n    tag_144:\n      mload(0x40)\n      0x20\n      dup2\n      dup4\n      sub\n      sub\n      dup2\n      mstore\n      swap1\n      0x40\n      mstore\n        /* \"contracts/main.sol\":1879:1931  keccak256(abi.encode(block.timestamp, block.number)) */\n      dup1\n      mload\n      swap1\n      0x20\n      add\n      keccak256\n        /* \"contracts/main.sol\":1871:1932  uint256(keccak256(abi.encode(block.timestamp, block.number))) */\n      0x00\n      shr\n        /* \"contracts/main.sol\":1864:1932  return uint256(keccak256(abi.encode(block.timestamp, block.number))) */\n      swap1\n      pop\n        /* \"contracts/main.sol\":1801:1939  function getRandomValue() private view returns(uint) {... */\n      swap1\n      jump\t// out\n        /* \"@openzeppelin/contracts/utils/Context.sol\":640:736  function _msgSender() internal view virtual returns (address) {... */\n    tag_137:\n        /* \"@openzeppelin/contracts/utils/Context.sol\":693:700  address */\n      0x00\n        /* \"@openzeppelin/contracts/utils/Context.sol\":719:729  msg.sender */\n      caller\n        /* \"@openzeppelin/contracts/utils/Context.sol\":712:729  return msg.sender */\n      swap1\n      pop\n        /* \"@openzeppelin/contracts/utils/Context.sol\":640:736  function _msgSender() internal view virtual returns (address) {... */\n      swap1\n      jump\t// out\n        /* \"#utility.yul\":7:84   */\n    tag_147:\n        /* \"#utility.yul\":44:51   */\n      0x00\n        /* \"#utility.yul\":73:78   */\n      dup2\n        /* \"#utility.yul\":62:78   */\n      swap1\n      pop\n        /* \"#utility.yul\":7:84   */\n      swap2\n      swap1\n      pop\n      jump\t// out\n        /* \"#utility.yul\":90:208   */\n    tag_148:\n        /* \"#utility.yul\":177:201   */\n      tag_196\n        /* \"#utility.yul\":195:200   */\n      dup2\n        /* \"#utility.yul\":177:201   */\n      tag_147\n      jump\t// in\n    tag_196:\n        /* \"#utility.yul\":172:175   */\n      dup3\n        /* \"#utility.yul\":165:202   */\n      mstore\n        /* \"#utility.yul\":90:208   */\n      pop\n      pop\n      jump\t// out\n        /* \"#utility.yul\":214:436   */\n    tag_18:\n        /* \"#utility.yul\":307:311   */\n      0x00\n        /* \"#utility.yul\":345:347   */\n      0x20\n        /* \"#utility.yul\":334:343   */\n      dup3\n        /* \"#utility.yul\":330:348   */\n      add\n        /* \"#utility.yul\":322:348   */\n      swap1\n      pop\n        /* \"#utility.yul\":358:429   */\n      tag_198\n        /* \"#utility.yul\":426:427   */\n      0x00\n        /* \"#utility.yul\":415:424   */\n      dup4\n        /* \"#utility.yul\":411:428   */\n      add\n        /* \"#utility.yul\":402:408   */\n      dup5\n        /* \"#utility.yul\":358:429   */\n      tag_148\n      jump\t// in\n    tag_198:\n        /* \"#utility.yul\":214:436   */\n      swap3\n      swap2\n      pop\n      pop\n      jump\t// out\n        /* \"#utility.yul\":442:517   */\n    tag_149:\n        /* \"#utility.yul\":475:481   */\n      0x00\n        /* \"#utility.yul\":508:510   */\n      0x40\n        /* \"#utility.yul\":502:511   */\n      mload\n        /* \"#utility.yul\":492:511   */\n      swap1\n      pop\n        /* \"#utility.yul\":442:517   */\n      swap1\n      jump\t// out\n        /* \"#utility.yul\":523:640   */\n    tag_150:\n        /* \"#utility.yul\":632:633   */\n      0x00\n        /* \"#utility.yul\":629:630   */\n      dup1\n        /* \"#utility.yul\":622:634   */\n      revert\n        /* \"#utility.yul\":646:763   */\n    tag_151:\n        /* \"#utility.yul\":755:756   */\n      0x00\n        /* \"#utility.yul\":752:753   */\n      dup1\n        /* \"#utility.yul\":745:757   */\n      revert\n        /* \"#utility.yul\":769:895   */\n    tag_152:\n        /* \"#utility.yul\":806:813   */\n      0x00\n        /* \"#utility.yul\":846:888   */\n      0xffffffffffffffffffffffffffffffffffffffff\n        /* \"#utility.yul\":839:844   */\n      dup3\n        /* \"#utility.yul\":835:889   */\n      and\n        /* \"#utility.yul\":824:889   */\n      swap1\n      pop\n        /* \"#utility.yul\":769:895   */\n      swap2\n      swap1\n      pop\n      jump\t// out\n        /* \"#utility.yul\":901:997   */\n    tag_153:\n        /* \"#utility.yul\":938:945   */\n      0x00\n        /* \"#utility.yul\":967:991   */\n      tag_204\n        /* \"#utility.yul\":985:990   */\n      dup3\n        /* \"#utility.yul\":967:991   */\n      tag_152\n      jump\t// in\n    tag_204:\n        /* \"#utility.yul\":956:991   */\n      swap1\n      pop\n        /* \"#utility.yul\":901:997   */\n      swap2\n      swap1\n      pop\n      jump\t// out\n        /* \"#utility.yul\":1003:1125   */\n    tag_154:\n        /* \"#utility.yul\":1076:1100   */\n      tag_206\n        /* \"#utility.yul\":1094:1099   */\n      dup2\n        /* \"#utility.yul\":1076:1100   */\n      tag_153\n      jump\t// in\n    tag_206:\n        /* \"#utility.yul\":1069:1074   */\n      dup2\n        /* \"#utility.yul\":1066:1101   */\n      eq\n        /* \"#utility.yul\":1056:1119   */\n      tag_207\n      jumpi\n        /* \"#utility.yul\":1115:1116   */\n      0x00\n        /* \"#utility.yul\":1112:1113   */\n      dup1\n        /* \"#utility.yul\":1105:1117   */\n      revert\n        /* \"#utility.yul\":1056:1119   */\n    tag_207:\n        /* \"#utility.yul\":1003:1125   */\n      pop\n      jump\t// out\n        /* \"#utility.yul\":1131:1270   */\n    tag_155:\n        /* \"#utility.yul\":1177:1182   */\n      0x00\n        /* \"#utility.yul\":1215:1221   */\n      dup2\n        /* \"#utility.yul\":1202:1222   */\n      calldataload\n        /* \"#utility.yul\":1193:1222   */\n      swap1\n      pop\n        /* \"#utility.yul\":1231:1264   */\n      tag_209\n        /* \"#utility.yul\":1258:1263   */\n      dup2\n        /* \"#utility.yul\":1231:1264   */\n      tag_154\n      jump\t// in\n    tag_209:\n        /* \"#utility.yul\":1131:1270   */\n      swap3\n      swap2\n      pop\n      pop\n      jump\t// out\n        /* \"#utility.yul\":1276:1605   */\n    tag_22:\n        /* \"#utility.yul\":1335:1341   */\n      0x00\n        /* \"#utility.yul\":1384:1386   */\n      0x20\n        /* \"#utility.yul\":1372:1381   */\n      dup3\n        /* \"#utility.yul\":1363:1370   */\n      dup5\n        /* \"#utility.yul\":1359:1382   */\n      sub\n        /* \"#utility.yul\":1355:1387   */\n      slt\n        /* \"#utility.yul\":1352:1471   */\n      iszero\n      tag_211\n      jumpi\n        /* \"#utility.yul\":1390:1469   */\n      tag_212\n      tag_150\n      jump\t// in\n    tag_212:\n        /* \"#utility.yul\":1352:1471   */\n    tag_211:\n        /* \"#utility.yul\":1510:1511   */\n      0x00\n        /* \"#utility.yul\":1535:1588   */\n      tag_213\n        /* \"#utility.yul\":1580:1587   */\n      dup5\n        /* \"#utility.yul\":1571:1577   */\n      dup3\n        /* \"#utility.yul\":1560:1569   */\n      dup6\n        /* \"#utility.yul\":1556:1578   */\n      add\n        /* \"#utility.yul\":1535:1588   */\n      tag_155\n      jump\t// in\n    tag_213:\n        /* \"#utility.yul\":1525:1588   */\n      swap2\n      pop\n        /* \"#utility.yul\":1481:1598   */\n      pop\n        /* \"#utility.yul\":1276:1605   */\n      swap3\n      swap2\n      pop\n      pop\n      jump\t// out\n        /* \"#utility.yul\":1611:1733   */\n    tag_156:\n        /* \"#utility.yul\":1684:1708   */\n      tag_215\n        /* \"#utility.yul\":1702:1707   */\n      dup2\n        /* \"#utility.yul\":1684:1708   */\n      tag_147\n      jump\t// in\n    tag_215:\n        /* \"#utility.yul\":1677:1682   */\n      dup2\n        /* \"#utility.yul\":1674:1709   */\n      eq\n        /* \"#utility.yul\":1664:1727   */\n      tag_216\n      jumpi\n        /* \"#utility.yul\":1723:1724   */\n      0x00\n        /* \"#utility.yul\":1720:1721   */\n      dup1\n        /* \"#utility.yul\":1713:1725   */\n      revert\n        /* \"#utility.yul\":1664:1727   */\n    tag_216:\n        /* \"#utility.yul\":1611:1733   */\n      pop\n      jump\t// out\n        /* \"#utility.yul\":1739:1878   */\n    tag_157:\n        /* \"#utility.yul\":1785:1790   */\n      0x00\n        /* \"#utility.yul\":1823:1829   */\n      dup2\n        /* \"#utility.yul\":1810:1830   */\n      calldataload\n        /* \"#utility.yul\":1801:1830   */\n      swap1\n      pop\n        /* \"#utility.yul\":1839:1872   */\n      tag_218\n        /* \"#utility.yul\":1866:1871   */\n      dup2\n        /* \"#utility.yul\":1839:1872   */\n      tag_156\n      jump\t// in\n    tag_218:\n        /* \"#utility.yul\":1739:1878   */\n      swap3\n      swap2\n      pop\n      pop\n      jump\t// out\n        /* \"#utility.yul\":1884:2213   */\n    tag_28:\n        /* \"#utility.yul\":1943:1949   */\n      0x00\n        /* \"#utility.yul\":1992:1994   */\n      0x20\n        /* \"#utility.yul\":1980:1989   */\n      dup3\n        /* \"#utility.yul\":1971:1978   */\n      dup5\n        /* \"#utility.yul\":1967:1990   */\n      sub\n        /* \"#utility.yul\":1963:1995   */\n      slt\n        /* \"#utility.yul\":1960:2079   */\n      iszero\n      tag_220\n      jumpi\n        /* \"#utility.yul\":1998:2077   */\n      tag_221\n      tag_150\n      jump\t// in\n    tag_221:\n        /* \"#utility.yul\":1960:2079   */\n    tag_220:\n        /* \"#utility.yul\":2118:2119   */\n      0x00\n        /* \"#utility.yul\":2143:2196   */\n      tag_222\n        /* \"#utility.yul\":2188:2195   */\n      dup5\n        /* \"#utility.yul\":2179:2185   */\n      dup3\n        /* \"#utility.yul\":2168:2177   */\n      dup6\n        /* \"#utility.yul\":2164:2186   */\n      add\n        /* \"#utility.yul\":2143:2196   */\n      tag_157\n      jump\t// in\n    tag_222:\n        /* \"#utility.yul\":2133:2196   */\n      swap2\n      pop\n        /* \"#utility.yul\":2089:2206   */\n      pop\n        /* \"#utility.yul\":1884:2213   */\n      swap3\n      swap2\n      pop\n      pop\n      jump\t// out\n        /* \"#utility.yul\":2219:2337   */\n    tag_158:\n        /* \"#utility.yul\":2306:2330   */\n      tag_224\n        /* \"#utility.yul\":2324:2329   */\n      dup2\n        /* \"#utility.yul\":2306:2330   */\n      tag_153\n      jump\t// in\n    tag_224:\n        /* \"#utility.yul\":2301:2304   */\n      dup3\n        /* \"#utility.yul\":2294:2331   */\n      mstore\n        /* \"#utility.yul\":2219:2337   */\n      pop\n      pop\n      jump\t// out\n        /* \"#utility.yul\":2343:2565   */\n    tag_42:\n        /* \"#utility.yul\":2436:2440   */\n      0x00\n        /* \"#utility.yul\":2474:2476   */\n      0x20\n        /* \"#utility.yul\":2463:2472   */\n      dup3\n        /* \"#utility.yul\":2459:2477   */\n      add\n        /* \"#utility.yul\":2451:2477   */\n      swap1\n      pop\n        /* \"#utility.yul\":2487:2558   */\n      tag_226\n        /* \"#utility.yul\":2555:2556   */\n      0x00\n        /* \"#utility.yul\":2544:2553   */\n      dup4\n        /* \"#utility.yul\":2540:2557   */\n      add\n        /* \"#utility.yul\":2531:2537   */\n      dup5\n        /* \"#utility.yul\":2487:2558   */\n      tag_158\n      jump\t// in\n    tag_226:\n        /* \"#utility.yul\":2343:2565   */\n      swap3\n      swap2\n      pop\n      pop\n      jump\t// out\n        /* \"#utility.yul\":2571:2688   */\n    tag_159:\n        /* \"#utility.yul\":2680:2681   */\n      0x00\n        /* \"#utility.yul\":2677:2678   */\n      dup1\n        /* \"#utility.yul\":2670:2682   */\n      revert\n        /* \"#utility.yul\":2694:2796   */\n    tag_160:\n        /* \"#utility.yul\":2735:2741   */\n      0x00\n        /* \"#utility.yul\":2786:2788   */\n      0x1f\n        /* \"#utility.yul\":2782:2789   */\n      not\n        /* \"#utility.yul\":2777:2779   */\n      0x1f\n        /* \"#utility.yul\":2770:2775   */\n      dup4\n        /* \"#utility.yul\":2766:2780   */\n      add\n        /* \"#utility.yul\":2762:2790   */\n      and\n        /* \"#utility.yul\":2752:2790   */\n      swap1\n      pop\n        /* \"#utility.yul\":2694:2796   */\n      swap2\n      swap1\n      pop\n      jump\t// out\n        /* \"#utility.yul\":2802:2982   */\n    tag_161:\n        /* \"#utility.yul\":2850:2927   */\n      0x4e487b7100000000000000000000000000000000000000000000000000000000\n        /* \"#utility.yul\":2847:2848   */\n      0x00\n        /* \"#utility.yul\":2840:2928   */\n      mstore\n        /* \"#utility.yul\":2947:2951   */\n      0x41\n        /* \"#utility.yul\":2944:2945   */\n      0x04\n        /* \"#utility.yul\":2937:2952   */\n      mstore\n        /* \"#utility.yul\":2971:2975   */\n      0x24\n        /* \"#utility.yul\":2968:2969   */\n      0x00\n        /* \"#utility.yul\":2961:2976   */\n      revert\n        /* \"#utility.yul\":2988:3269   */\n    tag_162:\n        /* \"#utility.yul\":3071:3098   */\n      tag_231\n        /* \"#utility.yul\":3093:3097   */\n      dup3\n        /* \"#utility.yul\":3071:3098   */\n      tag_160\n      jump\t// in\n    tag_231:\n        /* \"#utility.yul\":3063:3069   */\n      dup2\n        /* \"#utility.yul\":3059:3099   */\n      add\n        /* \"#utility.yul\":3201:3207   */\n      dup2\n        /* \"#utility.yul\":3189:3199   */\n      dup2\n        /* \"#utility.yul\":3186:3208   */\n      lt\n        /* \"#utility.yul\":3165:3183   */\n      0xffffffffffffffff\n        /* \"#utility.yul\":3153:3163   */\n      dup3\n        /* \"#utility.yul\":3150:3184   */\n      gt\n        /* \"#utility.yul\":3147:3209   */\n      or\n        /* \"#utility.yul\":3144:3232   */\n      iszero\n      tag_232\n      jumpi\n        /* \"#utility.yul\":3212:3230   */\n      tag_233\n      tag_161\n      jump\t// in\n    tag_233:\n        /* \"#utility.yul\":3144:3232   */\n    tag_232:\n        /* \"#utility.yul\":3252:3262   */\n      dup1\n        /* \"#utility.yul\":3248:3250   */\n      0x40\n        /* \"#utility.yul\":3241:3263   */\n      mstore\n        /* \"#utility.yul\":3031:3269   */\n      pop\n        /* \"#utility.yul\":2988:3269   */\n      pop\n      pop\n      jump\t// out\n        /* \"#utility.yul\":3275:3404   */\n    tag_163:\n        /* \"#utility.yul\":3309:3315   */\n      0x00\n        /* \"#utility.yul\":3336:3356   */\n      tag_235\n      tag_149\n      jump\t// in\n    tag_235:\n        /* \"#utility.yul\":3326:3356   */\n      swap1\n      pop\n        /* \"#utility.yul\":3365:3398   */\n      tag_236\n        /* \"#utility.yul\":3393:3397   */\n      dup3\n        /* \"#utility.yul\":3385:3391   */\n      dup3\n        /* \"#utility.yul\":3365:3398   */\n      tag_162\n      jump\t// in\n    tag_236:\n        /* \"#utility.yul\":3275:3404   */\n      swap2\n      swap1\n      pop\n      jump\t// out\n        /* \"#utility.yul\":3410:3721   */\n    tag_164:\n        /* \"#utility.yul\":3487:3491   */\n      0x00\n        /* \"#utility.yul\":3577:3595   */\n      0xffffffffffffffff\n        /* \"#utility.yul\":3569:3575   */\n      dup3\n        /* \"#utility.yul\":3566:3596   */\n      gt\n        /* \"#utility.yul\":3563:3619   */\n      iszero\n      tag_238\n      jumpi\n        /* \"#utility.yul\":3599:3617   */\n      tag_239\n      tag_161\n      jump\t// in\n    tag_239:\n        /* \"#utility.yul\":3563:3619   */\n    tag_238:\n        /* \"#utility.yul\":3649:3653   */\n      0x20\n        /* \"#utility.yul\":3641:3647   */\n      dup3\n        /* \"#utility.yul\":3637:3654   */\n      mul\n        /* \"#utility.yul\":3629:3654   */\n      swap1\n      pop\n        /* \"#utility.yul\":3709:3713   */\n      0x20\n        /* \"#utility.yul\":3703:3707   */\n      dup2\n        /* \"#utility.yul\":3699:3714   */\n      add\n        /* \"#utility.yul\":3691:3714   */\n      swap1\n      pop\n        /* \"#utility.yul\":3410:3721   */\n      swap2\n      swap1\n      pop\n      jump\t// out\n        /* \"#utility.yul\":3727:3844   */\n    tag_165:\n        /* \"#utility.yul\":3836:3837   */\n      0x00\n        /* \"#utility.yul\":3833:3834   */\n      dup1\n        /* \"#utility.yul\":3826:3838   */\n      revert\n        /* \"#utility.yul\":3867:4577   */\n    tag_166:\n        /* \"#utility.yul\":3963:3968   */\n      0x00\n        /* \"#utility.yul\":3988:4069   */\n      tag_242\n        /* \"#utility.yul\":4004:4068   */\n      tag_243\n        /* \"#utility.yul\":4061:4067   */\n      dup5\n        /* \"#utility.yul\":4004:4068   */\n      tag_164\n      jump\t// in\n    tag_243:\n        /* \"#utility.yul\":3988:4069   */\n      tag_163\n      jump\t// in\n    tag_242:\n        /* \"#utility.yul\":3979:4069   */\n      swap1\n      pop\n        /* \"#utility.yul\":4089:4094   */\n      dup1\n        /* \"#utility.yul\":4118:4124   */\n      dup4\n        /* \"#utility.yul\":4111:4116   */\n      dup3\n        /* \"#utility.yul\":4104:4125   */\n      mstore\n        /* \"#utility.yul\":4152:4156   */\n      0x20\n        /* \"#utility.yul\":4145:4150   */\n      dup3\n        /* \"#utility.yul\":4141:4157   */\n      add\n        /* \"#utility.yul\":4134:4157   */\n      swap1\n      pop\n        /* \"#utility.yul\":4205:4209   */\n      0x20\n        /* \"#utility.yul\":4197:4203   */\n      dup5\n        /* \"#utility.yul\":4193:4210   */\n      mul\n        /* \"#utility.yul\":4185:4191   */\n      dup4\n        /* \"#utility.yul\":4181:4211   */\n      add\n        /* \"#utility.yul\":4234:4237   */\n      dup6\n        /* \"#utility.yul\":4226:4232   */\n      dup2\n        /* \"#utility.yul\":4223:4238   */\n      gt\n        /* \"#utility.yul\":4220:4342   */\n      iszero\n      tag_244\n      jumpi\n        /* \"#utility.yul\":4253:4332   */\n      tag_245\n      tag_165\n      jump\t// in\n    tag_245:\n        /* \"#utility.yul\":4220:4342   */\n    tag_244:\n        /* \"#utility.yul\":4368:4374   */\n      dup4\n        /* \"#utility.yul\":4351:4571   */\n    tag_246:\n        /* \"#utility.yul\":4385:4391   */\n      dup2\n        /* \"#utility.yul\":4380:4383   */\n      dup2\n        /* \"#utility.yul\":4377:4392   */\n      lt\n        /* \"#utility.yul\":4351:4571   */\n      iszero\n      tag_248\n      jumpi\n        /* \"#utility.yul\":4460:4463   */\n      dup1\n        /* \"#utility.yul\":4489:4526   */\n      tag_249\n        /* \"#utility.yul\":4522:4525   */\n      dup9\n        /* \"#utility.yul\":4510:4520   */\n      dup3\n        /* \"#utility.yul\":4489:4526   */\n      tag_157\n      jump\t// in\n    tag_249:\n        /* \"#utility.yul\":4484:4487   */\n      dup5\n        /* \"#utility.yul\":4477:4527   */\n      mstore\n        /* \"#utility.yul\":4556:4560   */\n      0x20\n        /* \"#utility.yul\":4551:4554   */\n      dup5\n        /* \"#utility.yul\":4547:4561   */\n      add\n        /* \"#utility.yul\":4540:4561   */\n      swap4\n      pop\n        /* \"#utility.yul\":4427:4571   */\n      pop\n        /* \"#utility.yul\":4411:4415   */\n      0x20\n        /* \"#utility.yul\":4406:4409   */\n      dup2\n        /* \"#utility.yul\":4402:4416   */\n      add\n        /* \"#utility.yul\":4395:4416   */\n      swap1\n      pop\n        /* \"#utility.yul\":4351:4571   */\n      jump(tag_246)\n    tag_248:\n        /* \"#utility.yul\":4355:4376   */\n      pop\n        /* \"#utility.yul\":3969:4577   */\n      pop\n      pop\n        /* \"#utility.yul\":3867:4577   */\n      swap4\n      swap3\n      pop\n      pop\n      pop\n      jump\t// out\n        /* \"#utility.yul\":4600:4970   */\n    tag_167:\n        /* \"#utility.yul\":4671:4676   */\n      0x00\n        /* \"#utility.yul\":4720:4723   */\n      dup3\n        /* \"#utility.yul\":4713:4717   */\n      0x1f\n        /* \"#utility.yul\":4705:4711   */\n      dup4\n        /* \"#utility.yul\":4701:4718   */\n      add\n        /* \"#utility.yul\":4697:4724   */\n      slt\n        /* \"#utility.yul\":4687:4809   */\n      tag_251\n      jumpi\n        /* \"#utility.yul\":4728:4807   */\n      tag_252\n      tag_159\n      jump\t// in\n    tag_252:\n        /* \"#utility.yul\":4687:4809   */\n    tag_251:\n        /* \"#utility.yul\":4845:4851   */\n      dup2\n        /* \"#utility.yul\":4832:4852   */\n      calldataload\n        /* \"#utility.yul\":4870:4964   */\n      tag_253\n        /* \"#utility.yul\":4960:4963   */\n      dup5\n        /* \"#utility.yul\":4952:4958   */\n      dup3\n        /* \"#utility.yul\":4945:4949   */\n      0x20\n        /* \"#utility.yul\":4937:4943   */\n      dup7\n        /* \"#utility.yul\":4933:4950   */\n      add\n        /* \"#utility.yul\":4870:4964   */\n      tag_166\n      jump\t// in\n    tag_253:\n        /* \"#utility.yul\":4861:4964   */\n      swap2\n      pop\n        /* \"#utility.yul\":4677:4970   */\n      pop\n        /* \"#utility.yul\":4600:4970   */\n      swap3\n      swap2\n      pop\n      pop\n      jump\t// out\n        /* \"#utility.yul\":4976:5660   */\n    tag_56:\n        /* \"#utility.yul\":5069:5075   */\n      0x00\n        /* \"#utility.yul\":5077:5083   */\n      dup1\n        /* \"#utility.yul\":5126:5128   */\n      0x40\n        /* \"#utility.yul\":5114:5123   */\n      dup4\n        /* \"#utility.yul\":5105:5112   */\n      dup6\n        /* \"#utility.yul\":5101:5124   */\n      sub\n        /* \"#utility.yul\":5097:5129   */\n      slt\n        /* \"#utility.yul\":5094:5213   */\n      iszero\n      tag_255\n      jumpi\n        /* \"#utility.yul\":5132:5211   */\n      tag_256\n      tag_150\n      jump\t// in\n    tag_256:\n        /* \"#utility.yul\":5094:5213   */\n    tag_255:\n        /* \"#utility.yul\":5280:5281   */\n      0x00\n        /* \"#utility.yul\":5269:5278   */\n      dup4\n        /* \"#utility.yul\":5265:5282   */\n      add\n        /* \"#utility.yul\":5252:5283   */\n      calldataload\n        /* \"#utility.yul\":5310:5328   */\n      0xffffffffffffffff\n        /* \"#utility.yul\":5302:5308   */\n      dup2\n        /* \"#utility.yul\":5299:5329   */\n      gt\n        /* \"#utility.yul\":5296:5413   */\n      iszero\n      tag_257\n      jumpi\n        /* \"#utility.yul\":5332:5411   */\n      tag_258\n      tag_151\n      jump\t// in\n    tag_258:\n        /* \"#utility.yul\":5296:5413   */\n    tag_257:\n        /* \"#utility.yul\":5437:5515   */\n      tag_259\n        /* \"#utility.yul\":5507:5514   */\n      dup6\n        /* \"#utility.yul\":5498:5504   */\n      dup3\n        /* \"#utility.yul\":5487:5496   */\n      dup7\n        /* \"#utility.yul\":5483:5505   */\n      add\n        /* \"#utility.yul\":5437:5515   */\n      tag_167\n      jump\t// in\n    tag_259:\n        /* \"#utility.yul\":5427:5515   */\n      swap3\n      pop\n        /* \"#utility.yul\":5223:5525   */\n      pop\n        /* \"#utility.yul\":5564:5566   */\n      0x20\n        /* \"#utility.yul\":5590:5643   */\n      tag_260\n        /* \"#utility.yul\":5635:5642   */\n      dup6\n        /* \"#utility.yul\":5626:5632   */\n      dup3\n        /* \"#utility.yul\":5615:5624   */\n      dup7\n        /* \"#utility.yul\":5611:5633   */\n      add\n        /* \"#utility.yul\":5590:5643   */\n      tag_157\n      jump\t// in\n    tag_260:\n        /* \"#utility.yul\":5580:5643   */\n      swap2\n      pop\n        /* \"#utility.yul\":5535:5653   */\n      pop\n        /* \"#utility.yul\":4976:5660   */\n      swap3\n      pop\n      swap3\n      swap1\n      pop\n      jump\t// out\n        /* \"#utility.yul\":5666:5756   */\n    tag_168:\n        /* \"#utility.yul\":5700:5707   */\n      0x00\n        /* \"#utility.yul\":5743:5748   */\n      dup2\n        /* \"#utility.yul\":5736:5749   */\n      iszero\n        /* \"#utility.yul\":5729:5750   */\n      iszero\n        /* \"#utility.yul\":5718:5750   */\n      swap1\n      pop\n        /* \"#utility.yul\":5666:5756   */\n      swap2\n      swap1\n      pop\n      jump\t// out\n        /* \"#utility.yul\":5762:5871   */\n    tag_169:\n        /* \"#utility.yul\":5843:5864   */\n      tag_263\n        /* \"#utility.yul\":5858:5863   */\n      dup2\n        /* \"#utility.yul\":5843:5864   */\n      tag_168\n      jump\t// in\n    tag_263:\n        /* \"#utility.yul\":5838:5841   */\n      dup3\n        /* \"#utility.yul\":5831:5865   */\n      mstore\n        /* \"#utility.yul\":5762:5871   */\n      pop\n      pop\n      jump\t// out\n        /* \"#utility.yul\":5877:6087   */\n    tag_59:\n        /* \"#utility.yul\":5964:5968   */\n      0x00\n        /* \"#utility.yul\":6002:6004   */\n      0x20\n        /* \"#utility.yul\":5991:6000   */\n      dup3\n        /* \"#utility.yul\":5987:6005   */\n      add\n        /* \"#utility.yul\":5979:6005   */\n      swap1\n      pop\n        /* \"#utility.yul\":6015:6080   */\n      tag_265\n        /* \"#utility.yul\":6077:6078   */\n      0x00\n        /* \"#utility.yul\":6066:6075   */\n      dup4\n        /* \"#utility.yul\":6062:6079   */\n      add\n        /* \"#utility.yul\":6053:6059   */\n      dup5\n        /* \"#utility.yul\":6015:6080   */\n      tag_169\n      jump\t// in\n    tag_265:\n        /* \"#utility.yul\":5877:6087   */\n      swap3\n      swap2\n      pop\n      pop\n      jump\t// out\n        /* \"#utility.yul\":6093:6262   */\n    tag_170:\n        /* \"#utility.yul\":6177:6188   */\n      0x00\n        /* \"#utility.yul\":6211:6217   */\n      dup3\n        /* \"#utility.yul\":6206:6209   */\n      dup3\n        /* \"#utility.yul\":6199:6218   */\n      mstore\n        /* \"#utility.yul\":6251:6255   */\n      0x20\n        /* \"#utility.yul\":6246:6249   */\n      dup3\n        /* \"#utility.yul\":6242:6256   */\n      add\n        /* \"#utility.yul\":6227:6256   */\n      swap1\n      pop\n        /* \"#utility.yul\":6093:6262   */\n      swap3\n      swap2\n      pop\n      pop\n      jump\t// out\n        /* \"#utility.yul\":6268:6449   */\n    tag_171:\n        /* \"#utility.yul\":6408:6441   */\n      0x496e73756666696369656e742066756e647320746f2077697468647261772100\n        /* \"#utility.yul\":6404:6405   */\n      0x00\n        /* \"#utility.yul\":6396:6402   */\n      dup3\n        /* \"#utility.yul\":6392:6406   */\n      add\n        /* \"#utility.yul\":6385:6442   */\n      mstore\n        /* \"#utility.yul\":6268:6449   */\n      pop\n      jump\t// out\n        /* \"#utility.yul\":6455:6821   */\n    tag_172:\n        /* \"#utility.yul\":6597:6600   */\n      0x00\n        /* \"#utility.yul\":6618:6685   */\n      tag_269\n        /* \"#utility.yul\":6682:6684   */\n      0x1f\n        /* \"#utility.yul\":6677:6680   */\n      dup4\n        /* \"#utility.yul\":6618:6685   */\n      tag_170\n      jump\t// in\n    tag_269:\n        /* \"#utility.yul\":6611:6685   */\n      swap2\n      pop\n        /* \"#utility.yul\":6694:6787   */\n      tag_270\n        /* \"#utility.yul\":6783:6786   */\n      dup3\n        /* \"#utility.yul\":6694:6787   */\n      tag_171\n      jump\t// in\n    tag_270:\n        /* \"#utility.yul\":6812:6814   */\n      0x20\n        /* \"#utility.yul\":6807:6810   */\n      dup3\n        /* \"#utility.yul\":6803:6815   */\n      add\n        /* \"#utility.yul\":6796:6815   */\n      swap1\n      pop\n        /* \"#utility.yul\":6455:6821   */\n      swap2\n      swap1\n      pop\n      jump\t// out\n        /* \"#utility.yul\":6827:7246   */\n    tag_68:\n        /* \"#utility.yul\":6993:6997   */\n      0x00\n        /* \"#utility.yul\":7031:7033   */\n      0x20\n        /* \"#utility.yul\":7020:7029   */\n      dup3\n        /* \"#utility.yul\":7016:7034   */\n      add\n        /* \"#utility.yul\":7008:7034   */\n      swap1\n      pop\n        /* \"#utility.yul\":7080:7089   */\n      dup2\n        /* \"#utility.yul\":7074:7078   */\n      dup2\n        /* \"#utility.yul\":7070:7090   */\n      sub\n        /* \"#utility.yul\":7066:7067   */\n      0x00\n        /* \"#utility.yul\":7055:7064   */\n      dup4\n        /* \"#utility.yul\":7051:7068   */\n      add\n        /* \"#utility.yul\":7044:7091   */\n      mstore\n        /* \"#utility.yul\":7108:7239   */\n      tag_272\n        /* \"#utility.yul\":7234:7238   */\n      dup2\n        /* \"#utility.yul\":7108:7239   */\n      tag_172\n      jump\t// in\n    tag_272:\n        /* \"#utility.yul\":7100:7239   */\n      swap1\n      pop\n        /* \"#utility.yul\":6827:7246   */\n      swap2\n      swap1\n      pop\n      jump\t// out\n        /* \"#utility.yul\":7252:7432   */\n    tag_173:\n        /* \"#utility.yul\":7300:7377   */\n      0x4e487b7100000000000000000000000000000000000000000000000000000000\n        /* \"#utility.yul\":7297:7298   */\n      0x00\n        /* \"#utility.yul\":7290:7378   */\n      mstore\n        /* \"#utility.yul\":7397:7401   */\n      0x11\n        /* \"#utility.yul\":7394:7395   */\n      0x04\n        /* \"#utility.yul\":7387:7402   */\n      mstore\n        /* \"#utility.yul\":7421:7425   */\n      0x24\n        /* \"#utility.yul\":7418:7419   */\n      0x00\n        /* \"#utility.yul\":7411:7426   */\n      revert\n        /* \"#utility.yul\":7438:7632   */\n    tag_70:\n        /* \"#utility.yul\":7478:7482   */\n      0x00\n        /* \"#utility.yul\":7498:7518   */\n      tag_275\n        /* \"#utility.yul\":7516:7517   */\n      dup3\n        /* \"#utility.yul\":7498:7518   */\n      tag_147\n      jump\t// in\n    tag_275:\n        /* \"#utility.yul\":7493:7518   */\n      swap2\n      pop\n        /* \"#utility.yul\":7532:7552   */\n      tag_276\n        /* \"#utility.yul\":7550:7551   */\n      dup4\n        /* \"#utility.yul\":7532:7552   */\n      tag_147\n      jump\t// in\n    tag_276:\n        /* \"#utility.yul\":7527:7552   */\n      swap3\n      pop\n        /* \"#utility.yul\":7576:7577   */\n      dup3\n        /* \"#utility.yul\":7573:7574   */\n      dup3\n        /* \"#utility.yul\":7569:7578   */\n      sub\n        /* \"#utility.yul\":7561:7578   */\n      swap1\n      pop\n        /* \"#utility.yul\":7600:7601   */\n      dup2\n        /* \"#utility.yul\":7594:7598   */\n      dup2\n        /* \"#utility.yul\":7591:7602   */\n      gt\n        /* \"#utility.yul\":7588:7625   */\n      iszero\n      tag_277\n      jumpi\n        /* \"#utility.yul\":7605:7623   */\n      tag_278\n      tag_173\n      jump\t// in\n    tag_278:\n        /* \"#utility.yul\":7588:7625   */\n    tag_277:\n        /* \"#utility.yul\":7438:7632   */\n      swap3\n      swap2\n      pop\n      pop\n      jump\t// out\n        /* \"#utility.yul\":7638:7785   */\n    tag_174:\n        /* \"#utility.yul\":7739:7750   */\n      0x00\n        /* \"#utility.yul\":7776:7779   */\n      dup2\n        /* \"#utility.yul\":7761:7779   */\n      swap1\n      pop\n        /* \"#utility.yul\":7638:7785   */\n      swap3\n      swap2\n      pop\n      pop\n      jump\t// out\n        /* \"#utility.yul\":7791:7945   */\n    tag_175:\n        /* \"#utility.yul\":7931:7937   */\n      0x73656e7400000000000000000000000000000000000000000000000000000000\n        /* \"#utility.yul\":7927:7928   */\n      0x00\n        /* \"#utility.yul\":7919:7925   */\n      dup3\n        /* \"#utility.yul\":7915:7929   */\n      add\n        /* \"#utility.yul\":7908:7938   */\n      mstore\n        /* \"#utility.yul\":7791:7945   */\n      pop\n      jump\t// out\n        /* \"#utility.yul\":7951:8349   */\n    tag_176:\n        /* \"#utility.yul\":8110:8113   */\n      0x00\n        /* \"#utility.yul\":8131:8214   */\n      tag_282\n        /* \"#utility.yul\":8212:8213   */\n      0x04\n        /* \"#utility.yul\":8207:8210   */\n      dup4\n        /* \"#utility.yul\":8131:8214   */\n      tag_174\n      jump\t// in\n    tag_282:\n        /* \"#utility.yul\":8124:8214   */\n      swap2\n      pop\n        /* \"#utility.yul\":8223:8316   */\n      tag_283\n        /* \"#utility.yul\":8312:8315   */\n      dup3\n        /* \"#utility.yul\":8223:8316   */\n      tag_175\n      jump\t// in\n    tag_283:\n        /* \"#utility.yul\":8341:8342   */\n      0x04\n        /* \"#utility.yul\":8336:8339   */\n      dup3\n        /* \"#utility.yul\":8332:8343   */\n      add\n        /* \"#utility.yul\":8325:8343   */\n      swap1\n      pop\n        /* \"#utility.yul\":7951:8349   */\n      swap2\n      swap1\n      pop\n      jump\t// out\n        /* \"#utility.yul\":8355:8734   */\n    tag_72:\n        /* \"#utility.yul\":8539:8542   */\n      0x00\n        /* \"#utility.yul\":8561:8708   */\n      tag_285\n        /* \"#utility.yul\":8704:8707   */\n      dup3\n        /* \"#utility.yul\":8561:8708   */\n      tag_176\n      jump\t// in\n    tag_285:\n        /* \"#utility.yul\":8554:8708   */\n      swap2\n      pop\n        /* \"#utility.yul\":8725:8728   */\n      dup2\n        /* \"#utility.yul\":8718:8728   */\n      swap1\n      pop\n        /* \"#utility.yul\":8355:8734   */\n      swap2\n      swap1\n      pop\n      jump\t// out\n        /* \"#utility.yul\":8740:8916   */\n    tag_177:\n        /* \"#utility.yul\":8880:8908   */\n      0x4661696c656420746f20776974686472617720616d6f756e7421000000000000\n        /* \"#utility.yul\":8876:8877   */\n      0x00\n        /* \"#utility.yul\":8868:8874   */\n      dup3\n        /* \"#utility.yul\":8864:8878   */\n      add\n        /* \"#utility.yul\":8857:8909   */\n      mstore\n        /* \"#utility.yul\":8740:8916   */\n      pop\n      jump\t// out\n        /* \"#utility.yul\":8922:9288   */\n    tag_178:\n        /* \"#utility.yul\":9064:9067   */\n      0x00\n        /* \"#utility.yul\":9085:9152   */\n      tag_288\n        /* \"#utility.yul\":9149:9151   */\n      0x1a\n        /* \"#utility.yul\":9144:9147   */\n      dup4\n        /* \"#utility.yul\":9085:9152   */\n      tag_170\n      jump\t// in\n    tag_288:\n        /* \"#utility.yul\":9078:9152   */\n      swap2\n      pop\n        /* \"#utility.yul\":9161:9254   */\n      tag_289\n        /* \"#utility.yul\":9250:9253   */\n      dup3\n        /* \"#utility.yul\":9161:9254   */\n      tag_177\n      jump\t// in\n    tag_289:\n        /* \"#utility.yul\":9279:9281   */\n      0x20\n        /* \"#utility.yul\":9274:9277   */\n      dup3\n        /* \"#utility.yul\":9270:9282   */\n      add\n        /* \"#utility.yul\":9263:9282   */\n      swap1\n      pop\n        /* \"#utility.yul\":8922:9288   */\n      swap2\n      swap1\n      pop\n      jump\t// out\n        /* \"#utility.yul\":9294:9713   */\n    tag_78:\n        /* \"#utility.yul\":9460:9464   */\n      0x00\n        /* \"#utility.yul\":9498:9500   */\n      0x20\n        /* \"#utility.yul\":9487:9496   */\n      dup3\n        /* \"#utility.yul\":9483:9501   */\n      add\n        /* \"#utility.yul\":9475:9501   */\n      swap1\n      pop\n        /* \"#utility.yul\":9547:9556   */\n      dup2\n        /* \"#utility.yul\":9541:9545   */\n      dup2\n        /* \"#utility.yul\":9537:9557   */\n      sub\n        /* \"#utility.yul\":9533:9534   */\n      0x00\n        /* \"#utility.yul\":9522:9531   */\n      dup4\n        /* \"#utility.yul\":9518:9535   */\n      add\n        /* \"#utility.yul\":9511:9558   */\n      mstore\n        /* \"#utility.yul\":9575:9706   */\n      tag_291\n        /* \"#utility.yul\":9701:9705   */\n      dup2\n        /* \"#utility.yul\":9575:9706   */\n      tag_178\n      jump\t// in\n    tag_291:\n        /* \"#utility.yul\":9567:9706   */\n      swap1\n      pop\n        /* \"#utility.yul\":9294:9713   */\n      swap2\n      swap1\n      pop\n      jump\t// out\n        /* \"#utility.yul\":9719:9885   */\n    tag_179:\n        /* \"#utility.yul\":9859:9877   */\n      0x4e6f7420656e6f75676820657468657200000000000000000000000000000000\n        /* \"#utility.yul\":9855:9856   */\n      0x00\n        /* \"#utility.yul\":9847:9853   */\n      dup3\n        /* \"#utility.yul\":9843:9857   */\n      add\n        /* \"#utility.yul\":9836:9878   */\n      mstore\n        /* \"#utility.yul\":9719:9885   */\n      pop\n      jump\t// out\n        /* \"#utility.yul\":9891:10257   */\n    tag_180:\n        /* \"#utility.yul\":10033:10036   */\n      0x00\n        /* \"#utility.yul\":10054:10121   */\n      tag_294\n        /* \"#utility.yul\":10118:10120   */\n      0x10\n        /* \"#utility.yul\":10113:10116   */\n      dup4\n        /* \"#utility.yul\":10054:10121   */\n      tag_170\n      jump\t// in\n    tag_294:\n        /* \"#utility.yul\":10047:10121   */\n      swap2\n      pop\n        /* \"#utility.yul\":10130:10223   */\n      tag_295\n        /* \"#utility.yul\":10219:10222   */\n      dup3\n        /* \"#utility.yul\":10130:10223   */\n      tag_179\n      jump\t// in\n    tag_295:\n        /* \"#utility.yul\":10248:10250   */\n      0x20\n        /* \"#utility.yul\":10243:10246   */\n      dup3\n        /* \"#utility.yul\":10239:10251   */\n      add\n        /* \"#utility.yul\":10232:10251   */\n      swap1\n      pop\n        /* \"#utility.yul\":9891:10257   */\n      swap2\n      swap1\n      pop\n      jump\t// out\n        /* \"#utility.yul\":10263:10682   */\n    tag_90:\n        /* \"#utility.yul\":10429:10433   */\n      0x00\n        /* \"#utility.yul\":10467:10469   */\n      0x20\n        /* \"#utility.yul\":10456:10465   */\n      dup3\n        /* \"#utility.yul\":10452:10470   */\n      add\n        /* \"#utility.yul\":10444:10470   */\n      swap1\n      pop\n        /* \"#utility.yul\":10516:10525   */\n      dup2\n        /* \"#utility.yul\":10510:10514   */\n      dup2\n        /* \"#utility.yul\":10506:10526   */\n      sub\n        /* \"#utility.yul\":10502:10503   */\n      0x00\n        /* \"#utility.yul\":10491:10500   */\n      dup4\n        /* \"#utility.yul\":10487:10504   */\n      add\n        /* \"#utility.yul\":10480:10527   */\n      mstore\n        /* \"#utility.yul\":10544:10675   */\n      tag_297\n        /* \"#utility.yul\":10670:10674   */\n      dup2\n        /* \"#utility.yul\":10544:10675   */\n      tag_180\n      jump\t// in\n    tag_297:\n        /* \"#utility.yul\":10536:10675   */\n      swap1\n      pop\n        /* \"#utility.yul\":10263:10682   */\n      swap2\n      swap1\n      pop\n      jump\t// out\n        /* \"#utility.yul\":10688:10879   */\n    tag_93:\n        /* \"#utility.yul\":10728:10731   */\n      0x00\n        /* \"#utility.yul\":10747:10767   */\n      tag_299\n        /* \"#utility.yul\":10765:10766   */\n      dup3\n        /* \"#utility.yul\":10747:10767   */\n      tag_147\n      jump\t// in\n    tag_299:\n        /* \"#utility.yul\":10742:10767   */\n      swap2\n      pop\n        /* \"#utility.yul\":10781:10801   */\n      tag_300\n        /* \"#utility.yul\":10799:10800   */\n      dup4\n        /* \"#utility.yul\":10781:10801   */\n      tag_147\n      jump\t// in\n    tag_300:\n        /* \"#utility.yul\":10776:10801   */\n      swap3\n      pop\n        /* \"#utility.yul\":10824:10825   */\n      dup3\n        /* \"#utility.yul\":10821:10822   */\n      dup3\n        /* \"#utility.yul\":10817:10826   */\n      add\n        /* \"#utility.yul\":10810:10826   */\n      swap1\n      pop\n        /* \"#utility.yul\":10845:10848   */\n      dup1\n        /* \"#utility.yul\":10842:10843   */\n      dup3\n        /* \"#utility.yul\":10839:10849   */\n      gt\n        /* \"#utility.yul\":10836:10872   */\n      iszero\n      tag_301\n      jumpi\n        /* \"#utility.yul\":10852:10870   */\n      tag_302\n      tag_173\n      jump\t// in\n    tag_302:\n        /* \"#utility.yul\":10836:10872   */\n    tag_301:\n        /* \"#utility.yul\":10688:10879   */\n      swap3\n      swap2\n      pop\n      pop\n      jump\t// out\n        /* \"#utility.yul\":10885:11062   */\n    tag_181:\n        /* \"#utility.yul\":11025:11054   */\n      0x4e6f7420656e6f75676820457468657220696e206163636f756e740000000000\n        /* \"#utility.yul\":11021:11022   */\n      0x00\n        /* \"#utility.yul\":11013:11019   */\n      dup3\n        /* \"#utility.yul\":11009:11023   */\n      add\n        /* \"#utility.yul\":11002:11055   */\n      mstore\n        /* \"#utility.yul\":10885:11062   */\n      pop\n      jump\t// out\n        /* \"#utility.yul\":11068:11434   */\n    tag_182:\n        /* \"#utility.yul\":11210:11213   */\n      0x00\n        /* \"#utility.yul\":11231:11298   */\n      tag_305\n        /* \"#utility.yul\":11295:11297   */\n      0x1b\n        /* \"#utility.yul\":11290:11293   */\n      dup4\n        /* \"#utility.yul\":11231:11298   */\n      tag_170\n      jump\t// in\n    tag_305:\n        /* \"#utility.yul\":11224:11298   */\n      swap2\n      pop\n        /* \"#utility.yul\":11307:11400   */\n      tag_306\n        /* \"#utility.yul\":11396:11399   */\n      dup3\n        /* \"#utility.yul\":11307:11400   */\n      tag_181\n      jump\t// in\n    tag_306:\n        /* \"#utility.yul\":11425:11427   */\n      0x20\n        /* \"#utility.yul\":11420:11423   */\n      dup3\n        /* \"#utility.yul\":11416:11428   */\n      add\n        /* \"#utility.yul\":11409:11428   */\n      swap1\n      pop\n        /* \"#utility.yul\":11068:11434   */\n      swap2\n      swap1\n      pop\n      jump\t// out\n        /* \"#utility.yul\":11440:11859   */\n    tag_97:\n        /* \"#utility.yul\":11606:11610   */\n      0x00\n        /* \"#utility.yul\":11644:11646   */\n      0x20\n        /* \"#utility.yul\":11633:11642   */\n      dup3\n        /* \"#utility.yul\":11629:11647   */\n      add\n        /* \"#utility.yul\":11621:11647   */\n      swap1\n      pop\n        /* \"#utility.yul\":11693:11702   */\n      dup2\n        /* \"#utility.yul\":11687:11691   */\n      dup2\n        /* \"#utility.yul\":11683:11703   */\n      sub\n        /* \"#utility.yul\":11679:11680   */\n      0x00\n        /* \"#utility.yul\":11668:11677   */\n      dup4\n        /* \"#utility.yul\":11664:11681   */\n      add\n        /* \"#utility.yul\":11657:11704   */\n      mstore\n        /* \"#utility.yul\":11721:11852   */\n      tag_308\n        /* \"#utility.yul\":11847:11851   */\n      dup2\n        /* \"#utility.yul\":11721:11852   */\n      tag_182\n      jump\t// in\n    tag_308:\n        /* \"#utility.yul\":11713:11852   */\n      swap1\n      pop\n        /* \"#utility.yul\":11440:11859   */\n      swap2\n      swap1\n      pop\n      jump\t// out\n        /* \"#utility.yul\":11865:12094   */\n    tag_183:\n        /* \"#utility.yul\":12005:12039   */\n      0x43616e6e6f74206775657373206d6f7265207468616e203320706f737369626c\n        /* \"#utility.yul\":12001:12002   */\n      0x00\n        /* \"#utility.yul\":11993:11999   */\n      dup3\n        /* \"#utility.yul\":11989:12003   */\n      add\n        /* \"#utility.yul\":11982:12040   */\n      mstore\n        /* \"#utility.yul\":12074:12086   */\n      0x65206f7574636f6d657300000000000000000000000000000000000000000000\n        /* \"#utility.yul\":12069:12071   */\n      0x20\n        /* \"#utility.yul\":12061:12067   */\n      dup3\n        /* \"#utility.yul\":12057:12072   */\n      add\n        /* \"#utility.yul\":12050:12087   */\n      mstore\n        /* \"#utility.yul\":11865:12094   */\n      pop\n      jump\t// out\n        /* \"#utility.yul\":12100:12466   */\n    tag_184:\n        /* \"#utility.yul\":12242:12245   */\n      0x00\n        /* \"#utility.yul\":12263:12330   */\n      tag_311\n        /* \"#utility.yul\":12327:12329   */\n      0x2a\n        /* \"#utility.yul\":12322:12325   */\n      dup4\n        /* \"#utility.yul\":12263:12330   */\n      tag_170\n      jump\t// in\n    tag_311:\n        /* \"#utility.yul\":12256:12330   */\n      swap2\n      pop\n        /* \"#utility.yul\":12339:12432   */\n      tag_312\n        /* \"#utility.yul\":12428:12431   */\n      dup3\n        /* \"#utility.yul\":12339:12432   */\n      tag_183\n      jump\t// in\n    tag_312:\n        /* \"#utility.yul\":12457:12459   */\n      0x40\n        /* \"#utility.yul\":12452:12455   */\n      dup3\n        /* \"#utility.yul\":12448:12460   */\n      add\n        /* \"#utility.yul\":12441:12460   */\n      swap1\n      pop\n        /* \"#utility.yul\":12100:12466   */\n      swap2\n      swap1\n      pop\n      jump\t// out\n        /* \"#utility.yul\":12472:12891   */\n    tag_100:\n        /* \"#utility.yul\":12638:12642   */\n      0x00\n        /* \"#utility.yul\":12676:12678   */\n      0x20\n        /* \"#utility.yul\":12665:12674   */\n      dup3\n        /* \"#utility.yul\":12661:12679   */\n      add\n        /* \"#utility.yul\":12653:12679   */\n      swap1\n      pop\n        /* \"#utility.yul\":12725:12734   */\n      dup2\n        /* \"#utility.yul\":12719:12723   */\n      dup2\n        /* \"#utility.yul\":12715:12735   */\n      sub\n        /* \"#utility.yul\":12711:12712   */\n      0x00\n        /* \"#utility.yul\":12700:12709   */\n      dup4\n        /* \"#utility.yul\":12696:12713   */\n      add\n        /* \"#utility.yul\":12689:12736   */\n      mstore\n        /* \"#utility.yul\":12753:12884   */\n      tag_314\n        /* \"#utility.yul\":12879:12883   */\n      dup2\n        /* \"#utility.yul\":12753:12884   */\n      tag_184\n      jump\t// in\n    tag_314:\n        /* \"#utility.yul\":12745:12884   */\n      swap1\n      pop\n        /* \"#utility.yul\":12472:12891   */\n      swap2\n      swap1\n      pop\n      jump\t// out\n        /* \"#utility.yul\":12897:13077   */\n    tag_106:\n        /* \"#utility.yul\":12945:13022   */\n      0x4e487b7100000000000000000000000000000000000000000000000000000000\n        /* \"#utility.yul\":12942:12943   */\n      0x00\n        /* \"#utility.yul\":12935:13023   */\n      mstore\n        /* \"#utility.yul\":13042:13046   */\n      0x32\n        /* \"#utility.yul\":13039:13040   */\n      0x04\n        /* \"#utility.yul\":13032:13047   */\n      mstore\n        /* \"#utility.yul\":13066:13070   */\n      0x24\n        /* \"#utility.yul\":13063:13064   */\n      0x00\n        /* \"#utility.yul\":13056:13071   */\n      revert\n        /* \"#utility.yul\":13083:13250   */\n    tag_185:\n        /* \"#utility.yul\":13223:13242   */\n      0x4775657373206e756d6265727320312d36000000000000000000000000000000\n        /* \"#utility.yul\":13219:13220   */\n      0x00\n        /* \"#utility.yul\":13211:13217   */\n      dup3\n        /* \"#utility.yul\":13207:13221   */\n      add\n        /* \"#utility.yul\":13200:13243   */\n      mstore\n        /* \"#utility.yul\":13083:13250   */\n      pop\n      jump\t// out\n        /* \"#utility.yul\":13256:13622   */\n    tag_186:\n        /* \"#utility.yul\":13398:13401   */\n      0x00\n        /* \"#utility.yul\":13419:13486   */\n      tag_318\n        /* \"#utility.yul\":13483:13485   */\n      0x11\n        /* \"#utility.yul\":13478:13481   */\n      dup4\n        /* \"#utility.yul\":13419:13486   */\n      tag_170\n      jump\t// in\n    tag_318:\n        /* \"#utility.yul\":13412:13486   */\n      swap2\n      pop\n        /* \"#utility.yul\":13495:13588   */\n      tag_319\n        /* \"#utility.yul\":13584:13587   */\n      dup3\n        /* \"#utility.yul\":13495:13588   */\n      tag_185\n      jump\t// in\n    tag_319:\n        /* \"#utility.yul\":13613:13615   */\n      0x20\n        /* \"#utility.yul\":13608:13611   */\n      dup3\n        /* \"#utility.yul\":13604:13616   */\n      add\n        /* \"#utility.yul\":13597:13616   */\n      swap1\n      pop\n        /* \"#utility.yul\":13256:13622   */\n      swap2\n      swap1\n      pop\n      jump\t// out\n        /* \"#utility.yul\":13628:14047   */\n    tag_112:\n        /* \"#utility.yul\":13794:13798   */\n      0x00\n        /* \"#utility.yul\":13832:13834   */\n      0x20\n        /* \"#utility.yul\":13821:13830   */\n      dup3\n        /* \"#utility.yul\":13817:13835   */\n      add\n        /* \"#utility.yul\":13809:13835   */\n      swap1\n      pop\n        /* \"#utility.yul\":13881:13890   */\n      dup2\n        /* \"#utility.yul\":13875:13879   */\n      dup2\n        /* \"#utility.yul\":13871:13891   */\n      sub\n        /* \"#utility.yul\":13867:13868   */\n      0x00\n        /* \"#utility.yul\":13856:13865   */\n      dup4\n        /* \"#utility.yul\":13852:13869   */\n      add\n        /* \"#utility.yul\":13845:13892   */\n      mstore\n        /* \"#utility.yul\":13909:14040   */\n      tag_321\n        /* \"#utility.yul\":14035:14039   */\n      dup2\n        /* \"#utility.yul\":13909:14040   */\n      tag_186\n      jump\t// in\n    tag_321:\n        /* \"#utility.yul\":13901:14040   */\n      swap1\n      pop\n        /* \"#utility.yul\":13628:14047   */\n      swap2\n      swap1\n      pop\n      jump\t// out\n        /* \"#utility.yul\":14053:14139   */\n    tag_187:\n        /* \"#utility.yul\":14088:14095   */\n      0x00\n        /* \"#utility.yul\":14128:14132   */\n      0xff\n        /* \"#utility.yul\":14121:14126   */\n      dup3\n        /* \"#utility.yul\":14117:14133   */\n      and\n        /* \"#utility.yul\":14106:14133   */\n      swap1\n      pop\n        /* \"#utility.yul\":14053:14139   */\n      swap2\n      swap1\n      pop\n      jump\t// out\n        /* \"#utility.yul\":14145:14312   */\n    tag_114:\n        /* \"#utility.yul\":14182:14185   */\n      0x00\n        /* \"#utility.yul\":14205:14227   */\n      tag_324\n        /* \"#utility.yul\":14221:14226   */\n      dup3\n        /* \"#utility.yul\":14205:14227   */\n      tag_187\n      jump\t// in\n    tag_324:\n        /* \"#utility.yul\":14196:14227   */\n      swap2\n      pop\n        /* \"#utility.yul\":14249:14253   */\n      0xff\n        /* \"#utility.yul\":14242:14247   */\n      dup3\n        /* \"#utility.yul\":14239:14254   */\n      sub\n        /* \"#utility.yul\":14236:14277   */\n      tag_325\n      jumpi\n        /* \"#utility.yul\":14257:14275   */\n      tag_326\n      tag_173\n      jump\t// in\n    tag_326:\n        /* \"#utility.yul\":14236:14277   */\n    tag_325:\n        /* \"#utility.yul\":14304:14305   */\n      0x01\n        /* \"#utility.yul\":14297:14302   */\n      dup3\n        /* \"#utility.yul\":14293:14306   */\n      add\n        /* \"#utility.yul\":14286:14306   */\n      swap1\n      pop\n        /* \"#utility.yul\":14145:14312   */\n      swap2\n      swap1\n      pop\n      jump\t// out\n        /* \"#utility.yul\":14318:14498   */\n    tag_188:\n        /* \"#utility.yul\":14366:14443   */\n      0x4e487b7100000000000000000000000000000000000000000000000000000000\n        /* \"#utility.yul\":14363:14364   */\n      0x00\n        /* \"#utility.yul\":14356:14444   */\n      mstore\n        /* \"#utility.yul\":14463:14467   */\n      0x12\n        /* \"#utility.yul\":14460:14461   */\n      0x04\n        /* \"#utility.yul\":14453:14468   */\n      mstore\n        /* \"#utility.yul\":14487:14491   */\n      0x24\n        /* \"#utility.yul\":14484:14485   */\n      0x00\n        /* \"#utility.yul\":14477:14492   */\n      revert\n        /* \"#utility.yul\":14504:14680   */\n    tag_118:\n        /* \"#utility.yul\":14536:14537   */\n      0x00\n        /* \"#utility.yul\":14553:14573   */\n      tag_329\n        /* \"#utility.yul\":14571:14572   */\n      dup3\n        /* \"#utility.yul\":14553:14573   */\n      tag_147\n      jump\t// in\n    tag_329:\n        /* \"#utility.yul\":14548:14573   */\n      swap2\n      pop\n        /* \"#utility.yul\":14587:14607   */\n      tag_330\n        /* \"#utility.yul\":14605:14606   */\n      dup4\n        /* \"#utility.yul\":14587:14607   */\n      tag_147\n      jump\t// in\n    tag_330:\n        /* \"#utility.yul\":14582:14607   */\n      swap3\n      pop\n        /* \"#utility.yul\":14626:14627   */\n      dup3\n        /* \"#utility.yul\":14616:14651   */\n      tag_331\n      jumpi\n        /* \"#utility.yul\":14631:14649   */\n      tag_332\n      tag_188\n      jump\t// in\n    tag_332:\n        /* \"#utility.yul\":14616:14651   */\n    tag_331:\n        /* \"#utility.yul\":14672:14673   */\n      dup3\n        /* \"#utility.yul\":14669:14670   */\n      dup3\n        /* \"#utility.yul\":14665:14674   */\n      mod\n        /* \"#utility.yul\":14660:14674   */\n      swap1\n      pop\n        /* \"#utility.yul\":14504:14680   */\n      swap3\n      swap2\n      pop\n      pop\n      jump\t// out\n        /* \"#utility.yul\":14686:14911   */\n    tag_189:\n        /* \"#utility.yul\":14826:14860   */\n      0x4f776e61626c653a206e6577206f776e657220697320746865207a65726f2061\n        /* \"#utility.yul\":14822:14823   */\n      0x00\n        /* \"#utility.yul\":14814:14820   */\n      dup3\n        /* \"#utility.yul\":14810:14824   */\n      add\n        /* \"#utility.yul\":14803:14861   */\n      mstore\n        /* \"#utility.yul\":14895:14903   */\n      0x6464726573730000000000000000000000000000000000000000000000000000\n        /* \"#utility.yul\":14890:14892   */\n      0x20\n        /* \"#utility.yul\":14882:14888   */\n      dup3\n        /* \"#utility.yul\":14878:14893   */\n      add\n        /* \"#utility.yul\":14871:14904   */\n      mstore\n        /* \"#utility.yul\":14686:14911   */\n      pop\n      jump\t// out\n        /* \"#utility.yul\":14917:15283   */\n    tag_190:\n        /* \"#utility.yul\":15059:15062   */\n      0x00\n        /* \"#utility.yul\":15080:15147   */\n      tag_335\n        /* \"#utility.yul\":15144:15146   */\n      0x26\n        /* \"#utility.yul\":15139:15142   */\n      dup4\n        /* \"#utility.yul\":15080:15147   */\n      tag_170\n      jump\t// in\n    tag_335:\n        /* \"#utility.yul\":15073:15147   */\n      swap2\n      pop\n        /* \"#utility.yul\":15156:15249   */\n      tag_336\n        /* \"#utility.yul\":15245:15248   */\n      dup3\n        /* \"#utility.yul\":15156:15249   */\n      tag_189\n      jump\t// in\n    tag_336:\n        /* \"#utility.yul\":15274:15276   */\n      0x40\n        /* \"#utility.yul\":15269:15272   */\n      dup3\n        /* \"#utility.yul\":15265:15277   */\n      add\n        /* \"#utility.yul\":15258:15277   */\n      swap1\n      pop\n        /* \"#utility.yul\":14917:15283   */\n      swap2\n      swap1\n      pop\n      jump\t// out\n        /* \"#utility.yul\":15289:15708   */\n    tag_133:\n        /* \"#utility.yul\":15455:15459   */\n      0x00\n        /* \"#utility.yul\":15493:15495   */\n      0x20\n        /* \"#utility.yul\":15482:15491   */\n      dup3\n        /* \"#utility.yul\":15478:15496   */\n      add\n        /* \"#utility.yul\":15470:15496   */\n      swap1\n      pop\n        /* \"#utility.yul\":15542:15551   */\n      dup2\n        /* \"#utility.yul\":15536:15540   */\n      dup2\n        /* \"#utility.yul\":15532:15552   */\n      sub\n        /* \"#utility.yul\":15528:15529   */\n      0x00\n        /* \"#utility.yul\":15517:15526   */\n      dup4\n        /* \"#utility.yul\":15513:15530   */\n      add\n        /* \"#utility.yul\":15506:15553   */\n      mstore\n        /* \"#utility.yul\":15570:15701   */\n      tag_338\n        /* \"#utility.yul\":15696:15700   */\n      dup2\n        /* \"#utility.yul\":15570:15701   */\n      tag_190\n      jump\t// in\n    tag_338:\n        /* \"#utility.yul\":15562:15701   */\n      swap1\n      pop\n        /* \"#utility.yul\":15289:15708   */\n      swap2\n      swap1\n      pop\n      jump\t// out\n        /* \"#utility.yul\":15714:15896   */\n    tag_191:\n        /* \"#utility.yul\":15854:15888   */\n      0x4f776e61626c653a2063616c6c6572206973206e6f7420746865206f776e6572\n        /* \"#utility.yul\":15850:15851   */\n      0x00\n        /* \"#utility.yul\":15842:15848   */\n      dup3\n        /* \"#utility.yul\":15838:15852   */\n      add\n        /* \"#utility.yul\":15831:15889   */\n      mstore\n        /* \"#utility.yul\":15714:15896   */\n      pop\n      jump\t// out\n        /* \"#utility.yul\":15902:16268   */\n    tag_192:\n        /* \"#utility.yul\":16044:16047   */\n      0x00\n        /* \"#utility.yul\":16065:16132   */\n      tag_341\n        /* \"#utility.yul\":16129:16131   */\n      0x20\n        /* \"#utility.yul\":16124:16127   */\n      dup4\n        /* \"#utility.yul\":16065:16132   */\n      tag_170\n      jump\t// in\n    tag_341:\n        /* \"#utility.yul\":16058:16132   */\n      swap2\n      pop\n        /* \"#utility.yul\":16141:16234   */\n      tag_342\n        /* \"#utility.yul\":16230:16233   */\n      dup3\n        /* \"#utility.yul\":16141:16234   */\n      tag_191\n      jump\t// in\n    tag_342:\n        /* \"#utility.yul\":16259:16261   */\n      0x20\n        /* \"#utility.yul\":16254:16257   */\n      dup3\n        /* \"#utility.yul\":16250:16262   */\n      add\n        /* \"#utility.yul\":16243:16262   */\n      swap1\n      pop\n        /* \"#utility.yul\":15902:16268   */\n      swap2\n      swap1\n      pop\n      jump\t// out\n        /* \"#utility.yul\":16274:16693   */\n    tag_141:\n        /* \"#utility.yul\":16440:16444   */\n      0x00\n        /* \"#utility.yul\":16478:16480   */\n      0x20\n        /* \"#utility.yul\":16467:16476   */\n      dup3\n        /* \"#utility.yul\":16463:16481   */\n      add\n        /* \"#utility.yul\":16455:16481   */\n      swap1\n      pop\n        /* \"#utility.yul\":16527:16536   */\n      dup2\n        /* \"#utility.yul\":16521:16525   */\n      dup2\n        /* \"#utility.yul\":16517:16537   */\n      sub\n        /* \"#utility.yul\":16513:16514   */\n      0x00\n        /* \"#utility.yul\":16502:16511   */\n      dup4\n        /* \"#utility.yul\":16498:16515   */\n      add\n        /* \"#utility.yul\":16491:16538   */\n      mstore\n        /* \"#utility.yul\":16555:16686   */\n      tag_344\n        /* \"#utility.yul\":16681:16685   */\n      dup2\n        /* \"#utility.yul\":16555:16686   */\n      tag_192\n      jump\t// in\n    tag_344:\n        /* \"#utility.yul\":16547:16686   */\n      swap1\n      pop\n        /* \"#utility.yul\":16274:16693   */\n      swap2\n      swap1\n      pop\n      jump\t// out\n        /* \"#utility.yul\":16699:17031   */\n    tag_145:\n        /* \"#utility.yul\":16820:16824   */\n      0x00\n        /* \"#utility.yul\":16858:16860   */\n      0x40\n        /* \"#utility.yul\":16847:16856   */\n      dup3\n        /* \"#utility.yul\":16843:16861   */\n      add\n        /* \"#utility.yul\":16835:16861   */\n      swap1\n      pop\n        /* \"#utility.yul\":16871:16942   */\n      tag_346\n        /* \"#utility.yul\":16939:16940   */\n      0x00\n        /* \"#utility.yul\":16928:16937   */\n      dup4\n        /* \"#utility.yul\":16924:16941   */\n      add\n        /* \"#utility.yul\":16915:16921   */\n      dup6\n        /* \"#utility.yul\":16871:16942   */\n      tag_148\n      jump\t// in\n    tag_346:\n        /* \"#utility.yul\":16952:17024   */\n      tag_347\n        /* \"#utility.yul\":17020:17022   */\n      0x20\n        /* \"#utility.yul\":17009:17018   */\n      dup4\n        /* \"#utility.yul\":17005:17023   */\n      add\n        /* \"#utility.yul\":16996:17002   */\n      dup5\n        /* \"#utility.yul\":16952:17024   */\n      tag_148\n      jump\t// in\n    tag_347:\n        /* \"#utility.yul\":16699:17031   */\n      swap4\n      swap3\n      pop\n      pop\n      pop\n      jump\t// out\n\n    auxdata: 0xa2646970667358221220062549d4cfd4472bcbd8fa442f15b7cf0be3949c9d3deb31a4802fd3121d2db364736f6c63430008100033\n}\n",
				"bytecode": {
					"linkReferences": {},
					"object": "608060405234801561001057600080fd5b5061002d61002261003260201b60201c565b61003a60201b60201c565b6100fe565b600033905090565b60008060009054906101000a900473ffffffffffffffffffffffffffffffffffffffff169050816000806101000a81548173ffffffffffffffffffffffffffffffffffffffff021916908373ffffffffffffffffffffffffffffffffffffffff1602179055508173ffffffffffffffffffffffffffffffffffffffff168173ffffffffffffffffffffffffffffffffffffffff167f8be0079c531659141344cd1fd0a4f28419497f9722a3daafe3b4186f6b6457e060405160405180910390a35050565b6112d78061010d6000396000f3fe60806040526004361061009c5760003560e01c80638da5cb5b116100645780638da5cb5b14610186578063c1af5785146101b1578063d0e30db0146101c8578063ed1c274f146101d2578063ed7892f21461020f578063f2fde38b1461024c5761009c565b80631a0843c0146100a157806327e235e3146100cc5780632e1a7d4d146101095780634773489214610132578063715018a61461016f575b600080fd5b3480156100ad57600080fd5b506100b6610275565b6040516100c391906109cb565b60405180910390f35b3480156100d857600080fd5b506100f360048036038101906100ee9190610a58565b61027d565b60405161010091906109cb565b60405180910390f35b34801561011557600080fd5b50610130600480360381019061012b9190610ab1565b610295565b005b34801561013e57600080fd5b5061015960048036038101906101549190610a58565b61041d565b60405161016691906109cb565b60405180910390f35b34801561017b57600080fd5b50610184610466565b005b34801561019257600080fd5b5061019b61047a565b6040516101a89190610aed565b60405180910390f35b3480156101bd57600080fd5b506101c66104a3565b005b6101d061052f565b005b3480156101de57600080fd5b506101f960048036038101906101f49190610ab1565b610587565b6040516102069190610aed565b60405180910390f35b34801561021b57600080fd5b5061023660048036038101906102319190610c61565b6105ba565b6040516102439190610cd8565b60405180910390f35b34801561025857600080fd5b50610273600480360381019061026e9190610a58565b6107b2565b005b600047905090565b60016020528060005260406000206000915090505481565b80600160003373ffffffffffffffffffffffffffffffffffffffff1673ffffffffffffffffffffffffffffffffffffffff168152602001908152602001600020541015610317576040517f08c379a000000000000000000000000000000000000000000000000000000000815260040161030e90610d50565b60405180910390fd5b80600160003373ffffffffffffffffffffffffffffffffffffffff1673ffffffffffffffffffffffffffffffffffffffff16815260200190815260200160002060008282546103669190610d9f565b9250508190555060003373ffffffffffffffffffffffffffffffffffffffff168260405161039390610e2a565b60006040518083038185875af1925050503d80600081146103d0576040519150601f19603f3d011682016040523d82523d6000602084013e6103d5565b606091505b5050905080610419576040517f08c379a000000000000000000000000000000000000000000000000000000000815260040161041090610e8b565b60405180910390fd5b5050565b6000600160008373ffffffffffffffffffffffffffffffffffffffff1673ffffffffffffffffffffffffffffffffffffffff168152602001908152602001600020549050919050565b61046e610835565b61047860006108b3565b565b60008060009054906101000a900473ffffffffffffffffffffffffffffffffffffffff16905090565b670de0b6b3a7640000600160003373ffffffffffffffffffffffffffffffffffffffff1673ffffffffffffffffffffffffffffffffffffffff16815260200190815260200160002054101561052d576040517f08c379a000000000000000000000000000000000000000000000000000000000815260040161052490610ef7565b60405180910390fd5b565b34600160003373ffffffffffffffffffffffffffffffffffffffff1673ffffffffffffffffffffffffffffffffffffffff168152602001908152602001600020600082825461057e9190610f17565b92505081905550565b60026020528060005260406000206000915054906101000a900473ffffffffffffffffffffffffffffffffffffffff1681565b6000600160003373ffffffffffffffffffffffffffffffffffffffff1673ffffffffffffffffffffffffffffffffffffffff1681526020019081526020016000205482111561063e576040517f08c379a000000000000000000000000000000000000000000000000000000000815260040161063590610f97565b60405180910390fd5b600383511015610683576040517f08c379a000000000000000000000000000000000000000000000000000000000815260040161067a90611029565b60405180910390fd5b60005b83518160ff161015610730576006848260ff16815181106106aa576106a9611049565b5b6020026020010151111580156106de57506001848260ff16815181106106d3576106d2611049565b5b602002602001015110155b61071d576040517f08c379a0000000000000000000000000000000000000000000000000000000008152600401610714906110c4565b60405180910390fd5b8080610728906110f1565b915050610686565b5060006001600661073f610977565b6107499190611149565b6107539190610f17565b90506000805b85518160ff1610156107a65782868260ff168151811061077c5761077b611049565b5b602002602001015114610790578115610792565b815b50808061079e906110f1565b915050610759565b50809250505092915050565b6107ba610835565b600073ffffffffffffffffffffffffffffffffffffffff168173ffffffffffffffffffffffffffffffffffffffff1603610829576040517f08c379a0000000000000000000000000000000000000000000000000000000008152600401610820906111ec565b60405180910390fd5b610832816108b3565b50565b61083d6109aa565b73ffffffffffffffffffffffffffffffffffffffff1661085b61047a565b73ffffffffffffffffffffffffffffffffffffffff16146108b1576040517f08c379a00000000000000000000000000000000000000000000000000000000081526004016108a890611258565b60405180910390fd5b565b60008060009054906101000a900473ffffffffffffffffffffffffffffffffffffffff169050816000806101000a81548173ffffffffffffffffffffffffffffffffffffffff021916908373ffffffffffffffffffffffffffffffffffffffff1602179055508173ffffffffffffffffffffffffffffffffffffffff168173ffffffffffffffffffffffffffffffffffffffff167f8be0079c531659141344cd1fd0a4f28419497f9722a3daafe3b4186f6b6457e060405160405180910390a35050565b6000424360405160200161098c929190611278565b6040516020818303038152906040528051906020012060001c905090565b600033905090565b6000819050919050565b6109c5816109b2565b82525050565b60006020820190506109e060008301846109bc565b92915050565b6000604051905090565b600080fd5b600080fd5b600073ffffffffffffffffffffffffffffffffffffffff82169050919050565b6000610a25826109fa565b9050919050565b610a3581610a1a565b8114610a4057600080fd5b50565b600081359050610a5281610a2c565b92915050565b600060208284031215610a6e57610a6d6109f0565b5b6000610a7c84828501610a43565b91505092915050565b610a8e816109b2565b8114610a9957600080fd5b50565b600081359050610aab81610a85565b92915050565b600060208284031215610ac757610ac66109f0565b5b6000610ad584828501610a9c565b91505092915050565b610ae781610a1a565b82525050565b6000602082019050610b026000830184610ade565b92915050565b600080fd5b6000601f19601f8301169050919050565b7f4e487b7100000000000000000000000000000000000000000000000000000000600052604160045260246000fd5b610b5682610b0d565b810181811067ffffffffffffffff82111715610b7557610b74610b1e565b5b80604052505050565b6000610b886109e6565b9050610b948282610b4d565b919050565b600067ffffffffffffffff821115610bb457610bb3610b1e565b5b602082029050602081019050919050565b600080fd5b6000610bdd610bd884610b99565b610b7e565b90508083825260208201905060208402830185811115610c0057610bff610bc5565b5b835b81811015610c295780610c158882610a9c565b845260208401935050602081019050610c02565b5050509392505050565b600082601f830112610c4857610c47610b08565b5b8135610c58848260208601610bca565b91505092915050565b60008060408385031215610c7857610c776109f0565b5b600083013567ffffffffffffffff811115610c9657610c956109f5565b5b610ca285828601610c33565b9250506020610cb385828601610a9c565b9150509250929050565b60008115159050919050565b610cd281610cbd565b82525050565b6000602082019050610ced6000830184610cc9565b92915050565b600082825260208201905092915050565b7f496e73756666696369656e742066756e647320746f2077697468647261772100600082015250565b6000610d3a601f83610cf3565b9150610d4582610d04565b602082019050919050565b60006020820190508181036000830152610d6981610d2d565b9050919050565b7f4e487b7100000000000000000000000000000000000000000000000000000000600052601160045260246000fd5b6000610daa826109b2565b9150610db5836109b2565b9250828203905081811115610dcd57610dcc610d70565b5b92915050565b600081905092915050565b7f73656e7400000000000000000000000000000000000000000000000000000000600082015250565b6000610e14600483610dd3565b9150610e1f82610dde565b600482019050919050565b6000610e3582610e07565b9150819050919050565b7f4661696c656420746f20776974686472617720616d6f756e7421000000000000600082015250565b6000610e75601a83610cf3565b9150610e8082610e3f565b602082019050919050565b60006020820190508181036000830152610ea481610e68565b9050919050565b7f4e6f7420656e6f75676820657468657200000000000000000000000000000000600082015250565b6000610ee1601083610cf3565b9150610eec82610eab565b602082019050919050565b60006020820190508181036000830152610f1081610ed4565b9050919050565b6000610f22826109b2565b9150610f2d836109b2565b9250828201905080821115610f4557610f44610d70565b5b92915050565b7f4e6f7420656e6f75676820457468657220696e206163636f756e740000000000600082015250565b6000610f81601b83610cf3565b9150610f8c82610f4b565b602082019050919050565b60006020820190508181036000830152610fb081610f74565b9050919050565b7f43616e6e6f74206775657373206d6f7265207468616e203320706f737369626c60008201527f65206f7574636f6d657300000000000000000000000000000000000000000000602082015250565b6000611013602a83610cf3565b915061101e82610fb7565b604082019050919050565b6000602082019050818103600083015261104281611006565b9050919050565b7f4e487b7100000000000000000000000000000000000000000000000000000000600052603260045260246000fd5b7f4775657373206e756d6265727320312d36000000000000000000000000000000600082015250565b60006110ae601183610cf3565b91506110b982611078565b602082019050919050565b600060208201905081810360008301526110dd816110a1565b9050919050565b600060ff82169050919050565b60006110fc826110e4565b915060ff820361110f5761110e610d70565b5b600182019050919050565b7f4e487b7100000000000000000000000000000000000000000000000000000000600052601260045260246000fd5b6000611154826109b2565b915061115f836109b2565b92508261116f5761116e61111a565b5b828206905092915050565b7f4f776e61626c653a206e6577206f776e657220697320746865207a65726f206160008201527f6464726573730000000000000000000000000000000000000000000000000000602082015250565b60006111d6602683610cf3565b91506111e18261117a565b604082019050919050565b60006020820190508181036000830152611205816111c9565b9050919050565b7f4f776e61626c653a2063616c6c6572206973206e6f7420746865206f776e6572600082015250565b6000611242602083610cf3565b915061124d8261120c565b602082019050919050565b6000602082019050818103600083015261127181611235565b9050919050565b600060408201905061128d60008301856109bc565b61129a60208301846109bc565b939250505056fea2646970667358221220062549d4cfd4472bcbd8fa442f15b7cf0be3949c9d3deb31a4802fd3121d2db364736f6c63430008100033",
					"opcodes": "PUSH1 0x80 PUSH1 0x40 MSTORE CALLVALUE DUP1 ISZERO PUSH2 0x10 JUMPI PUSH1 0x0 DUP1 REVERT JUMPDEST POP PUSH2 0x2D PUSH2 0x22 PUSH2 0x32 PUSH1 0x20 SHL PUSH1 0x20 SHR JUMP JUMPDEST PUSH2 0x3A PUSH1 0x20 SHL PUSH1 0x20 SHR JUMP JUMPDEST PUSH2 0xFE JUMP JUMPDEST PUSH1 0x0 CALLER SWAP1 POP SWAP1 JUMP JUMPDEST PUSH1 0x0 DUP1 PUSH1 0x0 SWAP1 SLOAD SWAP1 PUSH2 0x100 EXP SWAP1 DIV PUSH20 0xFFFFFFFFFFFFFFFFFFFFFFFFFFFFFFFFFFFFFFFF AND SWAP1 POP DUP2 PUSH1 0x0 DUP1 PUSH2 0x100 EXP DUP2 SLOAD DUP2 PUSH20 0xFFFFFFFFFFFFFFFFFFFFFFFFFFFFFFFFFFFFFFFF MUL NOT AND SWAP1 DUP4 PUSH20 0xFFFFFFFFFFFFFFFFFFFFFFFFFFFFFFFFFFFFFFFF AND MUL OR SWAP1 SSTORE POP DUP2 PUSH20 0xFFFFFFFFFFFFFFFFFFFFFFFFFFFFFFFFFFFFFFFF AND DUP2 PUSH20 0xFFFFFFFFFFFFFFFFFFFFFFFFFFFFFFFFFFFFFFFF AND PUSH32 0x8BE0079C531659141344CD1FD0A4F28419497F9722A3DAAFE3B4186F6B6457E0 PUSH1 0x40 MLOAD PUSH1 0x40 MLOAD DUP1 SWAP2 SUB SWAP1 LOG3 POP POP JUMP JUMPDEST PUSH2 0x12D7 DUP1 PUSH2 0x10D PUSH1 0x0 CODECOPY PUSH1 0x0 RETURN INVALID PUSH1 0x80 PUSH1 0x40 MSTORE PUSH1 0x4 CALLDATASIZE LT PUSH2 0x9C JUMPI PUSH1 0x0 CALLDATALOAD PUSH1 0xE0 SHR DUP1 PUSH4 0x8DA5CB5B GT PUSH2 0x64 JUMPI DUP1 PUSH4 0x8DA5CB5B EQ PUSH2 0x186 JUMPI DUP1 PUSH4 0xC1AF5785 EQ PUSH2 0x1B1 JUMPI DUP1 PUSH4 0xD0E30DB0 EQ PUSH2 0x1C8 JUMPI DUP1 PUSH4 0xED1C274F EQ PUSH2 0x1D2 JUMPI DUP1 PUSH4 0xED7892F2 EQ PUSH2 0x20F JUMPI DUP1 PUSH4 0xF2FDE38B EQ PUSH2 0x24C JUMPI PUSH2 0x9C JUMP JUMPDEST DUP1 PUSH4 0x1A0843C0 EQ PUSH2 0xA1 JUMPI DUP1 PUSH4 0x27E235E3 EQ PUSH2 0xCC JUMPI DUP1 PUSH4 0x2E1A7D4D EQ PUSH2 0x109 JUMPI DUP1 PUSH4 0x47734892 EQ PUSH2 0x132 JUMPI DUP1 PUSH4 0x715018A6 EQ PUSH2 0x16F JUMPI JUMPDEST PUSH1 0x0 DUP1 REVERT JUMPDEST CALLVALUE DUP1 ISZERO PUSH2 0xAD JUMPI PUSH1 0x0 DUP1 REVERT JUMPDEST POP PUSH2 0xB6 PUSH2 0x275 JUMP JUMPDEST PUSH1 0x40 MLOAD PUSH2 0xC3 SWAP2 SWAP1 PUSH2 0x9CB JUMP JUMPDEST PUSH1 0x40 MLOAD DUP1 SWAP2 SUB SWAP1 RETURN JUMPDEST CALLVALUE DUP1 ISZERO PUSH2 0xD8 JUMPI PUSH1 0x0 DUP1 REVERT JUMPDEST POP PUSH2 0xF3 PUSH1 0x4 DUP1 CALLDATASIZE SUB DUP2 ADD SWAP1 PUSH2 0xEE SWAP2 SWAP1 PUSH2 0xA58 JUMP JUMPDEST PUSH2 0x27D JUMP JUMPDEST PUSH1 0x40 MLOAD PUSH2 0x100 SWAP2 SWAP1 PUSH2 0x9CB JUMP JUMPDEST PUSH1 0x40 MLOAD DUP1 SWAP2 SUB SWAP1 RETURN JUMPDEST CALLVALUE DUP1 ISZERO PUSH2 0x115 JUMPI PUSH1 0x0 DUP1 REVERT JUMPDEST POP PUSH2 0x130 PUSH1 0x4 DUP1 CALLDATASIZE SUB DUP2 ADD SWAP1 PUSH2 0x12B SWAP2 SWAP1 PUSH2 0xAB1 JUMP JUMPDEST PUSH2 0x295 JUMP JUMPDEST STOP JUMPDEST CALLVALUE DUP1 ISZERO PUSH2 0x13E JUMPI PUSH1 0x0 DUP1 REVERT JUMPDEST POP PUSH2 0x159 PUSH1 0x4 DUP1 CALLDATASIZE SUB DUP2 ADD SWAP1 PUSH2 0x154 SWAP2 SWAP1 PUSH2 0xA58 JUMP JUMPDEST PUSH2 0x41D JUMP JUMPDEST PUSH1 0x40 MLOAD PUSH2 0x166 SWAP2 SWAP1 PUSH2 0x9CB JUMP JUMPDEST PUSH1 0x40 MLOAD DUP1 SWAP2 SUB SWAP1 RETURN JUMPDEST CALLVALUE DUP1 ISZERO PUSH2 0x17B JUMPI PUSH1 0x0 DUP1 REVERT JUMPDEST POP PUSH2 0x184 PUSH2 0x466 JUMP JUMPDEST STOP JUMPDEST CALLVALUE DUP1 ISZERO PUSH2 0x192 JUMPI PUSH1 0x0 DUP1 REVERT JUMPDEST POP PUSH2 0x19B PUSH2 0x47A JUMP JUMPDEST PUSH1 0x40 MLOAD PUSH2 0x1A8 SWAP2 SWAP1 PUSH2 0xAED JUMP JUMPDEST PUSH1 0x40 MLOAD DUP1 SWAP2 SUB SWAP1 RETURN JUMPDEST CALLVALUE DUP1 ISZERO PUSH2 0x1BD JUMPI PUSH1 0x0 DUP1 REVERT JUMPDEST POP PUSH2 0x1C6 PUSH2 0x4A3 JUMP JUMPDEST STOP JUMPDEST PUSH2 0x1D0 PUSH2 0x52F JUMP JUMPDEST STOP JUMPDEST CALLVALUE DUP1 ISZERO PUSH2 0x1DE JUMPI PUSH1 0x0 DUP1 REVERT JUMPDEST POP PUSH2 0x1F9 PUSH1 0x4 DUP1 CALLDATASIZE SUB DUP2 ADD SWAP1 PUSH2 0x1F4 SWAP2 SWAP1 PUSH2 0xAB1 JUMP JUMPDEST PUSH2 0x587 JUMP JUMPDEST PUSH1 0x40 MLOAD PUSH2 0x206 SWAP2 SWAP1 PUSH2 0xAED JUMP JUMPDEST PUSH1 0x40 MLOAD DUP1 SWAP2 SUB SWAP1 RETURN JUMPDEST CALLVALUE DUP1 ISZERO PUSH2 0x21B JUMPI PUSH1 0x0 DUP1 REVERT JUMPDEST POP PUSH2 0x236 PUSH1 0x4 DUP1 CALLDATASIZE SUB DUP2 ADD SWAP1 PUSH2 0x231 SWAP2 SWAP1 PUSH2 0xC61 JUMP JUMPDEST PUSH2 0x5BA JUMP JUMPDEST PUSH1 0x40 MLOAD PUSH2 0x243 SWAP2 SWAP1 PUSH2 0xCD8 JUMP JUMPDEST PUSH1 0x40 MLOAD DUP1 SWAP2 SUB SWAP1 RETURN JUMPDEST CALLVALUE DUP1 ISZERO PUSH2 0x258 JUMPI PUSH1 0x0 DUP1 REVERT JUMPDEST POP PUSH2 0x273 PUSH1 0x4 DUP1 CALLDATASIZE SUB DUP2 ADD SWAP1 PUSH2 0x26E SWAP2 SWAP1 PUSH2 0xA58 JUMP JUMPDEST PUSH2 0x7B2 JUMP JUMPDEST STOP JUMPDEST PUSH1 0x0 SELFBALANCE SWAP1 POP SWAP1 JUMP JUMPDEST PUSH1 0x1 PUSH1 0x20 MSTORE DUP1 PUSH1 0x0 MSTORE PUSH1 0x40 PUSH1 0x0 KECCAK256 PUSH1 0x0 SWAP2 POP SWAP1 POP SLOAD DUP2 JUMP JUMPDEST DUP1 PUSH1 0x1 PUSH1 0x0 CALLER PUSH20 0xFFFFFFFFFFFFFFFFFFFFFFFFFFFFFFFFFFFFFFFF AND PUSH20 0xFFFFFFFFFFFFFFFFFFFFFFFFFFFFFFFFFFFFFFFF AND DUP2 MSTORE PUSH1 0x20 ADD SWAP1 DUP2 MSTORE PUSH1 0x20 ADD PUSH1 0x0 KECCAK256 SLOAD LT ISZERO PUSH2 0x317 JUMPI PUSH1 0x40 MLOAD PUSH32 0x8C379A000000000000000000000000000000000000000000000000000000000 DUP2 MSTORE PUSH1 0x4 ADD PUSH2 0x30E SWAP1 PUSH2 0xD50 JUMP JUMPDEST PUSH1 0x40 MLOAD DUP1 SWAP2 SUB SWAP1 REVERT JUMPDEST DUP1 PUSH1 0x1 PUSH1 0x0 CALLER PUSH20 0xFFFFFFFFFFFFFFFFFFFFFFFFFFFFFFFFFFFFFFFF AND PUSH20 0xFFFFFFFFFFFFFFFFFFFFFFFFFFFFFFFFFFFFFFFF AND DUP2 MSTORE PUSH1 0x20 ADD SWAP1 DUP2 MSTORE PUSH1 0x20 ADD PUSH1 0x0 KECCAK256 PUSH1 0x0 DUP3 DUP3 SLOAD PUSH2 0x366 SWAP2 SWAP1 PUSH2 0xD9F JUMP JUMPDEST SWAP3 POP POP DUP2 SWAP1 SSTORE POP PUSH1 0x0 CALLER PUSH20 0xFFFFFFFFFFFFFFFFFFFFFFFFFFFFFFFFFFFFFFFF AND DUP3 PUSH1 0x40 MLOAD PUSH2 0x393 SWAP1 PUSH2 0xE2A JUMP JUMPDEST PUSH1 0x0 PUSH1 0x40 MLOAD DUP1 DUP4 SUB DUP2 DUP6 DUP8 GAS CALL SWAP3 POP POP POP RETURNDATASIZE DUP1 PUSH1 0x0 DUP2 EQ PUSH2 0x3D0 JUMPI PUSH1 0x40 MLOAD SWAP2 POP PUSH1 0x1F NOT PUSH1 0x3F RETURNDATASIZE ADD AND DUP3 ADD PUSH1 0x40 MSTORE RETURNDATASIZE DUP3 MSTORE RETURNDATASIZE PUSH1 0x0 PUSH1 0x20 DUP5 ADD RETURNDATACOPY PUSH2 0x3D5 JUMP JUMPDEST PUSH1 0x60 SWAP2 POP JUMPDEST POP POP SWAP1 POP DUP1 PUSH2 0x419 JUMPI PUSH1 0x40 MLOAD PUSH32 0x8C379A000000000000000000000000000000000000000000000000000000000 DUP2 MSTORE PUSH1 0x4 ADD PUSH2 0x410 SWAP1 PUSH2 0xE8B JUMP JUMPDEST PUSH1 0x40 MLOAD DUP1 SWAP2 SUB SWAP1 REVERT JUMPDEST POP POP JUMP JUMPDEST PUSH1 0x0 PUSH1 0x1 PUSH1 0x0 DUP4 PUSH20 0xFFFFFFFFFFFFFFFFFFFFFFFFFFFFFFFFFFFFFFFF AND PUSH20 0xFFFFFFFFFFFFFFFFFFFFFFFFFFFFFFFFFFFFFFFF AND DUP2 MSTORE PUSH1 0x20 ADD SWAP1 DUP2 MSTORE PUSH1 0x20 ADD PUSH1 0x0 KECCAK256 SLOAD SWAP1 POP SWAP2 SWAP1 POP JUMP JUMPDEST PUSH2 0x46E PUSH2 0x835 JUMP JUMPDEST PUSH2 0x478 PUSH1 0x0 PUSH2 0x8B3 JUMP JUMPDEST JUMP JUMPDEST PUSH1 0x0 DUP1 PUSH1 0x0 SWAP1 SLOAD SWAP1 PUSH2 0x100 EXP SWAP1 DIV PUSH20 0xFFFFFFFFFFFFFFFFFFFFFFFFFFFFFFFFFFFFFFFF AND SWAP1 POP SWAP1 JUMP JUMPDEST PUSH8 0xDE0B6B3A7640000 PUSH1 0x1 PUSH1 0x0 CALLER PUSH20 0xFFFFFFFFFFFFFFFFFFFFFFFFFFFFFFFFFFFFFFFF AND PUSH20 0xFFFFFFFFFFFFFFFFFFFFFFFFFFFFFFFFFFFFFFFF AND DUP2 MSTORE PUSH1 0x20 ADD SWAP1 DUP2 MSTORE PUSH1 0x20 ADD PUSH1 0x0 KECCAK256 SLOAD LT ISZERO PUSH2 0x52D JUMPI PUSH1 0x40 MLOAD PUSH32 0x8C379A000000000000000000000000000000000000000000000000000000000 DUP2 MSTORE PUSH1 0x4 ADD PUSH2 0x524 SWAP1 PUSH2 0xEF7 JUMP JUMPDEST PUSH1 0x40 MLOAD DUP1 SWAP2 SUB SWAP1 REVERT JUMPDEST JUMP JUMPDEST CALLVALUE PUSH1 0x1 PUSH1 0x0 CALLER PUSH20 0xFFFFFFFFFFFFFFFFFFFFFFFFFFFFFFFFFFFFFFFF AND PUSH20 0xFFFFFFFFFFFFFFFFFFFFFFFFFFFFFFFFFFFFFFFF AND DUP2 MSTORE PUSH1 0x20 ADD SWAP1 DUP2 MSTORE PUSH1 0x20 ADD PUSH1 0x0 KECCAK256 PUSH1 0x0 DUP3 DUP3 SLOAD PUSH2 0x57E SWAP2 SWAP1 PUSH2 0xF17 JUMP JUMPDEST SWAP3 POP POP DUP2 SWAP1 SSTORE POP JUMP JUMPDEST PUSH1 0x2 PUSH1 0x20 MSTORE DUP1 PUSH1 0x0 MSTORE PUSH1 0x40 PUSH1 0x0 KECCAK256 PUSH1 0x0 SWAP2 POP SLOAD SWAP1 PUSH2 0x100 EXP SWAP1 DIV PUSH20 0xFFFFFFFFFFFFFFFFFFFFFFFFFFFFFFFFFFFFFFFF AND DUP2 JUMP JUMPDEST PUSH1 0x0 PUSH1 0x1 PUSH1 0x0 CALLER PUSH20 0xFFFFFFFFFFFFFFFFFFFFFFFFFFFFFFFFFFFFFFFF AND PUSH20 0xFFFFFFFFFFFFFFFFFFFFFFFFFFFFFFFFFFFFFFFF AND DUP2 MSTORE PUSH1 0x20 ADD SWAP1 DUP2 MSTORE PUSH1 0x20 ADD PUSH1 0x0 KECCAK256 SLOAD DUP3 GT ISZERO PUSH2 0x63E JUMPI PUSH1 0x40 MLOAD PUSH32 0x8C379A000000000000000000000000000000000000000000000000000000000 DUP2 MSTORE PUSH1 0x4 ADD PUSH2 0x635 SWAP1 PUSH2 0xF97 JUMP JUMPDEST PUSH1 0x40 MLOAD DUP1 SWAP2 SUB SWAP1 REVERT JUMPDEST PUSH1 0x3 DUP4 MLOAD LT ISZERO PUSH2 0x683 JUMPI PUSH1 0x40 MLOAD PUSH32 0x8C379A000000000000000000000000000000000000000000000000000000000 DUP2 MSTORE PUSH1 0x4 ADD PUSH2 0x67A SWAP1 PUSH2 0x1029 JUMP JUMPDEST PUSH1 0x40 MLOAD DUP1 SWAP2 SUB SWAP1 REVERT JUMPDEST PUSH1 0x0 JUMPDEST DUP4 MLOAD DUP2 PUSH1 0xFF AND LT ISZERO PUSH2 0x730 JUMPI PUSH1 0x6 DUP5 DUP3 PUSH1 0xFF AND DUP2 MLOAD DUP2 LT PUSH2 0x6AA JUMPI PUSH2 0x6A9 PUSH2 0x1049 JUMP JUMPDEST JUMPDEST PUSH1 0x20 MUL PUSH1 0x20 ADD ADD MLOAD GT ISZERO DUP1 ISZERO PUSH2 0x6DE JUMPI POP PUSH1 0x1 DUP5 DUP3 PUSH1 0xFF AND DUP2 MLOAD DUP2 LT PUSH2 0x6D3 JUMPI PUSH2 0x6D2 PUSH2 0x1049 JUMP JUMPDEST JUMPDEST PUSH1 0x20 MUL PUSH1 0x20 ADD ADD MLOAD LT ISZERO JUMPDEST PUSH2 0x71D JUMPI PUSH1 0x40 MLOAD PUSH32 0x8C379A000000000000000000000000000000000000000000000000000000000 DUP2 MSTORE PUSH1 0x4 ADD PUSH2 0x714 SWAP1 PUSH2 0x10C4 JUMP JUMPDEST PUSH1 0x40 MLOAD DUP1 SWAP2 SUB SWAP1 REVERT JUMPDEST DUP1 DUP1 PUSH2 0x728 SWAP1 PUSH2 0x10F1 JUMP JUMPDEST SWAP2 POP POP PUSH2 0x686 JUMP JUMPDEST POP PUSH1 0x0 PUSH1 0x1 PUSH1 0x6 PUSH2 0x73F PUSH2 0x977 JUMP JUMPDEST PUSH2 0x749 SWAP2 SWAP1 PUSH2 0x1149 JUMP JUMPDEST PUSH2 0x753 SWAP2 SWAP1 PUSH2 0xF17 JUMP JUMPDEST SWAP1 POP PUSH1 0x0 DUP1 JUMPDEST DUP6 MLOAD DUP2 PUSH1 0xFF AND LT ISZERO PUSH2 0x7A6 JUMPI DUP3 DUP7 DUP3 PUSH1 0xFF AND DUP2 MLOAD DUP2 LT PUSH2 0x77C JUMPI PUSH2 0x77B PUSH2 0x1049 JUMP JUMPDEST JUMPDEST PUSH1 0x20 MUL PUSH1 0x20 ADD ADD MLOAD EQ PUSH2 0x790 JUMPI DUP2 ISZERO PUSH2 0x792 JUMP JUMPDEST DUP2 JUMPDEST POP DUP1 DUP1 PUSH2 0x79E SWAP1 PUSH2 0x10F1 JUMP JUMPDEST SWAP2 POP POP PUSH2 0x759 JUMP JUMPDEST POP DUP1 SWAP3 POP POP POP SWAP3 SWAP2 POP POP JUMP JUMPDEST PUSH2 0x7BA PUSH2 0x835 JUMP JUMPDEST PUSH1 0x0 PUSH20 0xFFFFFFFFFFFFFFFFFFFFFFFFFFFFFFFFFFFFFFFF AND DUP2 PUSH20 0xFFFFFFFFFFFFFFFFFFFFFFFFFFFFFFFFFFFFFFFF AND SUB PUSH2 0x829 JUMPI PUSH1 0x40 MLOAD PUSH32 0x8C379A000000000000000000000000000000000000000000000000000000000 DUP2 MSTORE PUSH1 0x4 ADD PUSH2 0x820 SWAP1 PUSH2 0x11EC JUMP JUMPDEST PUSH1 0x40 MLOAD DUP1 SWAP2 SUB SWAP1 REVERT JUMPDEST PUSH2 0x832 DUP2 PUSH2 0x8B3 JUMP JUMPDEST POP JUMP JUMPDEST PUSH2 0x83D PUSH2 0x9AA JUMP JUMPDEST PUSH20 0xFFFFFFFFFFFFFFFFFFFFFFFFFFFFFFFFFFFFFFFF AND PUSH2 0x85B PUSH2 0x47A JUMP JUMPDEST PUSH20 0xFFFFFFFFFFFFFFFFFFFFFFFFFFFFFFFFFFFFFFFF AND EQ PUSH2 0x8B1 JUMPI PUSH1 0x40 MLOAD PUSH32 0x8C379A000000000000000000000000000000000000000000000000000000000 DUP2 MSTORE PUSH1 0x4 ADD PUSH2 0x8A8 SWAP1 PUSH2 0x1258 JUMP JUMPDEST PUSH1 0x40 MLOAD DUP1 SWAP2 SUB SWAP1 REVERT JUMPDEST JUMP JUMPDEST PUSH1 0x0 DUP1 PUSH1 0x0 SWAP1 SLOAD SWAP1 PUSH2 0x100 EXP SWAP1 DIV PUSH20 0xFFFFFFFFFFFFFFFFFFFFFFFFFFFFFFFFFFFFFFFF AND SWAP1 POP DUP2 PUSH1 0x0 DUP1 PUSH2 0x100 EXP DUP2 SLOAD DUP2 PUSH20 0xFFFFFFFFFFFFFFFFFFFFFFFFFFFFFFFFFFFFFFFF MUL NOT AND SWAP1 DUP4 PUSH20 0xFFFFFFFFFFFFFFFFFFFFFFFFFFFFFFFFFFFFFFFF AND MUL OR SWAP1 SSTORE POP DUP2 PUSH20 0xFFFFFFFFFFFFFFFFFFFFFFFFFFFFFFFFFFFFFFFF AND DUP2 PUSH20 0xFFFFFFFFFFFFFFFFFFFFFFFFFFFFFFFFFFFFFFFF AND PUSH32 0x8BE0079C531659141344CD1FD0A4F28419497F9722A3DAAFE3B4186F6B6457E0 PUSH1 0x40 MLOAD PUSH1 0x40 MLOAD DUP1 SWAP2 SUB SWAP1 LOG3 POP POP JUMP JUMPDEST PUSH1 0x0 TIMESTAMP NUMBER PUSH1 0x40 MLOAD PUSH1 0x20 ADD PUSH2 0x98C SWAP3 SWAP2 SWAP1 PUSH2 0x1278 JUMP JUMPDEST PUSH1 0x40 MLOAD PUSH1 0x20 DUP2 DUP4 SUB SUB DUP2 MSTORE SWAP1 PUSH1 0x40 MSTORE DUP1 MLOAD SWAP1 PUSH1 0x20 ADD KECCAK256 PUSH1 0x0 SHR SWAP1 POP SWAP1 JUMP JUMPDEST PUSH1 0x0 CALLER SWAP1 POP SWAP1 JUMP JUMPDEST PUSH1 0x0 DUP2 SWAP1 POP SWAP2 SWAP1 POP JUMP JUMPDEST PUSH2 0x9C5 DUP2 PUSH2 0x9B2 JUMP JUMPDEST DUP3 MSTORE POP POP JUMP JUMPDEST PUSH1 0x0 PUSH1 0x20 DUP3 ADD SWAP1 POP PUSH2 0x9E0 PUSH1 0x0 DUP4 ADD DUP5 PUSH2 0x9BC JUMP JUMPDEST SWAP3 SWAP2 POP POP JUMP JUMPDEST PUSH1 0x0 PUSH1 0x40 MLOAD SWAP1 POP SWAP1 JUMP JUMPDEST PUSH1 0x0 DUP1 REVERT JUMPDEST PUSH1 0x0 DUP1 REVERT JUMPDEST PUSH1 0x0 PUSH20 0xFFFFFFFFFFFFFFFFFFFFFFFFFFFFFFFFFFFFFFFF DUP3 AND SWAP1 POP SWAP2 SWAP1 POP JUMP JUMPDEST PUSH1 0x0 PUSH2 0xA25 DUP3 PUSH2 0x9FA JUMP JUMPDEST SWAP1 POP SWAP2 SWAP1 POP JUMP JUMPDEST PUSH2 0xA35 DUP2 PUSH2 0xA1A JUMP JUMPDEST DUP2 EQ PUSH2 0xA40 JUMPI PUSH1 0x0 DUP1 REVERT JUMPDEST POP JUMP JUMPDEST PUSH1 0x0 DUP2 CALLDATALOAD SWAP1 POP PUSH2 0xA52 DUP2 PUSH2 0xA2C JUMP JUMPDEST SWAP3 SWAP2 POP POP JUMP JUMPDEST PUSH1 0x0 PUSH1 0x20 DUP3 DUP5 SUB SLT ISZERO PUSH2 0xA6E JUMPI PUSH2 0xA6D PUSH2 0x9F0 JUMP JUMPDEST JUMPDEST PUSH1 0x0 PUSH2 0xA7C DUP5 DUP3 DUP6 ADD PUSH2 0xA43 JUMP JUMPDEST SWAP2 POP POP SWAP3 SWAP2 POP POP JUMP JUMPDEST PUSH2 0xA8E DUP2 PUSH2 0x9B2 JUMP JUMPDEST DUP2 EQ PUSH2 0xA99 JUMPI PUSH1 0x0 DUP1 REVERT JUMPDEST POP JUMP JUMPDEST PUSH1 0x0 DUP2 CALLDATALOAD SWAP1 POP PUSH2 0xAAB DUP2 PUSH2 0xA85 JUMP JUMPDEST SWAP3 SWAP2 POP POP JUMP JUMPDEST PUSH1 0x0 PUSH1 0x20 DUP3 DUP5 SUB SLT ISZERO PUSH2 0xAC7 JUMPI PUSH2 0xAC6 PUSH2 0x9F0 JUMP JUMPDEST JUMPDEST PUSH1 0x0 PUSH2 0xAD5 DUP5 DUP3 DUP6 ADD PUSH2 0xA9C JUMP JUMPDEST SWAP2 POP POP SWAP3 SWAP2 POP POP JUMP JUMPDEST PUSH2 0xAE7 DUP2 PUSH2 0xA1A JUMP JUMPDEST DUP3 MSTORE POP POP JUMP JUMPDEST PUSH1 0x0 PUSH1 0x20 DUP3 ADD SWAP1 POP PUSH2 0xB02 PUSH1 0x0 DUP4 ADD DUP5 PUSH2 0xADE JUMP JUMPDEST SWAP3 SWAP2 POP POP JUMP JUMPDEST PUSH1 0x0 DUP1 REVERT JUMPDEST PUSH1 0x0 PUSH1 0x1F NOT PUSH1 0x1F DUP4 ADD AND SWAP1 POP SWAP2 SWAP1 POP JUMP JUMPDEST PUSH32 0x4E487B7100000000000000000000000000000000000000000000000000000000 PUSH1 0x0 MSTORE PUSH1 0x41 PUSH1 0x4 MSTORE PUSH1 0x24 PUSH1 0x0 REVERT JUMPDEST PUSH2 0xB56 DUP3 PUSH2 0xB0D JUMP JUMPDEST DUP2 ADD DUP2 DUP2 LT PUSH8 0xFFFFFFFFFFFFFFFF DUP3 GT OR ISZERO PUSH2 0xB75 JUMPI PUSH2 0xB74 PUSH2 0xB1E JUMP JUMPDEST JUMPDEST DUP1 PUSH1 0x40 MSTORE POP POP POP JUMP JUMPDEST PUSH1 0x0 PUSH2 0xB88 PUSH2 0x9E6 JUMP JUMPDEST SWAP1 POP PUSH2 0xB94 DUP3 DUP3 PUSH2 0xB4D JUMP JUMPDEST SWAP2 SWAP1 POP JUMP JUMPDEST PUSH1 0x0 PUSH8 0xFFFFFFFFFFFFFFFF DUP3 GT ISZERO PUSH2 0xBB4 JUMPI PUSH2 0xBB3 PUSH2 0xB1E JUMP JUMPDEST JUMPDEST PUSH1 0x20 DUP3 MUL SWAP1 POP PUSH1 0x20 DUP2 ADD SWAP1 POP SWAP2 SWAP1 POP JUMP JUMPDEST PUSH1 0x0 DUP1 REVERT JUMPDEST PUSH1 0x0 PUSH2 0xBDD PUSH2 0xBD8 DUP5 PUSH2 0xB99 JUMP JUMPDEST PUSH2 0xB7E JUMP JUMPDEST SWAP1 POP DUP1 DUP4 DUP3 MSTORE PUSH1 0x20 DUP3 ADD SWAP1 POP PUSH1 0x20 DUP5 MUL DUP4 ADD DUP6 DUP2 GT ISZERO PUSH2 0xC00 JUMPI PUSH2 0xBFF PUSH2 0xBC5 JUMP JUMPDEST JUMPDEST DUP4 JUMPDEST DUP2 DUP2 LT ISZERO PUSH2 0xC29 JUMPI DUP1 PUSH2 0xC15 DUP9 DUP3 PUSH2 0xA9C JUMP JUMPDEST DUP5 MSTORE PUSH1 0x20 DUP5 ADD SWAP4 POP POP PUSH1 0x20 DUP2 ADD SWAP1 POP PUSH2 0xC02 JUMP JUMPDEST POP POP POP SWAP4 SWAP3 POP POP POP JUMP JUMPDEST PUSH1 0x0 DUP3 PUSH1 0x1F DUP4 ADD SLT PUSH2 0xC48 JUMPI PUSH2 0xC47 PUSH2 0xB08 JUMP JUMPDEST JUMPDEST DUP2 CALLDATALOAD PUSH2 0xC58 DUP5 DUP3 PUSH1 0x20 DUP7 ADD PUSH2 0xBCA JUMP JUMPDEST SWAP2 POP POP SWAP3 SWAP2 POP POP JUMP JUMPDEST PUSH1 0x0 DUP1 PUSH1 0x40 DUP4 DUP6 SUB SLT ISZERO PUSH2 0xC78 JUMPI PUSH2 0xC77 PUSH2 0x9F0 JUMP JUMPDEST JUMPDEST PUSH1 0x0 DUP4 ADD CALLDATALOAD PUSH8 0xFFFFFFFFFFFFFFFF DUP2 GT ISZERO PUSH2 0xC96 JUMPI PUSH2 0xC95 PUSH2 0x9F5 JUMP JUMPDEST JUMPDEST PUSH2 0xCA2 DUP6 DUP3 DUP7 ADD PUSH2 0xC33 JUMP JUMPDEST SWAP3 POP POP PUSH1 0x20 PUSH2 0xCB3 DUP6 DUP3 DUP7 ADD PUSH2 0xA9C JUMP JUMPDEST SWAP2 POP POP SWAP3 POP SWAP3 SWAP1 POP JUMP JUMPDEST PUSH1 0x0 DUP2 ISZERO ISZERO SWAP1 POP SWAP2 SWAP1 POP JUMP JUMPDEST PUSH2 0xCD2 DUP2 PUSH2 0xCBD JUMP JUMPDEST DUP3 MSTORE POP POP JUMP JUMPDEST PUSH1 0x0 PUSH1 0x20 DUP3 ADD SWAP1 POP PUSH2 0xCED PUSH1 0x0 DUP4 ADD DUP5 PUSH2 0xCC9 JUMP JUMPDEST SWAP3 SWAP2 POP POP JUMP JUMPDEST PUSH1 0x0 DUP3 DUP3 MSTORE PUSH1 0x20 DUP3 ADD SWAP1 POP SWAP3 SWAP2 POP POP JUMP JUMPDEST PUSH32 0x496E73756666696369656E742066756E647320746F2077697468647261772100 PUSH1 0x0 DUP3 ADD MSTORE POP JUMP JUMPDEST PUSH1 0x0 PUSH2 0xD3A PUSH1 0x1F DUP4 PUSH2 0xCF3 JUMP JUMPDEST SWAP2 POP PUSH2 0xD45 DUP3 PUSH2 0xD04 JUMP JUMPDEST PUSH1 0x20 DUP3 ADD SWAP1 POP SWAP2 SWAP1 POP JUMP JUMPDEST PUSH1 0x0 PUSH1 0x20 DUP3 ADD SWAP1 POP DUP2 DUP2 SUB PUSH1 0x0 DUP4 ADD MSTORE PUSH2 0xD69 DUP2 PUSH2 0xD2D JUMP JUMPDEST SWAP1 POP SWAP2 SWAP1 POP JUMP JUMPDEST PUSH32 0x4E487B7100000000000000000000000000000000000000000000000000000000 PUSH1 0x0 MSTORE PUSH1 0x11 PUSH1 0x4 MSTORE PUSH1 0x24 PUSH1 0x0 REVERT JUMPDEST PUSH1 0x0 PUSH2 0xDAA DUP3 PUSH2 0x9B2 JUMP JUMPDEST SWAP2 POP PUSH2 0xDB5 DUP4 PUSH2 0x9B2 JUMP JUMPDEST SWAP3 POP DUP3 DUP3 SUB SWAP1 POP DUP2 DUP2 GT ISZERO PUSH2 0xDCD JUMPI PUSH2 0xDCC PUSH2 0xD70 JUMP JUMPDEST JUMPDEST SWAP3 SWAP2 POP POP JUMP JUMPDEST PUSH1 0x0 DUP2 SWAP1 POP SWAP3 SWAP2 POP POP JUMP JUMPDEST PUSH32 0x73656E7400000000000000000000000000000000000000000000000000000000 PUSH1 0x0 DUP3 ADD MSTORE POP JUMP JUMPDEST PUSH1 0x0 PUSH2 0xE14 PUSH1 0x4 DUP4 PUSH2 0xDD3 JUMP JUMPDEST SWAP2 POP PUSH2 0xE1F DUP3 PUSH2 0xDDE JUMP JUMPDEST PUSH1 0x4 DUP3 ADD SWAP1 POP SWAP2 SWAP1 POP JUMP JUMPDEST PUSH1 0x0 PUSH2 0xE35 DUP3 PUSH2 0xE07 JUMP JUMPDEST SWAP2 POP DUP2 SWAP1 POP SWAP2 SWAP1 POP JUMP JUMPDEST PUSH32 0x4661696C656420746F20776974686472617720616D6F756E7421000000000000 PUSH1 0x0 DUP3 ADD MSTORE POP JUMP JUMPDEST PUSH1 0x0 PUSH2 0xE75 PUSH1 0x1A DUP4 PUSH2 0xCF3 JUMP JUMPDEST SWAP2 POP PUSH2 0xE80 DUP3 PUSH2 0xE3F JUMP JUMPDEST PUSH1 0x20 DUP3 ADD SWAP1 POP SWAP2 SWAP1 POP JUMP JUMPDEST PUSH1 0x0 PUSH1 0x20 DUP3 ADD SWAP1 POP DUP2 DUP2 SUB PUSH1 0x0 DUP4 ADD MSTORE PUSH2 0xEA4 DUP2 PUSH2 0xE68 JUMP JUMPDEST SWAP1 POP SWAP2 SWAP1 POP JUMP JUMPDEST PUSH32 0x4E6F7420656E6F75676820657468657200000000000000000000000000000000 PUSH1 0x0 DUP3 ADD MSTORE POP JUMP JUMPDEST PUSH1 0x0 PUSH2 0xEE1 PUSH1 0x10 DUP4 PUSH2 0xCF3 JUMP JUMPDEST SWAP2 POP PUSH2 0xEEC DUP3 PUSH2 0xEAB JUMP JUMPDEST PUSH1 0x20 DUP3 ADD SWAP1 POP SWAP2 SWAP1 POP JUMP JUMPDEST PUSH1 0x0 PUSH1 0x20 DUP3 ADD SWAP1 POP DUP2 DUP2 SUB PUSH1 0x0 DUP4 ADD MSTORE PUSH2 0xF10 DUP2 PUSH2 0xED4 JUMP JUMPDEST SWAP1 POP SWAP2 SWAP1 POP JUMP JUMPDEST PUSH1 0x0 PUSH2 0xF22 DUP3 PUSH2 0x9B2 JUMP JUMPDEST SWAP2 POP PUSH2 0xF2D DUP4 PUSH2 0x9B2 JUMP JUMPDEST SWAP3 POP DUP3 DUP3 ADD SWAP1 POP DUP1 DUP3 GT ISZERO PUSH2 0xF45 JUMPI PUSH2 0xF44 PUSH2 0xD70 JUMP JUMPDEST JUMPDEST SWAP3 SWAP2 POP POP JUMP JUMPDEST PUSH32 0x4E6F7420656E6F75676820457468657220696E206163636F756E740000000000 PUSH1 0x0 DUP3 ADD MSTORE POP JUMP JUMPDEST PUSH1 0x0 PUSH2 0xF81 PUSH1 0x1B DUP4 PUSH2 0xCF3 JUMP JUMPDEST SWAP2 POP PUSH2 0xF8C DUP3 PUSH2 0xF4B JUMP JUMPDEST PUSH1 0x20 DUP3 ADD SWAP1 POP SWAP2 SWAP1 POP JUMP JUMPDEST PUSH1 0x0 PUSH1 0x20 DUP3 ADD SWAP1 POP DUP2 DUP2 SUB PUSH1 0x0 DUP4 ADD MSTORE PUSH2 0xFB0 DUP2 PUSH2 0xF74 JUMP JUMPDEST SWAP1 POP SWAP2 SWAP1 POP JUMP JUMPDEST PUSH32 0x43616E6E6F74206775657373206D6F7265207468616E203320706F737369626C PUSH1 0x0 DUP3 ADD MSTORE PUSH32 0x65206F7574636F6D657300000000000000000000000000000000000000000000 PUSH1 0x20 DUP3 ADD MSTORE POP JUMP JUMPDEST PUSH1 0x0 PUSH2 0x1013 PUSH1 0x2A DUP4 PUSH2 0xCF3 JUMP JUMPDEST SWAP2 POP PUSH2 0x101E DUP3 PUSH2 0xFB7 JUMP JUMPDEST PUSH1 0x40 DUP3 ADD SWAP1 POP SWAP2 SWAP1 POP JUMP JUMPDEST PUSH1 0x0 PUSH1 0x20 DUP3 ADD SWAP1 POP DUP2 DUP2 SUB PUSH1 0x0 DUP4 ADD MSTORE PUSH2 0x1042 DUP2 PUSH2 0x1006 JUMP JUMPDEST SWAP1 POP SWAP2 SWAP1 POP JUMP JUMPDEST PUSH32 0x4E487B7100000000000000000000000000000000000000000000000000000000 PUSH1 0x0 MSTORE PUSH1 0x32 PUSH1 0x4 MSTORE PUSH1 0x24 PUSH1 0x0 REVERT JUMPDEST PUSH32 0x4775657373206E756D6265727320312D36000000000000000000000000000000 PUSH1 0x0 DUP3 ADD MSTORE POP JUMP JUMPDEST PUSH1 0x0 PUSH2 0x10AE PUSH1 0x11 DUP4 PUSH2 0xCF3 JUMP JUMPDEST SWAP2 POP PUSH2 0x10B9 DUP3 PUSH2 0x1078 JUMP JUMPDEST PUSH1 0x20 DUP3 ADD SWAP1 POP SWAP2 SWAP1 POP JUMP JUMPDEST PUSH1 0x0 PUSH1 0x20 DUP3 ADD SWAP1 POP DUP2 DUP2 SUB PUSH1 0x0 DUP4 ADD MSTORE PUSH2 0x10DD DUP2 PUSH2 0x10A1 JUMP JUMPDEST SWAP1 POP SWAP2 SWAP1 POP JUMP JUMPDEST PUSH1 0x0 PUSH1 0xFF DUP3 AND SWAP1 POP SWAP2 SWAP1 POP JUMP JUMPDEST PUSH1 0x0 PUSH2 0x10FC DUP3 PUSH2 0x10E4 JUMP JUMPDEST SWAP2 POP PUSH1 0xFF DUP3 SUB PUSH2 0x110F JUMPI PUSH2 0x110E PUSH2 0xD70 JUMP JUMPDEST JUMPDEST PUSH1 0x1 DUP3 ADD SWAP1 POP SWAP2 SWAP1 POP JUMP JUMPDEST PUSH32 0x4E487B7100000000000000000000000000000000000000000000000000000000 PUSH1 0x0 MSTORE PUSH1 0x12 PUSH1 0x4 MSTORE PUSH1 0x24 PUSH1 0x0 REVERT JUMPDEST PUSH1 0x0 PUSH2 0x1154 DUP3 PUSH2 0x9B2 JUMP JUMPDEST SWAP2 POP PUSH2 0x115F DUP4 PUSH2 0x9B2 JUMP JUMPDEST SWAP3 POP DUP3 PUSH2 0x116F JUMPI PUSH2 0x116E PUSH2 0x111A JUMP JUMPDEST JUMPDEST DUP3 DUP3 MOD SWAP1 POP SWAP3 SWAP2 POP POP JUMP JUMPDEST PUSH32 0x4F776E61626C653A206E6577206F776E657220697320746865207A65726F2061 PUSH1 0x0 DUP3 ADD MSTORE PUSH32 0x6464726573730000000000000000000000000000000000000000000000000000 PUSH1 0x20 DUP3 ADD MSTORE POP JUMP JUMPDEST PUSH1 0x0 PUSH2 0x11D6 PUSH1 0x26 DUP4 PUSH2 0xCF3 JUMP JUMPDEST SWAP2 POP PUSH2 0x11E1 DUP3 PUSH2 0x117A JUMP JUMPDEST PUSH1 0x40 DUP3 ADD SWAP1 POP SWAP2 SWAP1 POP JUMP JUMPDEST PUSH1 0x0 PUSH1 0x20 DUP3 ADD SWAP1 POP DUP2 DUP2 SUB PUSH1 0x0 DUP4 ADD MSTORE PUSH2 0x1205 DUP2 PUSH2 0x11C9 JUMP JUMPDEST SWAP1 POP SWAP2 SWAP1 POP JUMP JUMPDEST PUSH32 0x4F776E61626C653A2063616C6C6572206973206E6F7420746865206F776E6572 PUSH1 0x0 DUP3 ADD MSTORE POP JUMP JUMPDEST PUSH1 0x0 PUSH2 0x1242 PUSH1 0x20 DUP4 PUSH2 0xCF3 JUMP JUMPDEST SWAP2 POP PUSH2 0x124D DUP3 PUSH2 0x120C JUMP JUMPDEST PUSH1 0x20 DUP3 ADD SWAP1 POP SWAP2 SWAP1 POP JUMP JUMPDEST PUSH1 0x0 PUSH1 0x20 DUP3 ADD SWAP1 POP DUP2 DUP2 SUB PUSH1 0x0 DUP4 ADD MSTORE PUSH2 0x1271 DUP2 PUSH2 0x1235 JUMP JUMPDEST SWAP1 POP SWAP2 SWAP1 POP JUMP JUMPDEST PUSH1 0x0 PUSH1 0x40 DUP3 ADD SWAP1 POP PUSH2 0x128D PUSH1 0x0 DUP4 ADD DUP6 PUSH2 0x9BC JUMP JUMPDEST PUSH2 0x129A PUSH1 0x20 DUP4 ADD DUP5 PUSH2 0x9BC JUMP JUMPDEST SWAP4 SWAP3 POP POP POP JUMP INVALID LOG2 PUSH5 0x6970667358 0x22 SLT KECCAK256 MOD 0x25 0x49 0xD4 0xCF 0xD4 SELFBALANCE 0x2B 0xCB 0xD8 STATICCALL DIFFICULTY 0x2F ISZERO 0xB7 0xCF SIGNEXTEND 0xE3 SWAP5 SWAP13 SWAP14 RETURNDATASIZE 0xEB BALANCE LOG4 DUP1 0x2F 0xD3 SLT SAR 0x2D 0xB3 PUSH5 0x736F6C6343 STOP ADDMOD LT STOP CALLER "
				},
				"gasEstimates": {
					"creation": {
						"codeDepositCost": "964600",
						"executionCost": "infinite",
						"totalCost": "infinite"
					},
					"external": {
						"balances(address)": "2837",
						"deposit()": "infinite",
						"enterLottery()": "2670",
						"getCasinoBalance()": "340",
						"getUserBalance(address)": "2908",
						"lotteryEntries(uint256)": "2905",
						"owner()": "2522",
						"renounceOwnership()": "30487",
						"rollDice(uint256[],uint256)": "infinite",
						"transferOwnership(address)": "30854",
						"withdraw(uint256)": "infinite"
					},
					"internal": {
						"getRandomValue()": "infinite"
					}
				},
				"methodIdentifiers": {
					"balances(address)": "27e235e3",
					"deposit()": "d0e30db0",
					"enterLottery()": "c1af5785",
					"getCasinoBalance()": "1a0843c0",
					"getUserBalance(address)": "47734892",
					"lotteryEntries(uint256)": "ed1c274f",
					"owner()": "8da5cb5b",
					"renounceOwnership()": "715018a6",
					"rollDice(uint256[],uint256)": "ed7892f2",
					"transferOwnership(address)": "f2fde38b",
					"withdraw(uint256)": "2e1a7d4d"
				}
			},
			"storageLayout": {
				"storage": [
					{
						"astId": 7,
						"contract": "contracts/main.sol:Casino",
						"label": "_owner",
						"offset": 0,
						"slot": "0",
						"type": "t_address"
					},
					{
						"astId": 143,
						"contract": "contracts/main.sol:Casino",
						"label": "balances",
						"offset": 0,
						"slot": "1",
						"type": "t_mapping(t_address,t_uint256)"
					},
					{
						"astId": 147,
						"contract": "contracts/main.sol:Casino",
						"label": "lotteryEntries",
						"offset": 0,
						"slot": "2",
						"type": "t_mapping(t_uint256,t_address)"
					}
				],
				"types": {
					"t_address": {
						"encoding": "inplace",
						"label": "address",
						"numberOfBytes": "20"
					},
					"t_mapping(t_address,t_uint256)": {
						"encoding": "mapping",
						"key": "t_address",
						"label": "mapping(address => uint256)",
						"numberOfBytes": "32",
						"value": "t_uint256"
					},
					"t_mapping(t_uint256,t_address)": {
						"encoding": "mapping",
						"key": "t_uint256",
						"label": "mapping(uint256 => address)",
						"numberOfBytes": "32",
						"value": "t_address"
					},
					"t_uint256": {
						"encoding": "inplace",
						"label": "uint256",
						"numberOfBytes": "32"
					}
				}
			},
			"userdoc": {
				"kind": "user",
				"methods": {},
				"version": 1
			}
		}
	}
}