{
	"contracts/main.sol": {
		"Casino": {
			"abi": [
				{
					"inputs": [],
					"stateMutability": "nonpayable",
					"type": "constructor"
				},
				{
					"anonymous": false,
					"inputs": [
						{
							"indexed": true,
							"internalType": "address",
							"name": "previousOwner",
							"type": "address"
						},
						{
							"indexed": true,
							"internalType": "address",
							"name": "newOwner",
							"type": "address"
						}
					],
					"name": "OwnershipTransferred",
					"type": "event"
				},
				{
					"inputs": [
						{
							"internalType": "address",
							"name": "",
							"type": "address"
						}
					],
					"name": "balances",
					"outputs": [
						{
							"internalType": "uint256",
							"name": "",
							"type": "uint256"
						}
					],
					"stateMutability": "view",
					"type": "function"
				},
				{
					"inputs": [],
					"name": "deposit",
					"outputs": [],
					"stateMutability": "payable",
					"type": "function"
				},
				{
					"inputs": [],
					"name": "drawLottery",
					"outputs": [],
					"stateMutability": "payable",
					"type": "function"
				},
				{
					"inputs": [],
					"name": "enterLottery",
					"outputs": [],
					"stateMutability": "nonpayable",
					"type": "function"
				},
				{
					"inputs": [],
					"name": "getCasinoBalance",
					"outputs": [
						{
							"internalType": "uint256",
							"name": "",
							"type": "uint256"
						}
					],
					"stateMutability": "view",
					"type": "function"
				},
				{
					"inputs": [
						{
							"internalType": "uint256",
							"name": "",
							"type": "uint256"
						}
					],
					"name": "lotteryEntries",
					"outputs": [
						{
							"internalType": "address",
							"name": "",
							"type": "address"
						}
					],
					"stateMutability": "view",
					"type": "function"
				},
				{
					"inputs": [],
					"name": "owner",
					"outputs": [
						{
							"internalType": "address",
							"name": "",
							"type": "address"
						}
					],
					"stateMutability": "view",
					"type": "function"
				},
				{
					"inputs": [],
					"name": "renounceOwnership",
					"outputs": [],
					"stateMutability": "nonpayable",
					"type": "function"
				},
				{
					"inputs": [
						{
							"internalType": "uint256[]",
							"name": "_guesses",
							"type": "uint256[]"
						},
						{
							"internalType": "uint256",
							"name": "_bet",
							"type": "uint256"
						}
					],
					"name": "rollDice",
					"outputs": [
						{
							"internalType": "bool",
							"name": "",
							"type": "bool"
						}
					],
					"stateMutability": "view",
					"type": "function"
				},
				{
					"inputs": [
						{
							"internalType": "address",
							"name": "newOwner",
							"type": "address"
						}
					],
					"name": "transferOwnership",
					"outputs": [],
					"stateMutability": "nonpayable",
					"type": "function"
				},
				{
					"inputs": [
						{
							"internalType": "uint256",
							"name": "_amount",
							"type": "uint256"
						}
					],
					"name": "withdraw",
					"outputs": [],
					"stateMutability": "nonpayable",
					"type": "function"
				}
			],
			"devdoc": {
				"kind": "dev",
				"methods": {
					"owner()": {
						"details": "Returns the address of the current owner."
					},
					"renounceOwnership()": {
						"details": "Leaves the contract without owner. It will not be possible to call `onlyOwner` functions anymore. Can only be called by the current owner. NOTE: Renouncing ownership will leave the contract without an owner, thereby removing any functionality that is only available to the owner."
					},
					"transferOwnership(address)": {
						"details": "Transfers ownership of the contract to a new account (`newOwner`). Can only be called by the current owner."
					}
				},
				"version": 1
			},
			"evm": {
				"assembly": "    /* \"contracts/main.sol\":600:3712  contract Casino is Ownable {... */\n  mstore(0x40, 0x80)\n    /* \"contracts/main.sol\":965:966  0 */\n  0x00\n    /* \"contracts/main.sol\":946:966  uint256 entryNum = 0 */\n  0x03\n  sstore\n    /* \"contracts/main.sol\":993:994  0 */\n  0x00\n    /* \"contracts/main.sol\":972:994  uint256 lotterySum = 0 */\n  0x04\n  sstore\n    /* \"contracts/main.sol\":634:693  constructor() {... */\n  callvalue\n  dup1\n  iszero\n  tag_1\n  jumpi\n  0x00\n  dup1\n  revert\ntag_1:\n  pop\n    /* \"@openzeppelin/contracts/access/Ownable.sol\":936:968  _transferOwnership(_msgSender()) */\n  tag_5\n    /* \"@openzeppelin/contracts/access/Ownable.sol\":955:967  _msgSender() */\n  tag_6\n    /* \"@openzeppelin/contracts/access/Ownable.sol\":955:965  _msgSender */\n  shl(0x20, tag_7)\n    /* \"@openzeppelin/contracts/access/Ownable.sol\":955:967  _msgSender() */\n  0x20\n  shr\n  jump\t// in\ntag_6:\n    /* \"@openzeppelin/contracts/access/Ownable.sol\":936:954  _transferOwnership */\n  shl(0x20, tag_8)\n    /* \"@openzeppelin/contracts/access/Ownable.sol\":936:968  _transferOwnership(_msgSender()) */\n  0x20\n  shr\n  jump\t// in\ntag_5:\n    /* \"contracts/main.sol\":659:672  address owner */\n  0x00\n    /* \"contracts/main.sol\":675:685  msg.sender */\n  caller\n    /* \"contracts/main.sol\":659:685  address owner = msg.sender */\n  swap1\n  pop\n    /* \"contracts/main.sol\":648:693  {... */\n  pop\n    /* \"contracts/main.sol\":600:3712  contract Casino is Ownable {... */\n  jump(tag_10)\n    /* \"@openzeppelin/contracts/utils/Context.sol\":640:736  function _msgSender() internal view virtual returns (address) {... */\ntag_7:\n    /* \"@openzeppelin/contracts/utils/Context.sol\":693:700  address */\n  0x00\n    /* \"@openzeppelin/contracts/utils/Context.sol\":719:729  msg.sender */\n  caller\n    /* \"@openzeppelin/contracts/utils/Context.sol\":712:729  return msg.sender */\n  swap1\n  pop\n    /* \"@openzeppelin/contracts/utils/Context.sol\":640:736  function _msgSender() internal view virtual returns (address) {... */\n  swap1\n  jump\t// out\n    /* \"@openzeppelin/contracts/access/Ownable.sol\":2433:2620  function _transferOwnership(address newOwner) internal virtual {... */\ntag_8:\n    /* \"@openzeppelin/contracts/access/Ownable.sol\":2506:2522  address oldOwner */\n  0x00\n    /* \"@openzeppelin/contracts/access/Ownable.sol\":2525:2531  _owner */\n  dup1\n  0x00\n  swap1\n  sload\n  swap1\n  0x0100\n  exp\n  swap1\n  div\n  0xffffffffffffffffffffffffffffffffffffffff\n  and\n    /* \"@openzeppelin/contracts/access/Ownable.sol\":2506:2531  address oldOwner = _owner */\n  swap1\n  pop\n    /* \"@openzeppelin/contracts/access/Ownable.sol\":2550:2558  newOwner */\n  dup2\n    /* \"@openzeppelin/contracts/access/Ownable.sol\":2541:2547  _owner */\n  0x00\n  dup1\n    /* \"@openzeppelin/contracts/access/Ownable.sol\":2541:2558  _owner = newOwner */\n  0x0100\n  exp\n  dup2\n  sload\n  dup2\n  0xffffffffffffffffffffffffffffffffffffffff\n  mul\n  not\n  and\n  swap1\n  dup4\n  0xffffffffffffffffffffffffffffffffffffffff\n  and\n  mul\n  or\n  swap1\n  sstore\n  pop\n    /* \"@openzeppelin/contracts/access/Ownable.sol\":2604:2612  newOwner */\n  dup2\n    /* \"@openzeppelin/contracts/access/Ownable.sol\":2573:2613  OwnershipTransferred(oldOwner, newOwner) */\n  0xffffffffffffffffffffffffffffffffffffffff\n  and\n    /* \"@openzeppelin/contracts/access/Ownable.sol\":2594:2602  oldOwner */\n  dup2\n    /* \"@openzeppelin/contracts/access/Ownable.sol\":2573:2613  OwnershipTransferred(oldOwner, newOwner) */\n  0xffffffffffffffffffffffffffffffffffffffff\n  and\n  0x8be0079c531659141344cd1fd0a4f28419497f9722a3daafe3b4186f6b6457e0\n  mload(0x40)\n  mload(0x40)\n  dup1\n  swap2\n  sub\n  swap1\n  log3\n    /* \"@openzeppelin/contracts/access/Ownable.sol\":2496:2620  {... */\n  pop\n    /* \"@openzeppelin/contracts/access/Ownable.sol\":2433:2620  function _transferOwnership(address newOwner) internal virtual {... */\n  pop\n  jump\t// out\n    /* \"contracts/main.sol\":600:3712  contract Casino is Ownable {... */\ntag_10:\n  dataSize(sub_0)\n  dup1\n  dataOffset(sub_0)\n  0x00\n  codecopy\n  0x00\n  return\nstop\n\nsub_0: assembly {\n        /* \"contracts/main.sol\":600:3712  contract Casino is Ownable {... */\n      mstore(0x40, 0x80)\n      jumpi(tag_1, lt(calldatasize, 0x04))\n      shr(0xe0, calldataload(0x00))\n      dup1\n      0x8da5cb5b\n      gt\n      tag_13\n      jumpi\n      dup1\n      0x8da5cb5b\n      eq\n      tag_7\n      jumpi\n      dup1\n      0xc1af5785\n      eq\n      tag_8\n      jumpi\n      dup1\n      0xd0e30db0\n      eq\n      tag_9\n      jumpi\n      dup1\n      0xed1c274f\n      eq\n      tag_10\n      jumpi\n      dup1\n      0xed7892f2\n      eq\n      tag_11\n      jumpi\n      dup1\n      0xf2fde38b\n      eq\n      tag_12\n      jumpi\n      jump(tag_1)\n    tag_13:\n      dup1\n      0x1a0843c0\n      eq\n      tag_2\n      jumpi\n      dup1\n      0x27e235e3\n      eq\n      tag_3\n      jumpi\n      dup1\n      0x27e605ec\n      eq\n      tag_4\n      jumpi\n      dup1\n      0x2e1a7d4d\n      eq\n      tag_5\n      jumpi\n      dup1\n      0x715018a6\n      eq\n      tag_6\n      jumpi\n    tag_1:\n      0x00\n      dup1\n      revert\n        /* \"contracts/main.sol\":1912:2014  function getCasinoBalance() public view returns(uint256) {... */\n    tag_2:\n      callvalue\n      dup1\n      iszero\n      tag_14\n      jumpi\n      0x00\n      dup1\n      revert\n    tag_14:\n      pop\n      tag_15\n      tag_16\n      jump\t// in\n    tag_15:\n      mload(0x40)\n      tag_17\n      swap2\n      swap1\n      tag_18\n      jump\t// in\n    tag_17:\n      mload(0x40)\n      dup1\n      swap2\n      sub\n      swap1\n      return\n        /* \"contracts/main.sol\":737:777  mapping(address=>uint256)public balances */\n    tag_3:\n      callvalue\n      dup1\n      iszero\n      tag_19\n      jumpi\n      0x00\n      dup1\n      revert\n    tag_19:\n      pop\n      tag_20\n      0x04\n      dup1\n      calldatasize\n      sub\n      dup2\n      add\n      swap1\n      tag_21\n      swap2\n      swap1\n      tag_22\n      jump\t// in\n    tag_21:\n      tag_23\n      jump\t// in\n    tag_20:\n      mload(0x40)\n      tag_24\n      swap2\n      swap1\n      tag_18\n      jump\t// in\n    tag_24:\n      mload(0x40)\n      dup1\n      swap2\n      sub\n      swap1\n      return\n        /* \"contracts/main.sol\":3383:3707  function drawLottery() public payable onlyOwner {... */\n    tag_4:\n      tag_25\n      tag_26\n      jump\t// in\n    tag_25:\n      stop\n        /* \"contracts/main.sol\":1443:1906  function withdraw(uint256 _amount) public {... */\n    tag_5:\n      callvalue\n      dup1\n      iszero\n      tag_27\n      jumpi\n      0x00\n      dup1\n      revert\n    tag_27:\n      pop\n      tag_28\n      0x04\n      dup1\n      calldatasize\n      sub\n      dup2\n      add\n      swap1\n      tag_29\n      swap2\n      swap1\n      tag_30\n      jump\t// in\n    tag_29:\n      tag_31\n      jump\t// in\n    tag_28:\n      stop\n        /* \"@openzeppelin/contracts/access/Ownable.sol\":1831:1932  function renounceOwnership() public virtual onlyOwner {... */\n    tag_6:\n      callvalue\n      dup1\n      iszero\n      tag_32\n      jumpi\n      0x00\n      dup1\n      revert\n    tag_32:\n      pop\n      tag_33\n      tag_34\n      jump\t// in\n    tag_33:\n      stop\n        /* \"@openzeppelin/contracts/access/Ownable.sol\":1201:1286  function owner() public view virtual returns (address) {... */\n    tag_7:\n      callvalue\n      dup1\n      iszero\n      tag_35\n      jumpi\n      0x00\n      dup1\n      revert\n    tag_35:\n      pop\n      tag_36\n      tag_37\n      jump\t// in\n    tag_36:\n      mload(0x40)\n      tag_38\n      swap2\n      swap1\n      tag_39\n      jump\t// in\n    tag_38:\n      mload(0x40)\n      dup1\n      swap2\n      sub\n      swap1\n      return\n        /* \"contracts/main.sol\":3123:3377  function enterLottery() public { // for arbitrary value entry set to 1 ether... */\n    tag_8:\n      callvalue\n      dup1\n      iszero\n      tag_40\n      jumpi\n      0x00\n      dup1\n      revert\n    tag_40:\n      pop\n      tag_41\n      tag_42\n      jump\t// in\n    tag_41:\n      stop\n        /* \"contracts/main.sol\":1131:1250  function deposit() public payable {... */\n    tag_9:\n      tag_43\n      tag_44\n      jump\t// in\n    tag_43:\n      stop\n        /* \"contracts/main.sol\":828:875  mapping(uint256=>address) public lotteryEntries */\n    tag_10:\n      callvalue\n      dup1\n      iszero\n      tag_45\n      jumpi\n      0x00\n      dup1\n      revert\n    tag_45:\n      pop\n      tag_46\n      0x04\n      dup1\n      calldatasize\n      sub\n      dup2\n      add\n      swap1\n      tag_47\n      swap2\n      swap1\n      tag_30\n      jump\t// in\n    tag_47:\n      tag_48\n      jump\t// in\n    tag_46:\n      mload(0x40)\n      tag_49\n      swap2\n      swap1\n      tag_39\n      jump\t// in\n    tag_49:\n      mload(0x40)\n      dup1\n      swap2\n      sub\n      swap1\n      return\n        /* \"contracts/main.sol\":2329:3116  function rollDice(uint256[] memory _guesses, uint256 _bet) public view returns (bool) {... */\n    tag_11:\n      callvalue\n      dup1\n      iszero\n      tag_50\n      jumpi\n      0x00\n      dup1\n      revert\n    tag_50:\n      pop\n      tag_51\n      0x04\n      dup1\n      calldatasize\n      sub\n      dup2\n      add\n      swap1\n      tag_52\n      swap2\n      swap1\n      tag_53\n      jump\t// in\n    tag_52:\n      tag_54\n      jump\t// in\n    tag_51:\n      mload(0x40)\n      tag_55\n      swap2\n      swap1\n      tag_56\n      jump\t// in\n    tag_55:\n      mload(0x40)\n      dup1\n      swap2\n      sub\n      swap1\n      return\n        /* \"@openzeppelin/contracts/access/Ownable.sol\":2081:2279  function transferOwnership(address newOwner) public virtual onlyOwner {... */\n    tag_12:\n      callvalue\n      dup1\n      iszero\n      tag_57\n      jumpi\n      0x00\n      dup1\n      revert\n    tag_57:\n      pop\n      tag_58\n      0x04\n      dup1\n      calldatasize\n      sub\n      dup2\n      add\n      swap1\n      tag_59\n      swap2\n      swap1\n      tag_22\n      jump\t// in\n    tag_59:\n      tag_60\n      jump\t// in\n    tag_58:\n      stop\n        /* \"contracts/main.sol\":1912:2014  function getCasinoBalance() public view returns(uint256) {... */\n    tag_16:\n        /* \"contracts/main.sol\":1960:1967  uint256 */\n      0x00\n        /* \"contracts/main.sol\":1986:2007  address(this).balance */\n      selfbalance\n        /* \"contracts/main.sol\":1979:2007  return address(this).balance */\n      swap1\n      pop\n        /* \"contracts/main.sol\":1912:2014  function getCasinoBalance() public view returns(uint256) {... */\n      swap1\n      jump\t// out\n        /* \"contracts/main.sol\":737:777  mapping(address=>uint256)public balances */\n    tag_23:\n      mstore(0x20, 0x01)\n      dup1\n      0x00\n      mstore\n      keccak256(0x00, 0x40)\n      0x00\n      swap2\n      pop\n      swap1\n      pop\n      sload\n      dup2\n      jump\t// out\n        /* \"contracts/main.sol\":3383:3707  function drawLottery() public payable onlyOwner {... */\n    tag_26:\n        /* \"@openzeppelin/contracts/access/Ownable.sol\":1094:1107  _checkOwner() */\n      tag_63\n        /* \"@openzeppelin/contracts/access/Ownable.sol\":1094:1105  _checkOwner */\n      tag_64\n        /* \"@openzeppelin/contracts/access/Ownable.sol\":1094:1107  _checkOwner() */\n      jump\t// in\n    tag_63:\n        /* \"contracts/main.sol\":3472:3480  entryNum */\n      sload(0x03)\n        /* \"contracts/main.sol\":3453:3469  getRandomValue() */\n      tag_66\n        /* \"contracts/main.sol\":3453:3467  getRandomValue */\n      tag_67\n        /* \"contracts/main.sol\":3453:3469  getRandomValue() */\n      jump\t// in\n    tag_66:\n        /* \"contracts/main.sol\":3453:3480  getRandomValue() % entryNum */\n      tag_68\n      swap2\n      swap1\n      tag_69\n      jump\t// in\n    tag_68:\n        /* \"contracts/main.sol\":3442:3450  entryNum */\n      0x03\n        /* \"contracts/main.sol\":3442:3480  entryNum = getRandomValue() % entryNum */\n      dup2\n      swap1\n      sstore\n      pop\n        /* \"contracts/main.sol\":3559:3573  lotteryEntries */\n      0x02\n        /* \"contracts/main.sol\":3559:3583  lotteryEntries[entryNum] */\n      0x00\n        /* \"contracts/main.sol\":3574:3582  entryNum */\n      sload(0x03)\n        /* \"contracts/main.sol\":3559:3583  lotteryEntries[entryNum] */\n      dup2\n      mstore\n      0x20\n      add\n      swap1\n      dup2\n      mstore\n      0x20\n      add\n      0x00\n      keccak256\n      0x00\n      swap1\n      sload\n      swap1\n      0x0100\n      exp\n      swap1\n      div\n      0xffffffffffffffffffffffffffffffffffffffff\n      and\n        /* \"contracts/main.sol\":3551:3593  payable(lotteryEntries[entryNum]).transfer */\n      0xffffffffffffffffffffffffffffffffffffffff\n      and\n        /* \"contracts/main.sol\":3551:3605  payable(lotteryEntries[entryNum]).transfer(lotterySum) */\n      0x08fc\n        /* \"contracts/main.sol\":3594:3604  lotterySum */\n      sload(0x04)\n        /* \"contracts/main.sol\":3551:3605  payable(lotteryEntries[entryNum]).transfer(lotterySum) */\n      swap1\n      dup2\n      iszero\n      mul\n      swap1\n      mload(0x40)\n      0x00\n      mload(0x40)\n      dup1\n      dup4\n      sub\n      dup2\n      dup6\n      dup9\n      dup9\n      call\n      swap4\n      pop\n      pop\n      pop\n      pop\n      iszero\n      dup1\n      iszero\n      tag_71\n      jumpi\n      returndatasize\n      0x00\n      dup1\n      returndatacopy\n      revert(0x00, returndatasize)\n    tag_71:\n      pop\n        /* \"contracts/main.sol\":3675:3676  0 */\n      0x00\n        /* \"contracts/main.sol\":3664:3672  entryNum */\n      0x03\n        /* \"contracts/main.sol\":3664:3676  entryNum = 0 */\n      dup2\n      swap1\n      sstore\n      pop\n        /* \"contracts/main.sol\":3699:3700  0 */\n      0x00\n        /* \"contracts/main.sol\":3686:3696  lotterySum */\n      0x04\n        /* \"contracts/main.sol\":3686:3700  lotterySum = 0 */\n      dup2\n      swap1\n      sstore\n      pop\n        /* \"contracts/main.sol\":3383:3707  function drawLottery() public payable onlyOwner {... */\n      jump\t// out\n        /* \"contracts/main.sol\":1443:1906  function withdraw(uint256 _amount) public {... */\n    tag_31:\n        /* \"contracts/main.sol\":1582:1589  _amount */\n      dup1\n        /* \"contracts/main.sol\":1558:1566  balances */\n      0x01\n        /* \"contracts/main.sol\":1558:1578  balances[msg.sender] */\n      0x00\n        /* \"contracts/main.sol\":1567:1577  msg.sender */\n      caller\n        /* \"contracts/main.sol\":1558:1578  balances[msg.sender] */\n      0xffffffffffffffffffffffffffffffffffffffff\n      and\n      0xffffffffffffffffffffffffffffffffffffffff\n      and\n      dup2\n      mstore\n      0x20\n      add\n      swap1\n      dup2\n      mstore\n      0x20\n      add\n      0x00\n      keccak256\n      sload\n        /* \"contracts/main.sol\":1558:1589  balances[msg.sender] >= _amount */\n      lt\n      iszero\n        /* \"contracts/main.sol\":1550:1625  require(balances[msg.sender] >= _amount, \"Insufficient funds to withdraw!\") */\n      tag_73\n      jumpi\n      mload(0x40)\n      0x08c379a000000000000000000000000000000000000000000000000000000000\n      dup2\n      mstore\n      0x04\n      add\n      tag_74\n      swap1\n      tag_75\n      jump\t// in\n    tag_74:\n      mload(0x40)\n      dup1\n      swap2\n      sub\n      swap1\n      revert\n    tag_73:\n        /* \"contracts/main.sol\":1694:1701  _amount */\n      dup1\n        /* \"contracts/main.sol\":1670:1678  balances */\n      0x01\n        /* \"contracts/main.sol\":1670:1690  balances[msg.sender] */\n      0x00\n        /* \"contracts/main.sol\":1679:1689  msg.sender */\n      caller\n        /* \"contracts/main.sol\":1670:1690  balances[msg.sender] */\n      0xffffffffffffffffffffffffffffffffffffffff\n      and\n      0xffffffffffffffffffffffffffffffffffffffff\n      and\n      dup2\n      mstore\n      0x20\n      add\n      swap1\n      dup2\n      mstore\n      0x20\n      add\n      0x00\n      keccak256\n      0x00\n        /* \"contracts/main.sol\":1670:1701  balances[msg.sender] -= _amount */\n      dup3\n      dup3\n      sload\n      tag_76\n      swap2\n      swap1\n      tag_77\n      jump\t// in\n    tag_76:\n      swap3\n      pop\n      pop\n      dup2\n      swap1\n      sstore\n      pop\n        /* \"contracts/main.sol\":1738:1747  bool sent */\n      0x00\n        /* \"contracts/main.sol\":1752:1762  msg.sender */\n      caller\n        /* \"contracts/main.sol\":1752:1767  msg.sender.call */\n      0xffffffffffffffffffffffffffffffffffffffff\n      and\n        /* \"contracts/main.sol\":1775:1782  _amount */\n      dup3\n        /* \"contracts/main.sol\":1752:1791  msg.sender.call{value: _amount}(\"sent\") */\n      mload(0x40)\n      tag_78\n      swap1\n      tag_79\n      jump\t// in\n    tag_78:\n      0x00\n      mload(0x40)\n      dup1\n      dup4\n      sub\n      dup2\n      dup6\n      dup8\n      gas\n      call\n      swap3\n      pop\n      pop\n      pop\n      returndatasize\n      dup1\n      0x00\n      dup2\n      eq\n      tag_82\n      jumpi\n      mload(0x40)\n      swap2\n      pop\n      and(add(returndatasize, 0x3f), not(0x1f))\n      dup3\n      add\n      0x40\n      mstore\n      returndatasize\n      dup3\n      mstore\n      returndatasize\n      0x00\n      0x20\n      dup5\n      add\n      returndatacopy\n      jump(tag_81)\n    tag_82:\n      0x60\n      swap2\n      pop\n    tag_81:\n      pop\n        /* \"contracts/main.sol\":1737:1791  (bool sent,) = msg.sender.call{value: _amount}(\"sent\") */\n      pop\n      swap1\n      pop\n        /* \"contracts/main.sol\":1864:1868  sent */\n      dup1\n        /* \"contracts/main.sol\":1856:1899  require(sent, \"Failed to withdraw amount!\") */\n      tag_83\n      jumpi\n      mload(0x40)\n      0x08c379a000000000000000000000000000000000000000000000000000000000\n      dup2\n      mstore\n      0x04\n      add\n      tag_84\n      swap1\n      tag_85\n      jump\t// in\n    tag_84:\n      mload(0x40)\n      dup1\n      swap2\n      sub\n      swap1\n      revert\n    tag_83:\n        /* \"contracts/main.sol\":1485:1906  {... */\n      pop\n        /* \"contracts/main.sol\":1443:1906  function withdraw(uint256 _amount) public {... */\n      pop\n      jump\t// out\n        /* \"@openzeppelin/contracts/access/Ownable.sol\":1831:1932  function renounceOwnership() public virtual onlyOwner {... */\n    tag_34:\n        /* \"@openzeppelin/contracts/access/Ownable.sol\":1094:1107  _checkOwner() */\n      tag_87\n        /* \"@openzeppelin/contracts/access/Ownable.sol\":1094:1105  _checkOwner */\n      tag_64\n        /* \"@openzeppelin/contracts/access/Ownable.sol\":1094:1107  _checkOwner() */\n      jump\t// in\n    tag_87:\n        /* \"@openzeppelin/contracts/access/Ownable.sol\":1895:1925  _transferOwnership(address(0)) */\n      tag_89\n        /* \"@openzeppelin/contracts/access/Ownable.sol\":1922:1923  0 */\n      0x00\n        /* \"@openzeppelin/contracts/access/Ownable.sol\":1895:1913  _transferOwnership */\n      tag_90\n        /* \"@openzeppelin/contracts/access/Ownable.sol\":1895:1925  _transferOwnership(address(0)) */\n      jump\t// in\n    tag_89:\n        /* \"@openzeppelin/contracts/access/Ownable.sol\":1831:1932  function renounceOwnership() public virtual onlyOwner {... */\n      jump\t// out\n        /* \"@openzeppelin/contracts/access/Ownable.sol\":1201:1286  function owner() public view virtual returns (address) {... */\n    tag_37:\n        /* \"@openzeppelin/contracts/access/Ownable.sol\":1247:1254  address */\n      0x00\n        /* \"@openzeppelin/contracts/access/Ownable.sol\":1273:1279  _owner */\n      dup1\n      0x00\n      swap1\n      sload\n      swap1\n      0x0100\n      exp\n      swap1\n      div\n      0xffffffffffffffffffffffffffffffffffffffff\n      and\n        /* \"@openzeppelin/contracts/access/Ownable.sol\":1266:1279  return _owner */\n      swap1\n      pop\n        /* \"@openzeppelin/contracts/access/Ownable.sol\":1201:1286  function owner() public view virtual returns (address) {... */\n      swap1\n      jump\t// out\n        /* \"contracts/main.sol\":3123:3377  function enterLottery() public { // for arbitrary value entry set to 1 ether... */\n    tag_42:\n        /* \"contracts/main.sol\":3242:3249  1 ether */\n      0x0de0b6b3a7640000\n        /* \"contracts/main.sol\":3218:3226  balances */\n      0x01\n        /* \"contracts/main.sol\":3218:3238  balances[msg.sender] */\n      0x00\n        /* \"contracts/main.sol\":3227:3237  msg.sender */\n      caller\n        /* \"contracts/main.sol\":3218:3238  balances[msg.sender] */\n      0xffffffffffffffffffffffffffffffffffffffff\n      and\n      0xffffffffffffffffffffffffffffffffffffffff\n      and\n      dup2\n      mstore\n      0x20\n      add\n      swap1\n      dup2\n      mstore\n      0x20\n      add\n      0x00\n      keccak256\n      sload\n        /* \"contracts/main.sol\":3218:3249  balances[msg.sender] >= 1 ether */\n      lt\n      iszero\n        /* \"contracts/main.sol\":3209:3270  require (balances[msg.sender] >= 1 ether, \"Not enough ether\") */\n      tag_93\n      jumpi\n      mload(0x40)\n      0x08c379a000000000000000000000000000000000000000000000000000000000\n      dup2\n      mstore\n      0x04\n      add\n      tag_94\n      swap1\n      tag_95\n      jump\t// in\n    tag_94:\n      mload(0x40)\n      dup1\n      swap2\n      sub\n      swap1\n      revert\n    tag_93:\n        /* \"contracts/main.sol\":3308:3318  msg.sender */\n      caller\n        /* \"contracts/main.sol\":3281:3295  lotteryEntries */\n      0x02\n        /* \"contracts/main.sol\":3281:3305  lotteryEntries[entryNum] */\n      0x00\n        /* \"contracts/main.sol\":3296:3304  entryNum */\n      sload(0x03)\n        /* \"contracts/main.sol\":3281:3305  lotteryEntries[entryNum] */\n      dup2\n      mstore\n      0x20\n      add\n      swap1\n      dup2\n      mstore\n      0x20\n      add\n      0x00\n      keccak256\n      0x00\n        /* \"contracts/main.sol\":3281:3318  lotteryEntries[entryNum] = msg.sender */\n      0x0100\n      exp\n      dup2\n      sload\n      dup2\n      0xffffffffffffffffffffffffffffffffffffffff\n      mul\n      not\n      and\n      swap1\n      dup4\n      0xffffffffffffffffffffffffffffffffffffffff\n      and\n      mul\n      or\n      swap1\n      sstore\n      pop\n        /* \"contracts/main.sol\":3328:3336  entryNum */\n      0x03\n      0x00\n        /* \"contracts/main.sol\":3328:3338  entryNum++ */\n      dup2\n      sload\n      dup1\n      swap3\n      swap2\n      swap1\n      tag_96\n      swap1\n      tag_97\n      jump\t// in\n    tag_96:\n      swap2\n      swap1\n      pop\n      sstore\n      pop\n        /* \"contracts/main.sol\":3362:3369  1 ether */\n      0x0de0b6b3a7640000\n        /* \"contracts/main.sol\":3348:3358  lotterySum */\n      0x04\n      0x00\n        /* \"contracts/main.sol\":3348:3369  lotterySum += 1 ether */\n      dup3\n      dup3\n      sload\n      tag_98\n      swap2\n      swap1\n      tag_99\n      jump\t// in\n    tag_98:\n      swap3\n      pop\n      pop\n      dup2\n      swap1\n      sstore\n      pop\n        /* \"contracts/main.sol\":3123:3377  function enterLottery() public { // for arbitrary value entry set to 1 ether... */\n      jump\t// out\n        /* \"contracts/main.sol\":1131:1250  function deposit() public payable {... */\n    tag_44:\n        /* \"contracts/main.sol\":1233:1242  msg.value */\n      callvalue\n        /* \"contracts/main.sol\":1209:1217  balances */\n      0x01\n        /* \"contracts/main.sol\":1209:1229  balances[msg.sender] */\n      0x00\n        /* \"contracts/main.sol\":1218:1228  msg.sender */\n      caller\n        /* \"contracts/main.sol\":1209:1229  balances[msg.sender] */\n      0xffffffffffffffffffffffffffffffffffffffff\n      and\n      0xffffffffffffffffffffffffffffffffffffffff\n      and\n      dup2\n      mstore\n      0x20\n      add\n      swap1\n      dup2\n      mstore\n      0x20\n      add\n      0x00\n      keccak256\n      0x00\n        /* \"contracts/main.sol\":1209:1242  balances[msg.sender] += msg.value */\n      dup3\n      dup3\n      sload\n      tag_101\n      swap2\n      swap1\n      tag_99\n      jump\t// in\n    tag_101:\n      swap3\n      pop\n      pop\n      dup2\n      swap1\n      sstore\n      pop\n        /* \"contracts/main.sol\":1131:1250  function deposit() public payable {... */\n      jump\t// out\n        /* \"contracts/main.sol\":828:875  mapping(uint256=>address) public lotteryEntries */\n    tag_48:\n      mstore(0x20, 0x02)\n      dup1\n      0x00\n      mstore\n      keccak256(0x00, 0x40)\n      0x00\n      swap2\n      pop\n      sload\n      swap1\n      0x0100\n      exp\n      swap1\n      div\n      0xffffffffffffffffffffffffffffffffffffffff\n      and\n      dup2\n      jump\t// out\n        /* \"contracts/main.sol\":2329:3116  function rollDice(uint256[] memory _guesses, uint256 _bet) public view returns (bool) {... */\n    tag_54:\n        /* \"contracts/main.sol\":2409:2413  bool */\n      0x00\n        /* \"contracts/main.sol\":2503:2511  balances */\n      0x01\n        /* \"contracts/main.sol\":2503:2523  balances[msg.sender] */\n      0x00\n        /* \"contracts/main.sol\":2512:2522  msg.sender */\n      caller\n        /* \"contracts/main.sol\":2503:2523  balances[msg.sender] */\n      0xffffffffffffffffffffffffffffffffffffffff\n      and\n      0xffffffffffffffffffffffffffffffffffffffff\n      and\n      dup2\n      mstore\n      0x20\n      add\n      swap1\n      dup2\n      mstore\n      0x20\n      add\n      0x00\n      keccak256\n      sload\n        /* \"contracts/main.sol\":2495:2499  _bet */\n      dup3\n        /* \"contracts/main.sol\":2495:2523  _bet <= balances[msg.sender] */\n      gt\n      iszero\n        /* \"contracts/main.sol\":2486:2555  require (_bet <= balances[msg.sender], \"Not enough Ether in account\") */\n      tag_103\n      jumpi\n      mload(0x40)\n      0x08c379a000000000000000000000000000000000000000000000000000000000\n      dup2\n      mstore\n      0x04\n      add\n      tag_104\n      swap1\n      tag_105\n      jump\t// in\n    tag_104:\n      mload(0x40)\n      dup1\n      swap2\n      sub\n      swap1\n      revert\n    tag_103:\n        /* \"contracts/main.sol\":2648:2649  3 */\n      0x03\n        /* \"contracts/main.sol\":2629:2637  _guesses */\n      dup4\n        /* \"contracts/main.sol\":2629:2644  _guesses.length */\n      mload\n        /* \"contracts/main.sol\":2629:2649  _guesses.length >= 3 */\n      lt\n      iszero\n        /* \"contracts/main.sol\":2620:2696  require (_guesses.length >= 3, \"Cannot guess more than 3 possible outcomes\") */\n      tag_106\n      jumpi\n      mload(0x40)\n      0x08c379a000000000000000000000000000000000000000000000000000000000\n      dup2\n      mstore\n      0x04\n      add\n      tag_107\n      swap1\n      tag_108\n      jump\t// in\n    tag_107:\n      mload(0x40)\n      dup1\n      swap2\n      sub\n      swap1\n      revert\n    tag_106:\n        /* \"contracts/main.sol\":2771:2778  uint8 i */\n      0x00\n        /* \"contracts/main.sol\":2766:2902  for (uint8 i = 0; i < _guesses.length; i++) {... */\n    tag_109:\n        /* \"contracts/main.sol\":2788:2796  _guesses */\n      dup4\n        /* \"contracts/main.sol\":2788:2803  _guesses.length */\n      mload\n        /* \"contracts/main.sol\":2784:2785  i */\n      dup2\n        /* \"contracts/main.sol\":2784:2803  i < _guesses.length */\n      0xff\n      and\n      lt\n        /* \"contracts/main.sol\":2766:2902  for (uint8 i = 0; i < _guesses.length; i++) {... */\n      iszero\n      tag_110\n      jumpi\n        /* \"contracts/main.sol\":2848:2849  6 */\n      0x06\n        /* \"contracts/main.sol\":2833:2841  _guesses */\n      dup5\n        /* \"contracts/main.sol\":2842:2843  i */\n      dup3\n        /* \"contracts/main.sol\":2833:2844  _guesses[i] */\n      0xff\n      and\n      dup2\n      mload\n      dup2\n      lt\n      tag_112\n      jumpi\n      tag_113\n      tag_114\n      jump\t// in\n    tag_113:\n    tag_112:\n      0x20\n      mul\n      0x20\n      add\n      add\n      mload\n        /* \"contracts/main.sol\":2833:2849  _guesses[i] <= 6 */\n      gt\n      iszero\n        /* \"contracts/main.sol\":2833:2869  _guesses[i] <= 6 && _guesses[i] >= 1 */\n      dup1\n      iszero\n      tag_115\n      jumpi\n      pop\n        /* \"contracts/main.sol\":2868:2869  1 */\n      0x01\n        /* \"contracts/main.sol\":2853:2861  _guesses */\n      dup5\n        /* \"contracts/main.sol\":2862:2863  i */\n      dup3\n        /* \"contracts/main.sol\":2853:2864  _guesses[i] */\n      0xff\n      and\n      dup2\n      mload\n      dup2\n      lt\n      tag_116\n      jumpi\n      tag_117\n      tag_114\n      jump\t// in\n    tag_117:\n    tag_116:\n      0x20\n      mul\n      0x20\n      add\n      add\n      mload\n        /* \"contracts/main.sol\":2853:2869  _guesses[i] >= 1 */\n      lt\n      iszero\n        /* \"contracts/main.sol\":2833:2869  _guesses[i] <= 6 && _guesses[i] >= 1 */\n    tag_115:\n        /* \"contracts/main.sol\":2824:2891  require (_guesses[i] <= 6 && _guesses[i] >= 1, \"Guess numbers 1-6\") */\n      tag_118\n      jumpi\n      mload(0x40)\n      0x08c379a000000000000000000000000000000000000000000000000000000000\n      dup2\n      mstore\n      0x04\n      add\n      tag_119\n      swap1\n      tag_120\n      jump\t// in\n    tag_119:\n      mload(0x40)\n      dup1\n      swap2\n      sub\n      swap1\n      revert\n    tag_118:\n        /* \"contracts/main.sol\":2805:2808  i++ */\n      dup1\n      dup1\n      tag_121\n      swap1\n      tag_122\n      jump\t// in\n    tag_121:\n      swap2\n      pop\n      pop\n        /* \"contracts/main.sol\":2766:2902  for (uint8 i = 0; i < _guesses.length; i++) {... */\n      jump(tag_109)\n    tag_110:\n      pop\n        /* \"contracts/main.sol\":2912:2924  uint256 rand */\n      0x00\n        /* \"contracts/main.sol\":2950:2951  1 */\n      0x01\n        /* \"contracts/main.sol\":2946:2947  6 */\n      0x06\n        /* \"contracts/main.sol\":2927:2943  getRandomValue() */\n      tag_123\n        /* \"contracts/main.sol\":2927:2941  getRandomValue */\n      tag_67\n        /* \"contracts/main.sol\":2927:2943  getRandomValue() */\n      jump\t// in\n    tag_123:\n        /* \"contracts/main.sol\":2927:2947  getRandomValue() % 6 */\n      tag_124\n      swap2\n      swap1\n      tag_69\n      jump\t// in\n    tag_124:\n        /* \"contracts/main.sol\":2927:2951  getRandomValue() % 6 + 1 */\n      tag_125\n      swap2\n      swap1\n      tag_99\n      jump\t// in\n    tag_125:\n        /* \"contracts/main.sol\":2912:2951  uint256 rand = getRandomValue() % 6 + 1 */\n      swap1\n      pop\n        /* \"contracts/main.sol\":2962:2970  bool win */\n      0x00\n        /* \"contracts/main.sol\":2994:3001  uint8 i */\n      dup1\n        /* \"contracts/main.sol\":2989:3090  for (uint8 i = 0; i < _guesses.length; i++) {... */\n    tag_126:\n        /* \"contracts/main.sol\":3011:3019  _guesses */\n      dup6\n        /* \"contracts/main.sol\":3011:3026  _guesses.length */\n      mload\n        /* \"contracts/main.sol\":3007:3008  i */\n      dup2\n        /* \"contracts/main.sol\":3007:3026  i < _guesses.length */\n      0xff\n      and\n      lt\n        /* \"contracts/main.sol\":2989:3090  for (uint8 i = 0; i < _guesses.length; i++) {... */\n      iszero\n      tag_127\n      jumpi\n        /* \"contracts/main.sol\":3062:3066  rand */\n      dup3\n        /* \"contracts/main.sol\":3047:3055  _guesses */\n      dup7\n        /* \"contracts/main.sol\":3056:3057  i */\n      dup3\n        /* \"contracts/main.sol\":3047:3058  _guesses[i] */\n      0xff\n      and\n      dup2\n      mload\n      dup2\n      lt\n      tag_129\n      jumpi\n      tag_130\n      tag_114\n      jump\t// in\n    tag_130:\n    tag_129:\n      0x20\n      mul\n      0x20\n      add\n      add\n      mload\n        /* \"contracts/main.sol\":3047:3066  _guesses[i] == rand */\n      eq\n        /* \"contracts/main.sol\":3047:3079  _guesses[i] == rand ? win : !win */\n      tag_131\n      jumpi\n        /* \"contracts/main.sol\":3076:3079  win */\n      dup2\n        /* \"contracts/main.sol\":3075:3079  !win */\n      iszero\n        /* \"contracts/main.sol\":3047:3079  _guesses[i] == rand ? win : !win */\n      jump(tag_132)\n    tag_131:\n        /* \"contracts/main.sol\":3069:3072  win */\n      dup2\n        /* \"contracts/main.sol\":3047:3079  _guesses[i] == rand ? win : !win */\n    tag_132:\n      pop\n        /* \"contracts/main.sol\":3028:3031  i++ */\n      dup1\n      dup1\n      tag_133\n      swap1\n      tag_122\n      jump\t// in\n    tag_133:\n      swap2\n      pop\n      pop\n        /* \"contracts/main.sol\":2989:3090  for (uint8 i = 0; i < _guesses.length; i++) {... */\n      jump(tag_126)\n    tag_127:\n      pop\n        /* \"contracts/main.sol\":3106:3109  win */\n      dup1\n        /* \"contracts/main.sol\":3099:3109  return win */\n      swap3\n      pop\n      pop\n      pop\n        /* \"contracts/main.sol\":2329:3116  function rollDice(uint256[] memory _guesses, uint256 _bet) public view returns (bool) {... */\n      swap3\n      swap2\n      pop\n      pop\n      jump\t// out\n        /* \"@openzeppelin/contracts/access/Ownable.sol\":2081:2279  function transferOwnership(address newOwner) public virtual onlyOwner {... */\n    tag_60:\n        /* \"@openzeppelin/contracts/access/Ownable.sol\":1094:1107  _checkOwner() */\n      tag_135\n        /* \"@openzeppelin/contracts/access/Ownable.sol\":1094:1105  _checkOwner */\n      tag_64\n        /* \"@openzeppelin/contracts/access/Ownable.sol\":1094:1107  _checkOwner() */\n      jump\t// in\n    tag_135:\n        /* \"@openzeppelin/contracts/access/Ownable.sol\":2189:2190  0 */\n      0x00\n        /* \"@openzeppelin/contracts/access/Ownable.sol\":2169:2191  newOwner != address(0) */\n      0xffffffffffffffffffffffffffffffffffffffff\n      and\n        /* \"@openzeppelin/contracts/access/Ownable.sol\":2169:2177  newOwner */\n      dup2\n        /* \"@openzeppelin/contracts/access/Ownable.sol\":2169:2191  newOwner != address(0) */\n      0xffffffffffffffffffffffffffffffffffffffff\n      and\n      sub\n        /* \"@openzeppelin/contracts/access/Ownable.sol\":2161:2234  require(newOwner != address(0), \"Ownable: new owner is the zero address\") */\n      tag_137\n      jumpi\n      mload(0x40)\n      0x08c379a000000000000000000000000000000000000000000000000000000000\n      dup2\n      mstore\n      0x04\n      add\n      tag_138\n      swap1\n      tag_139\n      jump\t// in\n    tag_138:\n      mload(0x40)\n      dup1\n      swap2\n      sub\n      swap1\n      revert\n    tag_137:\n        /* \"@openzeppelin/contracts/access/Ownable.sol\":2244:2272  _transferOwnership(newOwner) */\n      tag_140\n        /* \"@openzeppelin/contracts/access/Ownable.sol\":2263:2271  newOwner */\n      dup2\n        /* \"@openzeppelin/contracts/access/Ownable.sol\":2244:2262  _transferOwnership */\n      tag_90\n        /* \"@openzeppelin/contracts/access/Ownable.sol\":2244:2272  _transferOwnership(newOwner) */\n      jump\t// in\n    tag_140:\n        /* \"@openzeppelin/contracts/access/Ownable.sol\":2081:2279  function transferOwnership(address newOwner) public virtual onlyOwner {... */\n      pop\n      jump\t// out\n        /* \"@openzeppelin/contracts/access/Ownable.sol\":1359:1489  function _checkOwner() internal view virtual {... */\n    tag_64:\n        /* \"@openzeppelin/contracts/access/Ownable.sol\":1433:1445  _msgSender() */\n      tag_142\n        /* \"@openzeppelin/contracts/access/Ownable.sol\":1433:1443  _msgSender */\n      tag_143\n        /* \"@openzeppelin/contracts/access/Ownable.sol\":1433:1445  _msgSender() */\n      jump\t// in\n    tag_142:\n        /* \"@openzeppelin/contracts/access/Ownable.sol\":1422:1445  owner() == _msgSender() */\n      0xffffffffffffffffffffffffffffffffffffffff\n      and\n        /* \"@openzeppelin/contracts/access/Ownable.sol\":1422:1429  owner() */\n      tag_144\n        /* \"@openzeppelin/contracts/access/Ownable.sol\":1422:1427  owner */\n      tag_37\n        /* \"@openzeppelin/contracts/access/Ownable.sol\":1422:1429  owner() */\n      jump\t// in\n    tag_144:\n        /* \"@openzeppelin/contracts/access/Ownable.sol\":1422:1445  owner() == _msgSender() */\n      0xffffffffffffffffffffffffffffffffffffffff\n      and\n      eq\n        /* \"@openzeppelin/contracts/access/Ownable.sol\":1414:1482  require(owner() == _msgSender(), \"Ownable: caller is not the owner\") */\n      tag_145\n      jumpi\n      mload(0x40)\n      0x08c379a000000000000000000000000000000000000000000000000000000000\n      dup2\n      mstore\n      0x04\n      add\n      tag_146\n      swap1\n      tag_147\n      jump\t// in\n    tag_146:\n      mload(0x40)\n      dup1\n      swap2\n      sub\n      swap1\n      revert\n    tag_145:\n        /* \"@openzeppelin/contracts/access/Ownable.sol\":1359:1489  function _checkOwner() internal view virtual {... */\n      jump\t// out\n        /* \"contracts/main.sol\":2085:2223  function getRandomValue() private view returns(uint) {... */\n    tag_67:\n        /* \"contracts/main.sol\":2132:2136  uint */\n      0x00\n        /* \"contracts/main.sol\":2184:2199  block.timestamp */\n      timestamp\n        /* \"contracts/main.sol\":2201:2213  block.number */\n      number\n        /* \"contracts/main.sol\":2173:2214  abi.encode(block.timestamp, block.number) */\n      add(0x20, mload(0x40))\n      tag_149\n      swap3\n      swap2\n      swap1\n      tag_150\n      jump\t// in\n    tag_149:\n      mload(0x40)\n      0x20\n      dup2\n      dup4\n      sub\n      sub\n      dup2\n      mstore\n      swap1\n      0x40\n      mstore\n        /* \"contracts/main.sol\":2163:2215  keccak256(abi.encode(block.timestamp, block.number)) */\n      dup1\n      mload\n      swap1\n      0x20\n      add\n      keccak256\n        /* \"contracts/main.sol\":2155:2216  uint256(keccak256(abi.encode(block.timestamp, block.number))) */\n      0x00\n      shr\n        /* \"contracts/main.sol\":2148:2216  return uint256(keccak256(abi.encode(block.timestamp, block.number))) */\n      swap1\n      pop\n        /* \"contracts/main.sol\":2085:2223  function getRandomValue() private view returns(uint) {... */\n      swap1\n      jump\t// out\n        /* \"@openzeppelin/contracts/access/Ownable.sol\":2433:2620  function _transferOwnership(address newOwner) internal virtual {... */\n    tag_90:\n        /* \"@openzeppelin/contracts/access/Ownable.sol\":2506:2522  address oldOwner */\n      0x00\n        /* \"@openzeppelin/contracts/access/Ownable.sol\":2525:2531  _owner */\n      dup1\n      0x00\n      swap1\n      sload\n      swap1\n      0x0100\n      exp\n      swap1\n      div\n      0xffffffffffffffffffffffffffffffffffffffff\n      and\n        /* \"@openzeppelin/contracts/access/Ownable.sol\":2506:2531  address oldOwner = _owner */\n      swap1\n      pop\n        /* \"@openzeppelin/contracts/access/Ownable.sol\":2550:2558  newOwner */\n      dup2\n        /* \"@openzeppelin/contracts/access/Ownable.sol\":2541:2547  _owner */\n      0x00\n      dup1\n        /* \"@openzeppelin/contracts/access/Ownable.sol\":2541:2558  _owner = newOwner */\n      0x0100\n      exp\n      dup2\n      sload\n      dup2\n      0xffffffffffffffffffffffffffffffffffffffff\n      mul\n      not\n      and\n      swap1\n      dup4\n      0xffffffffffffffffffffffffffffffffffffffff\n      and\n      mul\n      or\n      swap1\n      sstore\n      pop\n        /* \"@openzeppelin/contracts/access/Ownable.sol\":2604:2612  newOwner */\n      dup2\n        /* \"@openzeppelin/contracts/access/Ownable.sol\":2573:2613  OwnershipTransferred(oldOwner, newOwner) */\n      0xffffffffffffffffffffffffffffffffffffffff\n      and\n        /* \"@openzeppelin/contracts/access/Ownable.sol\":2594:2602  oldOwner */\n      dup2\n        /* \"@openzeppelin/contracts/access/Ownable.sol\":2573:2613  OwnershipTransferred(oldOwner, newOwner) */\n      0xffffffffffffffffffffffffffffffffffffffff\n      and\n      0x8be0079c531659141344cd1fd0a4f28419497f9722a3daafe3b4186f6b6457e0\n      mload(0x40)\n      mload(0x40)\n      dup1\n      swap2\n      sub\n      swap1\n      log3\n        /* \"@openzeppelin/contracts/access/Ownable.sol\":2496:2620  {... */\n      pop\n        /* \"@openzeppelin/contracts/access/Ownable.sol\":2433:2620  function _transferOwnership(address newOwner) internal virtual {... */\n      pop\n      jump\t// out\n        /* \"@openzeppelin/contracts/utils/Context.sol\":640:736  function _msgSender() internal view virtual returns (address) {... */\n    tag_143:\n        /* \"@openzeppelin/contracts/utils/Context.sol\":693:700  address */\n      0x00\n        /* \"@openzeppelin/contracts/utils/Context.sol\":719:729  msg.sender */\n      caller\n        /* \"@openzeppelin/contracts/utils/Context.sol\":712:729  return msg.sender */\n      swap1\n      pop\n        /* \"@openzeppelin/contracts/utils/Context.sol\":640:736  function _msgSender() internal view virtual returns (address) {... */\n      swap1\n      jump\t// out\n        /* \"#utility.yul\":7:84   */\n    tag_153:\n        /* \"#utility.yul\":44:51   */\n      0x00\n        /* \"#utility.yul\":73:78   */\n      dup2\n        /* \"#utility.yul\":62:78   */\n      swap1\n      pop\n        /* \"#utility.yul\":7:84   */\n      swap2\n      swap1\n      pop\n      jump\t// out\n        /* \"#utility.yul\":90:208   */\n    tag_154:\n        /* \"#utility.yul\":177:201   */\n      tag_202\n        /* \"#utility.yul\":195:200   */\n      dup2\n        /* \"#utility.yul\":177:201   */\n      tag_153\n      jump\t// in\n    tag_202:\n        /* \"#utility.yul\":172:175   */\n      dup3\n        /* \"#utility.yul\":165:202   */\n      mstore\n        /* \"#utility.yul\":90:208   */\n      pop\n      pop\n      jump\t// out\n        /* \"#utility.yul\":214:436   */\n    tag_18:\n        /* \"#utility.yul\":307:311   */\n      0x00\n        /* \"#utility.yul\":345:347   */\n      0x20\n        /* \"#utility.yul\":334:343   */\n      dup3\n        /* \"#utility.yul\":330:348   */\n      add\n        /* \"#utility.yul\":322:348   */\n      swap1\n      pop\n        /* \"#utility.yul\":358:429   */\n      tag_204\n        /* \"#utility.yul\":426:427   */\n      0x00\n        /* \"#utility.yul\":415:424   */\n      dup4\n        /* \"#utility.yul\":411:428   */\n      add\n        /* \"#utility.yul\":402:408   */\n      dup5\n        /* \"#utility.yul\":358:429   */\n      tag_154\n      jump\t// in\n    tag_204:\n        /* \"#utility.yul\":214:436   */\n      swap3\n      swap2\n      pop\n      pop\n      jump\t// out\n        /* \"#utility.yul\":442:517   */\n    tag_155:\n        /* \"#utility.yul\":475:481   */\n      0x00\n        /* \"#utility.yul\":508:510   */\n      0x40\n        /* \"#utility.yul\":502:511   */\n      mload\n        /* \"#utility.yul\":492:511   */\n      swap1\n      pop\n        /* \"#utility.yul\":442:517   */\n      swap1\n      jump\t// out\n        /* \"#utility.yul\":523:640   */\n    tag_156:\n        /* \"#utility.yul\":632:633   */\n      0x00\n        /* \"#utility.yul\":629:630   */\n      dup1\n        /* \"#utility.yul\":622:634   */\n      revert\n        /* \"#utility.yul\":646:763   */\n    tag_157:\n        /* \"#utility.yul\":755:756   */\n      0x00\n        /* \"#utility.yul\":752:753   */\n      dup1\n        /* \"#utility.yul\":745:757   */\n      revert\n        /* \"#utility.yul\":769:895   */\n    tag_158:\n        /* \"#utility.yul\":806:813   */\n      0x00\n        /* \"#utility.yul\":846:888   */\n      0xffffffffffffffffffffffffffffffffffffffff\n        /* \"#utility.yul\":839:844   */\n      dup3\n        /* \"#utility.yul\":835:889   */\n      and\n        /* \"#utility.yul\":824:889   */\n      swap1\n      pop\n        /* \"#utility.yul\":769:895   */\n      swap2\n      swap1\n      pop\n      jump\t// out\n        /* \"#utility.yul\":901:997   */\n    tag_159:\n        /* \"#utility.yul\":938:945   */\n      0x00\n        /* \"#utility.yul\":967:991   */\n      tag_210\n        /* \"#utility.yul\":985:990   */\n      dup3\n        /* \"#utility.yul\":967:991   */\n      tag_158\n      jump\t// in\n    tag_210:\n        /* \"#utility.yul\":956:991   */\n      swap1\n      pop\n        /* \"#utility.yul\":901:997   */\n      swap2\n      swap1\n      pop\n      jump\t// out\n        /* \"#utility.yul\":1003:1125   */\n    tag_160:\n        /* \"#utility.yul\":1076:1100   */\n      tag_212\n        /* \"#utility.yul\":1094:1099   */\n      dup2\n        /* \"#utility.yul\":1076:1100   */\n      tag_159\n      jump\t// in\n    tag_212:\n        /* \"#utility.yul\":1069:1074   */\n      dup2\n        /* \"#utility.yul\":1066:1101   */\n      eq\n        /* \"#utility.yul\":1056:1119   */\n      tag_213\n      jumpi\n        /* \"#utility.yul\":1115:1116   */\n      0x00\n        /* \"#utility.yul\":1112:1113   */\n      dup1\n        /* \"#utility.yul\":1105:1117   */\n      revert\n        /* \"#utility.yul\":1056:1119   */\n    tag_213:\n        /* \"#utility.yul\":1003:1125   */\n      pop\n      jump\t// out\n        /* \"#utility.yul\":1131:1270   */\n    tag_161:\n        /* \"#utility.yul\":1177:1182   */\n      0x00\n        /* \"#utility.yul\":1215:1221   */\n      dup2\n        /* \"#utility.yul\":1202:1222   */\n      calldataload\n        /* \"#utility.yul\":1193:1222   */\n      swap1\n      pop\n        /* \"#utility.yul\":1231:1264   */\n      tag_215\n        /* \"#utility.yul\":1258:1263   */\n      dup2\n        /* \"#utility.yul\":1231:1264   */\n      tag_160\n      jump\t// in\n    tag_215:\n        /* \"#utility.yul\":1131:1270   */\n      swap3\n      swap2\n      pop\n      pop\n      jump\t// out\n        /* \"#utility.yul\":1276:1605   */\n    tag_22:\n        /* \"#utility.yul\":1335:1341   */\n      0x00\n        /* \"#utility.yul\":1384:1386   */\n      0x20\n        /* \"#utility.yul\":1372:1381   */\n      dup3\n        /* \"#utility.yul\":1363:1370   */\n      dup5\n        /* \"#utility.yul\":1359:1382   */\n      sub\n        /* \"#utility.yul\":1355:1387   */\n      slt\n        /* \"#utility.yul\":1352:1471   */\n      iszero\n      tag_217\n      jumpi\n        /* \"#utility.yul\":1390:1469   */\n      tag_218\n      tag_156\n      jump\t// in\n    tag_218:\n        /* \"#utility.yul\":1352:1471   */\n    tag_217:\n        /* \"#utility.yul\":1510:1511   */\n      0x00\n        /* \"#utility.yul\":1535:1588   */\n      tag_219\n        /* \"#utility.yul\":1580:1587   */\n      dup5\n        /* \"#utility.yul\":1571:1577   */\n      dup3\n        /* \"#utility.yul\":1560:1569   */\n      dup6\n        /* \"#utility.yul\":1556:1578   */\n      add\n        /* \"#utility.yul\":1535:1588   */\n      tag_161\n      jump\t// in\n    tag_219:\n        /* \"#utility.yul\":1525:1588   */\n      swap2\n      pop\n        /* \"#utility.yul\":1481:1598   */\n      pop\n        /* \"#utility.yul\":1276:1605   */\n      swap3\n      swap2\n      pop\n      pop\n      jump\t// out\n        /* \"#utility.yul\":1611:1733   */\n    tag_162:\n        /* \"#utility.yul\":1684:1708   */\n      tag_221\n        /* \"#utility.yul\":1702:1707   */\n      dup2\n        /* \"#utility.yul\":1684:1708   */\n      tag_153\n      jump\t// in\n    tag_221:\n        /* \"#utility.yul\":1677:1682   */\n      dup2\n        /* \"#utility.yul\":1674:1709   */\n      eq\n        /* \"#utility.yul\":1664:1727   */\n      tag_222\n      jumpi\n        /* \"#utility.yul\":1723:1724   */\n      0x00\n        /* \"#utility.yul\":1720:1721   */\n      dup1\n        /* \"#utility.yul\":1713:1725   */\n      revert\n        /* \"#utility.yul\":1664:1727   */\n    tag_222:\n        /* \"#utility.yul\":1611:1733   */\n      pop\n      jump\t// out\n        /* \"#utility.yul\":1739:1878   */\n    tag_163:\n        /* \"#utility.yul\":1785:1790   */\n      0x00\n        /* \"#utility.yul\":1823:1829   */\n      dup2\n        /* \"#utility.yul\":1810:1830   */\n      calldataload\n        /* \"#utility.yul\":1801:1830   */\n      swap1\n      pop\n        /* \"#utility.yul\":1839:1872   */\n      tag_224\n        /* \"#utility.yul\":1866:1871   */\n      dup2\n        /* \"#utility.yul\":1839:1872   */\n      tag_162\n      jump\t// in\n    tag_224:\n        /* \"#utility.yul\":1739:1878   */\n      swap3\n      swap2\n      pop\n      pop\n      jump\t// out\n        /* \"#utility.yul\":1884:2213   */\n    tag_30:\n        /* \"#utility.yul\":1943:1949   */\n      0x00\n        /* \"#utility.yul\":1992:1994   */\n      0x20\n        /* \"#utility.yul\":1980:1989   */\n      dup3\n        /* \"#utility.yul\":1971:1978   */\n      dup5\n        /* \"#utility.yul\":1967:1990   */\n      sub\n        /* \"#utility.yul\":1963:1995   */\n      slt\n        /* \"#utility.yul\":1960:2079   */\n      iszero\n      tag_226\n      jumpi\n        /* \"#utility.yul\":1998:2077   */\n      tag_227\n      tag_156\n      jump\t// in\n    tag_227:\n        /* \"#utility.yul\":1960:2079   */\n    tag_226:\n        /* \"#utility.yul\":2118:2119   */\n      0x00\n        /* \"#utility.yul\":2143:2196   */\n      tag_228\n        /* \"#utility.yul\":2188:2195   */\n      dup5\n        /* \"#utility.yul\":2179:2185   */\n      dup3\n        /* \"#utility.yul\":2168:2177   */\n      dup6\n        /* \"#utility.yul\":2164:2186   */\n      add\n        /* \"#utility.yul\":2143:2196   */\n      tag_163\n      jump\t// in\n    tag_228:\n        /* \"#utility.yul\":2133:2196   */\n      swap2\n      pop\n        /* \"#utility.yul\":2089:2206   */\n      pop\n        /* \"#utility.yul\":1884:2213   */\n      swap3\n      swap2\n      pop\n      pop\n      jump\t// out\n        /* \"#utility.yul\":2219:2337   */\n    tag_164:\n        /* \"#utility.yul\":2306:2330   */\n      tag_230\n        /* \"#utility.yul\":2324:2329   */\n      dup2\n        /* \"#utility.yul\":2306:2330   */\n      tag_159\n      jump\t// in\n    tag_230:\n        /* \"#utility.yul\":2301:2304   */\n      dup3\n        /* \"#utility.yul\":2294:2331   */\n      mstore\n        /* \"#utility.yul\":2219:2337   */\n      pop\n      pop\n      jump\t// out\n        /* \"#utility.yul\":2343:2565   */\n    tag_39:\n        /* \"#utility.yul\":2436:2440   */\n      0x00\n        /* \"#utility.yul\":2474:2476   */\n      0x20\n        /* \"#utility.yul\":2463:2472   */\n      dup3\n        /* \"#utility.yul\":2459:2477   */\n      add\n        /* \"#utility.yul\":2451:2477   */\n      swap1\n      pop\n        /* \"#utility.yul\":2487:2558   */\n      tag_232\n        /* \"#utility.yul\":2555:2556   */\n      0x00\n        /* \"#utility.yul\":2544:2553   */\n      dup4\n        /* \"#utility.yul\":2540:2557   */\n      add\n        /* \"#utility.yul\":2531:2537   */\n      dup5\n        /* \"#utility.yul\":2487:2558   */\n      tag_164\n      jump\t// in\n    tag_232:\n        /* \"#utility.yul\":2343:2565   */\n      swap3\n      swap2\n      pop\n      pop\n      jump\t// out\n        /* \"#utility.yul\":2571:2688   */\n    tag_165:\n        /* \"#utility.yul\":2680:2681   */\n      0x00\n        /* \"#utility.yul\":2677:2678   */\n      dup1\n        /* \"#utility.yul\":2670:2682   */\n      revert\n        /* \"#utility.yul\":2694:2796   */\n    tag_166:\n        /* \"#utility.yul\":2735:2741   */\n      0x00\n        /* \"#utility.yul\":2786:2788   */\n      0x1f\n        /* \"#utility.yul\":2782:2789   */\n      not\n        /* \"#utility.yul\":2777:2779   */\n      0x1f\n        /* \"#utility.yul\":2770:2775   */\n      dup4\n        /* \"#utility.yul\":2766:2780   */\n      add\n        /* \"#utility.yul\":2762:2790   */\n      and\n        /* \"#utility.yul\":2752:2790   */\n      swap1\n      pop\n        /* \"#utility.yul\":2694:2796   */\n      swap2\n      swap1\n      pop\n      jump\t// out\n        /* \"#utility.yul\":2802:2982   */\n    tag_167:\n        /* \"#utility.yul\":2850:2927   */\n      0x4e487b7100000000000000000000000000000000000000000000000000000000\n        /* \"#utility.yul\":2847:2848   */\n      0x00\n        /* \"#utility.yul\":2840:2928   */\n      mstore\n        /* \"#utility.yul\":2947:2951   */\n      0x41\n        /* \"#utility.yul\":2944:2945   */\n      0x04\n        /* \"#utility.yul\":2937:2952   */\n      mstore\n        /* \"#utility.yul\":2971:2975   */\n      0x24\n        /* \"#utility.yul\":2968:2969   */\n      0x00\n        /* \"#utility.yul\":2961:2976   */\n      revert\n        /* \"#utility.yul\":2988:3269   */\n    tag_168:\n        /* \"#utility.yul\":3071:3098   */\n      tag_237\n        /* \"#utility.yul\":3093:3097   */\n      dup3\n        /* \"#utility.yul\":3071:3098   */\n      tag_166\n      jump\t// in\n    tag_237:\n        /* \"#utility.yul\":3063:3069   */\n      dup2\n        /* \"#utility.yul\":3059:3099   */\n      add\n        /* \"#utility.yul\":3201:3207   */\n      dup2\n        /* \"#utility.yul\":3189:3199   */\n      dup2\n        /* \"#utility.yul\":3186:3208   */\n      lt\n        /* \"#utility.yul\":3165:3183   */\n      0xffffffffffffffff\n        /* \"#utility.yul\":3153:3163   */\n      dup3\n        /* \"#utility.yul\":3150:3184   */\n      gt\n        /* \"#utility.yul\":3147:3209   */\n      or\n        /* \"#utility.yul\":3144:3232   */\n      iszero\n      tag_238\n      jumpi\n        /* \"#utility.yul\":3212:3230   */\n      tag_239\n      tag_167\n      jump\t// in\n    tag_239:\n        /* \"#utility.yul\":3144:3232   */\n    tag_238:\n        /* \"#utility.yul\":3252:3262   */\n      dup1\n        /* \"#utility.yul\":3248:3250   */\n      0x40\n        /* \"#utility.yul\":3241:3263   */\n      mstore\n        /* \"#utility.yul\":3031:3269   */\n      pop\n        /* \"#utility.yul\":2988:3269   */\n      pop\n      pop\n      jump\t// out\n        /* \"#utility.yul\":3275:3404   */\n    tag_169:\n        /* \"#utility.yul\":3309:3315   */\n      0x00\n        /* \"#utility.yul\":3336:3356   */\n      tag_241\n      tag_155\n      jump\t// in\n    tag_241:\n        /* \"#utility.yul\":3326:3356   */\n      swap1\n      pop\n        /* \"#utility.yul\":3365:3398   */\n      tag_242\n        /* \"#utility.yul\":3393:3397   */\n      dup3\n        /* \"#utility.yul\":3385:3391   */\n      dup3\n        /* \"#utility.yul\":3365:3398   */\n      tag_168\n      jump\t// in\n    tag_242:\n        /* \"#utility.yul\":3275:3404   */\n      swap2\n      swap1\n      pop\n      jump\t// out\n        /* \"#utility.yul\":3410:3721   */\n    tag_170:\n        /* \"#utility.yul\":3487:3491   */\n      0x00\n        /* \"#utility.yul\":3577:3595   */\n      0xffffffffffffffff\n        /* \"#utility.yul\":3569:3575   */\n      dup3\n        /* \"#utility.yul\":3566:3596   */\n      gt\n        /* \"#utility.yul\":3563:3619   */\n      iszero\n      tag_244\n      jumpi\n        /* \"#utility.yul\":3599:3617   */\n      tag_245\n      tag_167\n      jump\t// in\n    tag_245:\n        /* \"#utility.yul\":3563:3619   */\n    tag_244:\n        /* \"#utility.yul\":3649:3653   */\n      0x20\n        /* \"#utility.yul\":3641:3647   */\n      dup3\n        /* \"#utility.yul\":3637:3654   */\n      mul\n        /* \"#utility.yul\":3629:3654   */\n      swap1\n      pop\n        /* \"#utility.yul\":3709:3713   */\n      0x20\n        /* \"#utility.yul\":3703:3707   */\n      dup2\n        /* \"#utility.yul\":3699:3714   */\n      add\n        /* \"#utility.yul\":3691:3714   */\n      swap1\n      pop\n        /* \"#utility.yul\":3410:3721   */\n      swap2\n      swap1\n      pop\n      jump\t// out\n        /* \"#utility.yul\":3727:3844   */\n    tag_171:\n        /* \"#utility.yul\":3836:3837   */\n      0x00\n        /* \"#utility.yul\":3833:3834   */\n      dup1\n        /* \"#utility.yul\":3826:3838   */\n      revert\n        /* \"#utility.yul\":3867:4577   */\n    tag_172:\n        /* \"#utility.yul\":3963:3968   */\n      0x00\n        /* \"#utility.yul\":3988:4069   */\n      tag_248\n        /* \"#utility.yul\":4004:4068   */\n      tag_249\n        /* \"#utility.yul\":4061:4067   */\n      dup5\n        /* \"#utility.yul\":4004:4068   */\n      tag_170\n      jump\t// in\n    tag_249:\n        /* \"#utility.yul\":3988:4069   */\n      tag_169\n      jump\t// in\n    tag_248:\n        /* \"#utility.yul\":3979:4069   */\n      swap1\n      pop\n        /* \"#utility.yul\":4089:4094   */\n      dup1\n        /* \"#utility.yul\":4118:4124   */\n      dup4\n        /* \"#utility.yul\":4111:4116   */\n      dup3\n        /* \"#utility.yul\":4104:4125   */\n      mstore\n        /* \"#utility.yul\":4152:4156   */\n      0x20\n        /* \"#utility.yul\":4145:4150   */\n      dup3\n        /* \"#utility.yul\":4141:4157   */\n      add\n        /* \"#utility.yul\":4134:4157   */\n      swap1\n      pop\n        /* \"#utility.yul\":4205:4209   */\n      0x20\n        /* \"#utility.yul\":4197:4203   */\n      dup5\n        /* \"#utility.yul\":4193:4210   */\n      mul\n        /* \"#utility.yul\":4185:4191   */\n      dup4\n        /* \"#utility.yul\":4181:4211   */\n      add\n        /* \"#utility.yul\":4234:4237   */\n      dup6\n        /* \"#utility.yul\":4226:4232   */\n      dup2\n        /* \"#utility.yul\":4223:4238   */\n      gt\n        /* \"#utility.yul\":4220:4342   */\n      iszero\n      tag_250\n      jumpi\n        /* \"#utility.yul\":4253:4332   */\n      tag_251\n      tag_171\n      jump\t// in\n    tag_251:\n        /* \"#utility.yul\":4220:4342   */\n    tag_250:\n        /* \"#utility.yul\":4368:4374   */\n      dup4\n        /* \"#utility.yul\":4351:4571   */\n    tag_252:\n        /* \"#utility.yul\":4385:4391   */\n      dup2\n        /* \"#utility.yul\":4380:4383   */\n      dup2\n        /* \"#utility.yul\":4377:4392   */\n      lt\n        /* \"#utility.yul\":4351:4571   */\n      iszero\n      tag_254\n      jumpi\n        /* \"#utility.yul\":4460:4463   */\n      dup1\n        /* \"#utility.yul\":4489:4526   */\n      tag_255\n        /* \"#utility.yul\":4522:4525   */\n      dup9\n        /* \"#utility.yul\":4510:4520   */\n      dup3\n        /* \"#utility.yul\":4489:4526   */\n      tag_163\n      jump\t// in\n    tag_255:\n        /* \"#utility.yul\":4484:4487   */\n      dup5\n        /* \"#utility.yul\":4477:4527   */\n      mstore\n        /* \"#utility.yul\":4556:4560   */\n      0x20\n        /* \"#utility.yul\":4551:4554   */\n      dup5\n        /* \"#utility.yul\":4547:4561   */\n      add\n        /* \"#utility.yul\":4540:4561   */\n      swap4\n      pop\n        /* \"#utility.yul\":4427:4571   */\n      pop\n        /* \"#utility.yul\":4411:4415   */\n      0x20\n        /* \"#utility.yul\":4406:4409   */\n      dup2\n        /* \"#utility.yul\":4402:4416   */\n      add\n        /* \"#utility.yul\":4395:4416   */\n      swap1\n      pop\n        /* \"#utility.yul\":4351:4571   */\n      jump(tag_252)\n    tag_254:\n        /* \"#utility.yul\":4355:4376   */\n      pop\n        /* \"#utility.yul\":3969:4577   */\n      pop\n      pop\n        /* \"#utility.yul\":3867:4577   */\n      swap4\n      swap3\n      pop\n      pop\n      pop\n      jump\t// out\n        /* \"#utility.yul\":4600:4970   */\n    tag_173:\n        /* \"#utility.yul\":4671:4676   */\n      0x00\n        /* \"#utility.yul\":4720:4723   */\n      dup3\n        /* \"#utility.yul\":4713:4717   */\n      0x1f\n        /* \"#utility.yul\":4705:4711   */\n      dup4\n        /* \"#utility.yul\":4701:4718   */\n      add\n        /* \"#utility.yul\":4697:4724   */\n      slt\n        /* \"#utility.yul\":4687:4809   */\n      tag_257\n      jumpi\n        /* \"#utility.yul\":4728:4807   */\n      tag_258\n      tag_165\n      jump\t// in\n    tag_258:\n        /* \"#utility.yul\":4687:4809   */\n    tag_257:\n        /* \"#utility.yul\":4845:4851   */\n      dup2\n        /* \"#utility.yul\":4832:4852   */\n      calldataload\n        /* \"#utility.yul\":4870:4964   */\n      tag_259\n        /* \"#utility.yul\":4960:4963   */\n      dup5\n        /* \"#utility.yul\":4952:4958   */\n      dup3\n        /* \"#utility.yul\":4945:4949   */\n      0x20\n        /* \"#utility.yul\":4937:4943   */\n      dup7\n        /* \"#utility.yul\":4933:4950   */\n      add\n        /* \"#utility.yul\":4870:4964   */\n      tag_172\n      jump\t// in\n    tag_259:\n        /* \"#utility.yul\":4861:4964   */\n      swap2\n      pop\n        /* \"#utility.yul\":4677:4970   */\n      pop\n        /* \"#utility.yul\":4600:4970   */\n      swap3\n      swap2\n      pop\n      pop\n      jump\t// out\n        /* \"#utility.yul\":4976:5660   */\n    tag_53:\n        /* \"#utility.yul\":5069:5075   */\n      0x00\n        /* \"#utility.yul\":5077:5083   */\n      dup1\n        /* \"#utility.yul\":5126:5128   */\n      0x40\n        /* \"#utility.yul\":5114:5123   */\n      dup4\n        /* \"#utility.yul\":5105:5112   */\n      dup6\n        /* \"#utility.yul\":5101:5124   */\n      sub\n        /* \"#utility.yul\":5097:5129   */\n      slt\n        /* \"#utility.yul\":5094:5213   */\n      iszero\n      tag_261\n      jumpi\n        /* \"#utility.yul\":5132:5211   */\n      tag_262\n      tag_156\n      jump\t// in\n    tag_262:\n        /* \"#utility.yul\":5094:5213   */\n    tag_261:\n        /* \"#utility.yul\":5280:5281   */\n      0x00\n        /* \"#utility.yul\":5269:5278   */\n      dup4\n        /* \"#utility.yul\":5265:5282   */\n      add\n        /* \"#utility.yul\":5252:5283   */\n      calldataload\n        /* \"#utility.yul\":5310:5328   */\n      0xffffffffffffffff\n        /* \"#utility.yul\":5302:5308   */\n      dup2\n        /* \"#utility.yul\":5299:5329   */\n      gt\n        /* \"#utility.yul\":5296:5413   */\n      iszero\n      tag_263\n      jumpi\n        /* \"#utility.yul\":5332:5411   */\n      tag_264\n      tag_157\n      jump\t// in\n    tag_264:\n        /* \"#utility.yul\":5296:5413   */\n    tag_263:\n        /* \"#utility.yul\":5437:5515   */\n      tag_265\n        /* \"#utility.yul\":5507:5514   */\n      dup6\n        /* \"#utility.yul\":5498:5504   */\n      dup3\n        /* \"#utility.yul\":5487:5496   */\n      dup7\n        /* \"#utility.yul\":5483:5505   */\n      add\n        /* \"#utility.yul\":5437:5515   */\n      tag_173\n      jump\t// in\n    tag_265:\n        /* \"#utility.yul\":5427:5515   */\n      swap3\n      pop\n        /* \"#utility.yul\":5223:5525   */\n      pop\n        /* \"#utility.yul\":5564:5566   */\n      0x20\n        /* \"#utility.yul\":5590:5643   */\n      tag_266\n        /* \"#utility.yul\":5635:5642   */\n      dup6\n        /* \"#utility.yul\":5626:5632   */\n      dup3\n        /* \"#utility.yul\":5615:5624   */\n      dup7\n        /* \"#utility.yul\":5611:5633   */\n      add\n        /* \"#utility.yul\":5590:5643   */\n      tag_163\n      jump\t// in\n    tag_266:\n        /* \"#utility.yul\":5580:5643   */\n      swap2\n      pop\n        /* \"#utility.yul\":5535:5653   */\n      pop\n        /* \"#utility.yul\":4976:5660   */\n      swap3\n      pop\n      swap3\n      swap1\n      pop\n      jump\t// out\n        /* \"#utility.yul\":5666:5756   */\n    tag_174:\n        /* \"#utility.yul\":5700:5707   */\n      0x00\n        /* \"#utility.yul\":5743:5748   */\n      dup2\n        /* \"#utility.yul\":5736:5749   */\n      iszero\n        /* \"#utility.yul\":5729:5750   */\n      iszero\n        /* \"#utility.yul\":5718:5750   */\n      swap1\n      pop\n        /* \"#utility.yul\":5666:5756   */\n      swap2\n      swap1\n      pop\n      jump\t// out\n        /* \"#utility.yul\":5762:5871   */\n    tag_175:\n        /* \"#utility.yul\":5843:5864   */\n      tag_269\n        /* \"#utility.yul\":5858:5863   */\n      dup2\n        /* \"#utility.yul\":5843:5864   */\n      tag_174\n      jump\t// in\n    tag_269:\n        /* \"#utility.yul\":5838:5841   */\n      dup3\n        /* \"#utility.yul\":5831:5865   */\n      mstore\n        /* \"#utility.yul\":5762:5871   */\n      pop\n      pop\n      jump\t// out\n        /* \"#utility.yul\":5877:6087   */\n    tag_56:\n        /* \"#utility.yul\":5964:5968   */\n      0x00\n        /* \"#utility.yul\":6002:6004   */\n      0x20\n        /* \"#utility.yul\":5991:6000   */\n      dup3\n        /* \"#utility.yul\":5987:6005   */\n      add\n        /* \"#utility.yul\":5979:6005   */\n      swap1\n      pop\n        /* \"#utility.yul\":6015:6080   */\n      tag_271\n        /* \"#utility.yul\":6077:6078   */\n      0x00\n        /* \"#utility.yul\":6066:6075   */\n      dup4\n        /* \"#utility.yul\":6062:6079   */\n      add\n        /* \"#utility.yul\":6053:6059   */\n      dup5\n        /* \"#utility.yul\":6015:6080   */\n      tag_175\n      jump\t// in\n    tag_271:\n        /* \"#utility.yul\":5877:6087   */\n      swap3\n      swap2\n      pop\n      pop\n      jump\t// out\n        /* \"#utility.yul\":6093:6273   */\n    tag_176:\n        /* \"#utility.yul\":6141:6218   */\n      0x4e487b7100000000000000000000000000000000000000000000000000000000\n        /* \"#utility.yul\":6138:6139   */\n      0x00\n        /* \"#utility.yul\":6131:6219   */\n      mstore\n        /* \"#utility.yul\":6238:6242   */\n      0x12\n        /* \"#utility.yul\":6235:6236   */\n      0x04\n        /* \"#utility.yul\":6228:6243   */\n      mstore\n        /* \"#utility.yul\":6262:6266   */\n      0x24\n        /* \"#utility.yul\":6259:6260   */\n      0x00\n        /* \"#utility.yul\":6252:6267   */\n      revert\n        /* \"#utility.yul\":6279:6455   */\n    tag_69:\n        /* \"#utility.yul\":6311:6312   */\n      0x00\n        /* \"#utility.yul\":6328:6348   */\n      tag_274\n        /* \"#utility.yul\":6346:6347   */\n      dup3\n        /* \"#utility.yul\":6328:6348   */\n      tag_153\n      jump\t// in\n    tag_274:\n        /* \"#utility.yul\":6323:6348   */\n      swap2\n      pop\n        /* \"#utility.yul\":6362:6382   */\n      tag_275\n        /* \"#utility.yul\":6380:6381   */\n      dup4\n        /* \"#utility.yul\":6362:6382   */\n      tag_153\n      jump\t// in\n    tag_275:\n        /* \"#utility.yul\":6357:6382   */\n      swap3\n      pop\n        /* \"#utility.yul\":6401:6402   */\n      dup3\n        /* \"#utility.yul\":6391:6426   */\n      tag_276\n      jumpi\n        /* \"#utility.yul\":6406:6424   */\n      tag_277\n      tag_176\n      jump\t// in\n    tag_277:\n        /* \"#utility.yul\":6391:6426   */\n    tag_276:\n        /* \"#utility.yul\":6447:6448   */\n      dup3\n        /* \"#utility.yul\":6444:6445   */\n      dup3\n        /* \"#utility.yul\":6440:6449   */\n      mod\n        /* \"#utility.yul\":6435:6449   */\n      swap1\n      pop\n        /* \"#utility.yul\":6279:6455   */\n      swap3\n      swap2\n      pop\n      pop\n      jump\t// out\n        /* \"#utility.yul\":6461:6630   */\n    tag_177:\n        /* \"#utility.yul\":6545:6556   */\n      0x00\n        /* \"#utility.yul\":6579:6585   */\n      dup3\n        /* \"#utility.yul\":6574:6577   */\n      dup3\n        /* \"#utility.yul\":6567:6586   */\n      mstore\n        /* \"#utility.yul\":6619:6623   */\n      0x20\n        /* \"#utility.yul\":6614:6617   */\n      dup3\n        /* \"#utility.yul\":6610:6624   */\n      add\n        /* \"#utility.yul\":6595:6624   */\n      swap1\n      pop\n        /* \"#utility.yul\":6461:6630   */\n      swap3\n      swap2\n      pop\n      pop\n      jump\t// out\n        /* \"#utility.yul\":6636:6817   */\n    tag_178:\n        /* \"#utility.yul\":6776:6809   */\n      0x496e73756666696369656e742066756e647320746f2077697468647261772100\n        /* \"#utility.yul\":6772:6773   */\n      0x00\n        /* \"#utility.yul\":6764:6770   */\n      dup3\n        /* \"#utility.yul\":6760:6774   */\n      add\n        /* \"#utility.yul\":6753:6810   */\n      mstore\n        /* \"#utility.yul\":6636:6817   */\n      pop\n      jump\t// out\n        /* \"#utility.yul\":6823:7189   */\n    tag_179:\n        /* \"#utility.yul\":6965:6968   */\n      0x00\n        /* \"#utility.yul\":6986:7053   */\n      tag_281\n        /* \"#utility.yul\":7050:7052   */\n      0x1f\n        /* \"#utility.yul\":7045:7048   */\n      dup4\n        /* \"#utility.yul\":6986:7053   */\n      tag_177\n      jump\t// in\n    tag_281:\n        /* \"#utility.yul\":6979:7053   */\n      swap2\n      pop\n        /* \"#utility.yul\":7062:7155   */\n      tag_282\n        /* \"#utility.yul\":7151:7154   */\n      dup3\n        /* \"#utility.yul\":7062:7155   */\n      tag_178\n      jump\t// in\n    tag_282:\n        /* \"#utility.yul\":7180:7182   */\n      0x20\n        /* \"#utility.yul\":7175:7178   */\n      dup3\n        /* \"#utility.yul\":7171:7183   */\n      add\n        /* \"#utility.yul\":7164:7183   */\n      swap1\n      pop\n        /* \"#utility.yul\":6823:7189   */\n      swap2\n      swap1\n      pop\n      jump\t// out\n        /* \"#utility.yul\":7195:7614   */\n    tag_75:\n        /* \"#utility.yul\":7361:7365   */\n      0x00\n        /* \"#utility.yul\":7399:7401   */\n      0x20\n        /* \"#utility.yul\":7388:7397   */\n      dup3\n        /* \"#utility.yul\":7384:7402   */\n      add\n        /* \"#utility.yul\":7376:7402   */\n      swap1\n      pop\n        /* \"#utility.yul\":7448:7457   */\n      dup2\n        /* \"#utility.yul\":7442:7446   */\n      dup2\n        /* \"#utility.yul\":7438:7458   */\n      sub\n        /* \"#utility.yul\":7434:7435   */\n      0x00\n        /* \"#utility.yul\":7423:7432   */\n      dup4\n        /* \"#utility.yul\":7419:7436   */\n      add\n        /* \"#utility.yul\":7412:7459   */\n      mstore\n        /* \"#utility.yul\":7476:7607   */\n      tag_284\n        /* \"#utility.yul\":7602:7606   */\n      dup2\n        /* \"#utility.yul\":7476:7607   */\n      tag_179\n      jump\t// in\n    tag_284:\n        /* \"#utility.yul\":7468:7607   */\n      swap1\n      pop\n        /* \"#utility.yul\":7195:7614   */\n      swap2\n      swap1\n      pop\n      jump\t// out\n        /* \"#utility.yul\":7620:7800   */\n    tag_180:\n        /* \"#utility.yul\":7668:7745   */\n      0x4e487b7100000000000000000000000000000000000000000000000000000000\n        /* \"#utility.yul\":7665:7666   */\n      0x00\n        /* \"#utility.yul\":7658:7746   */\n      mstore\n        /* \"#utility.yul\":7765:7769   */\n      0x11\n        /* \"#utility.yul\":7762:7763   */\n      0x04\n        /* \"#utility.yul\":7755:7770   */\n      mstore\n        /* \"#utility.yul\":7789:7793   */\n      0x24\n        /* \"#utility.yul\":7786:7787   */\n      0x00\n        /* \"#utility.yul\":7779:7794   */\n      revert\n        /* \"#utility.yul\":7806:8000   */\n    tag_77:\n        /* \"#utility.yul\":7846:7850   */\n      0x00\n        /* \"#utility.yul\":7866:7886   */\n      tag_287\n        /* \"#utility.yul\":7884:7885   */\n      dup3\n        /* \"#utility.yul\":7866:7886   */\n      tag_153\n      jump\t// in\n    tag_287:\n        /* \"#utility.yul\":7861:7886   */\n      swap2\n      pop\n        /* \"#utility.yul\":7900:7920   */\n      tag_288\n        /* \"#utility.yul\":7918:7919   */\n      dup4\n        /* \"#utility.yul\":7900:7920   */\n      tag_153\n      jump\t// in\n    tag_288:\n        /* \"#utility.yul\":7895:7920   */\n      swap3\n      pop\n        /* \"#utility.yul\":7944:7945   */\n      dup3\n        /* \"#utility.yul\":7941:7942   */\n      dup3\n        /* \"#utility.yul\":7937:7946   */\n      sub\n        /* \"#utility.yul\":7929:7946   */\n      swap1\n      pop\n        /* \"#utility.yul\":7968:7969   */\n      dup2\n        /* \"#utility.yul\":7962:7966   */\n      dup2\n        /* \"#utility.yul\":7959:7970   */\n      gt\n        /* \"#utility.yul\":7956:7993   */\n      iszero\n      tag_289\n      jumpi\n        /* \"#utility.yul\":7973:7991   */\n      tag_290\n      tag_180\n      jump\t// in\n    tag_290:\n        /* \"#utility.yul\":7956:7993   */\n    tag_289:\n        /* \"#utility.yul\":7806:8000   */\n      swap3\n      swap2\n      pop\n      pop\n      jump\t// out\n        /* \"#utility.yul\":8006:8153   */\n    tag_181:\n        /* \"#utility.yul\":8107:8118   */\n      0x00\n        /* \"#utility.yul\":8144:8147   */\n      dup2\n        /* \"#utility.yul\":8129:8147   */\n      swap1\n      pop\n        /* \"#utility.yul\":8006:8153   */\n      swap3\n      swap2\n      pop\n      pop\n      jump\t// out\n        /* \"#utility.yul\":8159:8313   */\n    tag_182:\n        /* \"#utility.yul\":8299:8305   */\n      0x73656e7400000000000000000000000000000000000000000000000000000000\n        /* \"#utility.yul\":8295:8296   */\n      0x00\n        /* \"#utility.yul\":8287:8293   */\n      dup3\n        /* \"#utility.yul\":8283:8297   */\n      add\n        /* \"#utility.yul\":8276:8306   */\n      mstore\n        /* \"#utility.yul\":8159:8313   */\n      pop\n      jump\t// out\n        /* \"#utility.yul\":8319:8717   */\n    tag_183:\n        /* \"#utility.yul\":8478:8481   */\n      0x00\n        /* \"#utility.yul\":8499:8582   */\n      tag_294\n        /* \"#utility.yul\":8580:8581   */\n      0x04\n        /* \"#utility.yul\":8575:8578   */\n      dup4\n        /* \"#utility.yul\":8499:8582   */\n      tag_181\n      jump\t// in\n    tag_294:\n        /* \"#utility.yul\":8492:8582   */\n      swap2\n      pop\n        /* \"#utility.yul\":8591:8684   */\n      tag_295\n        /* \"#utility.yul\":8680:8683   */\n      dup3\n        /* \"#utility.yul\":8591:8684   */\n      tag_182\n      jump\t// in\n    tag_295:\n        /* \"#utility.yul\":8709:8710   */\n      0x04\n        /* \"#utility.yul\":8704:8707   */\n      dup3\n        /* \"#utility.yul\":8700:8711   */\n      add\n        /* \"#utility.yul\":8693:8711   */\n      swap1\n      pop\n        /* \"#utility.yul\":8319:8717   */\n      swap2\n      swap1\n      pop\n      jump\t// out\n        /* \"#utility.yul\":8723:9102   */\n    tag_79:\n        /* \"#utility.yul\":8907:8910   */\n      0x00\n        /* \"#utility.yul\":8929:9076   */\n      tag_297\n        /* \"#utility.yul\":9072:9075   */\n      dup3\n        /* \"#utility.yul\":8929:9076   */\n      tag_183\n      jump\t// in\n    tag_297:\n        /* \"#utility.yul\":8922:9076   */\n      swap2\n      pop\n        /* \"#utility.yul\":9093:9096   */\n      dup2\n        /* \"#utility.yul\":9086:9096   */\n      swap1\n      pop\n        /* \"#utility.yul\":8723:9102   */\n      swap2\n      swap1\n      pop\n      jump\t// out\n        /* \"#utility.yul\":9108:9284   */\n    tag_184:\n        /* \"#utility.yul\":9248:9276   */\n      0x4661696c656420746f20776974686472617720616d6f756e7421000000000000\n        /* \"#utility.yul\":9244:9245   */\n      0x00\n        /* \"#utility.yul\":9236:9242   */\n      dup3\n        /* \"#utility.yul\":9232:9246   */\n      add\n        /* \"#utility.yul\":9225:9277   */\n      mstore\n        /* \"#utility.yul\":9108:9284   */\n      pop\n      jump\t// out\n        /* \"#utility.yul\":9290:9656   */\n    tag_185:\n        /* \"#utility.yul\":9432:9435   */\n      0x00\n        /* \"#utility.yul\":9453:9520   */\n      tag_300\n        /* \"#utility.yul\":9517:9519   */\n      0x1a\n        /* \"#utility.yul\":9512:9515   */\n      dup4\n        /* \"#utility.yul\":9453:9520   */\n      tag_177\n      jump\t// in\n    tag_300:\n        /* \"#utility.yul\":9446:9520   */\n      swap2\n      pop\n        /* \"#utility.yul\":9529:9622   */\n      tag_301\n        /* \"#utility.yul\":9618:9621   */\n      dup3\n        /* \"#utility.yul\":9529:9622   */\n      tag_184\n      jump\t// in\n    tag_301:\n        /* \"#utility.yul\":9647:9649   */\n      0x20\n        /* \"#utility.yul\":9642:9645   */\n      dup3\n        /* \"#utility.yul\":9638:9650   */\n      add\n        /* \"#utility.yul\":9631:9650   */\n      swap1\n      pop\n        /* \"#utility.yul\":9290:9656   */\n      swap2\n      swap1\n      pop\n      jump\t// out\n        /* \"#utility.yul\":9662:10081   */\n    tag_85:\n        /* \"#utility.yul\":9828:9832   */\n      0x00\n        /* \"#utility.yul\":9866:9868   */\n      0x20\n        /* \"#utility.yul\":9855:9864   */\n      dup3\n        /* \"#utility.yul\":9851:9869   */\n      add\n        /* \"#utility.yul\":9843:9869   */\n      swap1\n      pop\n        /* \"#utility.yul\":9915:9924   */\n      dup2\n        /* \"#utility.yul\":9909:9913   */\n      dup2\n        /* \"#utility.yul\":9905:9925   */\n      sub\n        /* \"#utility.yul\":9901:9902   */\n      0x00\n        /* \"#utility.yul\":9890:9899   */\n      dup4\n        /* \"#utility.yul\":9886:9903   */\n      add\n        /* \"#utility.yul\":9879:9926   */\n      mstore\n        /* \"#utility.yul\":9943:10074   */\n      tag_303\n        /* \"#utility.yul\":10069:10073   */\n      dup2\n        /* \"#utility.yul\":9943:10074   */\n      tag_185\n      jump\t// in\n    tag_303:\n        /* \"#utility.yul\":9935:10074   */\n      swap1\n      pop\n        /* \"#utility.yul\":9662:10081   */\n      swap2\n      swap1\n      pop\n      jump\t// out\n        /* \"#utility.yul\":10087:10253   */\n    tag_186:\n        /* \"#utility.yul\":10227:10245   */\n      0x4e6f7420656e6f75676820657468657200000000000000000000000000000000\n        /* \"#utility.yul\":10223:10224   */\n      0x00\n        /* \"#utility.yul\":10215:10221   */\n      dup3\n        /* \"#utility.yul\":10211:10225   */\n      add\n        /* \"#utility.yul\":10204:10246   */\n      mstore\n        /* \"#utility.yul\":10087:10253   */\n      pop\n      jump\t// out\n        /* \"#utility.yul\":10259:10625   */\n    tag_187:\n        /* \"#utility.yul\":10401:10404   */\n      0x00\n        /* \"#utility.yul\":10422:10489   */\n      tag_306\n        /* \"#utility.yul\":10486:10488   */\n      0x10\n        /* \"#utility.yul\":10481:10484   */\n      dup4\n        /* \"#utility.yul\":10422:10489   */\n      tag_177\n      jump\t// in\n    tag_306:\n        /* \"#utility.yul\":10415:10489   */\n      swap2\n      pop\n        /* \"#utility.yul\":10498:10591   */\n      tag_307\n        /* \"#utility.yul\":10587:10590   */\n      dup3\n        /* \"#utility.yul\":10498:10591   */\n      tag_186\n      jump\t// in\n    tag_307:\n        /* \"#utility.yul\":10616:10618   */\n      0x20\n        /* \"#utility.yul\":10611:10614   */\n      dup3\n        /* \"#utility.yul\":10607:10619   */\n      add\n        /* \"#utility.yul\":10600:10619   */\n      swap1\n      pop\n        /* \"#utility.yul\":10259:10625   */\n      swap2\n      swap1\n      pop\n      jump\t// out\n        /* \"#utility.yul\":10631:11050   */\n    tag_95:\n        /* \"#utility.yul\":10797:10801   */\n      0x00\n        /* \"#utility.yul\":10835:10837   */\n      0x20\n        /* \"#utility.yul\":10824:10833   */\n      dup3\n        /* \"#utility.yul\":10820:10838   */\n      add\n        /* \"#utility.yul\":10812:10838   */\n      swap1\n      pop\n        /* \"#utility.yul\":10884:10893   */\n      dup2\n        /* \"#utility.yul\":10878:10882   */\n      dup2\n        /* \"#utility.yul\":10874:10894   */\n      sub\n        /* \"#utility.yul\":10870:10871   */\n      0x00\n        /* \"#utility.yul\":10859:10868   */\n      dup4\n        /* \"#utility.yul\":10855:10872   */\n      add\n        /* \"#utility.yul\":10848:10895   */\n      mstore\n        /* \"#utility.yul\":10912:11043   */\n      tag_309\n        /* \"#utility.yul\":11038:11042   */\n      dup2\n        /* \"#utility.yul\":10912:11043   */\n      tag_187\n      jump\t// in\n    tag_309:\n        /* \"#utility.yul\":10904:11043   */\n      swap1\n      pop\n        /* \"#utility.yul\":10631:11050   */\n      swap2\n      swap1\n      pop\n      jump\t// out\n        /* \"#utility.yul\":11056:11289   */\n    tag_97:\n        /* \"#utility.yul\":11095:11098   */\n      0x00\n        /* \"#utility.yul\":11118:11142   */\n      tag_311\n        /* \"#utility.yul\":11136:11141   */\n      dup3\n        /* \"#utility.yul\":11118:11142   */\n      tag_153\n      jump\t// in\n    tag_311:\n        /* \"#utility.yul\":11109:11142   */\n      swap2\n      pop\n        /* \"#utility.yul\":11164:11230   */\n      0xffffffffffffffffffffffffffffffffffffffffffffffffffffffffffffffff\n        /* \"#utility.yul\":11157:11162   */\n      dup3\n        /* \"#utility.yul\":11154:11231   */\n      sub\n        /* \"#utility.yul\":11151:11254   */\n      tag_312\n      jumpi\n        /* \"#utility.yul\":11234:11252   */\n      tag_313\n      tag_180\n      jump\t// in\n    tag_313:\n        /* \"#utility.yul\":11151:11254   */\n    tag_312:\n        /* \"#utility.yul\":11281:11282   */\n      0x01\n        /* \"#utility.yul\":11274:11279   */\n      dup3\n        /* \"#utility.yul\":11270:11283   */\n      add\n        /* \"#utility.yul\":11263:11283   */\n      swap1\n      pop\n        /* \"#utility.yul\":11056:11289   */\n      swap2\n      swap1\n      pop\n      jump\t// out\n        /* \"#utility.yul\":11295:11486   */\n    tag_99:\n        /* \"#utility.yul\":11335:11338   */\n      0x00\n        /* \"#utility.yul\":11354:11374   */\n      tag_315\n        /* \"#utility.yul\":11372:11373   */\n      dup3\n        /* \"#utility.yul\":11354:11374   */\n      tag_153\n      jump\t// in\n    tag_315:\n        /* \"#utility.yul\":11349:11374   */\n      swap2\n      pop\n        /* \"#utility.yul\":11388:11408   */\n      tag_316\n        /* \"#utility.yul\":11406:11407   */\n      dup4\n        /* \"#utility.yul\":11388:11408   */\n      tag_153\n      jump\t// in\n    tag_316:\n        /* \"#utility.yul\":11383:11408   */\n      swap3\n      pop\n        /* \"#utility.yul\":11431:11432   */\n      dup3\n        /* \"#utility.yul\":11428:11429   */\n      dup3\n        /* \"#utility.yul\":11424:11433   */\n      add\n        /* \"#utility.yul\":11417:11433   */\n      swap1\n      pop\n        /* \"#utility.yul\":11452:11455   */\n      dup1\n        /* \"#utility.yul\":11449:11450   */\n      dup3\n        /* \"#utility.yul\":11446:11456   */\n      gt\n        /* \"#utility.yul\":11443:11479   */\n      iszero\n      tag_317\n      jumpi\n        /* \"#utility.yul\":11459:11477   */\n      tag_318\n      tag_180\n      jump\t// in\n    tag_318:\n        /* \"#utility.yul\":11443:11479   */\n    tag_317:\n        /* \"#utility.yul\":11295:11486   */\n      swap3\n      swap2\n      pop\n      pop\n      jump\t// out\n        /* \"#utility.yul\":11492:11669   */\n    tag_188:\n        /* \"#utility.yul\":11632:11661   */\n      0x4e6f7420656e6f75676820457468657220696e206163636f756e740000000000\n        /* \"#utility.yul\":11628:11629   */\n      0x00\n        /* \"#utility.yul\":11620:11626   */\n      dup3\n        /* \"#utility.yul\":11616:11630   */\n      add\n        /* \"#utility.yul\":11609:11662   */\n      mstore\n        /* \"#utility.yul\":11492:11669   */\n      pop\n      jump\t// out\n        /* \"#utility.yul\":11675:12041   */\n    tag_189:\n        /* \"#utility.yul\":11817:11820   */\n      0x00\n        /* \"#utility.yul\":11838:11905   */\n      tag_321\n        /* \"#utility.yul\":11902:11904   */\n      0x1b\n        /* \"#utility.yul\":11897:11900   */\n      dup4\n        /* \"#utility.yul\":11838:11905   */\n      tag_177\n      jump\t// in\n    tag_321:\n        /* \"#utility.yul\":11831:11905   */\n      swap2\n      pop\n        /* \"#utility.yul\":11914:12007   */\n      tag_322\n        /* \"#utility.yul\":12003:12006   */\n      dup3\n        /* \"#utility.yul\":11914:12007   */\n      tag_188\n      jump\t// in\n    tag_322:\n        /* \"#utility.yul\":12032:12034   */\n      0x20\n        /* \"#utility.yul\":12027:12030   */\n      dup3\n        /* \"#utility.yul\":12023:12035   */\n      add\n        /* \"#utility.yul\":12016:12035   */\n      swap1\n      pop\n        /* \"#utility.yul\":11675:12041   */\n      swap2\n      swap1\n      pop\n      jump\t// out\n        /* \"#utility.yul\":12047:12466   */\n    tag_105:\n        /* \"#utility.yul\":12213:12217   */\n      0x00\n        /* \"#utility.yul\":12251:12253   */\n      0x20\n        /* \"#utility.yul\":12240:12249   */\n      dup3\n        /* \"#utility.yul\":12236:12254   */\n      add\n        /* \"#utility.yul\":12228:12254   */\n      swap1\n      pop\n        /* \"#utility.yul\":12300:12309   */\n      dup2\n        /* \"#utility.yul\":12294:12298   */\n      dup2\n        /* \"#utility.yul\":12290:12310   */\n      sub\n        /* \"#utility.yul\":12286:12287   */\n      0x00\n        /* \"#utility.yul\":12275:12284   */\n      dup4\n        /* \"#utility.yul\":12271:12288   */\n      add\n        /* \"#utility.yul\":12264:12311   */\n      mstore\n        /* \"#utility.yul\":12328:12459   */\n      tag_324\n        /* \"#utility.yul\":12454:12458   */\n      dup2\n        /* \"#utility.yul\":12328:12459   */\n      tag_189\n      jump\t// in\n    tag_324:\n        /* \"#utility.yul\":12320:12459   */\n      swap1\n      pop\n        /* \"#utility.yul\":12047:12466   */\n      swap2\n      swap1\n      pop\n      jump\t// out\n        /* \"#utility.yul\":12472:12701   */\n    tag_190:\n        /* \"#utility.yul\":12612:12646   */\n      0x43616e6e6f74206775657373206d6f7265207468616e203320706f737369626c\n        /* \"#utility.yul\":12608:12609   */\n      0x00\n        /* \"#utility.yul\":12600:12606   */\n      dup3\n        /* \"#utility.yul\":12596:12610   */\n      add\n        /* \"#utility.yul\":12589:12647   */\n      mstore\n        /* \"#utility.yul\":12681:12693   */\n      0x65206f7574636f6d657300000000000000000000000000000000000000000000\n        /* \"#utility.yul\":12676:12678   */\n      0x20\n        /* \"#utility.yul\":12668:12674   */\n      dup3\n        /* \"#utility.yul\":12664:12679   */\n      add\n        /* \"#utility.yul\":12657:12694   */\n      mstore\n        /* \"#utility.yul\":12472:12701   */\n      pop\n      jump\t// out\n        /* \"#utility.yul\":12707:13073   */\n    tag_191:\n        /* \"#utility.yul\":12849:12852   */\n      0x00\n        /* \"#utility.yul\":12870:12937   */\n      tag_327\n        /* \"#utility.yul\":12934:12936   */\n      0x2a\n        /* \"#utility.yul\":12929:12932   */\n      dup4\n        /* \"#utility.yul\":12870:12937   */\n      tag_177\n      jump\t// in\n    tag_327:\n        /* \"#utility.yul\":12863:12937   */\n      swap2\n      pop\n        /* \"#utility.yul\":12946:13039   */\n      tag_328\n        /* \"#utility.yul\":13035:13038   */\n      dup3\n        /* \"#utility.yul\":12946:13039   */\n      tag_190\n      jump\t// in\n    tag_328:\n        /* \"#utility.yul\":13064:13066   */\n      0x40\n        /* \"#utility.yul\":13059:13062   */\n      dup3\n        /* \"#utility.yul\":13055:13067   */\n      add\n        /* \"#utility.yul\":13048:13067   */\n      swap1\n      pop\n        /* \"#utility.yul\":12707:13073   */\n      swap2\n      swap1\n      pop\n      jump\t// out\n        /* \"#utility.yul\":13079:13498   */\n    tag_108:\n        /* \"#utility.yul\":13245:13249   */\n      0x00\n        /* \"#utility.yul\":13283:13285   */\n      0x20\n        /* \"#utility.yul\":13272:13281   */\n      dup3\n        /* \"#utility.yul\":13268:13286   */\n      add\n        /* \"#utility.yul\":13260:13286   */\n      swap1\n      pop\n        /* \"#utility.yul\":13332:13341   */\n      dup2\n        /* \"#utility.yul\":13326:13330   */\n      dup2\n        /* \"#utility.yul\":13322:13342   */\n      sub\n        /* \"#utility.yul\":13318:13319   */\n      0x00\n        /* \"#utility.yul\":13307:13316   */\n      dup4\n        /* \"#utility.yul\":13303:13320   */\n      add\n        /* \"#utility.yul\":13296:13343   */\n      mstore\n        /* \"#utility.yul\":13360:13491   */\n      tag_330\n        /* \"#utility.yul\":13486:13490   */\n      dup2\n        /* \"#utility.yul\":13360:13491   */\n      tag_191\n      jump\t// in\n    tag_330:\n        /* \"#utility.yul\":13352:13491   */\n      swap1\n      pop\n        /* \"#utility.yul\":13079:13498   */\n      swap2\n      swap1\n      pop\n      jump\t// out\n        /* \"#utility.yul\":13504:13684   */\n    tag_114:\n        /* \"#utility.yul\":13552:13629   */\n      0x4e487b7100000000000000000000000000000000000000000000000000000000\n        /* \"#utility.yul\":13549:13550   */\n      0x00\n        /* \"#utility.yul\":13542:13630   */\n      mstore\n        /* \"#utility.yul\":13649:13653   */\n      0x32\n        /* \"#utility.yul\":13646:13647   */\n      0x04\n        /* \"#utility.yul\":13639:13654   */\n      mstore\n        /* \"#utility.yul\":13673:13677   */\n      0x24\n        /* \"#utility.yul\":13670:13671   */\n      0x00\n        /* \"#utility.yul\":13663:13678   */\n      revert\n        /* \"#utility.yul\":13690:13857   */\n    tag_192:\n        /* \"#utility.yul\":13830:13849   */\n      0x4775657373206e756d6265727320312d36000000000000000000000000000000\n        /* \"#utility.yul\":13826:13827   */\n      0x00\n        /* \"#utility.yul\":13818:13824   */\n      dup3\n        /* \"#utility.yul\":13814:13828   */\n      add\n        /* \"#utility.yul\":13807:13850   */\n      mstore\n        /* \"#utility.yul\":13690:13857   */\n      pop\n      jump\t// out\n        /* \"#utility.yul\":13863:14229   */\n    tag_193:\n        /* \"#utility.yul\":14005:14008   */\n      0x00\n        /* \"#utility.yul\":14026:14093   */\n      tag_334\n        /* \"#utility.yul\":14090:14092   */\n      0x11\n        /* \"#utility.yul\":14085:14088   */\n      dup4\n        /* \"#utility.yul\":14026:14093   */\n      tag_177\n      jump\t// in\n    tag_334:\n        /* \"#utility.yul\":14019:14093   */\n      swap2\n      pop\n        /* \"#utility.yul\":14102:14195   */\n      tag_335\n        /* \"#utility.yul\":14191:14194   */\n      dup3\n        /* \"#utility.yul\":14102:14195   */\n      tag_192\n      jump\t// in\n    tag_335:\n        /* \"#utility.yul\":14220:14222   */\n      0x20\n        /* \"#utility.yul\":14215:14218   */\n      dup3\n        /* \"#utility.yul\":14211:14223   */\n      add\n        /* \"#utility.yul\":14204:14223   */\n      swap1\n      pop\n        /* \"#utility.yul\":13863:14229   */\n      swap2\n      swap1\n      pop\n      jump\t// out\n        /* \"#utility.yul\":14235:14654   */\n    tag_120:\n        /* \"#utility.yul\":14401:14405   */\n      0x00\n        /* \"#utility.yul\":14439:14441   */\n      0x20\n        /* \"#utility.yul\":14428:14437   */\n      dup3\n        /* \"#utility.yul\":14424:14442   */\n      add\n        /* \"#utility.yul\":14416:14442   */\n      swap1\n      pop\n        /* \"#utility.yul\":14488:14497   */\n      dup2\n        /* \"#utility.yul\":14482:14486   */\n      dup2\n        /* \"#utility.yul\":14478:14498   */\n      sub\n        /* \"#utility.yul\":14474:14475   */\n      0x00\n        /* \"#utility.yul\":14463:14472   */\n      dup4\n        /* \"#utility.yul\":14459:14476   */\n      add\n        /* \"#utility.yul\":14452:14499   */\n      mstore\n        /* \"#utility.yul\":14516:14647   */\n      tag_337\n        /* \"#utility.yul\":14642:14646   */\n      dup2\n        /* \"#utility.yul\":14516:14647   */\n      tag_193\n      jump\t// in\n    tag_337:\n        /* \"#utility.yul\":14508:14647   */\n      swap1\n      pop\n        /* \"#utility.yul\":14235:14654   */\n      swap2\n      swap1\n      pop\n      jump\t// out\n        /* \"#utility.yul\":14660:14746   */\n    tag_194:\n        /* \"#utility.yul\":14695:14702   */\n      0x00\n        /* \"#utility.yul\":14735:14739   */\n      0xff\n        /* \"#utility.yul\":14728:14733   */\n      dup3\n        /* \"#utility.yul\":14724:14740   */\n      and\n        /* \"#utility.yul\":14713:14740   */\n      swap1\n      pop\n        /* \"#utility.yul\":14660:14746   */\n      swap2\n      swap1\n      pop\n      jump\t// out\n        /* \"#utility.yul\":14752:14919   */\n    tag_122:\n        /* \"#utility.yul\":14789:14792   */\n      0x00\n        /* \"#utility.yul\":14812:14834   */\n      tag_340\n        /* \"#utility.yul\":14828:14833   */\n      dup3\n        /* \"#utility.yul\":14812:14834   */\n      tag_194\n      jump\t// in\n    tag_340:\n        /* \"#utility.yul\":14803:14834   */\n      swap2\n      pop\n        /* \"#utility.yul\":14856:14860   */\n      0xff\n        /* \"#utility.yul\":14849:14854   */\n      dup3\n        /* \"#utility.yul\":14846:14861   */\n      sub\n        /* \"#utility.yul\":14843:14884   */\n      tag_341\n      jumpi\n        /* \"#utility.yul\":14864:14882   */\n      tag_342\n      tag_180\n      jump\t// in\n    tag_342:\n        /* \"#utility.yul\":14843:14884   */\n    tag_341:\n        /* \"#utility.yul\":14911:14912   */\n      0x01\n        /* \"#utility.yul\":14904:14909   */\n      dup3\n        /* \"#utility.yul\":14900:14913   */\n      add\n        /* \"#utility.yul\":14893:14913   */\n      swap1\n      pop\n        /* \"#utility.yul\":14752:14919   */\n      swap2\n      swap1\n      pop\n      jump\t// out\n        /* \"#utility.yul\":14925:15150   */\n    tag_195:\n        /* \"#utility.yul\":15065:15099   */\n      0x4f776e61626c653a206e6577206f776e657220697320746865207a65726f2061\n        /* \"#utility.yul\":15061:15062   */\n      0x00\n        /* \"#utility.yul\":15053:15059   */\n      dup3\n        /* \"#utility.yul\":15049:15063   */\n      add\n        /* \"#utility.yul\":15042:15100   */\n      mstore\n        /* \"#utility.yul\":15134:15142   */\n      0x6464726573730000000000000000000000000000000000000000000000000000\n        /* \"#utility.yul\":15129:15131   */\n      0x20\n        /* \"#utility.yul\":15121:15127   */\n      dup3\n        /* \"#utility.yul\":15117:15132   */\n      add\n        /* \"#utility.yul\":15110:15143   */\n      mstore\n        /* \"#utility.yul\":14925:15150   */\n      pop\n      jump\t// out\n        /* \"#utility.yul\":15156:15522   */\n    tag_196:\n        /* \"#utility.yul\":15298:15301   */\n      0x00\n        /* \"#utility.yul\":15319:15386   */\n      tag_345\n        /* \"#utility.yul\":15383:15385   */\n      0x26\n        /* \"#utility.yul\":15378:15381   */\n      dup4\n        /* \"#utility.yul\":15319:15386   */\n      tag_177\n      jump\t// in\n    tag_345:\n        /* \"#utility.yul\":15312:15386   */\n      swap2\n      pop\n        /* \"#utility.yul\":15395:15488   */\n      tag_346\n        /* \"#utility.yul\":15484:15487   */\n      dup3\n        /* \"#utility.yul\":15395:15488   */\n      tag_195\n      jump\t// in\n    tag_346:\n        /* \"#utility.yul\":15513:15515   */\n      0x40\n        /* \"#utility.yul\":15508:15511   */\n      dup3\n        /* \"#utility.yul\":15504:15516   */\n      add\n        /* \"#utility.yul\":15497:15516   */\n      swap1\n      pop\n        /* \"#utility.yul\":15156:15522   */\n      swap2\n      swap1\n      pop\n      jump\t// out\n        /* \"#utility.yul\":15528:15947   */\n    tag_139:\n        /* \"#utility.yul\":15694:15698   */\n      0x00\n        /* \"#utility.yul\":15732:15734   */\n      0x20\n        /* \"#utility.yul\":15721:15730   */\n      dup3\n        /* \"#utility.yul\":15717:15735   */\n      add\n        /* \"#utility.yul\":15709:15735   */\n      swap1\n      pop\n        /* \"#utility.yul\":15781:15790   */\n      dup2\n        /* \"#utility.yul\":15775:15779   */\n      dup2\n        /* \"#utility.yul\":15771:15791   */\n      sub\n        /* \"#utility.yul\":15767:15768   */\n      0x00\n        /* \"#utility.yul\":15756:15765   */\n      dup4\n        /* \"#utility.yul\":15752:15769   */\n      add\n        /* \"#utility.yul\":15745:15792   */\n      mstore\n        /* \"#utility.yul\":15809:15940   */\n      tag_348\n        /* \"#utility.yul\":15935:15939   */\n      dup2\n        /* \"#utility.yul\":15809:15940   */\n      tag_196\n      jump\t// in\n    tag_348:\n        /* \"#utility.yul\":15801:15940   */\n      swap1\n      pop\n        /* \"#utility.yul\":15528:15947   */\n      swap2\n      swap1\n      pop\n      jump\t// out\n        /* \"#utility.yul\":15953:16135   */\n    tag_197:\n        /* \"#utility.yul\":16093:16127   */\n      0x4f776e61626c653a2063616c6c6572206973206e6f7420746865206f776e6572\n        /* \"#utility.yul\":16089:16090   */\n      0x00\n        /* \"#utility.yul\":16081:16087   */\n      dup3\n        /* \"#utility.yul\":16077:16091   */\n      add\n        /* \"#utility.yul\":16070:16128   */\n      mstore\n        /* \"#utility.yul\":15953:16135   */\n      pop\n      jump\t// out\n        /* \"#utility.yul\":16141:16507   */\n    tag_198:\n        /* \"#utility.yul\":16283:16286   */\n      0x00\n        /* \"#utility.yul\":16304:16371   */\n      tag_351\n        /* \"#utility.yul\":16368:16370   */\n      0x20\n        /* \"#utility.yul\":16363:16366   */\n      dup4\n        /* \"#utility.yul\":16304:16371   */\n      tag_177\n      jump\t// in\n    tag_351:\n        /* \"#utility.yul\":16297:16371   */\n      swap2\n      pop\n        /* \"#utility.yul\":16380:16473   */\n      tag_352\n        /* \"#utility.yul\":16469:16472   */\n      dup3\n        /* \"#utility.yul\":16380:16473   */\n      tag_197\n      jump\t// in\n    tag_352:\n        /* \"#utility.yul\":16498:16500   */\n      0x20\n        /* \"#utility.yul\":16493:16496   */\n      dup3\n        /* \"#utility.yul\":16489:16501   */\n      add\n        /* \"#utility.yul\":16482:16501   */\n      swap1\n      pop\n        /* \"#utility.yul\":16141:16507   */\n      swap2\n      swap1\n      pop\n      jump\t// out\n        /* \"#utility.yul\":16513:16932   */\n    tag_147:\n        /* \"#utility.yul\":16679:16683   */\n      0x00\n        /* \"#utility.yul\":16717:16719   */\n      0x20\n        /* \"#utility.yul\":16706:16715   */\n      dup3\n        /* \"#utility.yul\":16702:16720   */\n      add\n        /* \"#utility.yul\":16694:16720   */\n      swap1\n      pop\n        /* \"#utility.yul\":16766:16775   */\n      dup2\n        /* \"#utility.yul\":16760:16764   */\n      dup2\n        /* \"#utility.yul\":16756:16776   */\n      sub\n        /* \"#utility.yul\":16752:16753   */\n      0x00\n        /* \"#utility.yul\":16741:16750   */\n      dup4\n        /* \"#utility.yul\":16737:16754   */\n      add\n        /* \"#utility.yul\":16730:16777   */\n      mstore\n        /* \"#utility.yul\":16794:16925   */\n      tag_354\n        /* \"#utility.yul\":16920:16924   */\n      dup2\n        /* \"#utility.yul\":16794:16925   */\n      tag_198\n      jump\t// in\n    tag_354:\n        /* \"#utility.yul\":16786:16925   */\n      swap1\n      pop\n        /* \"#utility.yul\":16513:16932   */\n      swap2\n      swap1\n      pop\n      jump\t// out\n        /* \"#utility.yul\":16938:17270   */\n    tag_150:\n        /* \"#utility.yul\":17059:17063   */\n      0x00\n        /* \"#utility.yul\":17097:17099   */\n      0x40\n        /* \"#utility.yul\":17086:17095   */\n      dup3\n        /* \"#utility.yul\":17082:17100   */\n      add\n        /* \"#utility.yul\":17074:17100   */\n      swap1\n      pop\n        /* \"#utility.yul\":17110:17181   */\n      tag_356\n        /* \"#utility.yul\":17178:17179   */\n      0x00\n        /* \"#utility.yul\":17167:17176   */\n      dup4\n        /* \"#utility.yul\":17163:17180   */\n      add\n        /* \"#utility.yul\":17154:17160   */\n      dup6\n        /* \"#utility.yul\":17110:17181   */\n      tag_154\n      jump\t// in\n    tag_356:\n        /* \"#utility.yul\":17191:17263   */\n      tag_357\n        /* \"#utility.yul\":17259:17261   */\n      0x20\n        /* \"#utility.yul\":17248:17257   */\n      dup4\n        /* \"#utility.yul\":17244:17262   */\n      add\n        /* \"#utility.yul\":17235:17241   */\n      dup5\n        /* \"#utility.yul\":17191:17263   */\n      tag_154\n      jump\t// in\n    tag_357:\n        /* \"#utility.yul\":16938:17270   */\n      swap4\n      swap3\n      pop\n      pop\n      pop\n      jump\t// out\n\n    auxdata: 0xa26469706673582212203cf2551348dce7d6b72aad5eb8171a21bf19200ae7ecf7ac5551b22336b1ab4364736f6c63430008100033\n}\n",
				"bytecode": {
					"linkReferences": {},
					"object": "60806040526000600355600060045534801561001a57600080fd5b5061003761002c61004260201b60201c565b61004a60201b60201c565b60003390505061010e565b600033905090565b60008060009054906101000a900473ffffffffffffffffffffffffffffffffffffffff169050816000806101000a81548173ffffffffffffffffffffffffffffffffffffffff021916908373ffffffffffffffffffffffffffffffffffffffff1602179055508173ffffffffffffffffffffffffffffffffffffffff168173ffffffffffffffffffffffffffffffffffffffff167f8be0079c531659141344cd1fd0a4f28419497f9722a3daafe3b4186f6b6457e060405160405180910390a35050565b6113e38061011d6000396000f3fe60806040526004361061009c5760003560e01c80638da5cb5b116100645780638da5cb5b14610153578063c1af57851461017e578063d0e30db014610195578063ed1c274f1461019f578063ed7892f2146101dc578063f2fde38b146102195761009c565b80631a0843c0146100a157806327e235e3146100cc57806327e605ec146101095780632e1a7d4d14610113578063715018a61461013c575b600080fd5b3480156100ad57600080fd5b506100b6610242565b6040516100c39190610a8f565b60405180910390f35b3480156100d857600080fd5b506100f360048036038101906100ee9190610b1c565b61024a565b6040516101009190610a8f565b60405180910390f35b610111610262565b005b34801561011f57600080fd5b5061013a60048036038101906101359190610b75565b610315565b005b34801561014857600080fd5b5061015161049d565b005b34801561015f57600080fd5b506101686104b1565b6040516101759190610bb1565b60405180910390f35b34801561018a57600080fd5b506101936104da565b005b61019d6105f3565b005b3480156101ab57600080fd5b506101c660048036038101906101c19190610b75565b61064b565b6040516101d39190610bb1565b60405180910390f35b3480156101e857600080fd5b5061020360048036038101906101fe9190610d25565b61067e565b6040516102109190610d9c565b60405180910390f35b34801561022557600080fd5b50610240600480360381019061023b9190610b1c565b610876565b005b600047905090565b60016020528060005260406000206000915090505481565b61026a6108f9565b600354610275610977565b61027f9190610de6565b60038190555060026000600354815260200190815260200160002060009054906101000a900473ffffffffffffffffffffffffffffffffffffffff1673ffffffffffffffffffffffffffffffffffffffff166108fc6004549081150290604051600060405180830381858888f19350505050158015610302573d6000803e3d6000fd5b5060006003819055506000600481905550565b80600160003373ffffffffffffffffffffffffffffffffffffffff1673ffffffffffffffffffffffffffffffffffffffff168152602001908152602001600020541015610397576040517f08c379a000000000000000000000000000000000000000000000000000000000815260040161038e90610e74565b60405180910390fd5b80600160003373ffffffffffffffffffffffffffffffffffffffff1673ffffffffffffffffffffffffffffffffffffffff16815260200190815260200160002060008282546103e69190610ec3565b9250508190555060003373ffffffffffffffffffffffffffffffffffffffff168260405161041390610f4e565b60006040518083038185875af1925050503d8060008114610450576040519150601f19603f3d011682016040523d82523d6000602084013e610455565b606091505b5050905080610499576040517f08c379a000000000000000000000000000000000000000000000000000000000815260040161049090610faf565b60405180910390fd5b5050565b6104a56108f9565b6104af60006109aa565b565b60008060009054906101000a900473ffffffffffffffffffffffffffffffffffffffff16905090565b670de0b6b3a7640000600160003373ffffffffffffffffffffffffffffffffffffffff1673ffffffffffffffffffffffffffffffffffffffff168152602001908152602001600020541015610564576040517f08c379a000000000000000000000000000000000000000000000000000000000815260040161055b9061101b565b60405180910390fd5b3360026000600354815260200190815260200160002060006101000a81548173ffffffffffffffffffffffffffffffffffffffff021916908373ffffffffffffffffffffffffffffffffffffffff160217905550600360008154809291906105cb9061103b565b9190505550670de0b6b3a7640000600460008282546105ea9190611083565b92505081905550565b34600160003373ffffffffffffffffffffffffffffffffffffffff1673ffffffffffffffffffffffffffffffffffffffff16815260200190815260200160002060008282546106429190611083565b92505081905550565b60026020528060005260406000206000915054906101000a900473ffffffffffffffffffffffffffffffffffffffff1681565b6000600160003373ffffffffffffffffffffffffffffffffffffffff1673ffffffffffffffffffffffffffffffffffffffff16815260200190815260200160002054821115610702576040517f08c379a00000000000000000000000000000000000000000000000000000000081526004016106f990611103565b60405180910390fd5b600383511015610747576040517f08c379a000000000000000000000000000000000000000000000000000000000815260040161073e90611195565b60405180910390fd5b60005b83518160ff1610156107f4576006848260ff168151811061076e5761076d6111b5565b5b6020026020010151111580156107a257506001848260ff1681518110610797576107966111b5565b5b602002602001015110155b6107e1576040517f08c379a00000000000000000000000000000000000000000000000000000000081526004016107d890611230565b60405180910390fd5b80806107ec9061125d565b91505061074a565b50600060016006610803610977565b61080d9190610de6565b6108179190611083565b90506000805b85518160ff16101561086a5782868260ff16815181106108405761083f6111b5565b5b602002602001015114610854578115610856565b815b5080806108629061125d565b91505061081d565b50809250505092915050565b61087e6108f9565b600073ffffffffffffffffffffffffffffffffffffffff168173ffffffffffffffffffffffffffffffffffffffff16036108ed576040517f08c379a00000000000000000000000000000000000000000000000000000000081526004016108e4906112f8565b60405180910390fd5b6108f6816109aa565b50565b610901610a6e565b73ffffffffffffffffffffffffffffffffffffffff1661091f6104b1565b73ffffffffffffffffffffffffffffffffffffffff1614610975576040517f08c379a000000000000000000000000000000000000000000000000000000000815260040161096c90611364565b60405180910390fd5b565b6000424360405160200161098c929190611384565b6040516020818303038152906040528051906020012060001c905090565b60008060009054906101000a900473ffffffffffffffffffffffffffffffffffffffff169050816000806101000a81548173ffffffffffffffffffffffffffffffffffffffff021916908373ffffffffffffffffffffffffffffffffffffffff1602179055508173ffffffffffffffffffffffffffffffffffffffff168173ffffffffffffffffffffffffffffffffffffffff167f8be0079c531659141344cd1fd0a4f28419497f9722a3daafe3b4186f6b6457e060405160405180910390a35050565b600033905090565b6000819050919050565b610a8981610a76565b82525050565b6000602082019050610aa46000830184610a80565b92915050565b6000604051905090565b600080fd5b600080fd5b600073ffffffffffffffffffffffffffffffffffffffff82169050919050565b6000610ae982610abe565b9050919050565b610af981610ade565b8114610b0457600080fd5b50565b600081359050610b1681610af0565b92915050565b600060208284031215610b3257610b31610ab4565b5b6000610b4084828501610b07565b91505092915050565b610b5281610a76565b8114610b5d57600080fd5b50565b600081359050610b6f81610b49565b92915050565b600060208284031215610b8b57610b8a610ab4565b5b6000610b9984828501610b60565b91505092915050565b610bab81610ade565b82525050565b6000602082019050610bc66000830184610ba2565b92915050565b600080fd5b6000601f19601f8301169050919050565b7f4e487b7100000000000000000000000000000000000000000000000000000000600052604160045260246000fd5b610c1a82610bd1565b810181811067ffffffffffffffff82111715610c3957610c38610be2565b5b80604052505050565b6000610c4c610aaa565b9050610c588282610c11565b919050565b600067ffffffffffffffff821115610c7857610c77610be2565b5b602082029050602081019050919050565b600080fd5b6000610ca1610c9c84610c5d565b610c42565b90508083825260208201905060208402830185811115610cc457610cc3610c89565b5b835b81811015610ced5780610cd98882610b60565b845260208401935050602081019050610cc6565b5050509392505050565b600082601f830112610d0c57610d0b610bcc565b5b8135610d1c848260208601610c8e565b91505092915050565b60008060408385031215610d3c57610d3b610ab4565b5b600083013567ffffffffffffffff811115610d5a57610d59610ab9565b5b610d6685828601610cf7565b9250506020610d7785828601610b60565b9150509250929050565b60008115159050919050565b610d9681610d81565b82525050565b6000602082019050610db16000830184610d8d565b92915050565b7f4e487b7100000000000000000000000000000000000000000000000000000000600052601260045260246000fd5b6000610df182610a76565b9150610dfc83610a76565b925082610e0c57610e0b610db7565b5b828206905092915050565b600082825260208201905092915050565b7f496e73756666696369656e742066756e647320746f2077697468647261772100600082015250565b6000610e5e601f83610e17565b9150610e6982610e28565b602082019050919050565b60006020820190508181036000830152610e8d81610e51565b9050919050565b7f4e487b7100000000000000000000000000000000000000000000000000000000600052601160045260246000fd5b6000610ece82610a76565b9150610ed983610a76565b9250828203905081811115610ef157610ef0610e94565b5b92915050565b600081905092915050565b7f73656e7400000000000000000000000000000000000000000000000000000000600082015250565b6000610f38600483610ef7565b9150610f4382610f02565b600482019050919050565b6000610f5982610f2b565b9150819050919050565b7f4661696c656420746f20776974686472617720616d6f756e7421000000000000600082015250565b6000610f99601a83610e17565b9150610fa482610f63565b602082019050919050565b60006020820190508181036000830152610fc881610f8c565b9050919050565b7f4e6f7420656e6f75676820657468657200000000000000000000000000000000600082015250565b6000611005601083610e17565b915061101082610fcf565b602082019050919050565b6000602082019050818103600083015261103481610ff8565b9050919050565b600061104682610a76565b91507fffffffffffffffffffffffffffffffffffffffffffffffffffffffffffffffff820361107857611077610e94565b5b600182019050919050565b600061108e82610a76565b915061109983610a76565b92508282019050808211156110b1576110b0610e94565b5b92915050565b7f4e6f7420656e6f75676820457468657220696e206163636f756e740000000000600082015250565b60006110ed601b83610e17565b91506110f8826110b7565b602082019050919050565b6000602082019050818103600083015261111c816110e0565b9050919050565b7f43616e6e6f74206775657373206d6f7265207468616e203320706f737369626c60008201527f65206f7574636f6d657300000000000000000000000000000000000000000000602082015250565b600061117f602a83610e17565b915061118a82611123565b604082019050919050565b600060208201905081810360008301526111ae81611172565b9050919050565b7f4e487b7100000000000000000000000000000000000000000000000000000000600052603260045260246000fd5b7f4775657373206e756d6265727320312d36000000000000000000000000000000600082015250565b600061121a601183610e17565b9150611225826111e4565b602082019050919050565b600060208201905081810360008301526112498161120d565b9050919050565b600060ff82169050919050565b600061126882611250565b915060ff820361127b5761127a610e94565b5b600182019050919050565b7f4f776e61626c653a206e6577206f776e657220697320746865207a65726f206160008201527f6464726573730000000000000000000000000000000000000000000000000000602082015250565b60006112e2602683610e17565b91506112ed82611286565b604082019050919050565b60006020820190508181036000830152611311816112d5565b9050919050565b7f4f776e61626c653a2063616c6c6572206973206e6f7420746865206f776e6572600082015250565b600061134e602083610e17565b915061135982611318565b602082019050919050565b6000602082019050818103600083015261137d81611341565b9050919050565b60006040820190506113996000830185610a80565b6113a66020830184610a80565b939250505056fea26469706673582212203cf2551348dce7d6b72aad5eb8171a21bf19200ae7ecf7ac5551b22336b1ab4364736f6c63430008100033",
					"opcodes": "PUSH1 0x80 PUSH1 0x40 MSTORE PUSH1 0x0 PUSH1 0x3 SSTORE PUSH1 0x0 PUSH1 0x4 SSTORE CALLVALUE DUP1 ISZERO PUSH2 0x1A JUMPI PUSH1 0x0 DUP1 REVERT JUMPDEST POP PUSH2 0x37 PUSH2 0x2C PUSH2 0x42 PUSH1 0x20 SHL PUSH1 0x20 SHR JUMP JUMPDEST PUSH2 0x4A PUSH1 0x20 SHL PUSH1 0x20 SHR JUMP JUMPDEST PUSH1 0x0 CALLER SWAP1 POP POP PUSH2 0x10E JUMP JUMPDEST PUSH1 0x0 CALLER SWAP1 POP SWAP1 JUMP JUMPDEST PUSH1 0x0 DUP1 PUSH1 0x0 SWAP1 SLOAD SWAP1 PUSH2 0x100 EXP SWAP1 DIV PUSH20 0xFFFFFFFFFFFFFFFFFFFFFFFFFFFFFFFFFFFFFFFF AND SWAP1 POP DUP2 PUSH1 0x0 DUP1 PUSH2 0x100 EXP DUP2 SLOAD DUP2 PUSH20 0xFFFFFFFFFFFFFFFFFFFFFFFFFFFFFFFFFFFFFFFF MUL NOT AND SWAP1 DUP4 PUSH20 0xFFFFFFFFFFFFFFFFFFFFFFFFFFFFFFFFFFFFFFFF AND MUL OR SWAP1 SSTORE POP DUP2 PUSH20 0xFFFFFFFFFFFFFFFFFFFFFFFFFFFFFFFFFFFFFFFF AND DUP2 PUSH20 0xFFFFFFFFFFFFFFFFFFFFFFFFFFFFFFFFFFFFFFFF AND PUSH32 0x8BE0079C531659141344CD1FD0A4F28419497F9722A3DAAFE3B4186F6B6457E0 PUSH1 0x40 MLOAD PUSH1 0x40 MLOAD DUP1 SWAP2 SUB SWAP1 LOG3 POP POP JUMP JUMPDEST PUSH2 0x13E3 DUP1 PUSH2 0x11D PUSH1 0x0 CODECOPY PUSH1 0x0 RETURN INVALID PUSH1 0x80 PUSH1 0x40 MSTORE PUSH1 0x4 CALLDATASIZE LT PUSH2 0x9C JUMPI PUSH1 0x0 CALLDATALOAD PUSH1 0xE0 SHR DUP1 PUSH4 0x8DA5CB5B GT PUSH2 0x64 JUMPI DUP1 PUSH4 0x8DA5CB5B EQ PUSH2 0x153 JUMPI DUP1 PUSH4 0xC1AF5785 EQ PUSH2 0x17E JUMPI DUP1 PUSH4 0xD0E30DB0 EQ PUSH2 0x195 JUMPI DUP1 PUSH4 0xED1C274F EQ PUSH2 0x19F JUMPI DUP1 PUSH4 0xED7892F2 EQ PUSH2 0x1DC JUMPI DUP1 PUSH4 0xF2FDE38B EQ PUSH2 0x219 JUMPI PUSH2 0x9C JUMP JUMPDEST DUP1 PUSH4 0x1A0843C0 EQ PUSH2 0xA1 JUMPI DUP1 PUSH4 0x27E235E3 EQ PUSH2 0xCC JUMPI DUP1 PUSH4 0x27E605EC EQ PUSH2 0x109 JUMPI DUP1 PUSH4 0x2E1A7D4D EQ PUSH2 0x113 JUMPI DUP1 PUSH4 0x715018A6 EQ PUSH2 0x13C JUMPI JUMPDEST PUSH1 0x0 DUP1 REVERT JUMPDEST CALLVALUE DUP1 ISZERO PUSH2 0xAD JUMPI PUSH1 0x0 DUP1 REVERT JUMPDEST POP PUSH2 0xB6 PUSH2 0x242 JUMP JUMPDEST PUSH1 0x40 MLOAD PUSH2 0xC3 SWAP2 SWAP1 PUSH2 0xA8F JUMP JUMPDEST PUSH1 0x40 MLOAD DUP1 SWAP2 SUB SWAP1 RETURN JUMPDEST CALLVALUE DUP1 ISZERO PUSH2 0xD8 JUMPI PUSH1 0x0 DUP1 REVERT JUMPDEST POP PUSH2 0xF3 PUSH1 0x4 DUP1 CALLDATASIZE SUB DUP2 ADD SWAP1 PUSH2 0xEE SWAP2 SWAP1 PUSH2 0xB1C JUMP JUMPDEST PUSH2 0x24A JUMP JUMPDEST PUSH1 0x40 MLOAD PUSH2 0x100 SWAP2 SWAP1 PUSH2 0xA8F JUMP JUMPDEST PUSH1 0x40 MLOAD DUP1 SWAP2 SUB SWAP1 RETURN JUMPDEST PUSH2 0x111 PUSH2 0x262 JUMP JUMPDEST STOP JUMPDEST CALLVALUE DUP1 ISZERO PUSH2 0x11F JUMPI PUSH1 0x0 DUP1 REVERT JUMPDEST POP PUSH2 0x13A PUSH1 0x4 DUP1 CALLDATASIZE SUB DUP2 ADD SWAP1 PUSH2 0x135 SWAP2 SWAP1 PUSH2 0xB75 JUMP JUMPDEST PUSH2 0x315 JUMP JUMPDEST STOP JUMPDEST CALLVALUE DUP1 ISZERO PUSH2 0x148 JUMPI PUSH1 0x0 DUP1 REVERT JUMPDEST POP PUSH2 0x151 PUSH2 0x49D JUMP JUMPDEST STOP JUMPDEST CALLVALUE DUP1 ISZERO PUSH2 0x15F JUMPI PUSH1 0x0 DUP1 REVERT JUMPDEST POP PUSH2 0x168 PUSH2 0x4B1 JUMP JUMPDEST PUSH1 0x40 MLOAD PUSH2 0x175 SWAP2 SWAP1 PUSH2 0xBB1 JUMP JUMPDEST PUSH1 0x40 MLOAD DUP1 SWAP2 SUB SWAP1 RETURN JUMPDEST CALLVALUE DUP1 ISZERO PUSH2 0x18A JUMPI PUSH1 0x0 DUP1 REVERT JUMPDEST POP PUSH2 0x193 PUSH2 0x4DA JUMP JUMPDEST STOP JUMPDEST PUSH2 0x19D PUSH2 0x5F3 JUMP JUMPDEST STOP JUMPDEST CALLVALUE DUP1 ISZERO PUSH2 0x1AB JUMPI PUSH1 0x0 DUP1 REVERT JUMPDEST POP PUSH2 0x1C6 PUSH1 0x4 DUP1 CALLDATASIZE SUB DUP2 ADD SWAP1 PUSH2 0x1C1 SWAP2 SWAP1 PUSH2 0xB75 JUMP JUMPDEST PUSH2 0x64B JUMP JUMPDEST PUSH1 0x40 MLOAD PUSH2 0x1D3 SWAP2 SWAP1 PUSH2 0xBB1 JUMP JUMPDEST PUSH1 0x40 MLOAD DUP1 SWAP2 SUB SWAP1 RETURN JUMPDEST CALLVALUE DUP1 ISZERO PUSH2 0x1E8 JUMPI PUSH1 0x0 DUP1 REVERT JUMPDEST POP PUSH2 0x203 PUSH1 0x4 DUP1 CALLDATASIZE SUB DUP2 ADD SWAP1 PUSH2 0x1FE SWAP2 SWAP1 PUSH2 0xD25 JUMP JUMPDEST PUSH2 0x67E JUMP JUMPDEST PUSH1 0x40 MLOAD PUSH2 0x210 SWAP2 SWAP1 PUSH2 0xD9C JUMP JUMPDEST PUSH1 0x40 MLOAD DUP1 SWAP2 SUB SWAP1 RETURN JUMPDEST CALLVALUE DUP1 ISZERO PUSH2 0x225 JUMPI PUSH1 0x0 DUP1 REVERT JUMPDEST POP PUSH2 0x240 PUSH1 0x4 DUP1 CALLDATASIZE SUB DUP2 ADD SWAP1 PUSH2 0x23B SWAP2 SWAP1 PUSH2 0xB1C JUMP JUMPDEST PUSH2 0x876 JUMP JUMPDEST STOP JUMPDEST PUSH1 0x0 SELFBALANCE SWAP1 POP SWAP1 JUMP JUMPDEST PUSH1 0x1 PUSH1 0x20 MSTORE DUP1 PUSH1 0x0 MSTORE PUSH1 0x40 PUSH1 0x0 KECCAK256 PUSH1 0x0 SWAP2 POP SWAP1 POP SLOAD DUP2 JUMP JUMPDEST PUSH2 0x26A PUSH2 0x8F9 JUMP JUMPDEST PUSH1 0x3 SLOAD PUSH2 0x275 PUSH2 0x977 JUMP JUMPDEST PUSH2 0x27F SWAP2 SWAP1 PUSH2 0xDE6 JUMP JUMPDEST PUSH1 0x3 DUP2 SWAP1 SSTORE POP PUSH1 0x2 PUSH1 0x0 PUSH1 0x3 SLOAD DUP2 MSTORE PUSH1 0x20 ADD SWAP1 DUP2 MSTORE PUSH1 0x20 ADD PUSH1 0x0 KECCAK256 PUSH1 0x0 SWAP1 SLOAD SWAP1 PUSH2 0x100 EXP SWAP1 DIV PUSH20 0xFFFFFFFFFFFFFFFFFFFFFFFFFFFFFFFFFFFFFFFF AND PUSH20 0xFFFFFFFFFFFFFFFFFFFFFFFFFFFFFFFFFFFFFFFF AND PUSH2 0x8FC PUSH1 0x4 SLOAD SWAP1 DUP2 ISZERO MUL SWAP1 PUSH1 0x40 MLOAD PUSH1 0x0 PUSH1 0x40 MLOAD DUP1 DUP4 SUB DUP2 DUP6 DUP9 DUP9 CALL SWAP4 POP POP POP POP ISZERO DUP1 ISZERO PUSH2 0x302 JUMPI RETURNDATASIZE PUSH1 0x0 DUP1 RETURNDATACOPY RETURNDATASIZE PUSH1 0x0 REVERT JUMPDEST POP PUSH1 0x0 PUSH1 0x3 DUP2 SWAP1 SSTORE POP PUSH1 0x0 PUSH1 0x4 DUP2 SWAP1 SSTORE POP JUMP JUMPDEST DUP1 PUSH1 0x1 PUSH1 0x0 CALLER PUSH20 0xFFFFFFFFFFFFFFFFFFFFFFFFFFFFFFFFFFFFFFFF AND PUSH20 0xFFFFFFFFFFFFFFFFFFFFFFFFFFFFFFFFFFFFFFFF AND DUP2 MSTORE PUSH1 0x20 ADD SWAP1 DUP2 MSTORE PUSH1 0x20 ADD PUSH1 0x0 KECCAK256 SLOAD LT ISZERO PUSH2 0x397 JUMPI PUSH1 0x40 MLOAD PUSH32 0x8C379A000000000000000000000000000000000000000000000000000000000 DUP2 MSTORE PUSH1 0x4 ADD PUSH2 0x38E SWAP1 PUSH2 0xE74 JUMP JUMPDEST PUSH1 0x40 MLOAD DUP1 SWAP2 SUB SWAP1 REVERT JUMPDEST DUP1 PUSH1 0x1 PUSH1 0x0 CALLER PUSH20 0xFFFFFFFFFFFFFFFFFFFFFFFFFFFFFFFFFFFFFFFF AND PUSH20 0xFFFFFFFFFFFFFFFFFFFFFFFFFFFFFFFFFFFFFFFF AND DUP2 MSTORE PUSH1 0x20 ADD SWAP1 DUP2 MSTORE PUSH1 0x20 ADD PUSH1 0x0 KECCAK256 PUSH1 0x0 DUP3 DUP3 SLOAD PUSH2 0x3E6 SWAP2 SWAP1 PUSH2 0xEC3 JUMP JUMPDEST SWAP3 POP POP DUP2 SWAP1 SSTORE POP PUSH1 0x0 CALLER PUSH20 0xFFFFFFFFFFFFFFFFFFFFFFFFFFFFFFFFFFFFFFFF AND DUP3 PUSH1 0x40 MLOAD PUSH2 0x413 SWAP1 PUSH2 0xF4E JUMP JUMPDEST PUSH1 0x0 PUSH1 0x40 MLOAD DUP1 DUP4 SUB DUP2 DUP6 DUP8 GAS CALL SWAP3 POP POP POP RETURNDATASIZE DUP1 PUSH1 0x0 DUP2 EQ PUSH2 0x450 JUMPI PUSH1 0x40 MLOAD SWAP2 POP PUSH1 0x1F NOT PUSH1 0x3F RETURNDATASIZE ADD AND DUP3 ADD PUSH1 0x40 MSTORE RETURNDATASIZE DUP3 MSTORE RETURNDATASIZE PUSH1 0x0 PUSH1 0x20 DUP5 ADD RETURNDATACOPY PUSH2 0x455 JUMP JUMPDEST PUSH1 0x60 SWAP2 POP JUMPDEST POP POP SWAP1 POP DUP1 PUSH2 0x499 JUMPI PUSH1 0x40 MLOAD PUSH32 0x8C379A000000000000000000000000000000000000000000000000000000000 DUP2 MSTORE PUSH1 0x4 ADD PUSH2 0x490 SWAP1 PUSH2 0xFAF JUMP JUMPDEST PUSH1 0x40 MLOAD DUP1 SWAP2 SUB SWAP1 REVERT JUMPDEST POP POP JUMP JUMPDEST PUSH2 0x4A5 PUSH2 0x8F9 JUMP JUMPDEST PUSH2 0x4AF PUSH1 0x0 PUSH2 0x9AA JUMP JUMPDEST JUMP JUMPDEST PUSH1 0x0 DUP1 PUSH1 0x0 SWAP1 SLOAD SWAP1 PUSH2 0x100 EXP SWAP1 DIV PUSH20 0xFFFFFFFFFFFFFFFFFFFFFFFFFFFFFFFFFFFFFFFF AND SWAP1 POP SWAP1 JUMP JUMPDEST PUSH8 0xDE0B6B3A7640000 PUSH1 0x1 PUSH1 0x0 CALLER PUSH20 0xFFFFFFFFFFFFFFFFFFFFFFFFFFFFFFFFFFFFFFFF AND PUSH20 0xFFFFFFFFFFFFFFFFFFFFFFFFFFFFFFFFFFFFFFFF AND DUP2 MSTORE PUSH1 0x20 ADD SWAP1 DUP2 MSTORE PUSH1 0x20 ADD PUSH1 0x0 KECCAK256 SLOAD LT ISZERO PUSH2 0x564 JUMPI PUSH1 0x40 MLOAD PUSH32 0x8C379A000000000000000000000000000000000000000000000000000000000 DUP2 MSTORE PUSH1 0x4 ADD PUSH2 0x55B SWAP1 PUSH2 0x101B JUMP JUMPDEST PUSH1 0x40 MLOAD DUP1 SWAP2 SUB SWAP1 REVERT JUMPDEST CALLER PUSH1 0x2 PUSH1 0x0 PUSH1 0x3 SLOAD DUP2 MSTORE PUSH1 0x20 ADD SWAP1 DUP2 MSTORE PUSH1 0x20 ADD PUSH1 0x0 KECCAK256 PUSH1 0x0 PUSH2 0x100 EXP DUP2 SLOAD DUP2 PUSH20 0xFFFFFFFFFFFFFFFFFFFFFFFFFFFFFFFFFFFFFFFF MUL NOT AND SWAP1 DUP4 PUSH20 0xFFFFFFFFFFFFFFFFFFFFFFFFFFFFFFFFFFFFFFFF AND MUL OR SWAP1 SSTORE POP PUSH1 0x3 PUSH1 0x0 DUP2 SLOAD DUP1 SWAP3 SWAP2 SWAP1 PUSH2 0x5CB SWAP1 PUSH2 0x103B JUMP JUMPDEST SWAP2 SWAP1 POP SSTORE POP PUSH8 0xDE0B6B3A7640000 PUSH1 0x4 PUSH1 0x0 DUP3 DUP3 SLOAD PUSH2 0x5EA SWAP2 SWAP1 PUSH2 0x1083 JUMP JUMPDEST SWAP3 POP POP DUP2 SWAP1 SSTORE POP JUMP JUMPDEST CALLVALUE PUSH1 0x1 PUSH1 0x0 CALLER PUSH20 0xFFFFFFFFFFFFFFFFFFFFFFFFFFFFFFFFFFFFFFFF AND PUSH20 0xFFFFFFFFFFFFFFFFFFFFFFFFFFFFFFFFFFFFFFFF AND DUP2 MSTORE PUSH1 0x20 ADD SWAP1 DUP2 MSTORE PUSH1 0x20 ADD PUSH1 0x0 KECCAK256 PUSH1 0x0 DUP3 DUP3 SLOAD PUSH2 0x642 SWAP2 SWAP1 PUSH2 0x1083 JUMP JUMPDEST SWAP3 POP POP DUP2 SWAP1 SSTORE POP JUMP JUMPDEST PUSH1 0x2 PUSH1 0x20 MSTORE DUP1 PUSH1 0x0 MSTORE PUSH1 0x40 PUSH1 0x0 KECCAK256 PUSH1 0x0 SWAP2 POP SLOAD SWAP1 PUSH2 0x100 EXP SWAP1 DIV PUSH20 0xFFFFFFFFFFFFFFFFFFFFFFFFFFFFFFFFFFFFFFFF AND DUP2 JUMP JUMPDEST PUSH1 0x0 PUSH1 0x1 PUSH1 0x0 CALLER PUSH20 0xFFFFFFFFFFFFFFFFFFFFFFFFFFFFFFFFFFFFFFFF AND PUSH20 0xFFFFFFFFFFFFFFFFFFFFFFFFFFFFFFFFFFFFFFFF AND DUP2 MSTORE PUSH1 0x20 ADD SWAP1 DUP2 MSTORE PUSH1 0x20 ADD PUSH1 0x0 KECCAK256 SLOAD DUP3 GT ISZERO PUSH2 0x702 JUMPI PUSH1 0x40 MLOAD PUSH32 0x8C379A000000000000000000000000000000000000000000000000000000000 DUP2 MSTORE PUSH1 0x4 ADD PUSH2 0x6F9 SWAP1 PUSH2 0x1103 JUMP JUMPDEST PUSH1 0x40 MLOAD DUP1 SWAP2 SUB SWAP1 REVERT JUMPDEST PUSH1 0x3 DUP4 MLOAD LT ISZERO PUSH2 0x747 JUMPI PUSH1 0x40 MLOAD PUSH32 0x8C379A000000000000000000000000000000000000000000000000000000000 DUP2 MSTORE PUSH1 0x4 ADD PUSH2 0x73E SWAP1 PUSH2 0x1195 JUMP JUMPDEST PUSH1 0x40 MLOAD DUP1 SWAP2 SUB SWAP1 REVERT JUMPDEST PUSH1 0x0 JUMPDEST DUP4 MLOAD DUP2 PUSH1 0xFF AND LT ISZERO PUSH2 0x7F4 JUMPI PUSH1 0x6 DUP5 DUP3 PUSH1 0xFF AND DUP2 MLOAD DUP2 LT PUSH2 0x76E JUMPI PUSH2 0x76D PUSH2 0x11B5 JUMP JUMPDEST JUMPDEST PUSH1 0x20 MUL PUSH1 0x20 ADD ADD MLOAD GT ISZERO DUP1 ISZERO PUSH2 0x7A2 JUMPI POP PUSH1 0x1 DUP5 DUP3 PUSH1 0xFF AND DUP2 MLOAD DUP2 LT PUSH2 0x797 JUMPI PUSH2 0x796 PUSH2 0x11B5 JUMP JUMPDEST JUMPDEST PUSH1 0x20 MUL PUSH1 0x20 ADD ADD MLOAD LT ISZERO JUMPDEST PUSH2 0x7E1 JUMPI PUSH1 0x40 MLOAD PUSH32 0x8C379A000000000000000000000000000000000000000000000000000000000 DUP2 MSTORE PUSH1 0x4 ADD PUSH2 0x7D8 SWAP1 PUSH2 0x1230 JUMP JUMPDEST PUSH1 0x40 MLOAD DUP1 SWAP2 SUB SWAP1 REVERT JUMPDEST DUP1 DUP1 PUSH2 0x7EC SWAP1 PUSH2 0x125D JUMP JUMPDEST SWAP2 POP POP PUSH2 0x74A JUMP JUMPDEST POP PUSH1 0x0 PUSH1 0x1 PUSH1 0x6 PUSH2 0x803 PUSH2 0x977 JUMP JUMPDEST PUSH2 0x80D SWAP2 SWAP1 PUSH2 0xDE6 JUMP JUMPDEST PUSH2 0x817 SWAP2 SWAP1 PUSH2 0x1083 JUMP JUMPDEST SWAP1 POP PUSH1 0x0 DUP1 JUMPDEST DUP6 MLOAD DUP2 PUSH1 0xFF AND LT ISZERO PUSH2 0x86A JUMPI DUP3 DUP7 DUP3 PUSH1 0xFF AND DUP2 MLOAD DUP2 LT PUSH2 0x840 JUMPI PUSH2 0x83F PUSH2 0x11B5 JUMP JUMPDEST JUMPDEST PUSH1 0x20 MUL PUSH1 0x20 ADD ADD MLOAD EQ PUSH2 0x854 JUMPI DUP2 ISZERO PUSH2 0x856 JUMP JUMPDEST DUP2 JUMPDEST POP DUP1 DUP1 PUSH2 0x862 SWAP1 PUSH2 0x125D JUMP JUMPDEST SWAP2 POP POP PUSH2 0x81D JUMP JUMPDEST POP DUP1 SWAP3 POP POP POP SWAP3 SWAP2 POP POP JUMP JUMPDEST PUSH2 0x87E PUSH2 0x8F9 JUMP JUMPDEST PUSH1 0x0 PUSH20 0xFFFFFFFFFFFFFFFFFFFFFFFFFFFFFFFFFFFFFFFF AND DUP2 PUSH20 0xFFFFFFFFFFFFFFFFFFFFFFFFFFFFFFFFFFFFFFFF AND SUB PUSH2 0x8ED JUMPI PUSH1 0x40 MLOAD PUSH32 0x8C379A000000000000000000000000000000000000000000000000000000000 DUP2 MSTORE PUSH1 0x4 ADD PUSH2 0x8E4 SWAP1 PUSH2 0x12F8 JUMP JUMPDEST PUSH1 0x40 MLOAD DUP1 SWAP2 SUB SWAP1 REVERT JUMPDEST PUSH2 0x8F6 DUP2 PUSH2 0x9AA JUMP JUMPDEST POP JUMP JUMPDEST PUSH2 0x901 PUSH2 0xA6E JUMP JUMPDEST PUSH20 0xFFFFFFFFFFFFFFFFFFFFFFFFFFFFFFFFFFFFFFFF AND PUSH2 0x91F PUSH2 0x4B1 JUMP JUMPDEST PUSH20 0xFFFFFFFFFFFFFFFFFFFFFFFFFFFFFFFFFFFFFFFF AND EQ PUSH2 0x975 JUMPI PUSH1 0x40 MLOAD PUSH32 0x8C379A000000000000000000000000000000000000000000000000000000000 DUP2 MSTORE PUSH1 0x4 ADD PUSH2 0x96C SWAP1 PUSH2 0x1364 JUMP JUMPDEST PUSH1 0x40 MLOAD DUP1 SWAP2 SUB SWAP1 REVERT JUMPDEST JUMP JUMPDEST PUSH1 0x0 TIMESTAMP NUMBER PUSH1 0x40 MLOAD PUSH1 0x20 ADD PUSH2 0x98C SWAP3 SWAP2 SWAP1 PUSH2 0x1384 JUMP JUMPDEST PUSH1 0x40 MLOAD PUSH1 0x20 DUP2 DUP4 SUB SUB DUP2 MSTORE SWAP1 PUSH1 0x40 MSTORE DUP1 MLOAD SWAP1 PUSH1 0x20 ADD KECCAK256 PUSH1 0x0 SHR SWAP1 POP SWAP1 JUMP JUMPDEST PUSH1 0x0 DUP1 PUSH1 0x0 SWAP1 SLOAD SWAP1 PUSH2 0x100 EXP SWAP1 DIV PUSH20 0xFFFFFFFFFFFFFFFFFFFFFFFFFFFFFFFFFFFFFFFF AND SWAP1 POP DUP2 PUSH1 0x0 DUP1 PUSH2 0x100 EXP DUP2 SLOAD DUP2 PUSH20 0xFFFFFFFFFFFFFFFFFFFFFFFFFFFFFFFFFFFFFFFF MUL NOT AND SWAP1 DUP4 PUSH20 0xFFFFFFFFFFFFFFFFFFFFFFFFFFFFFFFFFFFFFFFF AND MUL OR SWAP1 SSTORE POP DUP2 PUSH20 0xFFFFFFFFFFFFFFFFFFFFFFFFFFFFFFFFFFFFFFFF AND DUP2 PUSH20 0xFFFFFFFFFFFFFFFFFFFFFFFFFFFFFFFFFFFFFFFF AND PUSH32 0x8BE0079C531659141344CD1FD0A4F28419497F9722A3DAAFE3B4186F6B6457E0 PUSH1 0x40 MLOAD PUSH1 0x40 MLOAD DUP1 SWAP2 SUB SWAP1 LOG3 POP POP JUMP JUMPDEST PUSH1 0x0 CALLER SWAP1 POP SWAP1 JUMP JUMPDEST PUSH1 0x0 DUP2 SWAP1 POP SWAP2 SWAP1 POP JUMP JUMPDEST PUSH2 0xA89 DUP2 PUSH2 0xA76 JUMP JUMPDEST DUP3 MSTORE POP POP JUMP JUMPDEST PUSH1 0x0 PUSH1 0x20 DUP3 ADD SWAP1 POP PUSH2 0xAA4 PUSH1 0x0 DUP4 ADD DUP5 PUSH2 0xA80 JUMP JUMPDEST SWAP3 SWAP2 POP POP JUMP JUMPDEST PUSH1 0x0 PUSH1 0x40 MLOAD SWAP1 POP SWAP1 JUMP JUMPDEST PUSH1 0x0 DUP1 REVERT JUMPDEST PUSH1 0x0 DUP1 REVERT JUMPDEST PUSH1 0x0 PUSH20 0xFFFFFFFFFFFFFFFFFFFFFFFFFFFFFFFFFFFFFFFF DUP3 AND SWAP1 POP SWAP2 SWAP1 POP JUMP JUMPDEST PUSH1 0x0 PUSH2 0xAE9 DUP3 PUSH2 0xABE JUMP JUMPDEST SWAP1 POP SWAP2 SWAP1 POP JUMP JUMPDEST PUSH2 0xAF9 DUP2 PUSH2 0xADE JUMP JUMPDEST DUP2 EQ PUSH2 0xB04 JUMPI PUSH1 0x0 DUP1 REVERT JUMPDEST POP JUMP JUMPDEST PUSH1 0x0 DUP2 CALLDATALOAD SWAP1 POP PUSH2 0xB16 DUP2 PUSH2 0xAF0 JUMP JUMPDEST SWAP3 SWAP2 POP POP JUMP JUMPDEST PUSH1 0x0 PUSH1 0x20 DUP3 DUP5 SUB SLT ISZERO PUSH2 0xB32 JUMPI PUSH2 0xB31 PUSH2 0xAB4 JUMP JUMPDEST JUMPDEST PUSH1 0x0 PUSH2 0xB40 DUP5 DUP3 DUP6 ADD PUSH2 0xB07 JUMP JUMPDEST SWAP2 POP POP SWAP3 SWAP2 POP POP JUMP JUMPDEST PUSH2 0xB52 DUP2 PUSH2 0xA76 JUMP JUMPDEST DUP2 EQ PUSH2 0xB5D JUMPI PUSH1 0x0 DUP1 REVERT JUMPDEST POP JUMP JUMPDEST PUSH1 0x0 DUP2 CALLDATALOAD SWAP1 POP PUSH2 0xB6F DUP2 PUSH2 0xB49 JUMP JUMPDEST SWAP3 SWAP2 POP POP JUMP JUMPDEST PUSH1 0x0 PUSH1 0x20 DUP3 DUP5 SUB SLT ISZERO PUSH2 0xB8B JUMPI PUSH2 0xB8A PUSH2 0xAB4 JUMP JUMPDEST JUMPDEST PUSH1 0x0 PUSH2 0xB99 DUP5 DUP3 DUP6 ADD PUSH2 0xB60 JUMP JUMPDEST SWAP2 POP POP SWAP3 SWAP2 POP POP JUMP JUMPDEST PUSH2 0xBAB DUP2 PUSH2 0xADE JUMP JUMPDEST DUP3 MSTORE POP POP JUMP JUMPDEST PUSH1 0x0 PUSH1 0x20 DUP3 ADD SWAP1 POP PUSH2 0xBC6 PUSH1 0x0 DUP4 ADD DUP5 PUSH2 0xBA2 JUMP JUMPDEST SWAP3 SWAP2 POP POP JUMP JUMPDEST PUSH1 0x0 DUP1 REVERT JUMPDEST PUSH1 0x0 PUSH1 0x1F NOT PUSH1 0x1F DUP4 ADD AND SWAP1 POP SWAP2 SWAP1 POP JUMP JUMPDEST PUSH32 0x4E487B7100000000000000000000000000000000000000000000000000000000 PUSH1 0x0 MSTORE PUSH1 0x41 PUSH1 0x4 MSTORE PUSH1 0x24 PUSH1 0x0 REVERT JUMPDEST PUSH2 0xC1A DUP3 PUSH2 0xBD1 JUMP JUMPDEST DUP2 ADD DUP2 DUP2 LT PUSH8 0xFFFFFFFFFFFFFFFF DUP3 GT OR ISZERO PUSH2 0xC39 JUMPI PUSH2 0xC38 PUSH2 0xBE2 JUMP JUMPDEST JUMPDEST DUP1 PUSH1 0x40 MSTORE POP POP POP JUMP JUMPDEST PUSH1 0x0 PUSH2 0xC4C PUSH2 0xAAA JUMP JUMPDEST SWAP1 POP PUSH2 0xC58 DUP3 DUP3 PUSH2 0xC11 JUMP JUMPDEST SWAP2 SWAP1 POP JUMP JUMPDEST PUSH1 0x0 PUSH8 0xFFFFFFFFFFFFFFFF DUP3 GT ISZERO PUSH2 0xC78 JUMPI PUSH2 0xC77 PUSH2 0xBE2 JUMP JUMPDEST JUMPDEST PUSH1 0x20 DUP3 MUL SWAP1 POP PUSH1 0x20 DUP2 ADD SWAP1 POP SWAP2 SWAP1 POP JUMP JUMPDEST PUSH1 0x0 DUP1 REVERT JUMPDEST PUSH1 0x0 PUSH2 0xCA1 PUSH2 0xC9C DUP5 PUSH2 0xC5D JUMP JUMPDEST PUSH2 0xC42 JUMP JUMPDEST SWAP1 POP DUP1 DUP4 DUP3 MSTORE PUSH1 0x20 DUP3 ADD SWAP1 POP PUSH1 0x20 DUP5 MUL DUP4 ADD DUP6 DUP2 GT ISZERO PUSH2 0xCC4 JUMPI PUSH2 0xCC3 PUSH2 0xC89 JUMP JUMPDEST JUMPDEST DUP4 JUMPDEST DUP2 DUP2 LT ISZERO PUSH2 0xCED JUMPI DUP1 PUSH2 0xCD9 DUP9 DUP3 PUSH2 0xB60 JUMP JUMPDEST DUP5 MSTORE PUSH1 0x20 DUP5 ADD SWAP4 POP POP PUSH1 0x20 DUP2 ADD SWAP1 POP PUSH2 0xCC6 JUMP JUMPDEST POP POP POP SWAP4 SWAP3 POP POP POP JUMP JUMPDEST PUSH1 0x0 DUP3 PUSH1 0x1F DUP4 ADD SLT PUSH2 0xD0C JUMPI PUSH2 0xD0B PUSH2 0xBCC JUMP JUMPDEST JUMPDEST DUP2 CALLDATALOAD PUSH2 0xD1C DUP5 DUP3 PUSH1 0x20 DUP7 ADD PUSH2 0xC8E JUMP JUMPDEST SWAP2 POP POP SWAP3 SWAP2 POP POP JUMP JUMPDEST PUSH1 0x0 DUP1 PUSH1 0x40 DUP4 DUP6 SUB SLT ISZERO PUSH2 0xD3C JUMPI PUSH2 0xD3B PUSH2 0xAB4 JUMP JUMPDEST JUMPDEST PUSH1 0x0 DUP4 ADD CALLDATALOAD PUSH8 0xFFFFFFFFFFFFFFFF DUP2 GT ISZERO PUSH2 0xD5A JUMPI PUSH2 0xD59 PUSH2 0xAB9 JUMP JUMPDEST JUMPDEST PUSH2 0xD66 DUP6 DUP3 DUP7 ADD PUSH2 0xCF7 JUMP JUMPDEST SWAP3 POP POP PUSH1 0x20 PUSH2 0xD77 DUP6 DUP3 DUP7 ADD PUSH2 0xB60 JUMP JUMPDEST SWAP2 POP POP SWAP3 POP SWAP3 SWAP1 POP JUMP JUMPDEST PUSH1 0x0 DUP2 ISZERO ISZERO SWAP1 POP SWAP2 SWAP1 POP JUMP JUMPDEST PUSH2 0xD96 DUP2 PUSH2 0xD81 JUMP JUMPDEST DUP3 MSTORE POP POP JUMP JUMPDEST PUSH1 0x0 PUSH1 0x20 DUP3 ADD SWAP1 POP PUSH2 0xDB1 PUSH1 0x0 DUP4 ADD DUP5 PUSH2 0xD8D JUMP JUMPDEST SWAP3 SWAP2 POP POP JUMP JUMPDEST PUSH32 0x4E487B7100000000000000000000000000000000000000000000000000000000 PUSH1 0x0 MSTORE PUSH1 0x12 PUSH1 0x4 MSTORE PUSH1 0x24 PUSH1 0x0 REVERT JUMPDEST PUSH1 0x0 PUSH2 0xDF1 DUP3 PUSH2 0xA76 JUMP JUMPDEST SWAP2 POP PUSH2 0xDFC DUP4 PUSH2 0xA76 JUMP JUMPDEST SWAP3 POP DUP3 PUSH2 0xE0C JUMPI PUSH2 0xE0B PUSH2 0xDB7 JUMP JUMPDEST JUMPDEST DUP3 DUP3 MOD SWAP1 POP SWAP3 SWAP2 POP POP JUMP JUMPDEST PUSH1 0x0 DUP3 DUP3 MSTORE PUSH1 0x20 DUP3 ADD SWAP1 POP SWAP3 SWAP2 POP POP JUMP JUMPDEST PUSH32 0x496E73756666696369656E742066756E647320746F2077697468647261772100 PUSH1 0x0 DUP3 ADD MSTORE POP JUMP JUMPDEST PUSH1 0x0 PUSH2 0xE5E PUSH1 0x1F DUP4 PUSH2 0xE17 JUMP JUMPDEST SWAP2 POP PUSH2 0xE69 DUP3 PUSH2 0xE28 JUMP JUMPDEST PUSH1 0x20 DUP3 ADD SWAP1 POP SWAP2 SWAP1 POP JUMP JUMPDEST PUSH1 0x0 PUSH1 0x20 DUP3 ADD SWAP1 POP DUP2 DUP2 SUB PUSH1 0x0 DUP4 ADD MSTORE PUSH2 0xE8D DUP2 PUSH2 0xE51 JUMP JUMPDEST SWAP1 POP SWAP2 SWAP1 POP JUMP JUMPDEST PUSH32 0x4E487B7100000000000000000000000000000000000000000000000000000000 PUSH1 0x0 MSTORE PUSH1 0x11 PUSH1 0x4 MSTORE PUSH1 0x24 PUSH1 0x0 REVERT JUMPDEST PUSH1 0x0 PUSH2 0xECE DUP3 PUSH2 0xA76 JUMP JUMPDEST SWAP2 POP PUSH2 0xED9 DUP4 PUSH2 0xA76 JUMP JUMPDEST SWAP3 POP DUP3 DUP3 SUB SWAP1 POP DUP2 DUP2 GT ISZERO PUSH2 0xEF1 JUMPI PUSH2 0xEF0 PUSH2 0xE94 JUMP JUMPDEST JUMPDEST SWAP3 SWAP2 POP POP JUMP JUMPDEST PUSH1 0x0 DUP2 SWAP1 POP SWAP3 SWAP2 POP POP JUMP JUMPDEST PUSH32 0x73656E7400000000000000000000000000000000000000000000000000000000 PUSH1 0x0 DUP3 ADD MSTORE POP JUMP JUMPDEST PUSH1 0x0 PUSH2 0xF38 PUSH1 0x4 DUP4 PUSH2 0xEF7 JUMP JUMPDEST SWAP2 POP PUSH2 0xF43 DUP3 PUSH2 0xF02 JUMP JUMPDEST PUSH1 0x4 DUP3 ADD SWAP1 POP SWAP2 SWAP1 POP JUMP JUMPDEST PUSH1 0x0 PUSH2 0xF59 DUP3 PUSH2 0xF2B JUMP JUMPDEST SWAP2 POP DUP2 SWAP1 POP SWAP2 SWAP1 POP JUMP JUMPDEST PUSH32 0x4661696C656420746F20776974686472617720616D6F756E7421000000000000 PUSH1 0x0 DUP3 ADD MSTORE POP JUMP JUMPDEST PUSH1 0x0 PUSH2 0xF99 PUSH1 0x1A DUP4 PUSH2 0xE17 JUMP JUMPDEST SWAP2 POP PUSH2 0xFA4 DUP3 PUSH2 0xF63 JUMP JUMPDEST PUSH1 0x20 DUP3 ADD SWAP1 POP SWAP2 SWAP1 POP JUMP JUMPDEST PUSH1 0x0 PUSH1 0x20 DUP3 ADD SWAP1 POP DUP2 DUP2 SUB PUSH1 0x0 DUP4 ADD MSTORE PUSH2 0xFC8 DUP2 PUSH2 0xF8C JUMP JUMPDEST SWAP1 POP SWAP2 SWAP1 POP JUMP JUMPDEST PUSH32 0x4E6F7420656E6F75676820657468657200000000000000000000000000000000 PUSH1 0x0 DUP3 ADD MSTORE POP JUMP JUMPDEST PUSH1 0x0 PUSH2 0x1005 PUSH1 0x10 DUP4 PUSH2 0xE17 JUMP JUMPDEST SWAP2 POP PUSH2 0x1010 DUP3 PUSH2 0xFCF JUMP JUMPDEST PUSH1 0x20 DUP3 ADD SWAP1 POP SWAP2 SWAP1 POP JUMP JUMPDEST PUSH1 0x0 PUSH1 0x20 DUP3 ADD SWAP1 POP DUP2 DUP2 SUB PUSH1 0x0 DUP4 ADD MSTORE PUSH2 0x1034 DUP2 PUSH2 0xFF8 JUMP JUMPDEST SWAP1 POP SWAP2 SWAP1 POP JUMP JUMPDEST PUSH1 0x0 PUSH2 0x1046 DUP3 PUSH2 0xA76 JUMP JUMPDEST SWAP2 POP PUSH32 0xFFFFFFFFFFFFFFFFFFFFFFFFFFFFFFFFFFFFFFFFFFFFFFFFFFFFFFFFFFFFFFFF DUP3 SUB PUSH2 0x1078 JUMPI PUSH2 0x1077 PUSH2 0xE94 JUMP JUMPDEST JUMPDEST PUSH1 0x1 DUP3 ADD SWAP1 POP SWAP2 SWAP1 POP JUMP JUMPDEST PUSH1 0x0 PUSH2 0x108E DUP3 PUSH2 0xA76 JUMP JUMPDEST SWAP2 POP PUSH2 0x1099 DUP4 PUSH2 0xA76 JUMP JUMPDEST SWAP3 POP DUP3 DUP3 ADD SWAP1 POP DUP1 DUP3 GT ISZERO PUSH2 0x10B1 JUMPI PUSH2 0x10B0 PUSH2 0xE94 JUMP JUMPDEST JUMPDEST SWAP3 SWAP2 POP POP JUMP JUMPDEST PUSH32 0x4E6F7420656E6F75676820457468657220696E206163636F756E740000000000 PUSH1 0x0 DUP3 ADD MSTORE POP JUMP JUMPDEST PUSH1 0x0 PUSH2 0x10ED PUSH1 0x1B DUP4 PUSH2 0xE17 JUMP JUMPDEST SWAP2 POP PUSH2 0x10F8 DUP3 PUSH2 0x10B7 JUMP JUMPDEST PUSH1 0x20 DUP3 ADD SWAP1 POP SWAP2 SWAP1 POP JUMP JUMPDEST PUSH1 0x0 PUSH1 0x20 DUP3 ADD SWAP1 POP DUP2 DUP2 SUB PUSH1 0x0 DUP4 ADD MSTORE PUSH2 0x111C DUP2 PUSH2 0x10E0 JUMP JUMPDEST SWAP1 POP SWAP2 SWAP1 POP JUMP JUMPDEST PUSH32 0x43616E6E6F74206775657373206D6F7265207468616E203320706F737369626C PUSH1 0x0 DUP3 ADD MSTORE PUSH32 0x65206F7574636F6D657300000000000000000000000000000000000000000000 PUSH1 0x20 DUP3 ADD MSTORE POP JUMP JUMPDEST PUSH1 0x0 PUSH2 0x117F PUSH1 0x2A DUP4 PUSH2 0xE17 JUMP JUMPDEST SWAP2 POP PUSH2 0x118A DUP3 PUSH2 0x1123 JUMP JUMPDEST PUSH1 0x40 DUP3 ADD SWAP1 POP SWAP2 SWAP1 POP JUMP JUMPDEST PUSH1 0x0 PUSH1 0x20 DUP3 ADD SWAP1 POP DUP2 DUP2 SUB PUSH1 0x0 DUP4 ADD MSTORE PUSH2 0x11AE DUP2 PUSH2 0x1172 JUMP JUMPDEST SWAP1 POP SWAP2 SWAP1 POP JUMP JUMPDEST PUSH32 0x4E487B7100000000000000000000000000000000000000000000000000000000 PUSH1 0x0 MSTORE PUSH1 0x32 PUSH1 0x4 MSTORE PUSH1 0x24 PUSH1 0x0 REVERT JUMPDEST PUSH32 0x4775657373206E756D6265727320312D36000000000000000000000000000000 PUSH1 0x0 DUP3 ADD MSTORE POP JUMP JUMPDEST PUSH1 0x0 PUSH2 0x121A PUSH1 0x11 DUP4 PUSH2 0xE17 JUMP JUMPDEST SWAP2 POP PUSH2 0x1225 DUP3 PUSH2 0x11E4 JUMP JUMPDEST PUSH1 0x20 DUP3 ADD SWAP1 POP SWAP2 SWAP1 POP JUMP JUMPDEST PUSH1 0x0 PUSH1 0x20 DUP3 ADD SWAP1 POP DUP2 DUP2 SUB PUSH1 0x0 DUP4 ADD MSTORE PUSH2 0x1249 DUP2 PUSH2 0x120D JUMP JUMPDEST SWAP1 POP SWAP2 SWAP1 POP JUMP JUMPDEST PUSH1 0x0 PUSH1 0xFF DUP3 AND SWAP1 POP SWAP2 SWAP1 POP JUMP JUMPDEST PUSH1 0x0 PUSH2 0x1268 DUP3 PUSH2 0x1250 JUMP JUMPDEST SWAP2 POP PUSH1 0xFF DUP3 SUB PUSH2 0x127B JUMPI PUSH2 0x127A PUSH2 0xE94 JUMP JUMPDEST JUMPDEST PUSH1 0x1 DUP3 ADD SWAP1 POP SWAP2 SWAP1 POP JUMP JUMPDEST PUSH32 0x4F776E61626C653A206E6577206F776E657220697320746865207A65726F2061 PUSH1 0x0 DUP3 ADD MSTORE PUSH32 0x6464726573730000000000000000000000000000000000000000000000000000 PUSH1 0x20 DUP3 ADD MSTORE POP JUMP JUMPDEST PUSH1 0x0 PUSH2 0x12E2 PUSH1 0x26 DUP4 PUSH2 0xE17 JUMP JUMPDEST SWAP2 POP PUSH2 0x12ED DUP3 PUSH2 0x1286 JUMP JUMPDEST PUSH1 0x40 DUP3 ADD SWAP1 POP SWAP2 SWAP1 POP JUMP JUMPDEST PUSH1 0x0 PUSH1 0x20 DUP3 ADD SWAP1 POP DUP2 DUP2 SUB PUSH1 0x0 DUP4 ADD MSTORE PUSH2 0x1311 DUP2 PUSH2 0x12D5 JUMP JUMPDEST SWAP1 POP SWAP2 SWAP1 POP JUMP JUMPDEST PUSH32 0x4F776E61626C653A2063616C6C6572206973206E6F7420746865206F776E6572 PUSH1 0x0 DUP3 ADD MSTORE POP JUMP JUMPDEST PUSH1 0x0 PUSH2 0x134E PUSH1 0x20 DUP4 PUSH2 0xE17 JUMP JUMPDEST SWAP2 POP PUSH2 0x1359 DUP3 PUSH2 0x1318 JUMP JUMPDEST PUSH1 0x20 DUP3 ADD SWAP1 POP SWAP2 SWAP1 POP JUMP JUMPDEST PUSH1 0x0 PUSH1 0x20 DUP3 ADD SWAP1 POP DUP2 DUP2 SUB PUSH1 0x0 DUP4 ADD MSTORE PUSH2 0x137D DUP2 PUSH2 0x1341 JUMP JUMPDEST SWAP1 POP SWAP2 SWAP1 POP JUMP JUMPDEST PUSH1 0x0 PUSH1 0x40 DUP3 ADD SWAP1 POP PUSH2 0x1399 PUSH1 0x0 DUP4 ADD DUP6 PUSH2 0xA80 JUMP JUMPDEST PUSH2 0x13A6 PUSH1 0x20 DUP4 ADD DUP5 PUSH2 0xA80 JUMP JUMPDEST SWAP4 SWAP3 POP POP POP JUMP INVALID LOG2 PUSH5 0x6970667358 0x22 SLT KECCAK256 EXTCODECOPY CALLCODE SSTORE SGT BASEFEE 0xDC 0xE7 0xD6 0xB7 0x2A 0xAD 0x5E 0xB8 OR BYTE 0x21 0xBF NOT KECCAK256 EXP 0xE7 0xEC 0xF7 0xAC SSTORE MLOAD 0xB2 0x23 CALLDATASIZE 0xB1 0xAB NUMBER PUSH5 0x736F6C6343 STOP ADDMOD LT STOP CALLER "
				},
				"gasEstimates": {
					"creation": {
						"codeDepositCost": "1018200",
						"executionCost": "infinite",
						"totalCost": "infinite"
					},
					"external": {
						"balances(address)": "2837",
						"deposit()": "infinite",
						"drawLottery()": "infinite",
						"enterLottery()": "infinite",
						"getCasinoBalance()": "340",
						"lotteryEntries(uint256)": "2905",
						"owner()": "2522",
						"renounceOwnership()": "30487",
						"rollDice(uint256[],uint256)": "infinite",
						"transferOwnership(address)": "30854",
						"withdraw(uint256)": "infinite"
					},
					"internal": {
						"getRandomValue()": "infinite"
					}
				},
				"methodIdentifiers": {
					"balances(address)": "27e235e3",
					"deposit()": "d0e30db0",
					"drawLottery()": "27e605ec",
					"enterLottery()": "c1af5785",
					"getCasinoBalance()": "1a0843c0",
					"lotteryEntries(uint256)": "ed1c274f",
					"owner()": "8da5cb5b",
					"renounceOwnership()": "715018a6",
					"rollDice(uint256[],uint256)": "ed7892f2",
					"transferOwnership(address)": "f2fde38b",
					"withdraw(uint256)": "2e1a7d4d"
				}
			},
			"storageLayout": {
				"storage": [
					{
						"astId": 7,
						"contract": "contracts/main.sol:Casino",
						"label": "_owner",
						"offset": 0,
						"slot": "0",
						"type": "t_address"
					},
					{
						"astId": 152,
						"contract": "contracts/main.sol:Casino",
						"label": "balances",
						"offset": 0,
						"slot": "1",
						"type": "t_mapping(t_address,t_uint256)"
					},
					{
						"astId": 156,
						"contract": "contracts/main.sol:Casino",
						"label": "lotteryEntries",
						"offset": 0,
						"slot": "2",
						"type": "t_mapping(t_uint256,t_address)"
					},
					{
						"astId": 159,
						"contract": "contracts/main.sol:Casino",
						"label": "entryNum",
						"offset": 0,
						"slot": "3",
						"type": "t_uint256"
					},
					{
						"astId": 162,
						"contract": "contracts/main.sol:Casino",
						"label": "lotterySum",
						"offset": 0,
						"slot": "4",
						"type": "t_uint256"
					}
				],
				"types": {
					"t_address": {
						"encoding": "inplace",
						"label": "address",
						"numberOfBytes": "20"
					},
					"t_mapping(t_address,t_uint256)": {
						"encoding": "mapping",
						"key": "t_address",
						"label": "mapping(address => uint256)",
						"numberOfBytes": "32",
						"value": "t_uint256"
					},
					"t_mapping(t_uint256,t_address)": {
						"encoding": "mapping",
						"key": "t_uint256",
						"label": "mapping(uint256 => address)",
						"numberOfBytes": "32",
						"value": "t_address"
					},
					"t_uint256": {
						"encoding": "inplace",
						"label": "uint256",
						"numberOfBytes": "32"
					}
				}
			},
			"userdoc": {
				"kind": "user",
				"methods": {},
				"version": 1
			}
		}
	}
}