{
	"contracts/main.sol": {
		"Casino": {
			"abi": [
				{
					"anonymous": false,
					"inputs": [
						{
							"indexed": true,
							"internalType": "address",
							"name": "previousOwner",
							"type": "address"
						},
						{
							"indexed": true,
							"internalType": "address",
							"name": "newOwner",
							"type": "address"
						}
					],
					"name": "OwnershipTransferred",
					"type": "event"
				},
				{
					"inputs": [
						{
							"internalType": "address",
							"name": "",
							"type": "address"
						}
					],
					"name": "balances",
					"outputs": [
						{
							"internalType": "uint256",
							"name": "",
							"type": "uint256"
						}
					],
					"stateMutability": "view",
					"type": "function"
				},
				{
					"inputs": [],
					"name": "deposit",
					"outputs": [],
					"stateMutability": "payable",
					"type": "function"
				},
				{
					"inputs": [],
					"name": "getCasinoBalance",
					"outputs": [
						{
							"internalType": "uint256",
							"name": "",
							"type": "uint256"
						}
					],
					"stateMutability": "view",
					"type": "function"
				},
				{
					"inputs": [],
					"name": "owner",
					"outputs": [
						{
							"internalType": "address",
							"name": "",
							"type": "address"
						}
					],
					"stateMutability": "view",
					"type": "function"
				},
				{
					"inputs": [],
					"name": "renounceOwnership",
					"outputs": [],
					"stateMutability": "nonpayable",
					"type": "function"
				},
				{
					"inputs": [
						{
							"internalType": "address",
							"name": "newOwner",
							"type": "address"
						}
					],
					"name": "transferOwnership",
					"outputs": [],
					"stateMutability": "nonpayable",
					"type": "function"
				},
				{
					"inputs": [
						{
							"internalType": "uint256",
							"name": "_amount",
							"type": "uint256"
						}
					],
					"name": "withdraw",
					"outputs": [],
					"stateMutability": "nonpayable",
					"type": "function"
				}
			],
			"devdoc": {
				"kind": "dev",
				"methods": {
					"owner()": {
						"details": "Returns the address of the current owner."
					},
					"renounceOwnership()": {
						"details": "Leaves the contract without owner. It will not be possible to call `onlyOwner` functions anymore. Can only be called by the current owner. NOTE: Renouncing ownership will leave the contract without an owner, thereby removing any functionality that is only available to the owner."
					},
					"transferOwnership(address)": {
						"details": "Transfers ownership of the contract to a new account (`newOwner`). Can only be called by the current owner."
					}
				},
				"version": 1
			},
			"evm": {
				"assembly": "    /* \"contracts/main.sol\":406:1020  contract Casino is Ownable {... */\n  mstore(0x40, 0x80)\n  callvalue\n  dup1\n  iszero\n  tag_1\n  jumpi\n  0x00\n  dup1\n  revert\ntag_1:\n  pop\n    /* \"@openzeppelin/contracts/access/Ownable.sol\":936:968  _transferOwnership(_msgSender()) */\n  tag_4\n    /* \"@openzeppelin/contracts/utils/Context.sol\":719:729  msg.sender */\n  caller\n    /* \"@openzeppelin/contracts/access/Ownable.sol\":936:954  _transferOwnership */\n  tag_7\n    /* \"@openzeppelin/contracts/access/Ownable.sol\":936:968  _transferOwnership(_msgSender()) */\n  jump\t// in\ntag_4:\n    /* \"contracts/main.sol\":406:1020  contract Casino is Ownable {... */\n  jump(tag_8)\n    /* \"@openzeppelin/contracts/access/Ownable.sol\":2433:2620  function _transferOwnership(address newOwner) internal virtual {... */\ntag_7:\n    /* \"@openzeppelin/contracts/access/Ownable.sol\":2506:2522  address oldOwner */\n  0x00\n    /* \"@openzeppelin/contracts/access/Ownable.sol\":2525:2531  _owner */\n  dup1\n  sload\n  sub(shl(0xa0, 0x01), 0x01)\n    /* \"@openzeppelin/contracts/access/Ownable.sol\":2541:2558  _owner = newOwner */\n  dup4\n  dup2\n  and\n  not(sub(shl(0xa0, 0x01), 0x01))\n  dup4\n  and\n  dup2\n  or\n  dup5\n  sstore\n    /* \"@openzeppelin/contracts/access/Ownable.sol\":2573:2613  OwnershipTransferred(oldOwner, newOwner) */\n  mload(0x40)\n    /* \"@openzeppelin/contracts/access/Ownable.sol\":2525:2531  _owner */\n  swap2\n  swap1\n  swap3\n  and\n  swap3\n  dup4\n  swap2\n    /* \"@openzeppelin/contracts/access/Ownable.sol\":2573:2613  OwnershipTransferred(oldOwner, newOwner) */\n  0x8be0079c531659141344cd1fd0a4f28419497f9722a3daafe3b4186f6b6457e0\n  swap2\n    /* \"@openzeppelin/contracts/access/Ownable.sol\":2506:2522  address oldOwner */\n  swap1\n    /* \"@openzeppelin/contracts/access/Ownable.sol\":2573:2613  OwnershipTransferred(oldOwner, newOwner) */\n  log3\n    /* \"@openzeppelin/contracts/access/Ownable.sol\":2496:2620  {... */\n  pop\n    /* \"@openzeppelin/contracts/access/Ownable.sol\":2433:2620  function _transferOwnership(address newOwner) internal virtual {... */\n  pop\n  jump\t// out\n    /* \"contracts/main.sol\":406:1020  contract Casino is Ownable {... */\ntag_8:\n  dataSize(sub_0)\n  dup1\n  dataOffset(sub_0)\n  0x00\n  codecopy\n  0x00\n  return\nstop\n\nsub_0: assembly {\n        /* \"contracts/main.sol\":406:1020  contract Casino is Ownable {... */\n      mstore(0x40, 0x80)\n      jumpi(tag_1, lt(calldatasize, 0x04))\n      shr(0xe0, calldataload(0x00))\n      dup1\n      0x715018a6\n      gt\n      tag_9\n      jumpi\n      dup1\n      0x715018a6\n      eq\n      tag_5\n      jumpi\n      dup1\n      0x8da5cb5b\n      eq\n      tag_6\n      jumpi\n      dup1\n      0xd0e30db0\n      eq\n      tag_7\n      jumpi\n      dup1\n      0xf2fde38b\n      eq\n      tag_8\n      jumpi\n      0x00\n      dup1\n      revert\n    tag_9:\n      dup1\n      0x1a0843c0\n      eq\n      tag_2\n      jumpi\n      dup1\n      0x27e235e3\n      eq\n      tag_3\n      jumpi\n      dup1\n      0x2e1a7d4d\n      eq\n      tag_4\n      jumpi\n    tag_1:\n      0x00\n      dup1\n      revert\n        /* \"contracts/main.sol\":913:1015  function getCasinoBalance() public view returns(uint256) {... */\n    tag_2:\n      callvalue\n      dup1\n      iszero\n      tag_10\n      jumpi\n      0x00\n      dup1\n      revert\n    tag_10:\n      pop\n        /* \"contracts/main.sol\":987:1008  address(this).balance */\n      selfbalance\n        /* \"contracts/main.sol\":913:1015  function getCasinoBalance() public view returns(uint256) {... */\n    tag_11:\n      mload(0x40)\n        /* \"#utility.yul\":160:185   */\n      swap1\n      dup2\n      mstore\n        /* \"#utility.yul\":148:150   */\n      0x20\n        /* \"#utility.yul\":133:151   */\n      add\n        /* \"contracts/main.sol\":913:1015  function getCasinoBalance() public view returns(uint256) {... */\n    tag_13:\n      mload(0x40)\n      dup1\n      swap2\n      sub\n      swap1\n      return\n        /* \"contracts/main.sol\":478:518  mapping(address=>uint256)public balances */\n    tag_3:\n      callvalue\n      dup1\n      iszero\n      tag_15\n      jumpi\n      0x00\n      dup1\n      revert\n    tag_15:\n      pop\n      tag_11\n      tag_17\n      calldatasize\n      0x04\n      tag_18\n      jump\t// in\n    tag_17:\n      mstore(0x20, 0x01)\n      0x00\n      swap1\n      dup2\n      mstore\n      0x40\n      swap1\n      keccak256\n      sload\n      dup2\n      jump\n        /* \"contracts/main.sol\":615:907  function withdraw(uint256 _amount) public {... */\n    tag_4:\n      callvalue\n      dup1\n      iszero\n      tag_21\n      jumpi\n      0x00\n      dup1\n      revert\n    tag_21:\n      pop\n      tag_22\n      tag_23\n      calldatasize\n      0x04\n      tag_24\n      jump\t// in\n    tag_23:\n      tag_25\n      jump\t// in\n    tag_22:\n      stop\n        /* \"@openzeppelin/contracts/access/Ownable.sol\":1831:1932  function renounceOwnership() public virtual onlyOwner {... */\n    tag_5:\n      callvalue\n      dup1\n      iszero\n      tag_26\n      jumpi\n      0x00\n      dup1\n      revert\n    tag_26:\n      pop\n      tag_22\n      tag_28\n      jump\t// in\n        /* \"@openzeppelin/contracts/access/Ownable.sol\":1201:1286  function owner() public view virtual returns (address) {... */\n    tag_6:\n      callvalue\n      dup1\n      iszero\n      tag_29\n      jumpi\n      0x00\n      dup1\n      revert\n    tag_29:\n      pop\n        /* \"@openzeppelin/contracts/access/Ownable.sol\":1247:1254  address */\n      0x00\n        /* \"@openzeppelin/contracts/access/Ownable.sol\":1273:1279  _owner */\n      sload\n        /* \"@openzeppelin/contracts/access/Ownable.sol\":1201:1286  function owner() public view virtual returns (address) {... */\n      mload(0x40)\n      sub(shl(0xa0, 0x01), 0x01)\n        /* \"@openzeppelin/contracts/access/Ownable.sol\":1273:1279  _owner */\n      swap1\n      swap2\n      and\n        /* \"#utility.yul\":818:869   */\n      dup2\n      mstore\n        /* \"#utility.yul\":806:808   */\n      0x20\n        /* \"#utility.yul\":791:809   */\n      add\n        /* \"@openzeppelin/contracts/access/Ownable.sol\":1201:1286  function owner() public view virtual returns (address) {... */\n      tag_13\n        /* \"#utility.yul\":672:875   */\n      jump\n        /* \"contracts/main.sol\":525:609  function deposit() public payable {... */\n    tag_7:\n      tag_22\n      tag_35\n      jump\t// in\n        /* \"@openzeppelin/contracts/access/Ownable.sol\":2081:2279  function transferOwnership(address newOwner) public virtual onlyOwner {... */\n    tag_8:\n      callvalue\n      dup1\n      iszero\n      tag_36\n      jumpi\n      0x00\n      dup1\n      revert\n    tag_36:\n      pop\n      tag_22\n      tag_38\n      calldatasize\n      0x04\n      tag_18\n      jump\t// in\n    tag_38:\n      tag_39\n      jump\t// in\n        /* \"contracts/main.sol\":615:907  function withdraw(uint256 _amount) public {... */\n    tag_25:\n        /* \"contracts/main.sol\":684:694  msg.sender */\n      caller\n        /* \"contracts/main.sol\":675:695  balances[msg.sender] */\n      0x00\n      swap1\n      dup2\n      mstore\n        /* \"contracts/main.sol\":675:683  balances */\n      0x01\n        /* \"contracts/main.sol\":675:695  balances[msg.sender] */\n      0x20\n      mstore\n      0x40\n      swap1\n      keccak256\n      sload\n        /* \"contracts/main.sol\":675:706  balances[msg.sender] >= _amount */\n      dup2\n      gt\n      iszero\n        /* \"contracts/main.sol\":667:742  require(balances[msg.sender] >= _amount, \"Insufficient funds to withdraw!\") */\n      tag_42\n      jumpi\n      mload(0x40)\n      shl(0xe5, 0x461bcd)\n      dup2\n      mstore\n        /* \"#utility.yul\":1082:1084   */\n      0x20\n        /* \"contracts/main.sol\":667:742  require(balances[msg.sender] >= _amount, \"Insufficient funds to withdraw!\") */\n      0x04\n      dup3\n      add\n        /* \"#utility.yul\":1064:1085   */\n      mstore\n        /* \"#utility.yul\":1121:1123   */\n      0x1f\n        /* \"#utility.yul\":1101:1119   */\n      0x24\n      dup3\n      add\n        /* \"#utility.yul\":1094:1124   */\n      mstore\n        /* \"#utility.yul\":1160:1193   */\n      0x496e73756666696369656e742066756e647320746f2077697468647261772100\n        /* \"#utility.yul\":1140:1158   */\n      0x44\n      dup3\n      add\n        /* \"#utility.yul\":1133:1194   */\n      mstore\n        /* \"#utility.yul\":1211:1229   */\n      0x64\n      add\n        /* \"contracts/main.sol\":667:742  require(balances[msg.sender] >= _amount, \"Insufficient funds to withdraw!\") */\n    tag_43:\n      mload(0x40)\n      dup1\n      swap2\n      sub\n      swap1\n      revert\n    tag_42:\n        /* \"contracts/main.sol\":761:771  msg.sender */\n      caller\n        /* \"contracts/main.sol\":752:772  balances[msg.sender] */\n      0x00\n      swap1\n      dup2\n      mstore\n        /* \"contracts/main.sol\":752:760  balances */\n      0x01\n        /* \"contracts/main.sol\":752:772  balances[msg.sender] */\n      0x20\n      mstore\n      0x40\n      dup2\n      keccak256\n        /* \"contracts/main.sol\":752:783  balances[msg.sender] -= _amount */\n      dup1\n      sload\n        /* \"contracts/main.sol\":776:783  _amount */\n      dup4\n      swap3\n        /* \"contracts/main.sol\":752:772  balances[msg.sender] */\n      swap1\n        /* \"contracts/main.sol\":752:783  balances[msg.sender] -= _amount */\n      tag_45\n      swap1\n        /* \"contracts/main.sol\":776:783  _amount */\n      dup5\n      swap1\n        /* \"contracts/main.sol\":752:783  balances[msg.sender] -= _amount */\n      tag_46\n      jump\t// in\n    tag_45:\n      swap1\n      swap2\n      sstore\n      pop\n      pop\n        /* \"contracts/main.sol\":808:847  msg.sender.call{value: _amount}(\"sent\") */\n      mload(0x40)\n      shl(0xe2, 0x1cd95b9d)\n        /* \"#utility.yul\":1706:1725   */\n      dup2\n      mstore\n        /* \"contracts/main.sol\":794:803  bool sent */\n      0x00\n      swap1\n        /* \"contracts/main.sol\":808:818  msg.sender */\n      caller\n      swap1\n        /* \"contracts/main.sol\":831:838  _amount */\n      dup4\n      swap1\n        /* \"#utility.yul\":1750:1751   */\n      0x04\n        /* \"#utility.yul\":1741:1752   */\n      add\n        /* \"contracts/main.sol\":808:847  msg.sender.call{value: _amount}(\"sent\") */\n      0x00\n      mload(0x40)\n      dup1\n      dup4\n      sub\n      dup2\n      dup6\n      dup8\n      gas\n      call\n      swap3\n      pop\n      pop\n      pop\n      returndatasize\n      dup1\n      0x00\n      dup2\n      eq\n      tag_51\n      jumpi\n      mload(0x40)\n      swap2\n      pop\n      and(add(returndatasize, 0x3f), not(0x1f))\n      dup3\n      add\n      0x40\n      mstore\n      returndatasize\n      dup3\n      mstore\n      returndatasize\n      0x00\n      0x20\n      dup5\n      add\n      returndatacopy\n      jump(tag_50)\n    tag_51:\n      0x60\n      swap2\n      pop\n    tag_50:\n      pop\n        /* \"contracts/main.sol\":793:847  (bool sent,) = msg.sender.call{value: _amount}(\"sent\") */\n      pop\n      swap1\n      pop\n        /* \"contracts/main.sol\":865:869  sent */\n      dup1\n        /* \"contracts/main.sol\":857:900  require(sent, \"Failed to withdraw amount!\") */\n      tag_52\n      jumpi\n      mload(0x40)\n      shl(0xe5, 0x461bcd)\n      dup2\n      mstore\n        /* \"#utility.yul\":1965:1967   */\n      0x20\n        /* \"contracts/main.sol\":857:900  require(sent, \"Failed to withdraw amount!\") */\n      0x04\n      dup3\n      add\n        /* \"#utility.yul\":1947:1968   */\n      mstore\n        /* \"#utility.yul\":2004:2006   */\n      0x1a\n        /* \"#utility.yul\":1984:2002   */\n      0x24\n      dup3\n      add\n        /* \"#utility.yul\":1977:2007   */\n      mstore\n        /* \"#utility.yul\":2043:2071   */\n      0x4661696c656420746f20776974686472617720616d6f756e7421000000000000\n        /* \"#utility.yul\":2023:2041   */\n      0x44\n      dup3\n      add\n        /* \"#utility.yul\":2016:2072   */\n      mstore\n        /* \"#utility.yul\":2089:2107   */\n      0x64\n      add\n        /* \"contracts/main.sol\":857:900  require(sent, \"Failed to withdraw amount!\") */\n      tag_43\n        /* \"#utility.yul\":1763:2113   */\n      jump\n        /* \"contracts/main.sol\":857:900  require(sent, \"Failed to withdraw amount!\") */\n    tag_52:\n        /* \"contracts/main.sol\":657:907  {... */\n      pop\n        /* \"contracts/main.sol\":615:907  function withdraw(uint256 _amount) public {... */\n      pop\n      jump\t// out\n        /* \"@openzeppelin/contracts/access/Ownable.sol\":1831:1932  function renounceOwnership() public virtual onlyOwner {... */\n    tag_28:\n        /* \"@openzeppelin/contracts/access/Ownable.sol\":1094:1107  _checkOwner() */\n      tag_56\n        /* \"@openzeppelin/contracts/access/Ownable.sol\":1094:1105  _checkOwner */\n      tag_57\n        /* \"@openzeppelin/contracts/access/Ownable.sol\":1094:1107  _checkOwner() */\n      jump\t// in\n    tag_56:\n        /* \"@openzeppelin/contracts/access/Ownable.sol\":1895:1925  _transferOwnership(address(0)) */\n      tag_59\n        /* \"@openzeppelin/contracts/access/Ownable.sol\":1922:1923  0 */\n      0x00\n        /* \"@openzeppelin/contracts/access/Ownable.sol\":1895:1913  _transferOwnership */\n      tag_60\n        /* \"@openzeppelin/contracts/access/Ownable.sol\":1895:1925  _transferOwnership(address(0)) */\n      jump\t// in\n    tag_59:\n        /* \"@openzeppelin/contracts/access/Ownable.sol\":1831:1932  function renounceOwnership() public virtual onlyOwner {... */\n      jump\t// out\n        /* \"contracts/main.sol\":525:609  function deposit() public payable {... */\n    tag_35:\n        /* \"contracts/main.sol\":578:588  msg.sender */\n      caller\n        /* \"contracts/main.sol\":569:589  balances[msg.sender] */\n      0x00\n      swap1\n      dup2\n      mstore\n        /* \"contracts/main.sol\":569:577  balances */\n      0x01\n        /* \"contracts/main.sol\":569:589  balances[msg.sender] */\n      0x20\n      mstore\n      0x40\n      dup2\n      keccak256\n        /* \"contracts/main.sol\":569:602  balances[msg.sender] += msg.value */\n      dup1\n      sload\n        /* \"contracts/main.sol\":593:602  msg.value */\n      callvalue\n      swap3\n        /* \"contracts/main.sol\":569:589  balances[msg.sender] */\n      swap1\n        /* \"contracts/main.sol\":569:602  balances[msg.sender] += msg.value */\n      tag_63\n      swap1\n        /* \"contracts/main.sol\":593:602  msg.value */\n      dup5\n      swap1\n        /* \"contracts/main.sol\":569:602  balances[msg.sender] += msg.value */\n      tag_64\n      jump\t// in\n    tag_63:\n      swap1\n      swap2\n      sstore\n      pop\n      pop\n        /* \"contracts/main.sol\":525:609  function deposit() public payable {... */\n      jump\t// out\n        /* \"@openzeppelin/contracts/access/Ownable.sol\":2081:2279  function transferOwnership(address newOwner) public virtual onlyOwner {... */\n    tag_39:\n        /* \"@openzeppelin/contracts/access/Ownable.sol\":1094:1107  _checkOwner() */\n      tag_66\n        /* \"@openzeppelin/contracts/access/Ownable.sol\":1094:1105  _checkOwner */\n      tag_57\n        /* \"@openzeppelin/contracts/access/Ownable.sol\":1094:1107  _checkOwner() */\n      jump\t// in\n    tag_66:\n      sub(shl(0xa0, 0x01), 0x01)\n        /* \"@openzeppelin/contracts/access/Ownable.sol\":2169:2191  newOwner != address(0) */\n      dup2\n      and\n        /* \"@openzeppelin/contracts/access/Ownable.sol\":2161:2234  require(newOwner != address(0), \"Ownable: new owner is the zero address\") */\n      tag_68\n      jumpi\n      mload(0x40)\n      shl(0xe5, 0x461bcd)\n      dup2\n      mstore\n        /* \"#utility.yul\":2450:2452   */\n      0x20\n        /* \"@openzeppelin/contracts/access/Ownable.sol\":2161:2234  require(newOwner != address(0), \"Ownable: new owner is the zero address\") */\n      0x04\n      dup3\n      add\n        /* \"#utility.yul\":2432:2453   */\n      mstore\n        /* \"#utility.yul\":2489:2491   */\n      0x26\n        /* \"#utility.yul\":2469:2487   */\n      0x24\n      dup3\n      add\n        /* \"#utility.yul\":2462:2492   */\n      mstore\n        /* \"#utility.yul\":2528:2562   */\n      0x4f776e61626c653a206e6577206f776e657220697320746865207a65726f2061\n        /* \"#utility.yul\":2508:2526   */\n      0x44\n      dup3\n      add\n        /* \"#utility.yul\":2501:2563   */\n      mstore\n      shl(0xd0, 0x646472657373)\n        /* \"#utility.yul\":2579:2597   */\n      0x64\n      dup3\n      add\n        /* \"#utility.yul\":2572:2608   */\n      mstore\n        /* \"#utility.yul\":2625:2644   */\n      0x84\n      add\n        /* \"@openzeppelin/contracts/access/Ownable.sol\":2161:2234  require(newOwner != address(0), \"Ownable: new owner is the zero address\") */\n      tag_43\n        /* \"#utility.yul\":2248:2650   */\n      jump\n        /* \"@openzeppelin/contracts/access/Ownable.sol\":2161:2234  require(newOwner != address(0), \"Ownable: new owner is the zero address\") */\n    tag_68:\n        /* \"@openzeppelin/contracts/access/Ownable.sol\":2244:2272  _transferOwnership(newOwner) */\n      tag_71\n        /* \"@openzeppelin/contracts/access/Ownable.sol\":2263:2271  newOwner */\n      dup2\n        /* \"@openzeppelin/contracts/access/Ownable.sol\":2244:2262  _transferOwnership */\n      tag_60\n        /* \"@openzeppelin/contracts/access/Ownable.sol\":2244:2272  _transferOwnership(newOwner) */\n      jump\t// in\n    tag_71:\n        /* \"@openzeppelin/contracts/access/Ownable.sol\":2081:2279  function transferOwnership(address newOwner) public virtual onlyOwner {... */\n      pop\n      jump\t// out\n        /* \"@openzeppelin/contracts/access/Ownable.sol\":1359:1489  function _checkOwner() internal view virtual {... */\n    tag_57:\n        /* \"@openzeppelin/contracts/access/Ownable.sol\":1247:1254  address */\n      0x00\n        /* \"@openzeppelin/contracts/access/Ownable.sol\":1273:1279  _owner */\n      sload\n      sub(shl(0xa0, 0x01), 0x01)\n      and\n        /* \"@openzeppelin/contracts/utils/Context.sol\":719:729  msg.sender */\n      caller\n        /* \"@openzeppelin/contracts/access/Ownable.sol\":1422:1445  owner() == _msgSender() */\n      eq\n        /* \"@openzeppelin/contracts/access/Ownable.sol\":1414:1482  require(owner() == _msgSender(), \"Ownable: caller is not the owner\") */\n      tag_59\n      jumpi\n      mload(0x40)\n      shl(0xe5, 0x461bcd)\n      dup2\n      mstore\n        /* \"#utility.yul\":2857:2859   */\n      0x20\n        /* \"@openzeppelin/contracts/access/Ownable.sol\":1414:1482  require(owner() == _msgSender(), \"Ownable: caller is not the owner\") */\n      0x04\n      dup3\n      add\n        /* \"#utility.yul\":2839:2860   */\n      dup2\n      swap1\n      mstore\n        /* \"#utility.yul\":2876:2894   */\n      0x24\n      dup3\n      add\n        /* \"#utility.yul\":2869:2899   */\n      mstore\n        /* \"#utility.yul\":2935:2969   */\n      0x4f776e61626c653a2063616c6c6572206973206e6f7420746865206f776e6572\n        /* \"#utility.yul\":2915:2933   */\n      0x44\n      dup3\n      add\n        /* \"#utility.yul\":2908:2970   */\n      mstore\n        /* \"#utility.yul\":2987:3005   */\n      0x64\n      add\n        /* \"@openzeppelin/contracts/access/Ownable.sol\":1414:1482  require(owner() == _msgSender(), \"Ownable: caller is not the owner\") */\n      tag_43\n        /* \"#utility.yul\":2655:3011   */\n      jump\n        /* \"@openzeppelin/contracts/access/Ownable.sol\":2433:2620  function _transferOwnership(address newOwner) internal virtual {... */\n    tag_60:\n        /* \"@openzeppelin/contracts/access/Ownable.sol\":2506:2522  address oldOwner */\n      0x00\n        /* \"@openzeppelin/contracts/access/Ownable.sol\":2525:2531  _owner */\n      dup1\n      sload\n      sub(shl(0xa0, 0x01), 0x01)\n        /* \"@openzeppelin/contracts/access/Ownable.sol\":2541:2558  _owner = newOwner */\n      dup4\n      dup2\n      and\n      not(sub(shl(0xa0, 0x01), 0x01))\n      dup4\n      and\n      dup2\n      or\n      dup5\n      sstore\n        /* \"@openzeppelin/contracts/access/Ownable.sol\":2573:2613  OwnershipTransferred(oldOwner, newOwner) */\n      mload(0x40)\n        /* \"@openzeppelin/contracts/access/Ownable.sol\":2525:2531  _owner */\n      swap2\n      swap1\n      swap3\n      and\n      swap3\n      dup4\n      swap2\n        /* \"@openzeppelin/contracts/access/Ownable.sol\":2573:2613  OwnershipTransferred(oldOwner, newOwner) */\n      0x8be0079c531659141344cd1fd0a4f28419497f9722a3daafe3b4186f6b6457e0\n      swap2\n        /* \"@openzeppelin/contracts/access/Ownable.sol\":2506:2522  address oldOwner */\n      swap1\n        /* \"@openzeppelin/contracts/access/Ownable.sol\":2573:2613  OwnershipTransferred(oldOwner, newOwner) */\n      log3\n        /* \"@openzeppelin/contracts/access/Ownable.sol\":2496:2620  {... */\n      pop\n        /* \"@openzeppelin/contracts/access/Ownable.sol\":2433:2620  function _transferOwnership(address newOwner) internal virtual {... */\n      pop\n      jump\t// out\n        /* \"#utility.yul\":196:482   */\n    tag_18:\n        /* \"#utility.yul\":255:261   */\n      0x00\n        /* \"#utility.yul\":308:310   */\n      0x20\n        /* \"#utility.yul\":296:305   */\n      dup3\n        /* \"#utility.yul\":287:294   */\n      dup5\n        /* \"#utility.yul\":283:306   */\n      sub\n        /* \"#utility.yul\":279:311   */\n      slt\n        /* \"#utility.yul\":276:328   */\n      iszero\n      tag_85\n      jumpi\n        /* \"#utility.yul\":324:325   */\n      0x00\n        /* \"#utility.yul\":321:322   */\n      dup1\n        /* \"#utility.yul\":314:326   */\n      revert\n        /* \"#utility.yul\":276:328   */\n    tag_85:\n        /* \"#utility.yul\":350:373   */\n      dup2\n      calldataload\n      sub(shl(0xa0, 0x01), 0x01)\n        /* \"#utility.yul\":402:433   */\n      dup2\n      and\n        /* \"#utility.yul\":392:434   */\n      dup2\n      eq\n        /* \"#utility.yul\":382:452   */\n      tag_86\n      jumpi\n        /* \"#utility.yul\":448:449   */\n      0x00\n        /* \"#utility.yul\":445:446   */\n      dup1\n        /* \"#utility.yul\":438:450   */\n      revert\n        /* \"#utility.yul\":382:452   */\n    tag_86:\n        /* \"#utility.yul\":471:476   */\n      swap4\n        /* \"#utility.yul\":196:482   */\n      swap3\n      pop\n      pop\n      pop\n      jump\t// out\n        /* \"#utility.yul\":487:667   */\n    tag_24:\n        /* \"#utility.yul\":546:552   */\n      0x00\n        /* \"#utility.yul\":599:601   */\n      0x20\n        /* \"#utility.yul\":587:596   */\n      dup3\n        /* \"#utility.yul\":578:585   */\n      dup5\n        /* \"#utility.yul\":574:597   */\n      sub\n        /* \"#utility.yul\":570:602   */\n      slt\n        /* \"#utility.yul\":567:619   */\n      iszero\n      tag_88\n      jumpi\n        /* \"#utility.yul\":615:616   */\n      0x00\n        /* \"#utility.yul\":612:613   */\n      dup1\n        /* \"#utility.yul\":605:617   */\n      revert\n        /* \"#utility.yul\":567:619   */\n    tag_88:\n      pop\n        /* \"#utility.yul\":638:661   */\n      calldataload\n      swap2\n        /* \"#utility.yul\":487:667   */\n      swap1\n      pop\n      jump\t// out\n        /* \"#utility.yul\":1240:1367   */\n    tag_81:\n        /* \"#utility.yul\":1301:1311   */\n      0x4e487b71\n        /* \"#utility.yul\":1296:1299   */\n      0xe0\n        /* \"#utility.yul\":1292:1312   */\n      shl\n        /* \"#utility.yul\":1289:1290   */\n      0x00\n        /* \"#utility.yul\":1282:1313   */\n      mstore\n        /* \"#utility.yul\":1332:1336   */\n      0x11\n        /* \"#utility.yul\":1329:1330   */\n      0x04\n        /* \"#utility.yul\":1322:1337   */\n      mstore\n        /* \"#utility.yul\":1356:1360   */\n      0x24\n        /* \"#utility.yul\":1353:1354   */\n      0x00\n        /* \"#utility.yul\":1346:1361   */\n      revert\n        /* \"#utility.yul\":1372:1500   */\n    tag_46:\n        /* \"#utility.yul\":1439:1448   */\n      dup2\n      dup2\n      sub\n        /* \"#utility.yul\":1460:1471   */\n      dup2\n      dup2\n      gt\n        /* \"#utility.yul\":1457:1494   */\n      iszero\n      tag_94\n      jumpi\n        /* \"#utility.yul\":1474:1492   */\n      tag_94\n      tag_81\n      jump\t// in\n    tag_94:\n        /* \"#utility.yul\":1372:1500   */\n      swap3\n      swap2\n      pop\n      pop\n      jump\t// out\n        /* \"#utility.yul\":2118:2243   */\n    tag_64:\n        /* \"#utility.yul\":2183:2192   */\n      dup1\n      dup3\n      add\n        /* \"#utility.yul\":2204:2214   */\n      dup1\n      dup3\n      gt\n        /* \"#utility.yul\":2201:2237   */\n      iszero\n      tag_94\n      jumpi\n        /* \"#utility.yul\":2217:2235   */\n      tag_94\n      tag_81\n      jump\t// in\n\n    auxdata: 0xa26469706673582212203fb6a8bb6fea4b3aa44af0abc6868bfc18a21f5ef143068ac610b0fab30e356164736f6c63430008100033\n}\n",
				"bytecode": {
					"linkReferences": {},
					"object": "608060405234801561001057600080fd5b5061001a3361001f565b61006f565b600080546001600160a01b038381166001600160a01b0319831681178455604051919092169283917f8be0079c531659141344cd1fd0a4f28419497f9722a3daafe3b4186f6b6457e09190a35050565b61049f8061007e6000396000f3fe6080604052600436106100705760003560e01c8063715018a61161004e578063715018a6146100e65780638da5cb5b146100fb578063d0e30db014610123578063f2fde38b1461012b57600080fd5b80631a0843c01461007557806327e235e3146100975780632e1a7d4d146100c4575b600080fd5b34801561008157600080fd5b50475b6040519081526020015b60405180910390f35b3480156100a357600080fd5b506100846100b23660046103de565b60016020526000908152604090205481565b3480156100d057600080fd5b506100e46100df36600461040e565b61014b565b005b3480156100f257600080fd5b506100e4610281565b34801561010757600080fd5b506000546040516001600160a01b03909116815260200161008e565b6100e4610295565b34801561013757600080fd5b506100e46101463660046103de565b6102bb565b336000908152600160205260409020548111156101af5760405162461bcd60e51b815260206004820152601f60248201527f496e73756666696369656e742066756e647320746f207769746864726177210060448201526064015b60405180910390fd5b33600090815260016020526040812080548392906101ce90849061043d565b9091555050604051631cd95b9d60e21b81526000903390839060040160006040518083038185875af1925050503d8060008114610227576040519150601f19603f3d011682016040523d82523d6000602084013e61022c565b606091505b505090508061027d5760405162461bcd60e51b815260206004820152601a60248201527f4661696c656420746f20776974686472617720616d6f756e742100000000000060448201526064016101a6565b5050565b610289610334565b610293600061038e565b565b33600090815260016020526040812080543492906102b4908490610456565b9091555050565b6102c3610334565b6001600160a01b0381166103285760405162461bcd60e51b815260206004820152602660248201527f4f776e61626c653a206e6577206f776e657220697320746865207a65726f206160448201526564647265737360d01b60648201526084016101a6565b6103318161038e565b50565b6000546001600160a01b031633146102935760405162461bcd60e51b815260206004820181905260248201527f4f776e61626c653a2063616c6c6572206973206e6f7420746865206f776e657260448201526064016101a6565b600080546001600160a01b038381166001600160a01b0319831681178455604051919092169283917f8be0079c531659141344cd1fd0a4f28419497f9722a3daafe3b4186f6b6457e09190a35050565b6000602082840312156103f057600080fd5b81356001600160a01b038116811461040757600080fd5b9392505050565b60006020828403121561042057600080fd5b5035919050565b634e487b7160e01b600052601160045260246000fd5b8181038181111561045057610450610427565b92915050565b808201808211156104505761045061042756fea26469706673582212203fb6a8bb6fea4b3aa44af0abc6868bfc18a21f5ef143068ac610b0fab30e356164736f6c63430008100033",
					"opcodes": "PUSH1 0x80 PUSH1 0x40 MSTORE CALLVALUE DUP1 ISZERO PUSH2 0x10 JUMPI PUSH1 0x0 DUP1 REVERT JUMPDEST POP PUSH2 0x1A CALLER PUSH2 0x1F JUMP JUMPDEST PUSH2 0x6F JUMP JUMPDEST PUSH1 0x0 DUP1 SLOAD PUSH1 0x1 PUSH1 0x1 PUSH1 0xA0 SHL SUB DUP4 DUP2 AND PUSH1 0x1 PUSH1 0x1 PUSH1 0xA0 SHL SUB NOT DUP4 AND DUP2 OR DUP5 SSTORE PUSH1 0x40 MLOAD SWAP2 SWAP1 SWAP3 AND SWAP3 DUP4 SWAP2 PUSH32 0x8BE0079C531659141344CD1FD0A4F28419497F9722A3DAAFE3B4186F6B6457E0 SWAP2 SWAP1 LOG3 POP POP JUMP JUMPDEST PUSH2 0x49F DUP1 PUSH2 0x7E PUSH1 0x0 CODECOPY PUSH1 0x0 RETURN INVALID PUSH1 0x80 PUSH1 0x40 MSTORE PUSH1 0x4 CALLDATASIZE LT PUSH2 0x70 JUMPI PUSH1 0x0 CALLDATALOAD PUSH1 0xE0 SHR DUP1 PUSH4 0x715018A6 GT PUSH2 0x4E JUMPI DUP1 PUSH4 0x715018A6 EQ PUSH2 0xE6 JUMPI DUP1 PUSH4 0x8DA5CB5B EQ PUSH2 0xFB JUMPI DUP1 PUSH4 0xD0E30DB0 EQ PUSH2 0x123 JUMPI DUP1 PUSH4 0xF2FDE38B EQ PUSH2 0x12B JUMPI PUSH1 0x0 DUP1 REVERT JUMPDEST DUP1 PUSH4 0x1A0843C0 EQ PUSH2 0x75 JUMPI DUP1 PUSH4 0x27E235E3 EQ PUSH2 0x97 JUMPI DUP1 PUSH4 0x2E1A7D4D EQ PUSH2 0xC4 JUMPI JUMPDEST PUSH1 0x0 DUP1 REVERT JUMPDEST CALLVALUE DUP1 ISZERO PUSH2 0x81 JUMPI PUSH1 0x0 DUP1 REVERT JUMPDEST POP SELFBALANCE JUMPDEST PUSH1 0x40 MLOAD SWAP1 DUP2 MSTORE PUSH1 0x20 ADD JUMPDEST PUSH1 0x40 MLOAD DUP1 SWAP2 SUB SWAP1 RETURN JUMPDEST CALLVALUE DUP1 ISZERO PUSH2 0xA3 JUMPI PUSH1 0x0 DUP1 REVERT JUMPDEST POP PUSH2 0x84 PUSH2 0xB2 CALLDATASIZE PUSH1 0x4 PUSH2 0x3DE JUMP JUMPDEST PUSH1 0x1 PUSH1 0x20 MSTORE PUSH1 0x0 SWAP1 DUP2 MSTORE PUSH1 0x40 SWAP1 KECCAK256 SLOAD DUP2 JUMP JUMPDEST CALLVALUE DUP1 ISZERO PUSH2 0xD0 JUMPI PUSH1 0x0 DUP1 REVERT JUMPDEST POP PUSH2 0xE4 PUSH2 0xDF CALLDATASIZE PUSH1 0x4 PUSH2 0x40E JUMP JUMPDEST PUSH2 0x14B JUMP JUMPDEST STOP JUMPDEST CALLVALUE DUP1 ISZERO PUSH2 0xF2 JUMPI PUSH1 0x0 DUP1 REVERT JUMPDEST POP PUSH2 0xE4 PUSH2 0x281 JUMP JUMPDEST CALLVALUE DUP1 ISZERO PUSH2 0x107 JUMPI PUSH1 0x0 DUP1 REVERT JUMPDEST POP PUSH1 0x0 SLOAD PUSH1 0x40 MLOAD PUSH1 0x1 PUSH1 0x1 PUSH1 0xA0 SHL SUB SWAP1 SWAP2 AND DUP2 MSTORE PUSH1 0x20 ADD PUSH2 0x8E JUMP JUMPDEST PUSH2 0xE4 PUSH2 0x295 JUMP JUMPDEST CALLVALUE DUP1 ISZERO PUSH2 0x137 JUMPI PUSH1 0x0 DUP1 REVERT JUMPDEST POP PUSH2 0xE4 PUSH2 0x146 CALLDATASIZE PUSH1 0x4 PUSH2 0x3DE JUMP JUMPDEST PUSH2 0x2BB JUMP JUMPDEST CALLER PUSH1 0x0 SWAP1 DUP2 MSTORE PUSH1 0x1 PUSH1 0x20 MSTORE PUSH1 0x40 SWAP1 KECCAK256 SLOAD DUP2 GT ISZERO PUSH2 0x1AF JUMPI PUSH1 0x40 MLOAD PUSH3 0x461BCD PUSH1 0xE5 SHL DUP2 MSTORE PUSH1 0x20 PUSH1 0x4 DUP3 ADD MSTORE PUSH1 0x1F PUSH1 0x24 DUP3 ADD MSTORE PUSH32 0x496E73756666696369656E742066756E647320746F2077697468647261772100 PUSH1 0x44 DUP3 ADD MSTORE PUSH1 0x64 ADD JUMPDEST PUSH1 0x40 MLOAD DUP1 SWAP2 SUB SWAP1 REVERT JUMPDEST CALLER PUSH1 0x0 SWAP1 DUP2 MSTORE PUSH1 0x1 PUSH1 0x20 MSTORE PUSH1 0x40 DUP2 KECCAK256 DUP1 SLOAD DUP4 SWAP3 SWAP1 PUSH2 0x1CE SWAP1 DUP5 SWAP1 PUSH2 0x43D JUMP JUMPDEST SWAP1 SWAP2 SSTORE POP POP PUSH1 0x40 MLOAD PUSH4 0x1CD95B9D PUSH1 0xE2 SHL DUP2 MSTORE PUSH1 0x0 SWAP1 CALLER SWAP1 DUP4 SWAP1 PUSH1 0x4 ADD PUSH1 0x0 PUSH1 0x40 MLOAD DUP1 DUP4 SUB DUP2 DUP6 DUP8 GAS CALL SWAP3 POP POP POP RETURNDATASIZE DUP1 PUSH1 0x0 DUP2 EQ PUSH2 0x227 JUMPI PUSH1 0x40 MLOAD SWAP2 POP PUSH1 0x1F NOT PUSH1 0x3F RETURNDATASIZE ADD AND DUP3 ADD PUSH1 0x40 MSTORE RETURNDATASIZE DUP3 MSTORE RETURNDATASIZE PUSH1 0x0 PUSH1 0x20 DUP5 ADD RETURNDATACOPY PUSH2 0x22C JUMP JUMPDEST PUSH1 0x60 SWAP2 POP JUMPDEST POP POP SWAP1 POP DUP1 PUSH2 0x27D JUMPI PUSH1 0x40 MLOAD PUSH3 0x461BCD PUSH1 0xE5 SHL DUP2 MSTORE PUSH1 0x20 PUSH1 0x4 DUP3 ADD MSTORE PUSH1 0x1A PUSH1 0x24 DUP3 ADD MSTORE PUSH32 0x4661696C656420746F20776974686472617720616D6F756E7421000000000000 PUSH1 0x44 DUP3 ADD MSTORE PUSH1 0x64 ADD PUSH2 0x1A6 JUMP JUMPDEST POP POP JUMP JUMPDEST PUSH2 0x289 PUSH2 0x334 JUMP JUMPDEST PUSH2 0x293 PUSH1 0x0 PUSH2 0x38E JUMP JUMPDEST JUMP JUMPDEST CALLER PUSH1 0x0 SWAP1 DUP2 MSTORE PUSH1 0x1 PUSH1 0x20 MSTORE PUSH1 0x40 DUP2 KECCAK256 DUP1 SLOAD CALLVALUE SWAP3 SWAP1 PUSH2 0x2B4 SWAP1 DUP5 SWAP1 PUSH2 0x456 JUMP JUMPDEST SWAP1 SWAP2 SSTORE POP POP JUMP JUMPDEST PUSH2 0x2C3 PUSH2 0x334 JUMP JUMPDEST PUSH1 0x1 PUSH1 0x1 PUSH1 0xA0 SHL SUB DUP2 AND PUSH2 0x328 JUMPI PUSH1 0x40 MLOAD PUSH3 0x461BCD PUSH1 0xE5 SHL DUP2 MSTORE PUSH1 0x20 PUSH1 0x4 DUP3 ADD MSTORE PUSH1 0x26 PUSH1 0x24 DUP3 ADD MSTORE PUSH32 0x4F776E61626C653A206E6577206F776E657220697320746865207A65726F2061 PUSH1 0x44 DUP3 ADD MSTORE PUSH6 0x646472657373 PUSH1 0xD0 SHL PUSH1 0x64 DUP3 ADD MSTORE PUSH1 0x84 ADD PUSH2 0x1A6 JUMP JUMPDEST PUSH2 0x331 DUP2 PUSH2 0x38E JUMP JUMPDEST POP JUMP JUMPDEST PUSH1 0x0 SLOAD PUSH1 0x1 PUSH1 0x1 PUSH1 0xA0 SHL SUB AND CALLER EQ PUSH2 0x293 JUMPI PUSH1 0x40 MLOAD PUSH3 0x461BCD PUSH1 0xE5 SHL DUP2 MSTORE PUSH1 0x20 PUSH1 0x4 DUP3 ADD DUP2 SWAP1 MSTORE PUSH1 0x24 DUP3 ADD MSTORE PUSH32 0x4F776E61626C653A2063616C6C6572206973206E6F7420746865206F776E6572 PUSH1 0x44 DUP3 ADD MSTORE PUSH1 0x64 ADD PUSH2 0x1A6 JUMP JUMPDEST PUSH1 0x0 DUP1 SLOAD PUSH1 0x1 PUSH1 0x1 PUSH1 0xA0 SHL SUB DUP4 DUP2 AND PUSH1 0x1 PUSH1 0x1 PUSH1 0xA0 SHL SUB NOT DUP4 AND DUP2 OR DUP5 SSTORE PUSH1 0x40 MLOAD SWAP2 SWAP1 SWAP3 AND SWAP3 DUP4 SWAP2 PUSH32 0x8BE0079C531659141344CD1FD0A4F28419497F9722A3DAAFE3B4186F6B6457E0 SWAP2 SWAP1 LOG3 POP POP JUMP JUMPDEST PUSH1 0x0 PUSH1 0x20 DUP3 DUP5 SUB SLT ISZERO PUSH2 0x3F0 JUMPI PUSH1 0x0 DUP1 REVERT JUMPDEST DUP2 CALLDATALOAD PUSH1 0x1 PUSH1 0x1 PUSH1 0xA0 SHL SUB DUP2 AND DUP2 EQ PUSH2 0x407 JUMPI PUSH1 0x0 DUP1 REVERT JUMPDEST SWAP4 SWAP3 POP POP POP JUMP JUMPDEST PUSH1 0x0 PUSH1 0x20 DUP3 DUP5 SUB SLT ISZERO PUSH2 0x420 JUMPI PUSH1 0x0 DUP1 REVERT JUMPDEST POP CALLDATALOAD SWAP2 SWAP1 POP JUMP JUMPDEST PUSH4 0x4E487B71 PUSH1 0xE0 SHL PUSH1 0x0 MSTORE PUSH1 0x11 PUSH1 0x4 MSTORE PUSH1 0x24 PUSH1 0x0 REVERT JUMPDEST DUP2 DUP2 SUB DUP2 DUP2 GT ISZERO PUSH2 0x450 JUMPI PUSH2 0x450 PUSH2 0x427 JUMP JUMPDEST SWAP3 SWAP2 POP POP JUMP JUMPDEST DUP1 DUP3 ADD DUP1 DUP3 GT ISZERO PUSH2 0x450 JUMPI PUSH2 0x450 PUSH2 0x427 JUMP INVALID LOG2 PUSH5 0x6970667358 0x22 SLT KECCAK256 EXTCODEHASH 0xB6 0xA8 0xBB PUSH16 0xEA4B3AA44AF0ABC6868BFC18A21F5EF1 NUMBER MOD DUP11 0xC6 LT 0xB0 STATICCALL 0xB3 0xE CALLDATALOAD PUSH2 0x6473 PUSH16 0x6C634300081000330000000000000000 "
				},
				"gasEstimates": {
					"creation": {
						"codeDepositCost": "236600",
						"executionCost": "26116",
						"totalCost": "262716"
					},
					"external": {
						"balances(address)": "2496",
						"deposit()": "24534",
						"getCasinoBalance()": "173",
						"owner()": "2323",
						"renounceOwnership()": "infinite",
						"transferOwnership(address)": "28364",
						"withdraw(uint256)": "infinite"
					}
				},
				"methodIdentifiers": {
					"balances(address)": "27e235e3",
					"deposit()": "d0e30db0",
					"getCasinoBalance()": "1a0843c0",
					"owner()": "8da5cb5b",
					"renounceOwnership()": "715018a6",
					"transferOwnership(address)": "f2fde38b",
					"withdraw(uint256)": "2e1a7d4d"
				}
			},
			"storageLayout": {
				"storage": [
					{
						"astId": 7,
						"contract": "contracts/main.sol:Casino",
						"label": "_owner",
						"offset": 0,
						"slot": "0",
						"type": "t_address"
					},
					{
						"astId": 143,
						"contract": "contracts/main.sol:Casino",
						"label": "balances",
						"offset": 0,
						"slot": "1",
						"type": "t_mapping(t_address,t_uint256)"
					}
				],
				"types": {
					"t_address": {
						"encoding": "inplace",
						"label": "address",
						"numberOfBytes": "20"
					},
					"t_mapping(t_address,t_uint256)": {
						"encoding": "mapping",
						"key": "t_address",
						"label": "mapping(address => uint256)",
						"numberOfBytes": "32",
						"value": "t_uint256"
					},
					"t_uint256": {
						"encoding": "inplace",
						"label": "uint256",
						"numberOfBytes": "32"
					}
				}
			},
			"userdoc": {
				"kind": "user",
				"methods": {},
				"version": 1
			}
		}
	}
}