{
	"contracts/main.sol": {
		"Casino": {
			"abi": [
				{
					"anonymous": false,
					"inputs": [
						{
							"indexed": true,
							"internalType": "address",
							"name": "previousOwner",
							"type": "address"
						},
						{
							"indexed": true,
							"internalType": "address",
							"name": "newOwner",
							"type": "address"
						}
					],
					"name": "OwnershipTransferred",
					"type": "event"
				},
				{
					"inputs": [
						{
							"internalType": "address",
							"name": "",
							"type": "address"
						}
					],
					"name": "balances",
					"outputs": [
						{
							"internalType": "uint256",
							"name": "",
							"type": "uint256"
						}
					],
					"stateMutability": "view",
					"type": "function"
				},
				{
					"inputs": [],
					"name": "deposit",
					"outputs": [],
					"stateMutability": "payable",
					"type": "function"
				},
				{
					"inputs": [],
					"name": "getCasinoBalance",
					"outputs": [
						{
							"internalType": "uint256",
							"name": "",
							"type": "uint256"
						}
					],
					"stateMutability": "view",
					"type": "function"
				},
				{
					"inputs": [
						{
							"internalType": "address",
							"name": "_user",
							"type": "address"
						}
					],
					"name": "getUserBalance",
					"outputs": [
						{
							"internalType": "uint256",
							"name": "",
							"type": "uint256"
						}
					],
					"stateMutability": "view",
					"type": "function"
				},
				{
					"inputs": [],
					"name": "owner",
					"outputs": [
						{
							"internalType": "address",
							"name": "",
							"type": "address"
						}
					],
					"stateMutability": "view",
					"type": "function"
				},
				{
					"inputs": [],
					"name": "renounceOwnership",
					"outputs": [],
					"stateMutability": "nonpayable",
					"type": "function"
				},
				{
					"inputs": [
						{
							"internalType": "uint256",
							"name": "_guess",
							"type": "uint256"
						},
						{
							"internalType": "uint256",
							"name": "_bet",
							"type": "uint256"
						}
					],
					"name": "rollDice",
					"outputs": [],
					"stateMutability": "nonpayable",
					"type": "function"
				},
				{
					"inputs": [
						{
							"internalType": "address",
							"name": "newOwner",
							"type": "address"
						}
					],
					"name": "transferOwnership",
					"outputs": [],
					"stateMutability": "nonpayable",
					"type": "function"
				},
				{
					"inputs": [
						{
							"internalType": "uint256",
							"name": "_amount",
							"type": "uint256"
						}
					],
					"name": "withdraw",
					"outputs": [],
					"stateMutability": "nonpayable",
					"type": "function"
				}
			],
			"devdoc": {
				"kind": "dev",
				"methods": {
					"owner()": {
						"details": "Returns the address of the current owner."
					},
					"renounceOwnership()": {
						"details": "Leaves the contract without owner. It will not be possible to call `onlyOwner` functions anymore. Can only be called by the current owner. NOTE: Renouncing ownership will leave the contract without an owner, thereby removing any functionality that is only available to the owner."
					},
					"transferOwnership(address)": {
						"details": "Transfers ownership of the contract to a new account (`newOwner`). Can only be called by the current owner."
					}
				},
				"version": 1
			},
			"evm": {
				"assembly": "    /* \"contracts/main.sol\":406:1211  contract Casino is Ownable {... */\n  mstore(0x40, 0x80)\n  callvalue\n  dup1\n  iszero\n  tag_1\n  jumpi\n  0x00\n  dup1\n  revert\ntag_1:\n  pop\n    /* \"@openzeppelin/contracts/access/Ownable.sol\":936:968  _transferOwnership(_msgSender()) */\n  tag_4\n    /* \"@openzeppelin/contracts/utils/Context.sol\":719:729  msg.sender */\n  caller\n    /* \"@openzeppelin/contracts/access/Ownable.sol\":936:954  _transferOwnership */\n  tag_7\n    /* \"@openzeppelin/contracts/access/Ownable.sol\":936:968  _transferOwnership(_msgSender()) */\n  jump\t// in\ntag_4:\n    /* \"contracts/main.sol\":406:1211  contract Casino is Ownable {... */\n  jump(tag_8)\n    /* \"@openzeppelin/contracts/access/Ownable.sol\":2433:2620  function _transferOwnership(address newOwner) internal virtual {... */\ntag_7:\n    /* \"@openzeppelin/contracts/access/Ownable.sol\":2506:2522  address oldOwner */\n  0x00\n    /* \"@openzeppelin/contracts/access/Ownable.sol\":2525:2531  _owner */\n  dup1\n  sload\n  sub(shl(0xa0, 0x01), 0x01)\n    /* \"@openzeppelin/contracts/access/Ownable.sol\":2541:2558  _owner = newOwner */\n  dup4\n  dup2\n  and\n  not(sub(shl(0xa0, 0x01), 0x01))\n  dup4\n  and\n  dup2\n  or\n  dup5\n  sstore\n    /* \"@openzeppelin/contracts/access/Ownable.sol\":2573:2613  OwnershipTransferred(oldOwner, newOwner) */\n  mload(0x40)\n    /* \"@openzeppelin/contracts/access/Ownable.sol\":2525:2531  _owner */\n  swap2\n  swap1\n  swap3\n  and\n  swap3\n  dup4\n  swap2\n    /* \"@openzeppelin/contracts/access/Ownable.sol\":2573:2613  OwnershipTransferred(oldOwner, newOwner) */\n  0x8be0079c531659141344cd1fd0a4f28419497f9722a3daafe3b4186f6b6457e0\n  swap2\n    /* \"@openzeppelin/contracts/access/Ownable.sol\":2506:2522  address oldOwner */\n  swap1\n    /* \"@openzeppelin/contracts/access/Ownable.sol\":2573:2613  OwnershipTransferred(oldOwner, newOwner) */\n  log3\n    /* \"@openzeppelin/contracts/access/Ownable.sol\":2496:2620  {... */\n  pop\n    /* \"@openzeppelin/contracts/access/Ownable.sol\":2433:2620  function _transferOwnership(address newOwner) internal virtual {... */\n  pop\n  jump\t// out\n    /* \"contracts/main.sol\":406:1211  contract Casino is Ownable {... */\ntag_8:\n  dataSize(sub_0)\n  dup1\n  dataOffset(sub_0)\n  0x00\n  codecopy\n  0x00\n  return\nstop\n\nsub_0: assembly {\n        /* \"contracts/main.sol\":406:1211  contract Casino is Ownable {... */\n      mstore(0x40, 0x80)\n      jumpi(tag_1, lt(calldatasize, 0x04))\n      shr(0xe0, calldataload(0x00))\n      dup1\n      0x47734892\n      gt\n      tag_11\n      jumpi\n      dup1\n      0x47734892\n      eq\n      tag_6\n      jumpi\n      dup1\n      0x715018a6\n      eq\n      tag_7\n      jumpi\n      dup1\n      0x8da5cb5b\n      eq\n      tag_8\n      jumpi\n      dup1\n      0xd0e30db0\n      eq\n      tag_9\n      jumpi\n      dup1\n      0xf2fde38b\n      eq\n      tag_10\n      jumpi\n      0x00\n      dup1\n      revert\n    tag_11:\n      dup1\n      0x1a0843c0\n      eq\n      tag_2\n      jumpi\n      dup1\n      0x27e235e3\n      eq\n      tag_3\n      jumpi\n      dup1\n      0x2e1a7d4d\n      eq\n      tag_4\n      jumpi\n      dup1\n      0x370e9161\n      eq\n      tag_5\n      jumpi\n    tag_1:\n      0x00\n      dup1\n      revert\n        /* \"contracts/main.sol\":913:1015  function getCasinoBalance() public view returns(uint256) {... */\n    tag_2:\n      callvalue\n      dup1\n      iszero\n      tag_12\n      jumpi\n      0x00\n      dup1\n      revert\n    tag_12:\n      pop\n        /* \"contracts/main.sol\":987:1008  address(this).balance */\n      selfbalance\n        /* \"contracts/main.sol\":913:1015  function getCasinoBalance() public view returns(uint256) {... */\n    tag_13:\n      mload(0x40)\n        /* \"#utility.yul\":160:185   */\n      swap1\n      dup2\n      mstore\n        /* \"#utility.yul\":148:150   */\n      0x20\n        /* \"#utility.yul\":133:151   */\n      add\n        /* \"contracts/main.sol\":913:1015  function getCasinoBalance() public view returns(uint256) {... */\n    tag_15:\n      mload(0x40)\n      dup1\n      swap2\n      sub\n      swap1\n      return\n        /* \"contracts/main.sol\":478:518  mapping(address=>uint256)public balances */\n    tag_3:\n      callvalue\n      dup1\n      iszero\n      tag_17\n      jumpi\n      0x00\n      dup1\n      revert\n    tag_17:\n      pop\n      tag_13\n      tag_19\n      calldatasize\n      0x04\n      tag_20\n      jump\t// in\n    tag_19:\n      mstore(0x20, 0x01)\n      0x00\n      swap1\n      dup2\n      mstore\n      0x40\n      swap1\n      keccak256\n      sload\n      dup2\n      jump\n        /* \"contracts/main.sol\":615:907  function withdraw(uint256 _amount) public {... */\n    tag_4:\n      callvalue\n      dup1\n      iszero\n      tag_23\n      jumpi\n      0x00\n      dup1\n      revert\n    tag_23:\n      pop\n      tag_24\n      tag_25\n      calldatasize\n      0x04\n      tag_26\n      jump\t// in\n    tag_25:\n      tag_27\n      jump\t// in\n    tag_24:\n      stop\n        /* \"contracts/main.sol\":1135:1206  function rollDice(uint256 _guess, uint256 _bet) public {... */\n    tag_5:\n      callvalue\n      dup1\n      iszero\n      tag_28\n      jumpi\n      0x00\n      dup1\n      revert\n    tag_28:\n      pop\n      tag_24\n      tag_30\n      calldatasize\n      0x04\n      tag_31\n      jump\t// in\n    tag_30:\n        /* \"contracts/main.sol\":657:907  {... */\n      pop\n        /* \"contracts/main.sol\":615:907  function withdraw(uint256 _amount) public {... */\n      pop\n      jump\n        /* \"contracts/main.sol\":1021:1129  function getUserBalance(address _user) public view returns (uint256) {... */\n    tag_6:\n      callvalue\n      dup1\n      iszero\n      tag_33\n      jumpi\n      0x00\n      dup1\n      revert\n    tag_33:\n      pop\n      tag_13\n      tag_35\n      calldatasize\n      0x04\n      tag_20\n      jump\t// in\n    tag_35:\n      sub(shl(0xa0, 0x01), 0x01)\n        /* \"contracts/main.sol\":1107:1122  balances[_user] */\n      and\n        /* \"contracts/main.sol\":1081:1088  uint256 */\n      0x00\n        /* \"contracts/main.sol\":1107:1122  balances[_user] */\n      swap1\n      dup2\n      mstore\n        /* \"contracts/main.sol\":1107:1115  balances */\n      0x01\n        /* \"contracts/main.sol\":1107:1122  balances[_user] */\n      0x20\n      mstore\n      0x40\n      swap1\n      keccak256\n      sload\n      swap1\n        /* \"contracts/main.sol\":1021:1129  function getUserBalance(address _user) public view returns (uint256) {... */\n      jump\n        /* \"@openzeppelin/contracts/access/Ownable.sol\":1831:1932  function renounceOwnership() public virtual onlyOwner {... */\n    tag_7:\n      callvalue\n      dup1\n      iszero\n      tag_38\n      jumpi\n      0x00\n      dup1\n      revert\n    tag_38:\n      pop\n      tag_24\n      tag_40\n      jump\t// in\n        /* \"@openzeppelin/contracts/access/Ownable.sol\":1201:1286  function owner() public view virtual returns (address) {... */\n    tag_8:\n      callvalue\n      dup1\n      iszero\n      tag_41\n      jumpi\n      0x00\n      dup1\n      revert\n    tag_41:\n      pop\n        /* \"@openzeppelin/contracts/access/Ownable.sol\":1247:1254  address */\n      0x00\n        /* \"@openzeppelin/contracts/access/Ownable.sol\":1273:1279  _owner */\n      sload\n        /* \"@openzeppelin/contracts/access/Ownable.sol\":1201:1286  function owner() public view virtual returns (address) {... */\n      mload(0x40)\n      sub(shl(0xa0, 0x01), 0x01)\n        /* \"@openzeppelin/contracts/access/Ownable.sol\":1273:1279  _owner */\n      swap1\n      swap2\n      and\n        /* \"#utility.yul\":1071:1122   */\n      dup2\n      mstore\n        /* \"#utility.yul\":1059:1061   */\n      0x20\n        /* \"#utility.yul\":1044:1062   */\n      add\n        /* \"@openzeppelin/contracts/access/Ownable.sol\":1201:1286  function owner() public view virtual returns (address) {... */\n      tag_15\n        /* \"#utility.yul\":925:1128   */\n      jump\n        /* \"contracts/main.sol\":525:609  function deposit() public payable {... */\n    tag_9:\n      tag_24\n      tag_47\n      jump\t// in\n        /* \"@openzeppelin/contracts/access/Ownable.sol\":2081:2279  function transferOwnership(address newOwner) public virtual onlyOwner {... */\n    tag_10:\n      callvalue\n      dup1\n      iszero\n      tag_48\n      jumpi\n      0x00\n      dup1\n      revert\n    tag_48:\n      pop\n      tag_24\n      tag_50\n      calldatasize\n      0x04\n      tag_20\n      jump\t// in\n    tag_50:\n      tag_51\n      jump\t// in\n        /* \"contracts/main.sol\":615:907  function withdraw(uint256 _amount) public {... */\n    tag_27:\n        /* \"contracts/main.sol\":684:694  msg.sender */\n      caller\n        /* \"contracts/main.sol\":675:695  balances[msg.sender] */\n      0x00\n      swap1\n      dup2\n      mstore\n        /* \"contracts/main.sol\":675:683  balances */\n      0x01\n        /* \"contracts/main.sol\":675:695  balances[msg.sender] */\n      0x20\n      mstore\n      0x40\n      swap1\n      keccak256\n      sload\n        /* \"contracts/main.sol\":675:706  balances[msg.sender] >= _amount */\n      dup2\n      gt\n      iszero\n        /* \"contracts/main.sol\":667:742  require(balances[msg.sender] >= _amount, \"Insufficient funds to withdraw!\") */\n      tag_54\n      jumpi\n      mload(0x40)\n      shl(0xe5, 0x461bcd)\n      dup2\n      mstore\n        /* \"#utility.yul\":1335:1337   */\n      0x20\n        /* \"contracts/main.sol\":667:742  require(balances[msg.sender] >= _amount, \"Insufficient funds to withdraw!\") */\n      0x04\n      dup3\n      add\n        /* \"#utility.yul\":1317:1338   */\n      mstore\n        /* \"#utility.yul\":1374:1376   */\n      0x1f\n        /* \"#utility.yul\":1354:1372   */\n      0x24\n      dup3\n      add\n        /* \"#utility.yul\":1347:1377   */\n      mstore\n        /* \"#utility.yul\":1413:1446   */\n      0x496e73756666696369656e742066756e647320746f2077697468647261772100\n        /* \"#utility.yul\":1393:1411   */\n      0x44\n      dup3\n      add\n        /* \"#utility.yul\":1386:1447   */\n      mstore\n        /* \"#utility.yul\":1464:1482   */\n      0x64\n      add\n        /* \"contracts/main.sol\":667:742  require(balances[msg.sender] >= _amount, \"Insufficient funds to withdraw!\") */\n    tag_55:\n      mload(0x40)\n      dup1\n      swap2\n      sub\n      swap1\n      revert\n    tag_54:\n        /* \"contracts/main.sol\":761:771  msg.sender */\n      caller\n        /* \"contracts/main.sol\":752:772  balances[msg.sender] */\n      0x00\n      swap1\n      dup2\n      mstore\n        /* \"contracts/main.sol\":752:760  balances */\n      0x01\n        /* \"contracts/main.sol\":752:772  balances[msg.sender] */\n      0x20\n      mstore\n      0x40\n      dup2\n      keccak256\n        /* \"contracts/main.sol\":752:783  balances[msg.sender] -= _amount */\n      dup1\n      sload\n        /* \"contracts/main.sol\":776:783  _amount */\n      dup4\n      swap3\n        /* \"contracts/main.sol\":752:772  balances[msg.sender] */\n      swap1\n        /* \"contracts/main.sol\":752:783  balances[msg.sender] -= _amount */\n      tag_57\n      swap1\n        /* \"contracts/main.sol\":776:783  _amount */\n      dup5\n      swap1\n        /* \"contracts/main.sol\":752:783  balances[msg.sender] -= _amount */\n      tag_58\n      jump\t// in\n    tag_57:\n      swap1\n      swap2\n      sstore\n      pop\n      pop\n        /* \"contracts/main.sol\":808:847  msg.sender.call{value: _amount}(\"sent\") */\n      mload(0x40)\n      shl(0xe2, 0x1cd95b9d)\n        /* \"#utility.yul\":1959:1978   */\n      dup2\n      mstore\n        /* \"contracts/main.sol\":794:803  bool sent */\n      0x00\n      swap1\n        /* \"contracts/main.sol\":808:818  msg.sender */\n      caller\n      swap1\n        /* \"contracts/main.sol\":831:838  _amount */\n      dup4\n      swap1\n        /* \"#utility.yul\":2003:2004   */\n      0x04\n        /* \"#utility.yul\":1994:2005   */\n      add\n        /* \"contracts/main.sol\":808:847  msg.sender.call{value: _amount}(\"sent\") */\n      0x00\n      mload(0x40)\n      dup1\n      dup4\n      sub\n      dup2\n      dup6\n      dup8\n      gas\n      call\n      swap3\n      pop\n      pop\n      pop\n      returndatasize\n      dup1\n      0x00\n      dup2\n      eq\n      tag_63\n      jumpi\n      mload(0x40)\n      swap2\n      pop\n      and(add(returndatasize, 0x3f), not(0x1f))\n      dup3\n      add\n      0x40\n      mstore\n      returndatasize\n      dup3\n      mstore\n      returndatasize\n      0x00\n      0x20\n      dup5\n      add\n      returndatacopy\n      jump(tag_62)\n    tag_63:\n      0x60\n      swap2\n      pop\n    tag_62:\n      pop\n        /* \"contracts/main.sol\":793:847  (bool sent,) = msg.sender.call{value: _amount}(\"sent\") */\n      pop\n      swap1\n      pop\n        /* \"contracts/main.sol\":865:869  sent */\n      dup1\n        /* \"contracts/main.sol\":857:900  require(sent, \"Failed to withdraw amount!\") */\n      tag_30\n      jumpi\n      mload(0x40)\n      shl(0xe5, 0x461bcd)\n      dup2\n      mstore\n        /* \"#utility.yul\":2218:2220   */\n      0x20\n        /* \"contracts/main.sol\":857:900  require(sent, \"Failed to withdraw amount!\") */\n      0x04\n      dup3\n      add\n        /* \"#utility.yul\":2200:2221   */\n      mstore\n        /* \"#utility.yul\":2257:2259   */\n      0x1a\n        /* \"#utility.yul\":2237:2255   */\n      0x24\n      dup3\n      add\n        /* \"#utility.yul\":2230:2260   */\n      mstore\n        /* \"#utility.yul\":2296:2324   */\n      0x4661696c656420746f20776974686472617720616d6f756e7421000000000000\n        /* \"#utility.yul\":2276:2294   */\n      0x44\n      dup3\n      add\n        /* \"#utility.yul\":2269:2325   */\n      mstore\n        /* \"#utility.yul\":2342:2360   */\n      0x64\n      add\n        /* \"contracts/main.sol\":857:900  require(sent, \"Failed to withdraw amount!\") */\n      tag_55\n        /* \"#utility.yul\":2016:2366   */\n      jump\n        /* \"@openzeppelin/contracts/access/Ownable.sol\":1831:1932  function renounceOwnership() public virtual onlyOwner {... */\n    tag_40:\n        /* \"@openzeppelin/contracts/access/Ownable.sol\":1094:1107  _checkOwner() */\n      tag_70\n        /* \"@openzeppelin/contracts/access/Ownable.sol\":1094:1105  _checkOwner */\n      tag_71\n        /* \"@openzeppelin/contracts/access/Ownable.sol\":1094:1107  _checkOwner() */\n      jump\t// in\n    tag_70:\n        /* \"@openzeppelin/contracts/access/Ownable.sol\":1895:1925  _transferOwnership(address(0)) */\n      tag_73\n        /* \"@openzeppelin/contracts/access/Ownable.sol\":1922:1923  0 */\n      0x00\n        /* \"@openzeppelin/contracts/access/Ownable.sol\":1895:1913  _transferOwnership */\n      tag_74\n        /* \"@openzeppelin/contracts/access/Ownable.sol\":1895:1925  _transferOwnership(address(0)) */\n      jump\t// in\n    tag_73:\n        /* \"@openzeppelin/contracts/access/Ownable.sol\":1831:1932  function renounceOwnership() public virtual onlyOwner {... */\n      jump\t// out\n        /* \"contracts/main.sol\":525:609  function deposit() public payable {... */\n    tag_47:\n        /* \"contracts/main.sol\":578:588  msg.sender */\n      caller\n        /* \"contracts/main.sol\":569:589  balances[msg.sender] */\n      0x00\n      swap1\n      dup2\n      mstore\n        /* \"contracts/main.sol\":569:577  balances */\n      0x01\n        /* \"contracts/main.sol\":569:589  balances[msg.sender] */\n      0x20\n      mstore\n      0x40\n      dup2\n      keccak256\n        /* \"contracts/main.sol\":569:602  balances[msg.sender] += msg.value */\n      dup1\n      sload\n        /* \"contracts/main.sol\":593:602  msg.value */\n      callvalue\n      swap3\n        /* \"contracts/main.sol\":569:589  balances[msg.sender] */\n      swap1\n        /* \"contracts/main.sol\":569:602  balances[msg.sender] += msg.value */\n      tag_77\n      swap1\n        /* \"contracts/main.sol\":593:602  msg.value */\n      dup5\n      swap1\n        /* \"contracts/main.sol\":569:602  balances[msg.sender] += msg.value */\n      tag_78\n      jump\t// in\n    tag_77:\n      swap1\n      swap2\n      sstore\n      pop\n      pop\n        /* \"contracts/main.sol\":525:609  function deposit() public payable {... */\n      jump\t// out\n        /* \"@openzeppelin/contracts/access/Ownable.sol\":2081:2279  function transferOwnership(address newOwner) public virtual onlyOwner {... */\n    tag_51:\n        /* \"@openzeppelin/contracts/access/Ownable.sol\":1094:1107  _checkOwner() */\n      tag_80\n        /* \"@openzeppelin/contracts/access/Ownable.sol\":1094:1105  _checkOwner */\n      tag_71\n        /* \"@openzeppelin/contracts/access/Ownable.sol\":1094:1107  _checkOwner() */\n      jump\t// in\n    tag_80:\n      sub(shl(0xa0, 0x01), 0x01)\n        /* \"@openzeppelin/contracts/access/Ownable.sol\":2169:2191  newOwner != address(0) */\n      dup2\n      and\n        /* \"@openzeppelin/contracts/access/Ownable.sol\":2161:2234  require(newOwner != address(0), \"Ownable: new owner is the zero address\") */\n      tag_82\n      jumpi\n      mload(0x40)\n      shl(0xe5, 0x461bcd)\n      dup2\n      mstore\n        /* \"#utility.yul\":2703:2705   */\n      0x20\n        /* \"@openzeppelin/contracts/access/Ownable.sol\":2161:2234  require(newOwner != address(0), \"Ownable: new owner is the zero address\") */\n      0x04\n      dup3\n      add\n        /* \"#utility.yul\":2685:2706   */\n      mstore\n        /* \"#utility.yul\":2742:2744   */\n      0x26\n        /* \"#utility.yul\":2722:2740   */\n      0x24\n      dup3\n      add\n        /* \"#utility.yul\":2715:2745   */\n      mstore\n        /* \"#utility.yul\":2781:2815   */\n      0x4f776e61626c653a206e6577206f776e657220697320746865207a65726f2061\n        /* \"#utility.yul\":2761:2779   */\n      0x44\n      dup3\n      add\n        /* \"#utility.yul\":2754:2816   */\n      mstore\n      shl(0xd0, 0x646472657373)\n        /* \"#utility.yul\":2832:2850   */\n      0x64\n      dup3\n      add\n        /* \"#utility.yul\":2825:2861   */\n      mstore\n        /* \"#utility.yul\":2878:2897   */\n      0x84\n      add\n        /* \"@openzeppelin/contracts/access/Ownable.sol\":2161:2234  require(newOwner != address(0), \"Ownable: new owner is the zero address\") */\n      tag_55\n        /* \"#utility.yul\":2501:2903   */\n      jump\n        /* \"@openzeppelin/contracts/access/Ownable.sol\":2161:2234  require(newOwner != address(0), \"Ownable: new owner is the zero address\") */\n    tag_82:\n        /* \"@openzeppelin/contracts/access/Ownable.sol\":2244:2272  _transferOwnership(newOwner) */\n      tag_85\n        /* \"@openzeppelin/contracts/access/Ownable.sol\":2263:2271  newOwner */\n      dup2\n        /* \"@openzeppelin/contracts/access/Ownable.sol\":2244:2262  _transferOwnership */\n      tag_74\n        /* \"@openzeppelin/contracts/access/Ownable.sol\":2244:2272  _transferOwnership(newOwner) */\n      jump\t// in\n    tag_85:\n        /* \"@openzeppelin/contracts/access/Ownable.sol\":2081:2279  function transferOwnership(address newOwner) public virtual onlyOwner {... */\n      pop\n      jump\t// out\n        /* \"@openzeppelin/contracts/access/Ownable.sol\":1359:1489  function _checkOwner() internal view virtual {... */\n    tag_71:\n        /* \"@openzeppelin/contracts/access/Ownable.sol\":1247:1254  address */\n      0x00\n        /* \"@openzeppelin/contracts/access/Ownable.sol\":1273:1279  _owner */\n      sload\n      sub(shl(0xa0, 0x01), 0x01)\n      and\n        /* \"@openzeppelin/contracts/utils/Context.sol\":719:729  msg.sender */\n      caller\n        /* \"@openzeppelin/contracts/access/Ownable.sol\":1422:1445  owner() == _msgSender() */\n      eq\n        /* \"@openzeppelin/contracts/access/Ownable.sol\":1414:1482  require(owner() == _msgSender(), \"Ownable: caller is not the owner\") */\n      tag_73\n      jumpi\n      mload(0x40)\n      shl(0xe5, 0x461bcd)\n      dup2\n      mstore\n        /* \"#utility.yul\":3110:3112   */\n      0x20\n        /* \"@openzeppelin/contracts/access/Ownable.sol\":1414:1482  require(owner() == _msgSender(), \"Ownable: caller is not the owner\") */\n      0x04\n      dup3\n      add\n        /* \"#utility.yul\":3092:3113   */\n      dup2\n      swap1\n      mstore\n        /* \"#utility.yul\":3129:3147   */\n      0x24\n      dup3\n      add\n        /* \"#utility.yul\":3122:3152   */\n      mstore\n        /* \"#utility.yul\":3188:3222   */\n      0x4f776e61626c653a2063616c6c6572206973206e6f7420746865206f776e6572\n        /* \"#utility.yul\":3168:3186   */\n      0x44\n      dup3\n      add\n        /* \"#utility.yul\":3161:3223   */\n      mstore\n        /* \"#utility.yul\":3240:3258   */\n      0x64\n      add\n        /* \"@openzeppelin/contracts/access/Ownable.sol\":1414:1482  require(owner() == _msgSender(), \"Ownable: caller is not the owner\") */\n      tag_55\n        /* \"#utility.yul\":2908:3264   */\n      jump\n        /* \"@openzeppelin/contracts/access/Ownable.sol\":2433:2620  function _transferOwnership(address newOwner) internal virtual {... */\n    tag_74:\n        /* \"@openzeppelin/contracts/access/Ownable.sol\":2506:2522  address oldOwner */\n      0x00\n        /* \"@openzeppelin/contracts/access/Ownable.sol\":2525:2531  _owner */\n      dup1\n      sload\n      sub(shl(0xa0, 0x01), 0x01)\n        /* \"@openzeppelin/contracts/access/Ownable.sol\":2541:2558  _owner = newOwner */\n      dup4\n      dup2\n      and\n      not(sub(shl(0xa0, 0x01), 0x01))\n      dup4\n      and\n      dup2\n      or\n      dup5\n      sstore\n        /* \"@openzeppelin/contracts/access/Ownable.sol\":2573:2613  OwnershipTransferred(oldOwner, newOwner) */\n      mload(0x40)\n        /* \"@openzeppelin/contracts/access/Ownable.sol\":2525:2531  _owner */\n      swap2\n      swap1\n      swap3\n      and\n      swap3\n      dup4\n      swap2\n        /* \"@openzeppelin/contracts/access/Ownable.sol\":2573:2613  OwnershipTransferred(oldOwner, newOwner) */\n      0x8be0079c531659141344cd1fd0a4f28419497f9722a3daafe3b4186f6b6457e0\n      swap2\n        /* \"@openzeppelin/contracts/access/Ownable.sol\":2506:2522  address oldOwner */\n      swap1\n        /* \"@openzeppelin/contracts/access/Ownable.sol\":2573:2613  OwnershipTransferred(oldOwner, newOwner) */\n      log3\n        /* \"@openzeppelin/contracts/access/Ownable.sol\":2496:2620  {... */\n      pop\n        /* \"@openzeppelin/contracts/access/Ownable.sol\":2433:2620  function _transferOwnership(address newOwner) internal virtual {... */\n      pop\n      jump\t// out\n        /* \"#utility.yul\":196:482   */\n    tag_20:\n        /* \"#utility.yul\":255:261   */\n      0x00\n        /* \"#utility.yul\":308:310   */\n      0x20\n        /* \"#utility.yul\":296:305   */\n      dup3\n        /* \"#utility.yul\":287:294   */\n      dup5\n        /* \"#utility.yul\":283:306   */\n      sub\n        /* \"#utility.yul\":279:311   */\n      slt\n        /* \"#utility.yul\":276:328   */\n      iszero\n      tag_99\n      jumpi\n        /* \"#utility.yul\":324:325   */\n      0x00\n        /* \"#utility.yul\":321:322   */\n      dup1\n        /* \"#utility.yul\":314:326   */\n      revert\n        /* \"#utility.yul\":276:328   */\n    tag_99:\n        /* \"#utility.yul\":350:373   */\n      dup2\n      calldataload\n      sub(shl(0xa0, 0x01), 0x01)\n        /* \"#utility.yul\":402:433   */\n      dup2\n      and\n        /* \"#utility.yul\":392:434   */\n      dup2\n      eq\n        /* \"#utility.yul\":382:452   */\n      tag_100\n      jumpi\n        /* \"#utility.yul\":448:449   */\n      0x00\n        /* \"#utility.yul\":445:446   */\n      dup1\n        /* \"#utility.yul\":438:450   */\n      revert\n        /* \"#utility.yul\":382:452   */\n    tag_100:\n        /* \"#utility.yul\":471:476   */\n      swap4\n        /* \"#utility.yul\":196:482   */\n      swap3\n      pop\n      pop\n      pop\n      jump\t// out\n        /* \"#utility.yul\":487:667   */\n    tag_26:\n        /* \"#utility.yul\":546:552   */\n      0x00\n        /* \"#utility.yul\":599:601   */\n      0x20\n        /* \"#utility.yul\":587:596   */\n      dup3\n        /* \"#utility.yul\":578:585   */\n      dup5\n        /* \"#utility.yul\":574:597   */\n      sub\n        /* \"#utility.yul\":570:602   */\n      slt\n        /* \"#utility.yul\":567:619   */\n      iszero\n      tag_102\n      jumpi\n        /* \"#utility.yul\":615:616   */\n      0x00\n        /* \"#utility.yul\":612:613   */\n      dup1\n        /* \"#utility.yul\":605:617   */\n      revert\n        /* \"#utility.yul\":567:619   */\n    tag_102:\n      pop\n        /* \"#utility.yul\":638:661   */\n      calldataload\n      swap2\n        /* \"#utility.yul\":487:667   */\n      swap1\n      pop\n      jump\t// out\n        /* \"#utility.yul\":672:920   */\n    tag_31:\n        /* \"#utility.yul\":740:746   */\n      0x00\n        /* \"#utility.yul\":748:754   */\n      dup1\n        /* \"#utility.yul\":801:803   */\n      0x40\n        /* \"#utility.yul\":789:798   */\n      dup4\n        /* \"#utility.yul\":780:787   */\n      dup6\n        /* \"#utility.yul\":776:799   */\n      sub\n        /* \"#utility.yul\":772:804   */\n      slt\n        /* \"#utility.yul\":769:821   */\n      iszero\n      tag_104\n      jumpi\n        /* \"#utility.yul\":817:818   */\n      0x00\n        /* \"#utility.yul\":814:815   */\n      dup1\n        /* \"#utility.yul\":807:819   */\n      revert\n        /* \"#utility.yul\":769:821   */\n    tag_104:\n      pop\n      pop\n        /* \"#utility.yul\":840:863   */\n      dup1\n      calldataload\n      swap3\n        /* \"#utility.yul\":910:912   */\n      0x20\n        /* \"#utility.yul\":895:913   */\n      swap1\n      swap2\n      add\n        /* \"#utility.yul\":882:914   */\n      calldataload\n      swap2\n      pop\n        /* \"#utility.yul\":672:920   */\n      jump\t// out\n        /* \"#utility.yul\":1493:1620   */\n    tag_95:\n        /* \"#utility.yul\":1554:1564   */\n      0x4e487b71\n        /* \"#utility.yul\":1549:1552   */\n      0xe0\n        /* \"#utility.yul\":1545:1565   */\n      shl\n        /* \"#utility.yul\":1542:1543   */\n      0x00\n        /* \"#utility.yul\":1535:1566   */\n      mstore\n        /* \"#utility.yul\":1585:1589   */\n      0x11\n        /* \"#utility.yul\":1582:1583   */\n      0x04\n        /* \"#utility.yul\":1575:1590   */\n      mstore\n        /* \"#utility.yul\":1609:1613   */\n      0x24\n        /* \"#utility.yul\":1606:1607   */\n      0x00\n        /* \"#utility.yul\":1599:1614   */\n      revert\n        /* \"#utility.yul\":1625:1753   */\n    tag_58:\n        /* \"#utility.yul\":1692:1701   */\n      dup2\n      dup2\n      sub\n        /* \"#utility.yul\":1713:1724   */\n      dup2\n      dup2\n      gt\n        /* \"#utility.yul\":1710:1747   */\n      iszero\n      tag_110\n      jumpi\n        /* \"#utility.yul\":1727:1745   */\n      tag_110\n      tag_95\n      jump\t// in\n    tag_110:\n        /* \"#utility.yul\":1625:1753   */\n      swap3\n      swap2\n      pop\n      pop\n      jump\t// out\n        /* \"#utility.yul\":2371:2496   */\n    tag_78:\n        /* \"#utility.yul\":2436:2445   */\n      dup1\n      dup3\n      add\n        /* \"#utility.yul\":2457:2467   */\n      dup1\n      dup3\n      gt\n        /* \"#utility.yul\":2454:2490   */\n      iszero\n      tag_110\n      jumpi\n        /* \"#utility.yul\":2470:2488   */\n      tag_110\n      tag_95\n      jump\t// in\n\n    auxdata: 0xa264697066735822122092d287e25528017f074db500eb79bbef5f946526b53107865a07e1d4bbccfce764736f6c63430008100033\n}\n",
				"bytecode": {
					"linkReferences": {},
					"object": "608060405234801561001057600080fd5b5061001a3361001f565b61006f565b600080546001600160a01b038381166001600160a01b0319831681178455604051919092169283917f8be0079c531659141344cd1fd0a4f28419497f9722a3daafe3b4186f6b6457e09190a35050565b6105288061007e6000396000f3fe6080604052600436106100865760003560e01c80634773489211610059578063477348921461011b578063715018a6146101515780638da5cb5b14610166578063d0e30db01461018e578063f2fde38b1461019657600080fd5b80631a0843c01461008b57806327e235e3146100ad5780632e1a7d4d146100da578063370e9161146100fc575b600080fd5b34801561009757600080fd5b50475b6040519081526020015b60405180910390f35b3480156100b957600080fd5b5061009a6100c8366004610445565b60016020526000908152604090205481565b3480156100e657600080fd5b506100fa6100f5366004610475565b6101b6565b005b34801561010857600080fd5b506100fa61011736600461048e565b5050565b34801561012757600080fd5b5061009a610136366004610445565b6001600160a01b031660009081526001602052604090205490565b34801561015d57600080fd5b506100fa6102e8565b34801561017257600080fd5b506000546040516001600160a01b0390911681526020016100a4565b6100fa6102fc565b3480156101a257600080fd5b506100fa6101b1366004610445565b610322565b3360009081526001602052604090205481111561021a5760405162461bcd60e51b815260206004820152601f60248201527f496e73756666696369656e742066756e647320746f207769746864726177210060448201526064015b60405180910390fd5b33600090815260016020526040812080548392906102399084906104c6565b9091555050604051631cd95b9d60e21b81526000903390839060040160006040518083038185875af1925050503d8060008114610292576040519150601f19603f3d011682016040523d82523d6000602084013e610297565b606091505b50509050806101175760405162461bcd60e51b815260206004820152601a60248201527f4661696c656420746f20776974686472617720616d6f756e74210000000000006044820152606401610211565b6102f061039b565b6102fa60006103f5565b565b336000908152600160205260408120805434929061031b9084906104df565b9091555050565b61032a61039b565b6001600160a01b03811661038f5760405162461bcd60e51b815260206004820152602660248201527f4f776e61626c653a206e6577206f776e657220697320746865207a65726f206160448201526564647265737360d01b6064820152608401610211565b610398816103f5565b50565b6000546001600160a01b031633146102fa5760405162461bcd60e51b815260206004820181905260248201527f4f776e61626c653a2063616c6c6572206973206e6f7420746865206f776e65726044820152606401610211565b600080546001600160a01b038381166001600160a01b0319831681178455604051919092169283917f8be0079c531659141344cd1fd0a4f28419497f9722a3daafe3b4186f6b6457e09190a35050565b60006020828403121561045757600080fd5b81356001600160a01b038116811461046e57600080fd5b9392505050565b60006020828403121561048757600080fd5b5035919050565b600080604083850312156104a157600080fd5b50508035926020909101359150565b634e487b7160e01b600052601160045260246000fd5b818103818111156104d9576104d96104b0565b92915050565b808201808211156104d9576104d96104b056fea264697066735822122092d287e25528017f074db500eb79bbef5f946526b53107865a07e1d4bbccfce764736f6c63430008100033",
					"opcodes": "PUSH1 0x80 PUSH1 0x40 MSTORE CALLVALUE DUP1 ISZERO PUSH2 0x10 JUMPI PUSH1 0x0 DUP1 REVERT JUMPDEST POP PUSH2 0x1A CALLER PUSH2 0x1F JUMP JUMPDEST PUSH2 0x6F JUMP JUMPDEST PUSH1 0x0 DUP1 SLOAD PUSH1 0x1 PUSH1 0x1 PUSH1 0xA0 SHL SUB DUP4 DUP2 AND PUSH1 0x1 PUSH1 0x1 PUSH1 0xA0 SHL SUB NOT DUP4 AND DUP2 OR DUP5 SSTORE PUSH1 0x40 MLOAD SWAP2 SWAP1 SWAP3 AND SWAP3 DUP4 SWAP2 PUSH32 0x8BE0079C531659141344CD1FD0A4F28419497F9722A3DAAFE3B4186F6B6457E0 SWAP2 SWAP1 LOG3 POP POP JUMP JUMPDEST PUSH2 0x528 DUP1 PUSH2 0x7E PUSH1 0x0 CODECOPY PUSH1 0x0 RETURN INVALID PUSH1 0x80 PUSH1 0x40 MSTORE PUSH1 0x4 CALLDATASIZE LT PUSH2 0x86 JUMPI PUSH1 0x0 CALLDATALOAD PUSH1 0xE0 SHR DUP1 PUSH4 0x47734892 GT PUSH2 0x59 JUMPI DUP1 PUSH4 0x47734892 EQ PUSH2 0x11B JUMPI DUP1 PUSH4 0x715018A6 EQ PUSH2 0x151 JUMPI DUP1 PUSH4 0x8DA5CB5B EQ PUSH2 0x166 JUMPI DUP1 PUSH4 0xD0E30DB0 EQ PUSH2 0x18E JUMPI DUP1 PUSH4 0xF2FDE38B EQ PUSH2 0x196 JUMPI PUSH1 0x0 DUP1 REVERT JUMPDEST DUP1 PUSH4 0x1A0843C0 EQ PUSH2 0x8B JUMPI DUP1 PUSH4 0x27E235E3 EQ PUSH2 0xAD JUMPI DUP1 PUSH4 0x2E1A7D4D EQ PUSH2 0xDA JUMPI DUP1 PUSH4 0x370E9161 EQ PUSH2 0xFC JUMPI JUMPDEST PUSH1 0x0 DUP1 REVERT JUMPDEST CALLVALUE DUP1 ISZERO PUSH2 0x97 JUMPI PUSH1 0x0 DUP1 REVERT JUMPDEST POP SELFBALANCE JUMPDEST PUSH1 0x40 MLOAD SWAP1 DUP2 MSTORE PUSH1 0x20 ADD JUMPDEST PUSH1 0x40 MLOAD DUP1 SWAP2 SUB SWAP1 RETURN JUMPDEST CALLVALUE DUP1 ISZERO PUSH2 0xB9 JUMPI PUSH1 0x0 DUP1 REVERT JUMPDEST POP PUSH2 0x9A PUSH2 0xC8 CALLDATASIZE PUSH1 0x4 PUSH2 0x445 JUMP JUMPDEST PUSH1 0x1 PUSH1 0x20 MSTORE PUSH1 0x0 SWAP1 DUP2 MSTORE PUSH1 0x40 SWAP1 KECCAK256 SLOAD DUP2 JUMP JUMPDEST CALLVALUE DUP1 ISZERO PUSH2 0xE6 JUMPI PUSH1 0x0 DUP1 REVERT JUMPDEST POP PUSH2 0xFA PUSH2 0xF5 CALLDATASIZE PUSH1 0x4 PUSH2 0x475 JUMP JUMPDEST PUSH2 0x1B6 JUMP JUMPDEST STOP JUMPDEST CALLVALUE DUP1 ISZERO PUSH2 0x108 JUMPI PUSH1 0x0 DUP1 REVERT JUMPDEST POP PUSH2 0xFA PUSH2 0x117 CALLDATASIZE PUSH1 0x4 PUSH2 0x48E JUMP JUMPDEST POP POP JUMP JUMPDEST CALLVALUE DUP1 ISZERO PUSH2 0x127 JUMPI PUSH1 0x0 DUP1 REVERT JUMPDEST POP PUSH2 0x9A PUSH2 0x136 CALLDATASIZE PUSH1 0x4 PUSH2 0x445 JUMP JUMPDEST PUSH1 0x1 PUSH1 0x1 PUSH1 0xA0 SHL SUB AND PUSH1 0x0 SWAP1 DUP2 MSTORE PUSH1 0x1 PUSH1 0x20 MSTORE PUSH1 0x40 SWAP1 KECCAK256 SLOAD SWAP1 JUMP JUMPDEST CALLVALUE DUP1 ISZERO PUSH2 0x15D JUMPI PUSH1 0x0 DUP1 REVERT JUMPDEST POP PUSH2 0xFA PUSH2 0x2E8 JUMP JUMPDEST CALLVALUE DUP1 ISZERO PUSH2 0x172 JUMPI PUSH1 0x0 DUP1 REVERT JUMPDEST POP PUSH1 0x0 SLOAD PUSH1 0x40 MLOAD PUSH1 0x1 PUSH1 0x1 PUSH1 0xA0 SHL SUB SWAP1 SWAP2 AND DUP2 MSTORE PUSH1 0x20 ADD PUSH2 0xA4 JUMP JUMPDEST PUSH2 0xFA PUSH2 0x2FC JUMP JUMPDEST CALLVALUE DUP1 ISZERO PUSH2 0x1A2 JUMPI PUSH1 0x0 DUP1 REVERT JUMPDEST POP PUSH2 0xFA PUSH2 0x1B1 CALLDATASIZE PUSH1 0x4 PUSH2 0x445 JUMP JUMPDEST PUSH2 0x322 JUMP JUMPDEST CALLER PUSH1 0x0 SWAP1 DUP2 MSTORE PUSH1 0x1 PUSH1 0x20 MSTORE PUSH1 0x40 SWAP1 KECCAK256 SLOAD DUP2 GT ISZERO PUSH2 0x21A JUMPI PUSH1 0x40 MLOAD PUSH3 0x461BCD PUSH1 0xE5 SHL DUP2 MSTORE PUSH1 0x20 PUSH1 0x4 DUP3 ADD MSTORE PUSH1 0x1F PUSH1 0x24 DUP3 ADD MSTORE PUSH32 0x496E73756666696369656E742066756E647320746F2077697468647261772100 PUSH1 0x44 DUP3 ADD MSTORE PUSH1 0x64 ADD JUMPDEST PUSH1 0x40 MLOAD DUP1 SWAP2 SUB SWAP1 REVERT JUMPDEST CALLER PUSH1 0x0 SWAP1 DUP2 MSTORE PUSH1 0x1 PUSH1 0x20 MSTORE PUSH1 0x40 DUP2 KECCAK256 DUP1 SLOAD DUP4 SWAP3 SWAP1 PUSH2 0x239 SWAP1 DUP5 SWAP1 PUSH2 0x4C6 JUMP JUMPDEST SWAP1 SWAP2 SSTORE POP POP PUSH1 0x40 MLOAD PUSH4 0x1CD95B9D PUSH1 0xE2 SHL DUP2 MSTORE PUSH1 0x0 SWAP1 CALLER SWAP1 DUP4 SWAP1 PUSH1 0x4 ADD PUSH1 0x0 PUSH1 0x40 MLOAD DUP1 DUP4 SUB DUP2 DUP6 DUP8 GAS CALL SWAP3 POP POP POP RETURNDATASIZE DUP1 PUSH1 0x0 DUP2 EQ PUSH2 0x292 JUMPI PUSH1 0x40 MLOAD SWAP2 POP PUSH1 0x1F NOT PUSH1 0x3F RETURNDATASIZE ADD AND DUP3 ADD PUSH1 0x40 MSTORE RETURNDATASIZE DUP3 MSTORE RETURNDATASIZE PUSH1 0x0 PUSH1 0x20 DUP5 ADD RETURNDATACOPY PUSH2 0x297 JUMP JUMPDEST PUSH1 0x60 SWAP2 POP JUMPDEST POP POP SWAP1 POP DUP1 PUSH2 0x117 JUMPI PUSH1 0x40 MLOAD PUSH3 0x461BCD PUSH1 0xE5 SHL DUP2 MSTORE PUSH1 0x20 PUSH1 0x4 DUP3 ADD MSTORE PUSH1 0x1A PUSH1 0x24 DUP3 ADD MSTORE PUSH32 0x4661696C656420746F20776974686472617720616D6F756E7421000000000000 PUSH1 0x44 DUP3 ADD MSTORE PUSH1 0x64 ADD PUSH2 0x211 JUMP JUMPDEST PUSH2 0x2F0 PUSH2 0x39B JUMP JUMPDEST PUSH2 0x2FA PUSH1 0x0 PUSH2 0x3F5 JUMP JUMPDEST JUMP JUMPDEST CALLER PUSH1 0x0 SWAP1 DUP2 MSTORE PUSH1 0x1 PUSH1 0x20 MSTORE PUSH1 0x40 DUP2 KECCAK256 DUP1 SLOAD CALLVALUE SWAP3 SWAP1 PUSH2 0x31B SWAP1 DUP5 SWAP1 PUSH2 0x4DF JUMP JUMPDEST SWAP1 SWAP2 SSTORE POP POP JUMP JUMPDEST PUSH2 0x32A PUSH2 0x39B JUMP JUMPDEST PUSH1 0x1 PUSH1 0x1 PUSH1 0xA0 SHL SUB DUP2 AND PUSH2 0x38F JUMPI PUSH1 0x40 MLOAD PUSH3 0x461BCD PUSH1 0xE5 SHL DUP2 MSTORE PUSH1 0x20 PUSH1 0x4 DUP3 ADD MSTORE PUSH1 0x26 PUSH1 0x24 DUP3 ADD MSTORE PUSH32 0x4F776E61626C653A206E6577206F776E657220697320746865207A65726F2061 PUSH1 0x44 DUP3 ADD MSTORE PUSH6 0x646472657373 PUSH1 0xD0 SHL PUSH1 0x64 DUP3 ADD MSTORE PUSH1 0x84 ADD PUSH2 0x211 JUMP JUMPDEST PUSH2 0x398 DUP2 PUSH2 0x3F5 JUMP JUMPDEST POP JUMP JUMPDEST PUSH1 0x0 SLOAD PUSH1 0x1 PUSH1 0x1 PUSH1 0xA0 SHL SUB AND CALLER EQ PUSH2 0x2FA JUMPI PUSH1 0x40 MLOAD PUSH3 0x461BCD PUSH1 0xE5 SHL DUP2 MSTORE PUSH1 0x20 PUSH1 0x4 DUP3 ADD DUP2 SWAP1 MSTORE PUSH1 0x24 DUP3 ADD MSTORE PUSH32 0x4F776E61626C653A2063616C6C6572206973206E6F7420746865206F776E6572 PUSH1 0x44 DUP3 ADD MSTORE PUSH1 0x64 ADD PUSH2 0x211 JUMP JUMPDEST PUSH1 0x0 DUP1 SLOAD PUSH1 0x1 PUSH1 0x1 PUSH1 0xA0 SHL SUB DUP4 DUP2 AND PUSH1 0x1 PUSH1 0x1 PUSH1 0xA0 SHL SUB NOT DUP4 AND DUP2 OR DUP5 SSTORE PUSH1 0x40 MLOAD SWAP2 SWAP1 SWAP3 AND SWAP3 DUP4 SWAP2 PUSH32 0x8BE0079C531659141344CD1FD0A4F28419497F9722A3DAAFE3B4186F6B6457E0 SWAP2 SWAP1 LOG3 POP POP JUMP JUMPDEST PUSH1 0x0 PUSH1 0x20 DUP3 DUP5 SUB SLT ISZERO PUSH2 0x457 JUMPI PUSH1 0x0 DUP1 REVERT JUMPDEST DUP2 CALLDATALOAD PUSH1 0x1 PUSH1 0x1 PUSH1 0xA0 SHL SUB DUP2 AND DUP2 EQ PUSH2 0x46E JUMPI PUSH1 0x0 DUP1 REVERT JUMPDEST SWAP4 SWAP3 POP POP POP JUMP JUMPDEST PUSH1 0x0 PUSH1 0x20 DUP3 DUP5 SUB SLT ISZERO PUSH2 0x487 JUMPI PUSH1 0x0 DUP1 REVERT JUMPDEST POP CALLDATALOAD SWAP2 SWAP1 POP JUMP JUMPDEST PUSH1 0x0 DUP1 PUSH1 0x40 DUP4 DUP6 SUB SLT ISZERO PUSH2 0x4A1 JUMPI PUSH1 0x0 DUP1 REVERT JUMPDEST POP POP DUP1 CALLDATALOAD SWAP3 PUSH1 0x20 SWAP1 SWAP2 ADD CALLDATALOAD SWAP2 POP JUMP JUMPDEST PUSH4 0x4E487B71 PUSH1 0xE0 SHL PUSH1 0x0 MSTORE PUSH1 0x11 PUSH1 0x4 MSTORE PUSH1 0x24 PUSH1 0x0 REVERT JUMPDEST DUP2 DUP2 SUB DUP2 DUP2 GT ISZERO PUSH2 0x4D9 JUMPI PUSH2 0x4D9 PUSH2 0x4B0 JUMP JUMPDEST SWAP3 SWAP2 POP POP JUMP JUMPDEST DUP1 DUP3 ADD DUP1 DUP3 GT ISZERO PUSH2 0x4D9 JUMPI PUSH2 0x4D9 PUSH2 0x4B0 JUMP INVALID LOG2 PUSH5 0x6970667358 0x22 SLT KECCAK256 SWAP3 0xD2 DUP8 0xE2 SSTORE 0x28 ADD PUSH32 0x74DB500EB79BBEF5F946526B53107865A07E1D4BBCCFCE764736F6C63430008 LT STOP CALLER "
				},
				"gasEstimates": {
					"creation": {
						"codeDepositCost": "264000",
						"executionCost": "26147",
						"totalCost": "290147"
					},
					"external": {
						"balances(address)": "2496",
						"deposit()": "24556",
						"getCasinoBalance()": "173",
						"getUserBalance(address)": "2491",
						"owner()": "2345",
						"renounceOwnership()": "infinite",
						"rollDice(uint256,uint256)": "303",
						"transferOwnership(address)": "28386",
						"withdraw(uint256)": "infinite"
					}
				},
				"methodIdentifiers": {
					"balances(address)": "27e235e3",
					"deposit()": "d0e30db0",
					"getCasinoBalance()": "1a0843c0",
					"getUserBalance(address)": "47734892",
					"owner()": "8da5cb5b",
					"renounceOwnership()": "715018a6",
					"rollDice(uint256,uint256)": "370e9161",
					"transferOwnership(address)": "f2fde38b",
					"withdraw(uint256)": "2e1a7d4d"
				}
			},
			"storageLayout": {
				"storage": [
					{
						"astId": 7,
						"contract": "contracts/main.sol:Casino",
						"label": "_owner",
						"offset": 0,
						"slot": "0",
						"type": "t_address"
					},
					{
						"astId": 143,
						"contract": "contracts/main.sol:Casino",
						"label": "balances",
						"offset": 0,
						"slot": "1",
						"type": "t_mapping(t_address,t_uint256)"
					}
				],
				"types": {
					"t_address": {
						"encoding": "inplace",
						"label": "address",
						"numberOfBytes": "20"
					},
					"t_mapping(t_address,t_uint256)": {
						"encoding": "mapping",
						"key": "t_address",
						"label": "mapping(address => uint256)",
						"numberOfBytes": "32",
						"value": "t_uint256"
					},
					"t_uint256": {
						"encoding": "inplace",
						"label": "uint256",
						"numberOfBytes": "32"
					}
				}
			},
			"userdoc": {
				"kind": "user",
				"methods": {},
				"version": 1
			}
		}
	}
}